:0400000080310B2818
:100008007E1480319031042880317E1009008131BE
:10001800DC29A030F8005130F901FA001F30FB014B
:10002800FC00BC23803137268031003A03190800D0
:10003800512928306006031D2428CE01CE0A26281F
:100048000230CE0068082300A800200067082300BB
:10005800A90028082904031D38282000BB01BC0179
:10006800BD01BE01BF0189292000D42680312000AE
:10007800C600230025082000C7002300260820000A
:10008800C800230027082000C900230028082000F2
:10009800CA00230029082000CB00CC01CD014A0862
:1000A800C6074B08C73D4C08C83D4D08C93D49081F
:1000B800031D67284808031D6728143046021030BE
:1000C800473B031C6E2805302300CB002130CA00B3
:1000D800C901BD2E230028082000C60023002908D6
:1000E8002000C7000930C801C901C635C70DC80DB1
:1000F800C90D890B792849082300AD00200048085C
:100108002300AC00200047082300AB00200046086D
:100118002300AA000A30472780312000BB00413F56
:10012800BC00423FBD00433FBE004E08BF008921CE
:100138008031003A0319080021000230E201E3018E
:1001480020004E06031DAD28092405302100E400D7
:100158000800DC2303302100E400080023004508E0
:1001680003193128C501B72680316D2853278031FE
:100178000319312800306102133003196002031C8F
:10018800C8281230E000E1012030F8000130F90001
:100198006108FB006008FA0000301B2680317030CF
:1001A8002200A00023004B082200A2000A30A7006A
:1001B80023004A082200AC00230049082200AD00B1
:1001C800210060086A2964082100E0002000630813
:1001D8002100E10060086104031931280030610240
:1001E800253003196002031CFC282430E000E101DB
:1001F8004130F8008830142780316008FC00F82569
:100208008031210060086A29532780310319312879
:1002180000306102053003196002031C16290430FE
:10022800E000E10103302200A000A101A201A30126
:10023800210060086A296508640463046204031DD8
:1002480068182B2905302300CB0024306B28D426CE
:1002580080312308031D39292208031D3929133049
:1002680020021030213B031C4029FF302200A0004F
:10027800A100A200A300472912302200A3001030D9
:10028800A200A101A0010230A701A6000830A50123
:10029800A4016A29522680316D2820006008003A9E
:1002A8000319B228033A0319BA28113A0319E7289F
:1002B800083A031908293F3A03191F290D3A031967
:1002C8001D28023A03191D284E2908002000C400E1
:1002D800BB00BC01BD01BE01BF01BF0A892180313D
:1002E800003A031908004408C000C101C201C30153
:1002F800D9024108DA3B4208DB3B4308DC3B4408AF
:10030800F800F901EA2380315E2F3F08031D9E297A
:1003180059278031031D93298C238031CC29DD1F77
:100328009829B82380319A290B258031063021007D
:10033800E400CC29DD1FA42902303F060319D02987
:10034800DD1BA9293F0BA929D0293E085C02031D02
:10035800B7293D085B02031DB7293C085A02031D53
:10036800B7293B085902031CD0295C083E02031D2B
:10037800C7295B083D02031DC7295A083C02031D13
:10038800C72959083B020318CC2901302200E7008D
:1003980020000130DD010800D52102302000DD00F9
:1003A80000340B258031B82306302100E400080012
:1003B80023002030EC01ED00E030EE018400003035
:1003C8008500073089315C2180316030840001303C
:1003D8008500103089315C218031A03084000130E3
:1003E80085004C3089315C21803120308400023016
:1003F8008500403089315C2180317E102000042A3C
:100408002100191799172F30F800C030890B0A2AD4
:10041800F80B0A2A24008C018D018C1521009513F4
:1004280004302000D0000C30CF003330890B1A2A5A
:10043800CF0B1A2AD00B1A2A0032A22380312000AF
:100448008C1D2A2A22006B08031D4D2A20008C1DB2
:100458002A2A02302000D0003830CF00AD30890B76
:10046800332ACF0B332AD00B332A2300DB0117247E
:100478008031D52280317822803123005B08031D2A
:10048800612A20008C193D2A22006B08031D592A75
:100498003D2AFF302100950024008C008D001C307F
:1004A8002100990090310028803120008C19612AA0
:1004B800D522803178228031592AD522803178227C
:1004C800803123000830D40A2000CF00C930890BBE
:1004D8006B2ACF0B6B2A0032C83023005406031D49
:1004E800612A010080310B282100121122006608C0
:1004F8000319BF2A6408AE3E86000130870001193F
:10050800972AEE068D2AF7238031B72A0D208031ED
:10051800B72A21006408003A03198A2A053A031900
:10052800872AB72A0130EF06AB2ADC238031B72AA5
:10053800220067080319A52AB82380314D27803186
:10054800B72A8C238031B72A76238031B72A210035
:100558006408013A03199C2A033A0319A82A013AA4
:100568000319992AB72A2200E40A043064060319F9
:10057800E401E603D22A230047080319D22A0730E8
:1005880021006406031DCB2A76238031D02A063049
:100598006406031DD02A8C232300C70121001215ED
:1005A80008003D001019121DEA2A12110530210019
:1005B8006506031DE52A3D008E1023004C08210026
:1005C800E5003D00101DEA2A1011E52A053021003A
:1005D8006506031908003D00101CFF2A023021009F
:1005E80065060319FA2A8B31AE23803103302100C6
:1005F800E5003D001010101E0C2B12158E14210062
:1006080065082300CC0005302100E5003D001012EC
:10061800033021006502031C08003D00901D0800FE
:10062800000000003D000F082100E6003D00901189
:100638002100660C2000C100C10C410C0F39031DBC
:10064800732B210066194B2B22006C112100E61C2C
:100658002F2B22006C152100660C01398B31A42345
:100668008031010C890C0F390D3A031D3E2B76247D
:100678008031112B023023004E06031D482B013018
:100688002200EC06D12480317A238031112B2300FB
:100698004E0B542B01302200ED061C248031112B07
:1006A8007A23803123004F080319112B50083D008D
:1006B8009600033021006506031D6A2B23005008AD
:1006C80003196A2B04302100E500702B2300500821
:1006D800031D702B3D0010142300CF01112BC424DF
:1006E8008031112B09242100E401080022002D2764
:1006F8008031213E86000830870181002D27803116
:10070800203E860081012D27203E860081170800A3
:1007180053302000D4005130F8002030F901FA009D
:100728000130FB000D30FC00BC2380310D30F80097
:10073800F901EA2302302100E400080023009501B2
:100748001030920091011514000000002300130AD4
:100758003F3003191406031DB42B2200EB010800D7
:100768002200EB01EB0A080022003030EF14B92C0C
:10077800FD017C087D02031808007D082000B400F4
:10078800B501780786003508793D87000108B6006D
:100798007D08B700B8017A07B90038087B3DBA0070
:1007A800390886003A08870036088100FD0ABD2B03
:1007B800F6238031EC268031F800F901EA238031F4
:1007C800403001278031031D08005E2F22006F1C76
:1007D800EF2B4830F02B08302000B0007808B1002B
:1007E800B0170800202D15248031EC268031012710
:1007F8008031031D082C220067080319072C0B25DC
:1008080080314D2708008C2B092C22006E1C0E2CE1
:1008180048300F2C08302000AC004030AD00AC1739
:1008280008008C31922C01303D0092001014080011
:1008380023003D083E040319612C00303E020930B4
:1008480003193D025208031C4A2C031D372C242788
:1008580080310830FC00F825803108302300B907C2
:100868000318BA0A422C1A2780310830FC00BC232E
:10087800803108302200E0070318E10A08306924B3
:1008880008302300BD020030BE3B0800031D532C76
:10089800242780313D08FC00F82580315A2C1A277E
:1008A800803123003D08FC00BC23803123003D0833
:1008B80069242300BD01BE0108005308031908007C
:1008C800003069242300D3010800F80022006D1CC1
:1008D8006F2C4830702C08302000A8007808A90038
:1008E800A81708002000A8012100E61C7F2C203052
:1008F800F8000330822CE830F8000230F90070303C
:10090800FA000830FB01FC00BC2380313D000E12C8
:100918007A2380316C146D14700E890C0339031915
:10092800A82CB22C8A315F2A8A31F12AA32F8C3164
:100938002C2C8931F2291E2D8E2F893162298C3178
:10094800162CD22E2830B92C710884000D300402E0
:100958000318A62C88310435C03E8200C224803199
:10096800003A031D08002830B92CF800860004302E
:100978008701810078088600811708008931892954
:100988002100660CF800F80C780C0F39013A0319AD
:10099800CE2CD02C893174290800003023003C0269
:1009A800093003193B02031CEF2C2100E618E02C48
:1009B800E830F8000230E32C2030F8000330392703
:1009C80080310830FC00BC23803140278031BB02D5
:1009D8000030BC3B042D2100E618F62CE830F80066
:1009E8000230F92C2030F8000330392780312300F9
:1009F8003B08FC00BC23803140278031BB01BC018F
:100A08003B083C04031D08000F258B31AA2B22004C
:100A18002C30EE14B92C2830112DF800780A8600F5
:100A280087018101780886004830810078088600AF
:100A3800811708002830B92C2030F8000130F9005F
:100A48004030FA000030FB011B26803123002708C4
:100A5800260425042404031D492D2100620863048B
:100A6800031D3E2D0330F8008830142780313E30B6
:100A7800FC00F82DC03062060319630B08005530DE
:100A88002200DE00AA30DF00080024032504260423
:100A98002704031D512D8931AE29123033278031A7
:100AA800031D9A2D210062086304031D802D653003
:100AB800F8008830142780310B30FC00F82580318D
:100AC80008302200AB00922680312200A900703045
:100AD800F8008830F9004030FA000130FB000B3094
:100AE800FC00F82521302200CB000230DA00583013
:100AF800DC000030DD010800403062066304031D9D
:100B0800080022006B08031908007B30F8008830C1
:100B1800142780310B30FC00F82521302200AB006F
:100B28000330BA002030BC01BD00080023002708AC
:100B3800031DA82D2608031DA82D25081330031D05
:100B4800A92D2402031C0800133033278031031D0C
:100B5800C72D210062086304031DBA2DAB30F800CD
:100B68008730142780314030FC00F82D4030620671
:100B78006304031D0800EB30F80087301427803128
:100B88001830FC00F82D043047278031F800413F29
:100B9800F900423FFA00433FFB00592680317A08AA
:100BA800C5007908C4007808C30000304502031D59
:100BB800E32D40304402031DE32D003043020318A7
:100BC80008004308C0004408C1004508C200C236F6
:100BD800C10CC00C4108F9004008F8004030FA0088
:100BE8002030FB01FC00622FFD017C087D02031808
:100BF800080079082000B5007808B4007D0834079B
:100C0800840035080318350A85000008B6007D08F9
:100C1800B700B8017A07B90038087B3DBA0039082F
:100C280086003A08870036088100FD0AF92D200061
:100C3800B400B501B6017B083602031D252E7A08DB
:100C480035020318080035087807FC003608793D96
:100C5800FD007C0886007D08870034088100B50AFD
:100C68000319B60A1F2E1F3020002D06031D4B2E18
:100C780055305106533003195206423003195306B2
:100C88004330031954060130031908004C2E013073
:100C98002300C800D5210730E400003405302300C4
:100CA800CB002030CA00C90108002000F830B40188
:100CB800B500FF30B600B700210062082000B80078
:100CC800210063082000B900BA01BB017808BC0004
:100CD8007908BD007A08BE007B08BF000930BC3522
:100CE800BD0DBE0DBF0D890B732E3C08B8073D081E
:100CF800B93D3E08BA3D3F08BB3D3808B40739083E
:100D0800B53D3A08B63D3B08B73D3708FB00360805
:100D1800FA003508F9003408F8000800C03023004C
:100D280095008030920006309100151400000000F4
:100D3800A12E343435343934583423001308033998
:100D4800F800F9017908003A0319AB2EA02E7808AB
:100D5800003A03199D2E013A03199E2E023A0319EF
:100D68009F2EA02E08000630CB002830CA00C901EB
:100D78000800200059278031031DC52EDD01DD0A3A
:100D88008C2BDD1FCA2EB8238031CB2E0B252000DB
:100D98000630DD01DD0A2100E40008002830B92C06
:100DA80065082300A000200064082300A10020009B
:100DB80063082300A200200062082300A300230880
:100DC800A7002208A6002108A5002008A400080002
:100DD80040302100E2070318E30A02306306620488
:100DE800031D403401302300A4070030A53DA63D73
:100DF800A73D2100E201E30140342300AA020030AC
:100E0800AB3BAC3BAD3B40302000D9020030DA3B75
:100E1800DB3BDC3B23002D082C042B042A040800B0
:100E2800F9002030FA000130FB00080022006108B8
:100E3800F9006008F8002830FA000330FB000800C9
:100E48003A08F9003908F8002830FA000330FB00A6
:100E580008006C0C890C01390907090708002300F0
:100E680024062504260427040800F9002200610846
:100E7800FB006008FA00080008302200E0070318A9
:100E8800E10A23000800A03E860001308700403FA9
:100E980008002200E70106302100E4000800640889
:100EA8002100E000E101610408005C085B045A04C9
:100EB8005904080001302100E400080080302300B4
:100EC80095007A087B0403190800790892007808CD
:100ED80091001514000000007C088600013087008E
:100EE8002300130885278031031908007C08860031
:100EF80014088527803103190800F80A0319F90A2C
:100F0800652F81000130FC0AFA020030FB3B7A08A9
:100F18007B040800063021006506031D972F230077
:100F28004D08F900982FF90179082600A80001302A
:100F3800692480319F2F2300CE01CE0A0800720851
:100F48002300D000CF01CF0A0F258B31AA2B3C34C8
:100F5800683474346D346C343E343C3473346334E4
:100F680072346934703474343E34773469346E348E
:100F780064346F3477342E346C346F3463346134B2
:100F8800743469346F346E343D34223468347434C4
:100F98007434703473343A342F342F3467346934EA
:100FA80074346834753462342E3463346F346D3479
:100FB8002F346A346F3468346E346E347934643460
:100FC800723461347A347A3469342F345534533472
:100FD80042342D347534433422343B343C342F347A
:100FE8007334633472346934703474343E343C344A
:100FF8002F34683474346D346C343E340034EB343C
:101008003C3490344D34533444344F3453343534B1
:101018002E343034003402340134013400340134C5
:101028001034003413341034F834113400340034DC
:101038000034003400340034003400340034003408
:101048000034003400340034003429348634E83461
:10105800A334563450344934433431343634463466
:1010680031343434353458342034463441345434EB
:10107800313436342034203420340034803404347D
:10108800023420340034003400344D34693463347D
:1010980072346F34633468347034553453344234A2
:1010A80020347534433420343134343435345834AE
:1010B8002034203420342034203430343134313456
:1010C800313450344934433431343634463431348D
:1010D8003434353458342034413442344F34553460
:1010E8005434203420342034483454344D3450346B
:1010F80052344F3447345F344D3445344D344234E0
:1011080049344E3409340234203400340134013473
:101118000034C03432340934043400340034023426
:10112800083406345034003407340534813402342A
:101138004034003401340734053401340234403477
:10114800003401341A340334313400343234003476
:101158003334003434340034353400343634003415
:1011680037340034383400343934003430340034FF
:10117800393400343934003484319D2C8431982C2E
:101188008431A62C8431982C8431A62C84319A2C55
:101198008431962C84319F2C8431A02C84319B2C53
:1011A8008431A12C8431A32C8431A52C1834033428
:1011B800553400345334003442340034203400347D
:1011C800753400344334003420340034313400346E
:1011D8003434003435340034583400341234013493
:1011E800003402340034003400340834D834043471
:1011F8007834EB34113401340134023403340134CB
:101208000E3403344A3400346F3400346834003404
:101218006E3400346E340034793400341A3489342E
:1012280004348934DA348834A634883404340334F2
:081238000934043486348834C3
:1012B800640080010131890B5D290034063021006A
:1012C8006506031D71297408031D71292600013064
:1012D800A8018431692487319F2F28308431B92CA3
:1012E800043022006602031808006508AE3E860036
:1012F800013087002100660881002200E50A0430D9
:1013080065060319E501E60A0800710F0034720842
:101318007304031D003474087504031D0034760833
:101328007704031D00342000AC1B9D2983317623EC
:1013380089312200E601E501E4012300C801C50165
:1013480085310F2589310330AA210134F8002300A3
:10135800CE0008002030FD00210062086304031D50
:1013680008007D08860001308700F830C03FFF3054
:10137800C13F7D08023E8600FF30C03FC13F7D0867
:10138800043E8600FF30C03FC13F22006B080319AE
:1013980008000330FB00FC017B08013EF800003028
:1013A8007C3DF9007B357D07FA0086000130870017
:1013B8007808C03F7908C13FFB0A0319FC0A0030CE
:1013C8007C02123003197B02031CD0297B357D0770
:1013D800F8008600FF30C03FC13F080020000430FD
:1013E800BC01BC0ABA012100650603193B2A063074
:1013F800650603193B2A462A20003A102300511C8F
:10140800072A20003A1420003B102300D11C0E2A82
:1014180020003B142000BC01462A04306506031D49
:101428001A2A74080F390319222A242A74080F3932
:101438002000B700023037020318242A2000BC011C
:1014480020003C08031D462A74080F39B7006C3089
:10145800B7353707B800740D740D01393807B9006E
:101468008600013087003A1081183A14462A70081D
:101478001F390319002A013A03190E2A033A0319DE
:10148800112A462A20003C08283003194D2A8431A5
:10149800B92CF8000330F9000830FA000030FB01DD
:1014A80086311B2689313A082600A800023084318B
:1014B800692487319F2F2000C001C00AAF2AF2306B
:1014C8002300B9008830BA001230BF00C0012000E4
:1014D800C001BD2A7208031DBD2A7208E4228A31A0
:1014E8002300B900013FBA0072082000E4228A31C3
:1014F800BE00013FBF00BC003E08BB00023E8400A6
:101508003C0803183C0A8500003F2300BF00013F48
:10151800C0006B2A083072020318BD2A7208BB008B
:101528001230BC01BB35BC0D3B07840009303C3D83
:1015380080388500003F2300B900013FBA00390810
:1015480084003A0885000008692AE3228A31003AB3
:10155800031D6B2ABD2A7308013A0319632A033A4B
:1015680003196E2A013A03198E2A053A0319BD2A6E
:10157800A92A200040080319C42A28308431B92C2C
:10158800770823004002031DCB2A76083F02031880
:10159800D82A4008BE003F08BD003F080739031D90
:1015A800DC2AD301D30ADD2A7708BE007608BD00FD
:1015B800D301D20184311C24CE01CE0A08000034A4
:1015C800BB001E30BC01BB35BC0D3B078400093095
:1015D8003C3D80388500003F080020000430BB01F6
:1015E800BB0A210065060319682B06306506031936
:1015F800682B702B72037304031D702B710B072B60
:101608002300D110092B2300D1142000BB01702B1B
:1016180072087304031D702B06306506031D1D2B0D
:1016280074080F392000B70002303702031C212B41
:10163800232B74080F39031D232B2000BB01200026
:101648003B08031D702B74080F39031D392B710BD0
:10165800322B2200ED102000A801702B2200283028
:10166800ED148431B9248A31702B74080F39B7000E
:10167800B735740D740D01393707013EBA00710B87
:10168800502B74080F39B4000030F41B0130B5003A
:101698003A087B238A31702B74080F39B7006C30F5
:1016A800B7353707B800740D740D01393807B9001C
:1016B80086000130870081143A0809070907203E8F
:1016C8008431B9248A31702B70081F390319FE2A16
:1016D800023A03190C2B702B20003B080319772BB7
:1016E80028308431B92C85310F258A31AA2BB600D0
:1016F8003408F8003508F9003608822BFD0023006D
:101708004808031D080099238A3101308700011019
:1017180099238A31811C962B99238A3181107D085F
:10172800A42381010130C70008007808FA006C3052
:10173800FA357A07FB0079087B07FC008600080069
:1017480009070907203E86008701080003302300A7
:10175800CE0008003D009201970190019301980185
:10176800083099009601230015305110D1103D0022
:1017780091002030F8001430F901FA000030FB0124
:1017880086311B268B31D830A2002130A300E030EF
:10179800A6002130A700E830AA002130AB006C3049
:1017A800F8000130F9000430FA000030FB018631FE
:1017B8001B268B31B70137358C248B3137356D3E7D
:1017C800860002300115B70A3702031CDF2B2300FD
:1017D800CF01D301CD013D00901DF42B9011EF2BCB
:1017E8000E121630980021006508031D062C3D00D6
:1017F8008E152100E501E50A3D008E1A002C023005
:101808002100E5002300CE013D000E170000000076
:10181800000000003D000E1383317A238B316C11D8
:1018280083317A2B7408F800720823248B31003A2C
:101838000319202C85310F2D28308431B92CF9005B
:101848007908031D00347808031D00348824013406
:101858000430210065060319352C06306506031D82
:10186800642C003073020230031972020318642CCE
:101878003D000E1700000000000000003D000E13A0
:10188800F90179358C248B3179356D3E860002302B
:101898000115F90A7902031C452C85310F258B3176
:1018A80003302300CE007208CD004D080319602CC8
:1018B80067240630E500080004302100E500080030
:1018C80028308431B92C682C2000A030AC01AE003F
:1018D8002030AF01B001B2000130B3003D0019164D
:1018E8009915191599142200EE10EF108824230079
:1018F800C801C5012200E7012300C7012200E60153
:10190800E501E4018331762B22006E106F10080088
:101918006C3E860001308700011508002300590835
:10192800031DE52C23082706031DA42C22082606E0
:10193800031DA42C21082506031DA42C2008240619
:10194800031DC92C2708031DB32C2608031DB32C1F
:101958002508031DB32C13302402031CC92C2100B5
:1019680062086304031DC92C3A302006031DC92CE4
:1019780022006B080319C22C1A258C31CA2786311C
:101988001B268C312300D901D90A1230873133271D
:101998008C31031DE52C4030210062066304031DD1
:1019A800E52C22006B080319E52C210020080319F7
:1019B800E12CE5302006031DE52C1A258C31DB01CE
:1019C800DB0A2300590B08002708031DF52C2608FD
:1019D800031DF52C2508031DF52C13302402031CC8
:1019E80008002000CD01CE014D08A03E86008701E9
:1019F800010821258C312000CC000B3A03190F2D4A
:101A08000D304C06031D092D1A2502302300D9007C
:101A1800DB01DB0A0800CD0A0319CE0A00304E02AA
:101A2800403003194D0203180800F82C1030F80153
:101A3800F9002030FA01FB00912FCB002300580851
:101A480003196E2E4B3043278C31003A031D6E2E3E
:101A580023000D30D80108000D3020004B06031973
:101A68000B340A304B0603190B343A304B06031D6E
:101A78002C2D23000230D6012200E200E301EA0106
:101A880023000B30D801D80A080022006A0EF0396A
:101A980020004B042200EA000130E2020030E33B60
:101AA80062086304031D0B3411306A0203182C2DDD
:101AB8006A082300D60704302200E200E30123006D
:101AC8000230C301C401AA2DFA278C314408200032
:101AD800CA0023004308BB278C31C30020004808F4
:101AE8004A042300C400EB278C31031D0B34230068
:101AF8004408D6074308D60702302200E200033024
:101B0800E301E9012300AA2DEB278C31031D0B34D7
:101B180020004B082200E9002300D607AC2D023034
:101B2800E200E301E80123000430D501AA2D0230C8
:101B38002200E200E30123000A30D701AA2D043075
:101B4800E200E30123000530C101C201D8000B34D3
:101B580022006908003A0319932D013A03199B2DB5
:101B6800053A0319A32D2C2D0130F3278C31031DC1
:101B7800C42D20004B082300D500F030D50ED50524
:101B8800220062086304031D0B3420004B08230065
:101B9800D50422006808DC3E860001308700230057
:101BA8005508810022006808DC3E860001082300F1
:101BB800D60722000230E80AE200E30168086A0654
:101BC800031D0B349F2DFA278C3142082000CA00D0
:101BD80023004108BB278C31C100200048084A0473
:101BE8002300C200EB278C31031D0B34230041086E
:101BF800D6072000C700230042082000C800C901FA
:101C08004708C900C801C70147082300B6002000DB
:101C180048082300B700200049082300B8009B2D7E
:101C28000130F3278C31031D202E20004B082300A0
:101C3800D700F030D70ED705220062086304031DD1
:101C48000B3420004B082300D7045708D607560842
:101C5800031D2C2D5F2E230043082000BA0023000B
:101C680044082000BB00BC01230036082000BA0746
:101C7800230037082000BB3D230038082000BC3D66
:101C8800DC30BD0022006A082000BE0086268C31A8
:101C9800003A03192C2D6B2E23005A0803195B2ECA
:101CA800DF278C3107278C31003A03192C2D2300AC
:101CB8000C30D801080022006908003A03192F2EB9
:101CC800013A0319502E053A03196B2E6B2E230087
:101CD800D8010B345808003A0319302D013A03197A
:101CE800492D033A0319682D013A0319882D073A3B
:101CF8000319B82D013A0319E72D0F3A0319142EC9
:101D0800852E0B343A08C6003F30C605C030C100E6
:101D1800FF30C200C3003A08C1053B08C2053C08B1
:101D2800C30523006E0820004306031DA52E2300CB
:101D38006D0820004206031DA52E23006C08200014
:101D480041060319B62E23005A080319B62EDF27B9
:101D58008C3107278C31003A03190034CA278631A1
:101D68001B268C312000C401C501B1278C31031812
:101D7800C92ED3278C314030C60ABD0A460603193E
:101D8800C92EC40A0319C50AB92E40304606031DD8
:101D9800F72E4108B4004208B5004308B6000727EB
:101DA8008C31003A03190034CA2786311B268C313E
:101DB800C601C40A0319C50AB1278C31031CEC2ECD
:101DC800F02ED3278C31C60ABD0AC40A0319C50AE6
:101DD800B1278C31031CE52E4030C10701300318B0
:101DE800C2070318C30746082300DA002000410889
:101DF8002300EC00200042082300ED0020004308E7
:101E08002300EE00013400303602031D112F40304C
:101E18003502031D112F003034020318302F003013
:101E28003602031D1D2F20303502031D1D2F0030E3
:101E38003402031C302F3408B7003508B8003608C0
:101E4800B900B936B80CB70C3808F9003708F800EB
:101E58002030FA00652701343603340435040319A9
:101E68000134003020003602031D402F2030350297
:101E7800031D402F00303402031800340134F800E9
:101E8800860030308701010278088600031C542F31
:101E98003A300102780886000318542F3030622F38
:101EA800413087010102031C00347808860047305E
:101EB8000102031800347808860037308701810250
:101EC80001342030FB00A4302300950079089200EB
:101ED80078089100782F55309600AA30960095140E
:101EE800000000002300910A7A088600023087006B
:101EF80001089300FA0A7A08860001089400FA0A91
:101F0800FB0B6F2F951255309600AA30960095144A
:101F180000000000230015110800843023009500FC
:101F28007B087902031D9A2F7A0878020318AE2FCE
:101F3800790823009200780891001516553096000C
:101F4800AA3096009514000000002030F807031806
:101F5800F90A942F2300151108003E08BF00C0019C
:101F680040084502031D08003F08440208002000FD
:101F7800C900F030C90ECA0ECA0549080F39CA048B
:101F8800F030C90547084904230008002030F8004C
:101F98000230F9004030FA00FF30FB010800460823
:101FA800203E8600023087003D088400013085000D
:101FB8000008810008006C082000B40023006D08A8
:101FC8002000B50023006E082000B600080001308C
:101FD8002200E2020030E33B6208630408002200AA
:101FE800E2020030E33B62036304080020004B0870
:081FF800C700C8012300080026
:020000040001F9
:08000000FF3FFF3FFF3FFF3F00
:04000E008A0BCF1A70
:00000001FF
