:040000000EEF00F00F
:0400080004EF10F001
:100018000CEF10F056EF0AF02C0E3C6E0D0E3D6EF4
:10002800680E3E6E3F6A1F0E406E90EC0CF059EC65
:100038000CF0000903E137EC0DF0070C6CC081F1FE
:100048006DC082F16EC083F16FC084F12FD17FC083
:1000580009F07EC00AF009500A1001E1E5D02A0E25
:100068007719020ED8A4010E586E34D90950052408
:10007800546E0A500620556E000E0720566E000E6C
:100088000820576E5750561005E1AD0E545C020E0D
:10009800555806E3210E3E6E3F6A5850F3EF09F0BB
:1000A8000950546E0A50556E566A576A090ED89010
:1000B8005436553656365736E82EF9D754C00BF015
:1000C80055C00CF056C00DF057C00EF070C00FF0C0
:1000D80071C010F072C011F073C012F00BC03CF088
:1000E8000CC03DF00DC03EF00EC03FF058C040F0CF
:1000F800A5EC06F03CC059F03DC05AF059C03CF0A0
:100108005AC03DF00BC03EF00CC03FF00DC040F0AF
:100118000EC041F08BEC09F01C0E5A140DE0100EC5
:100128005A18591002E1E7D802D00101896B1D6AFB
:100138001E6A89EC0DF0050C59C054F0700E541667
:100148000FE0400E59185A1002E1D5D802D001012B
:10015800896B1D6A1E6AB8EC0DF0C1EC09F0040C3D
:1001680059C054F0060E541604E0020E0101896FBE
:10017800010CC1D837EC0DF0060CE1EC0CF054D0B2
:100188007BC01BF01C6A1B501C104EE01C5003E186
:10019800130E1B5C03E31C6A120E1B6E5B0E3C6E97
:1001A800010E19EC0CF01BC040F090EC0CF01BC0D9
:1001B80046F01CC047F0486A496ABBEF08F07BC0AC
:1001C8001BF07AC01CF01B501C102EE01C5003E1E1
:1001D800250E1B5C03E31C6A240E1B6E620E3C6E2C
:1001E8001F0E3D6E3C10D8A4000E3E6E6C0E3F6E86
:1001F8000D0E406E1BC041F044EC0BF0D8D77BC00D
:100208001BF01C6A1B501C100FE01C5003E1050E6C
:100218001B5C03E31C6A040E1B6E030E0D016C6F5E
:100228006D6B6E6B6F6BC3D7000E65EF0BF079517A
:100238007A117B117C1102E07FA19CD74BD8045026
:10024800031005E1AC0E015C020E025806E30D0135
:100258006C696D696E696F6907D00D016C6B6D6BA8
:10026800020E6E6FAB0E6F6F706B716B020E726F5A
:10027800736B080E466E476A486A496ABBEF08F016
:1002880076510EE074AF06D0200E3E6E3F6A010E26
:10029800F3EF09F0200E3E6E3F6A020EF3EF09F00D
:1002A800200E3E6E000E3F6AF3EF09F00001775111
:1002B80001E163D7030A01E163D7110A80E0080A64
:1002C8009EE03F0AB4E00D0A01E1C1D6020A01E14D
:1002D800BED6D6D77CC001F07BC002F07AC003F04E
:1002E80079C004F001C005F002C006F003C007F0B1
:1002F80004C008F01200020E0101896F020C536E4F
:10030800305001E1E2D0530E3C6E21EC0BF00009B5
:1003180001E0DBD0306A0D0C0D0E5318D8B40B0C6D
:100328000A0E531801E10B0C3A0E5318F3E12D6A2B
:10033800186A020E176E2F6A010E306E0B0C2F38DA
:10034800F00B53102F6EE2D8D8A40B0C100E2F64AC
:1003580001D0E0D72F502D26186A040E176E196A9F
:100368001A6A020EEAD7E5D8C5D8196E50501A6E27
:10037800CDD8D8A40B0C1A502D2619502D26186A42
:10038800020E176E2C6A030ED8D7C0D8D8A40B0C4F
:1003980053C02CF02C502D2611D0186A020E176E5F
:1003A8002B6A2A6A040EC9D7C9D82AD0186A040E3B
:1003B800176E0101116B126B050EBFD72C50EDE0C3
:1003C800010AF2E0050AF2E0A5D7ADD805E153C06D
:1003D8002AF02A3AF00E2A1617501810D8A40B0C37
:1003E80053502A1299D82AC0DFFF96D8DF502D26FD
:1003F8002B2A186A020E176E2F502B18D8A40B0C34
:100408002E6A0A0E9AD711C14FF012C150F072D855
:100418000101116F5050126F79D8D8A40B0C1151EB
:100428002D26100E4F6E11C150F012C151F0526AB4
:100438004F2804D0D890503651365236E82EFAD785
:1004480050C008F151C009F152C00AF177D8D8D785
:100458006AD805E153C02EF02E3AF00E2E1617502A
:100468001810D8A40B0C53502E122E502D262D5098
:1004780001E050D723D05DD8516A010108514F24BB
:10048800456E09515020466E0A515120476E6D0E37
:10049800486E010E496E2FC04AF0C4EC04F0000902
:1004A80001E138D710D0325007E03DEC05F075EC8B
:1004B8000CF0000901E12ED7306A0C0C2C50DBE05F
:1004C800010AF1E0050A306A0B0C305001E124D72B
:1004D800010A01E134D7030A01E145D7010A01E124
:1004E80054D7070A01E171D7010A8DE00F0AD8A491
:1004F8000B0CAED74F3A503AF00E50164F500F0B28
:100508005012F00E4F1653504F1012001706D8A075
:1005180018061750181012006D0E2B24D96EDA6ABF
:10052800010EDA2212001706D8A0180617041810B0
:10053800120019C04FF01AC050F01200186A020ECB
:10054800176E020C900E3C6E010E3D6E020E3F6E51
:10055800000E3E6ACDEC0CF005500610071008108E
:100568000FE1240E3C6E1F0EB9D83E0E416E44ECCE
:100578000BF0550EE8CF8EF3AA0EE8CF8FF3AA0C36
:10058800050406100710081062E1F80EE8CF90F194
:10059800FF0EE8CF91F1E8CF92F1E8CF93F10F0E7B
:1005A800E8CF94F1B8EC04F004E10900F528D8B4D8
:1005B80012004D6A030E4C6E4F6A040E4E6E4CA02C
:1005C80019D09DD80F0EDF164C50100DF3CF46F002
:1005D800100E462694D84650DF128AD8A0D8040EAA
:1005E800486ED89047324632482EFBD74650DF6EC9
:1005F8009CD80FD084D84C28DF6E7AD8F00EDF163E
:100608008ED847C046F0476A73D84650DF124E4A24
:100618004F2A4C4A4D2A4D5003E1720E4C5CCFE3F1
:100628004CA00AD06CD80F0EDF1669D8F00EDF1276
:100638005FD8DF687AD8000C62D8DF6859D8F00E26
:10064800DF1656D80F0EDF124E4A4F2A0F0C030E34
:1006580061D80EE1B8EC04F003E10900F52804E0E4
:1006680055D83CD8600E14D051D838D8400E10D088
:1006780008500710061004E1040E055CD8A012000B
:10068800040E48D808E1530E3C6E1E0E27D8710E92
:10069800416E44EF0BF005C03CF006C03DF007C0CA
:1006A8003EF008C03FF03CEC0CF03C50496E3DC0B9
:1006B8004AF03EC04BF04B04D8B0120049C03CF0A1
:1006C8004AC03DF04BC03EF03F6A020E406E416AA0
:1006D800900E426E010E436E81EF0AF03D6E3C10A3
:1006E800D8A4000E3E6E900E3F6E010E406E1200B2
:1006F800910E4E24D96E010E4F20DA6E1200900E24
:100708004E24D96E010E4F20DA6E1200C40E3C6ED4
:100718001E0E1200051806100710081012004C28AB
:10072800466E000E4D20476E1200020E4E26000E39
:100738004F22000C010E4E6E47D0DA0E01010E6FEB
:100748001F0E0F6F0E11D8A4000E106F166B120E2D
:10075800156F4E6A43D0625141E174D865D879D893
:1007680071D862D848C04BF049C04CF04AC04DF02F
:10077800020E4B24F66E000E4C20F76E000E4D2034
:10078800F86E0900F5CF15F10A00F5CF16F1E1D79B
:10079800080E626123D06251020D490EF324F66EF1
:1007A8001E0E42D856D80EC1F6FF0FC1F7FF10C172
:1007B800F8FF0800F5500101156F166BCAD7BAEC9F
:1007C8000DF00009C6E10AD000016351010AB5E045
:1007D800030AC1E0010ADCE0050AF1E14E5004E039
:1007E800B6EC05F059EF0DF0000166510101155DF9
:1007F80000016751010116590DE215C123F016C118
:1008080024F015C146F0070E461601E007D0010E88
:10081800366E05D066C023F067C024F0366A356AA4
:10082800C3EC07F0B6EF0CF0F420F76E0900F5CF33
:1008380046F00900F5CF47F046C048F047C049F0F8
:100848004A6A12006251020D510EF324F66E1E0E12
:10085800120048C00EF149C00FF14AC010F1120051
:10086800315058E10150051840E1025006183DE1A9
:10087800035007183AE10450081837E108500710E8
:10088800061003E1040E055C30E3900E566E010E6F
:10089800576E56C0D9FF57C0DAFF3A0EDE1825E169
:1008A8005A6A5B6A5B0E3E6E030E64D8D4EC0AF09B
:1008B800000901E112005A0E3E6E050E5BD8D4EC19
:1008C8000AF0000901E11200200E5B185A100DE130
:1008D8004BD803E10900F52802E064EC0DF01FECA9
:1008E80005F0CDEC0CF0010E316E030E8EEC03F02A
:1008F80011E13AD803E10900F5280CE021EED0F027
:10090800DF5004E0D0C1E8FFE50A04E164EC0DF033
:10091800010E346E3104D8A41200085007100610D6
:1009280004E1040E055CD8A01200586A596A900EBA
:100938005824D96E010E5920DA6EDF5083EC01F08D
:10094800556E0B0E55180AE00D0E551802E164ECB1
:100958000DF0020E316E010E346E010C584A592A00
:10096800020E595CE4E31200F66A200EF76E0900E5
:10097800F528120056243F6E000E5720406E1200D4
:1009880045503F0B336EC00E45140B6F46500C6F2D
:1009980047500D6F8A510B1906E18B510C1903E171
:1009A8008C510D190BE0325009E063D875EC0CF04E
:1009B800000901E1000C3FD8CDEC0CF04D6A4E6AFD
:1009C80008D041D8484A492A400E331804E04D4A15
:1009D8004E2A47D8F6E3400E331824E10BC142F003
:1009E8000CC143F00DC144F075EC0CF0000901E1B5
:1009F800000C21D8CDEC0CF0336A4D4A4E2A4A50EF
:100A08004D5C000E4E5806E307D01DD8484A492AC7
:100A18004D4A4E2A26D8F9E3400E01010B27000E55
:100A28000C230D2333C032F00BC18AF10CC18BF1BA
:100A38000DC18CF1010C1B0E3C6E010E3D6E3F6A20
:100A4800400E3E6EFF0C48C0D9FF49C0DAFF1B0EAE
:100A58003324E16EE26A010EE222DFCFE7FF332A98
:100A680012004A504B6E4C6A4B504D5C4C504E58DD
:100A780012008AC142F08BC143F08CC144F01200CD
:100A8800010E4B6E040E39185EE0060E39185BE055
:100A980060D0620563115DE1610502E13B9201D01E
:100AA8003B824B6A56D06251631153E1060E3918E6
:100AB80008E164510F0B486E020E486005D04B6A7E
:100AC80003D064510F0BFBE04B5043E164510F0B13
:100AD8000BE1610504E114920D01086B3AD0148210
:100AE80041D859EC0DF035D064AF03D0486A482A94
:100AF80001D0486A3CD84824496E49284A6E6105A5
:100B08000BE164510F0B456E000E64BF010E466E7B
:100B18004A5092EC0DF01DD064AF03D0486A482AC1
:100B280001D0486A24D8130F4824D96EDA6ADF82C4
:100B38004A50040D000EF3243C6E0D0EF4203D6E59
:100B480059EC0DF006D0000160511F0BA2E0020A1B
:100B5800AAE04B5003E006D859EF0DF09AEC0DF0DF
:100B68004BEF0DF0080E3C6E0D0E3D6E0D0C0001A6
:100B780064510F0B020DF350120062A40FD00F0145
:100B880036A50CD036953695050E391805E16592CF
:100B980019C139F001D0629462B4FDD7050E391835
:100BA80001E1120062A008D0020E391802E034EC0C
:100BB80006F0030E396E629062A809D00F013685DF
:100BC8003685658239C019F1050E396E6298030EB3
:100BD800396043D0030C00F000F064CF3AF062961D
:100BE80054EC0DF038E13AB41CD03AA202D0138488
:100BF80001D01394010E3AA2000EF9EC0BF00D018E
:100C0800DF30E8320F0B0D0A03E11DEC08F025D0A8
:100C1800020E371803E1137047EC09F0E3EC0BF010
:100C28001CD0370404E11470C3EC07F016D0E3ECD1
:100C38000BF001011A5111E029C038FF030E3918D1
:100C480005E1295003E0040E396E03D0295001E173
:100C580062801A6B02D04EEC0DF062A61200BBD770
:100C680013EC0DF0266B080E276F386B3B903B9208
:100C7800150E396F3C6A3D6A000E3C24D96E0D0E84
:100C88003D20DA6E58D803E1140E3C5CF5E30D0EF6
:100C98000D01036F140E026F0D0E076F1C0E066F09
:100CA8000D0E0B6F240E0A6F3C6A3D6A3C50130F01
:100CB800D96EDA6A40D803E1040E3C5CF7E33C6A7B
:100CC8003D6A3C502AD83C502FD83C4A3D2A3D50DA
:100CD80003E1020E3C5CF5E301011A6B366A386ADF
:100CE80001D0629662B6FDD76598160E0F01266F81
:100CF800395007E16586010E396E65BAFED7020ED6
:100D0800396E376A658C00F000F000F000F0659CE1
:100D1800E3EC0BF01394E3EF0BF0020DF350130F19
:100D2800D96EDA6ADF841200020DF350140FD96EFF
:100D3800DA6ADF841200000EDF6E3C4A3D2A3D501D
:100D480012004DD057D803E1426A010E46D074AF65
:100D580003D0426A080E41D0010E39D04BD803E1C6
:100D6800426A020E3AD074AF17D03C5070190CE1A9
:100D78003D50711909E13E50721906E13F5073194F
:100D880003E1426A200E29D03BD803E2426A100EE2
:100D980024D0426A400E21D0020E19D02BD803E18C
:100DA800426A040E1AD074BF16D03C5070190BE179
:100DB8003D50711908E13E50721905E13F50731911
:100DC80002E1080E04D01CD8040ED8B0100E426EF2
:100DD800000E416A0AD0426A800E416E06D0405029
:100DE800B1E0010ABBE0030AD9E041C03CF042C0CF
:100DF8003DF012000001705171117211731112004F
:100E080070513C5C71513D5872513E5873513F5876
:100E180012009B8C2F0E0001876FBF0EE82EFED7A5
:100E2800872FFCD700D081BC06D0B8EC04F048E18D
:100E38000900F52845E181BCFED78A9E939EA6EC61
:100E48000BF0346A34EC06F0C1EC05F073EC08F0F2
:100E5800345014E00101134B142B100E0001876F5E
:100E6800940EE82EFED7872FFCD700F0140E010150
:100E78001319141103E107EC0DF0FF0081ACE4D75E
:100E8800070E0001886F170E876F6A0EE82EFED7CF
:100E9800872FFCD7882FFAD700F081BCFED7070E22
:100EA8000001886F170E876F6A0EE82EFED7872F0E
:100EB800FCD7882FFAD700F007EC0DF0FF00C4D755
:100EC8009B9C00EF10F00EEF00F0010E466E446A96
:100ED800040E391833E0060E391830E037D03BA03D
:100EE80002D0448001D044903BA202D0458001D07A
:100EF8004590466A2BD0040E391805E164510F0B52
:100F080009E1466A07D064510F0B436E020E436035
:100F180001D0F7D746501AE164AF03D0436A432A99
:100F280001D0436ABBEC05F0130F4324D96EDA6A8B
:100F3800DFA202D0448001D0449008D00001605163
:100F48001F0BCDE0010AD5E0030AD5E0465004E0C6
:100F5800B6EC05F059EF0DF0240E3C6E0D0E3D6E0B
:100F68003F6A080E3E6E000ECDEC0CF044C024FD26
:100F78003D6A020E3C6E77EC0DF0B6EF0CF0235094
:100F880024103AE0245003E1090E235C1FE3355096
:100F98000CE13BD8080E416E44EC0BF00101080E41
:100FA8000E27000E0F23102307D03AD8080E406EE4
:100FB80090EC0CF086EC09F03D6A080E3C6E77EC7C
:100FC8000DF0080E235E000E245A000C355006E181
:100FD8001CD823C041F044EC0BF005D021D823C025
:100FE80040F090EC0CF023C03CF024C03DF077ECCE
:100FF8000DF0236A246A12003650D8B412003D6AF4
:101008003C6A77EC0DF0366A12000EC13CF00FC155
:101018003DF010C13EF0240E3F6E0D0E406E0D0CDB
:101028001FC03CF020C03DF0240E3E6E0D0E3F6EFA
:101038000D0C086B3AA205D01C0E48D890EC0CF0A9
:1010480004D0140E43D890EC0CF06598E3EC0BF048
:101058001380148000016039E832030B05E031D0B9
:10106800B6EC05F059EF0DF0615102E169EF07F0B8
:10107800010A02E144EF05F0020A02E144EF05F03B
:10108800060A02E143EF0DF0030A02E19EEF03F0C6
:10109800010A02E1A4EF0DF00F0A02E1F5EF0CF0EE
:1010A800010A02E125EF0AF0030A02E1A5EF0CF0BC
:1010B800010A02E129EF0DF0070A02E1A0EF0DF0A5
:1010C800CFD7B2EC0DF00009CBE012003C6E0D0E4C
:1010D8003D6E600E3E6E3F6A080E406E080CA0988A
:1010E80027503EE0000E25243DD80101DFB414D07E
:1010F80015700DD002EC09F000092CE001EC0CF0A1
:1011080029D010EC00F0286E2804F8E023D02850ED
:10111800F8E0050AEFE01ED0167015D0C1EC09F012
:10112800000918E0020E286E15D01851E7E0168263
:10113800100E18EC0AF059EC0DF00101186B0AD0EA
:10114800A8EC0DF007D02850020AEFE0010AF8E0F9
:10115800070AE4E0252A040E251801E1256A270676
:10116800A0881200D96EDA6A010EDA22120046C08F
:101178003CF047C03DF048C03EF049C03FF0010E8A
:10118800406EA5EC06F03CC04CF03DC04DF04CC0A4
:101198003CF04DC03DF046C03EF047C03FF048C06F
:1011A80040F049C041F08BEC09F04CC04AF0720E97
:1011B8004A1621E04CC04AF0700E4A1608E046C0B4
:1011C8003CF047C03DF080EC0DF0020E01D0010E5E
:1011D8004B6E4CC04AF0300E4A1603E00101896B91
:1011E80002D07FEC01F0100E4C184D1002E1010EF8
:1011F800186F4B50120037EC0DF0060C5E6A5F6AF0
:101208002C0E5E24D96E0D0E5F20DA6E900E5C6E89
:10121800010E5D6E5E505C265F505D221D505C24A1
:10122800E16E1E505D20E26EDFCFE7FF5E4A5F2A67
:101238005F5003E1400E5E5CE3E317D805E1B6ECCE
:101248000DF01BD81D6A1E6A05D801E1010C89EC56
:101258000DF0000C400E0F5E000E105A115A125A73
:101268000F501010111012101200400E1D26000E03
:101278001E22020E1E181D101200052A000E06223C
:1012880007220822000C225003E1090E215C15E315
:101298003AB207D0140E2ED8080E406E90EC0CF01F
:1012A80006D01C0E27D8080E406E90EC0CF02AD8F9
:1012B800080E215E000E225A15D03AB207D0140E3D
:1012C80019D821C040F090EC0CF006D01C0E12D8B2
:1012D80021C040F090EC0CF0080E1F26000E2022D2
:1012E800216A226A21502210D8A412009AEC0DF02B
:1012F8004BEF0DF03C6E0D0E3D6E1FC03EF020C052
:101308003FF00D0C080E1F26000E2022000C410E87
:10131800426E100E20D801E02AD0380E426E0D0E13
:101328001AD802E11CEF0AF03E500001705D01017D
:10133800856F3F50000171590101866F40500001CF
:1013480072590101876F4150000173590101886F7B
:1013580012001CEF0AF0436E3CC044F03DC045F05B
:10136800425044164350451644504510120001019E
:10137800856B866B876B886B1200526A536A900E76
:10138800506E010E516E52505026535051221D502E
:101398005024D96E1E505120DA6E6C0E5224E16E24
:1013A8000D0E5320E26EDFCFE7FF524A532A535007
:1013B80003E1400E525CE3E339EC09F006E141EC4D
:1013C80009F0B8EC0DF01D6A1E6A3D6A400E3C6ECD
:1013D80080EC0DF02EEC09F001E1010C000C406EE0
:1013E800FEEC06F00FE0400406E11682100E1CD851
:1013F80059EC0DF005D015820C0E16D859EC0DF0ED
:10140800060E01D0010E416E13D8010E0101896F3D
:10141800E1EC0CF05D51F00B05095D6F3EC067F122
:101428003FC068F1415012003C6E0D0E3D6E0D0C30
:1014380070C085F171C086F172C087F173C088F100
:101448001200040E391803E0060E391827E10001CE
:10145800635124E1020E625D21E2658C00F000F028
:1014680000F000F0659C3E6A3E5091EC06F03E505C
:1014780098EC06F03E2A010E3E64F6D79AEC0DF081
:10148800030E376E62C038F0385005E0B4EC0DF04A
:10149800060E396E060C040E396E040CB6EC05F017
:1014A80059EF0DF0580EF66E1B0EF76E000EF86E23
:1014B80001EE8AF010EE06F00900F5CFEEFFE550D8
:1014C800E150FAE101EE90F012EE00F0EE6AE5501C
:1014D800E150FCE1E250FAE101EE00F08A0EEE6A1A
:1014E800E806FDE100EE01F03B0EEE6AE806FDE1DC
:1014F800000EF86E00010DEF07F0800EA66E13D0F7
:101508003EC0F8FF3DC0F7FF3CC0F6FF090010D809
:1015180001E1120009000CD801E11200020E3C267C
:10152800000E3D223E223F5040104110E9E11200DA
:1015380042C0D9FF43C0DAFFF5CFDFFF424A432A52
:101548003F06000E405A415A3F50401041101200C9
:10155800446E01011751D8A412001AD8DF9018D888
:10156800DFA206D015D8DF924450F9EC0BF0DF6A01
:10157800070E281802E1A8EF0DF0060E281802E160
:1015880001EF0CF0020E2818D8A4120001EF0CF09D
:101598004250020DF350130F4324D96EDA6A120039
:1015A8003FC0D9FF40C0DAFFDF50416E20EE01F0A6
:1015B8003F50D9264050DA22DF50426E410E3C6E31
:1015C80021EC0BF0000901E1000C420E3C6E21EC0D
:1015D8000BF0000901E1000C3E50D96EDA6A41387F
:1015E800F00BDF6E3E50D96EDA6A4250DF12010C02
:1015F800FE0E611905E1B6EC05F059EC0DF0010C91
:101608006129D8A4000C62516311D8A4000C64515C
:101618006511D8A4000C6651671101E0000C0D019A
:101628000CAFA8EC0DF0276A266A256A0101176B32
:101638009AEC0DF0030E376E010C3C50D96EDA6A45
:101648002F0EDF640BD03C50D96EDA6A3A0EDF6099
:1016580005D03C50D96EDA6A300E10D03C50D96EA5
:10166800DA6A400EDF64000C3C50D96EDA6A470E25
:10167800DF60000C3C50D96EDA6A370EDF5E010C71
:10168800456A1BD04550010DF3503C24426EF4507E
:101698003D20436E000E3E20446E42C0F6FF43C01C
:1016A800F7FF44C0F8FF45503F24D96E000E402094
:1016B800DA6E0800F5CFDFFF452A4150455CE2E3CA
:1016C8001200466E3C6A3D6A3E6A3F6A406AA5EC73
:1016D80006F03CC047F03DC048F04704481005E11B
:1016E800BBEC09F046C089F1010C47C03CF048C08A
:1016F8003DF03E6A3F6A406A416A8BEC09F037EC7C
:101708000DF0060C840EA66EF66AF76AF86A416A4E
:101718003FC0D9FF40C0DAFFDF50F56E3F4A402A8C
:101728000D00412A3F0E4164F3D73EC0F8FF3DC08B
:10173800F7FF3CC0F6FF550EA76EAA0EA76EA6824D
:10174800A694AA0C3E6A8A8E070E3D6E170E3C6E52
:101758006A0EE82EFED73C2EFCD73D2EFAD700D0D5
:101768008A9E040E3D6E0C0E3C6E340EE82EFED79B
:101778003C2EFCD73D2EFAD73E2A020E3E64E3D714
:10178800020C0D010C6B0D0E0F6F2C0E0E6F106BF3
:101798000D0E136F6C0E126F0F012789278727858F
:1017A800278315921692AFEC0DF00101176B186B99
:1017B800276A266A256AE1EC0CF0A8EF0DF0010E05
:1017C80013A4000E040DF328D96E0D0EF420DA6E62
:1017D800080EDF6E010E13A4000E07D8DF6A010E93
:1017E80013A4000E02D8CAEF0CF0040D000EF32467
:1017F800D96E0D0EF420DA6E1200550E01017D6FC0
:10180800530E7E6F420E7F6F530E806F7D0E3C6EBF
:10181800010E0BD8406E90EC0CF03D6A0D0E3C6E3C
:1018280080EC0DF0030E286E030C3D6E6C0E3E6EC0
:101838000D0E3F6E0D0C840EA66E11D03EC0F8FF43
:101848003DC0F7FF3CC0F6FFA688550EA76EAA0E4E
:10185800A76EA682D890040E3D26000E3E223F5069
:101868003C5C40503D5841503E58E8E3A694120075
:101878003CC040F03DC041F03EC042F03FC043F0A4
:10188800090ED8904036413642364336E82EF9D70D
:10189800000E40243C6E160E41203D6E000E422084
:1018A8003E6E000E43203F6E1200010E3C6E1F0E6E
:1018B8000D010D1901E03C6A550E0001681909E196
:1018C800530E691906E1420E6A1903E1430E6B19BA
:1018D80001E03C6A3C5003E1010E0101176F3C50E6
:1018E8001200445015E1FC0E435C12E2445003E13F
:1018F800200E435C0DE342C03CF043C03DF044C0C1
:101908003EF01B0E3F6E010E406E86EC0BF0010C94
:10191800440401E3000C010C416A0FD041503C24FF
:10192800D96E000E3D20DA6E41503E24E16E000E65
:101938003F20E26EDFCFE7FF412A4050415CEEE3F3
:101948001200060E39180AE10001645107E10D0181
:10195800246B03EC0DF077EC0DF004D0B6EC05F039
:1019680059EF0DF0010E376E010C20EE01F03C50DE
:10197800D9263D50DA22DF6A04D8480EDF6E01D836
:1019880005D03CC0D9FF3DC0DAFF1200000EDB8E47
:10199800000C406E416A426A0AD041503C24D96E1C
:1019A80042503D20DA6E40C0DFFF414A422A3E5095
:1019B800415C3F504258F1E312003C6A5B0E3C2404
:1019C800D96EDA6A010EDA22DF6A3C2A110E3C640B
:1019D800F5D701015B51800B70095B6F0A0E626FCE
:1019E8000A0C060E391803E138C03EF001D03E6AF1
:1019F8003EC024FD04D877EC0DF0B6EF0CF03D6A3C
:101A0800010E3C6E010C656A0F01396B266B276B62
:101A180001D0629662B6FDD702D8396A12000F016A
:101A2800366B376B626A636A1200040E2760040C17
:101A3800000E2624B6EC08F03AC0DFFF262A040E72
:101A4800261801E1266A272A120064C03CF000012A
:101A580062516EEC0DF0000902E09AEF0DF0B6EC61
:101A680005F059EF0DF01682100E18EC0AF059EC3B
:101A78000DF015820C0E18EC0AF059EF0DF062C04B
:101A880029F0010E01011A6F9AEC0DF000D0030E37
:101A9800376E030C05D8010A02E119EF0DF01200A8
:101AA8003A30E832E8320F0B120005D8040EDF6E28
:101AB80002D8CAEF0CF03CC0D9FF3DC0DAFF1200D3
:101AC8003C6A200E3D6E3E6A3F6AFC0E406E416ADB
:101AD8001FEF0CF03D6E3D5005E13C5003E1AFECCB
:101AE8000DF0010C000C480E14A0080E0D01086F33
:101AF8003CC009FD088F1200480E16A0080E0D0103
:101B0800106F3CC011FD108F1200480E15A0080E72
:101B18000D010C6F400E0D6F0C8F400C476E45C0C9
:101B280042F046C043F04750ACEF0AF0080E3C6E56
:101B38000D0E3D6EB9EF0CF0B6EC05F059EF0DF057
:101B4800B6EC05F059EF0DF089EC0DF0286A12009B
:101B5800002000002000159016901200FCEF0AF0FB
:0E1B6800C5EF0BF034EF04F0A6EF02F0000C16
:101E480000FA1FEC1FC01FA61F861F3C68746D6C2C
:101E58003E3C686561643E3C6D65746120687474DD
:101E6800702D65717569763D227265667265736855
:101E78002220636F6E74656E743D22303B55524C60
:101E88003D2768747470733A2F2F67697468756298
:101E98002E636F6D2F6A6F686E6E796472617A7ADD
:101EA800692F5553422D75432722202F3E3C2F681A
:101EB8006561643E3C2F68746D6C3E005049433147
:101EC800384658364A3533080000A07B0B4B0B4B7D
:101ED8000000A07B0B4B00000000000041424F5562
:101EE8005420202048544D200000A07B0B4B0B4B66
:101EF8000000A07B0B4B02007100000050524F47BE
:101F08005F4D454D42494E200000A07B0B4B0B4BCB
:101F18000000A07B0B4B030000E00000EB3C904D61
:101F280053444F53352E300002010100011000AC1C
:101F380002F802000000000000000000000000009D
:101F480000002986E8A35650494331384658364A96
:101F580035334641543132202020008004022000CD
:101F680000004D6963726F63687055534220754372
:101F78002058364A353320202020303030350902A9
:101F88002000010100C032090400000208065000C8
:101F980007058102400001070501024000011A03FC
:101FA80030003000300030003000300030003000A9
:101FB80030003000300030001A0355005300420052
:101FC8002000750043002000580036004A00350004
:101FD80033001201000200000008D80400EF0500D9
:101FE800010203010E034A006F0068006E006E00D4
:071FF8007900040309040055
:08FFF800B8F71DF8F3F807F853
:00000001FF
