:040000000EEF00F00F
:0400080004EF10F001
:100018000CEF10F02EEF09F02C0E416E0D0E426E13
:10002800680E436E446A1F0E456EB8EC0AF087EC02
:100038000AF0000901E0F5D01200280E7719010E28
:10004800D8A4020E5A6E7FC009F07EC00AF009508B
:100058000A1008E1000E486E496E4A6E4B6E4C6EEF
:10006800C6EF07F0F2D809500524526E0A50062050
:10007800536E000E0720546E000E0820556E555022
:10008800541005E1140E525C100E535807E3050E88
:10009800326E210E316E306A6EEF0AF00950526EE0
:1000A8000A50536E546A556A090ED8905236533620
:1000B80054365536E82EF9D752C00BF053C00CF021
:1000C80054C00DF055C00EF00BC048F00CC049F0FC
:1000D8000DC04AF00EC04BF05AC04CF0C6EC07F009
:1000E800000901E11200156A166A020E5A1805E1A4
:1000F800BDEC0BF0050E2F6E050C1DEC0BF0030E7E
:100108002F6E030C2A50A6E02A6AE7EC0BF06EEF7C
:100118000AF07BC013F0146A135014109BE01450BB
:1001280003E1130E135C03E3146A120E136E9ED8D8
:1001380013C043F014C044F0000EF6EC0AF0700E41
:100148000D016C6F32C06EFD0A0E736F31C078FD01
:1001580030C079FD2FD07BC013F07AC014F0135053
:10016800141001E177D7145003E1250E135C03E363
:10017800146A240E136E410E416E1F0EEFEC06F04A
:1001880013C046F00CEC09F015D07BC013F0146ACC
:100198001350141001E15ED7145003E1050E135CEF
:1001A80003E3146A040E136E030E0D016C6F6D6B7E
:1001B8006E6B6F6B13504FEF09F079517A117B1109
:1001C8007C1106E07FB104D0050E326E240E62D792
:1001D8003CD8045003100CE1130E015C100E0258B9
:1001E80007E2566A576A100E586E120E596E04D0FE
:1001F800566857685868596856C06CFD57C06DFDF9
:1002080058C06EFD59C06FFD0D01706B716B020E09
:10021800726F736B080E4FEF09F00CEC0CF06EEF79
:100228000AF00001775101E16DD7030A01E171D7A6
:10023800110A91E0080AA9E03F0ABFE00D0A01E1AE
:10024800FCD6020A01E1F9D6E8D77CC001F07BC0F0
:1002580002F07AC003F079C004F001C005F002C0D2
:1002680006F003C007F004C008F012006C0E416EDF
:100278000D0E426E0D0C5A6E225001E1DFD05A0E5F
:10028800416EE9EC08F0000901E0D8D0226A0D0CB3
:100298000D0E5A18D8B40B0C0A0E5A1801E10B0CA3
:1002A8003A0E5A18F3E11F6A106A020E0F6E216A9D
:1002B800010E226E0B0C2138F00B5A10216EDFD87C
:1002C800D8A40B0C100E216401D0E0D721501F26B2
:1002D800106A040E0F6E116A126A020EEAD7E2D88B
:1002E800C2D8116E5750126ECAD8D8A40B0C12502F
:1002F8001F2611501F26106A020E0F6E1E6A030E6B
:10030800D8D7BDD8D8A40B0C5AC01EF01E501F2633
:1003180011D0106A020E0F6E1D6A1C6A040EC9D72E
:10032800CBD82AD0106A040E0F6E0001926B936B23
:10033800050EBFD71E50EDE0010AF2E0050AF2E013
:10034800A5D7AAD805E15AC01CF01C3AF00E1C1615
:100358000F501010D8A40B0C5A501C12A8D81CC04F
:10036800DFFFA5D8DF501F261D2A106A020E0F6E68
:1003780021501D18D8A40B0C206A0A0E9AD792C0D7
:1003880056F093C057F06FD80001926F5750936F93
:1003980076D8D8A40B0C92511F26100E566E92C018
:1003A80057F093C058F0596A562804D0D890573659
:1003B80058365936E82EFAD757C08FF058C090F003
:1003C80059C091F079D8D8D767D805E15AC020F03C
:1003D800203AF00E20160F501010D8A40B0C5A50CB
:1003E800201220501F261F5001E050D720D05AD885
:1003F800586A00018F515624496E905157204A6E11
:10040800915158204B6ED60E4C6E21C04DF05DECCC
:1004180003F0000901E13AD70FD0245006E035D89F
:1004280055EC0AF0000901E131D7226A0C0C1E5084
:10043800DEE0010AF2E0050A226A0B0C225001E113
:1004480027D7010A01E137D7030A01E148D7010A92
:1004580001E157D7070A01E174D7010A90E00F0AB2
:10046800D8A40B0CB1D7563A573AF00E5716565037
:100478000F0B5712F00E56165A50561012000F0650
:10048800D8A010060F5010101200F1C046F0F2C0AC
:1004980047F0F3C048F012000F06D8A010060F046A
:1004A8001010120011C056F012C057F012001D5063
:1004B800D60FD96EDA6A1200106A020E0F6E020C9D
:1004C800010E596E5A6A5B6A48D0DA0EE66F1F0E43
:1004D800E76FE611D8A4000EE86F5B6A120E5A6E39
:1004E800596A45D0625143E162D855D865D85FD87A
:1004F80052D853C056F054C057F055C058F0020EA9
:100508005624F66E000E5720F76E000E5820F86E2F
:100518000900F5CF5AF00A00F5CF5BF0E1D7070ED6
:10052800626501D024D06251020DF350E90F33D82F
:1005380043D8E6C0F6FFE7C0F7FFE8C0F8FF0800B9
:10054800F5505A6E5B6ACCD7E60E416E5A0E426E73
:100558002CEC0CF00009C4E10AD000016351010A37
:10056800B4E0030ABFE0010ADAE0050AEDE15950F8
:1005780004E051EC05F09EEF0BF05AC041F05BC06F
:1005880042F066C043F067C044F0000E20EC0AF069
:100598005BEC06F018D0D96EDA6ADECF51F0DDCF09
:1005A80052F051C053F052C054F0556A12006251D3
:1005B800020DF350F40F120053C0E6F054C0E7F0F8
:1005C80055C0E8F01200010E376E010C62A40ED07F
:1005D8000F0136A50BD03695050E381805E1659242
:1005E80033C038F001D0629462B4FDD7050E3818D4
:1005F80001E1120062A008D0020E381802E0ADEC4A
:1006080005F0030E386E629062A808D00F01368597
:10061800658238C033F0050E386E6298030E386074
:1006280040D0030C0000000064CF3CF062963CD838
:1006380002E0E0EF0BF03CB41BD03CA202D03D84BA
:1006480001D03D94010E3CA2000EA2EC09F0DF306F
:10065800E8320F0B0D0A03E104EC06F022D0020E7B
:10066800371803E13D7067EC08F08CEC09F019D0FD
:10067800370404E13E705BEC06F013D08CEC09F013
:10068800395001E112003AC038FF030E381805E16D
:100698003A5003E0040E386E03D03A5001E162800C
:1006A800396A62A61200BED73C30E832E8320F0B36
:1006B800120049503F0B556EC00E4914506E4A50F7
:1006C800516E4B50526EF151501806E1F2515118CB
:1006D80003E1F35152180CE024500AE049EC02F00F
:1006E80055EC0AF0000901E1000C3AD8F6EC0AF0E2
:1006F800536A546A06D03BD8400E551804E0534A52
:10070800542A41D8F8E3400E551821E150C046F06C
:1007180051C047F052C048F055EC0AF0000901E119
:10072800000C1ED8F6EC0AF0556A534A542A4D506C
:10073800535C000E545804E305D019D8534A542A80
:1007480022D8FBE3400E5026000E5122522255C0FB
:1007580024F050C0F1F051C0F2F052C0F3F0010C97
:10076800960E416E426A446A400E436EFF0C4C502E
:10077800D96EDA6A5550960FE16EE26ADFCFE7FF6D
:10078800552A4C2A12004D504E6E4F6A4E50535CFB
:100798004F5054581200235038E10150051821E1F8
:1007A800025006181EE1035007181BE104500818F0
:1007B80018E108500710061003E1130E055C11E359
:1007C800155016100EE13A0E0D012C190AE12650AB
:1007D80002E0B3EC0BF0B4EC03F0F6EC0AF0010E17
:1007E800236E120E98EC04F010E1400E1518161046
:1007F8000CE126500AE00D012C5103E0E50E2C19FE
:1008080004E1B3EC0BF0010E256E2304D8A412000A
:1008180008500710061004E1130E055CD8A012005A
:100828005C6A5D6A2C0E5C24D96E0D0E5D20DA6E52
:10083800DF503FEC01F05B6E0B0E5B180AE00D0E0B
:100848005B1802E1B3EC0BF0020E236E010E256E6D
:10085800010C5C4A5D2A5D5005E1400E5C5CD8B035
:100868001200E0D712003AEC01F0446A400E436EE1
:10087800000EF6EC0AF0055006100710081002E109
:10088800A0EF0AF0050406100710081002E19DEF1A
:1008980004F0120E49D802E1ABEF06F00850071039
:1008A800061004E1130E055CD8A01200130E3CD804
:1008B80018E11550161007E1AB0E416E1E0EEFEC55
:1008C80006F0400E0BD0400E15181610D8A41200D2
:1008D800EB0E416E1E0EEFEC06F0180E466E0CEF96
:1008E80009F005C041F006C042F007C043F008C057
:1008F80044F0C0EC08F041504D6E42C04EF043C089
:100908004FF04F04D8B012004DC041F04EC042F035
:100918004FC043F0400E446E456A466A6C0E476EFF
:100928000D0E486E95EF08F0051806100710081010
:1009380012006C0E476E0D0E486E1550161012E11F
:1009480047C0D9FF48C0DAFFF80EDE6EDD6820EE3A
:1009580002F040D820EE04F03DD8000E466E030E9B
:10096800456E07D0D8901630416E1530456E41C09F
:1009780046F0265001E1120046502BE1740E455C0A
:1009880001E312001F0E4514436E446A445021E1EE
:100998001BD0720E4518461003E123D81BD8FF0C54
:1009A8004528416E000E4620426E1BD84750D92676
:1009B8004850DA2241C0DEFF42C0DDFF454A462AE0
:1009C800434A442A445005E1200E435CD8B0120043
:1009D800E0D712004750D9264850DA22DE68DD6891
:1009E8001200D8904334D96E4434DA6E1200010EE6
:1009F800496E4A6A040E381832E0060E38182FE09D
:100A080036D03BA002D04A8001D04A903BA202D007
:100A18004B8001D04B90496A2AD0060E381807E15E
:100A280064510F0B486E010E486401D020D0060EA9
:100A3800381803E064510F0B1AE164AF03D0486A19
:100A4800482A01D0486A61EC08F03D0F4824D96E65
:100A5800DA6ADFA202D04A8001D04A90DCD70001CE
:100A680060511F0BCEE0010AD6E0030AD6E04950D8
:100A780003E013D89EEF0BF0240E416E0D0E426E6C
:100A8800446A080E436E000EF6EC0AF04AC024FDD4
:100A9800020E51EC0BF0E7EF02F0080E416E0D0E5E
:100AA800426E0D0C9B8C2F0E416EC00EE82EFED7A9
:100AB800412EFCD70F014981040E5F6E0C0E5E6E4D
:100AC800340EE82EFED75E2EFCD75F2EFAD7CDEC7B
:100AD8000AF081A402D026501EE181A4FED7020E9E
:100AE8005F6E380E5E6EAD0EE82EFED75E2EFCD71A
:100AF8005F2EFAD7000096928D82256A07EC0CF0DB
:100B0800EAEC02F041EC07F0255011E181B4F8D786
:100B180026500BE1F5D70F01496B9B9C00EF10F0B5
:100B280004D0EAEC02F041EC07F081A4FAD7EAEC31
:100B380002F041EC07F01B2A080E5E6ECA0EE82E82
:100B4800FED75E2EFCD7C80E1B18F1E1FF000EEF92
:100B580000F00F01366B376B626A636A266B080E0A
:100B6800276F386B3B903B92150E396F416A0D0E1B
:100B7800426E446A140E436E000EF6EC0AF00D0E37
:100B88000D01036F140E026F0D0E076F1C0E066F1A
:100B98000D0E0B6F240E0A6F3D0E416E426A446AB9
:100BA800040E436E000EF6EC0AF0486A4850BFEC9B
:100BB80007F04850B8EC07F0482A010E4864F6D709
:100BC800396A346A366A01D0629662B6FDD765988A
:100BD800160E0F01266F385007E16586010E386E34
:100BE80065BAFED7020E386E376A658C00000000C1
:100BF80000000000659C8CEC09F03D948CEF09F036
:100C08000D01086B3CA205D01C0E48D8B8EC0AF0C0
:100C180004D0140E43D8B8EC0AF065988CEC09F0AF
:100C28003D803E8000016039E832030B05E031D099
:100C380051EC05F09EEF0BF0615102E1FBEF04F07F
:100C4800010A02E1F9EF06F0020A02E1F9EF06F003
:100C5800060A02E1D8EF0BF0030A02E164EF02F0A2
:100C6800010A02E119EF0CF00F0A02E16FEF0BF035
:100C7800010A02E189EF07F0030A02E140EF0BF0F5
:100C8800010A02E161EF0BF0070A02E115EF0CF02F
:100C9800CFD724EC0CF00009CBE01200416E0D0E0A
:100CA800426E600E436E446A080E456E080C94C08E
:100CB80050F00001955103E1090E945D02E3080E1E
:100CC800506E945195113BE0355020E1E6C04DF04F
:100CD800E7C04EF04F6A4DC041F04EC042F04FC0E1
:100CE80043F0240E446E0D0E456E50C046F00CECD9
:100CF80009F050504D6E4E6A4DC0E8FF0001E627DE
:100D08004EC0E8FFE723000EE82310D019C041F0D9
:100D18001AC042F0240E436E0D0E446E50C045F0CA
:100D2800B8EC0AF050501926000E1A22505051EC17
:100D38000BF050500001945F000E955B000C34508E
:100D4800D8B41200000E51EC0BF0346A12001550A2
:100D5800161028E1650E416E1F0E3DD80B0E466E2B
:100D68000CEC09F0080E0D01776F88EC0BF00D0103
:100D7800726F700E416E1F0E426E4110D8A4000EA5
:100D8800436E8C0E446E0D0E456E0B0E466E0CECCB
:100D980009F0210E0D01976F020EA66F580EA86F6D
:100DA800A96B1200400E15181610D8A41200265070
:100DB800D8B412007B0E416E1F0E0DD80B0E466E76
:100DC8000CEC09F0210E0D01776F030E866F886B0E
:100DD800E00E896FE00C426E4110D8A4000E436EFD
:100DE8006C0E446E0D0E456E0D0C010E4B6E040E0E
:100DF800381831E0060E38182EE033D0620563113A
:100E080030E1610503E04A6A4A2A01D04A6A4A4643
:100E18003B504A18FD0B4A183B6E4B6A22D0625170
:100E280063111FE1060E381807E164510F0B4A6E73
:100E3800010E4A6401D015D0060E381803E064513B
:100E48000F0B0FE164510F0B03E17DEC0BF0E5D7BD
:100E580034EC08F0E2D7000160511F0BCFE0020A22
:100E6800DEE04B5004E051EC05F09EEF0BF0F5ECA2
:100E78000BF000D0030E376E030CA098295035E014
:100E88002750870FD96EDA6A0001DFB40DD03F70A2
:100E980006D000EC08F022D010EC00F01FD02F5044
:100EA800FBE0050AF6E01AD0407011D01DEC0BF0FB
:100EB80015D02E5006E0C7EC0BF02E6A060E2F6EEA
:100EC8000DD00AEC0BF00AD01DEC0CF007D02F5017
:100ED800010AEFE0030AF8E0010AE8E0272A040E15
:100EE800271801E1276A29060ED02C500CE0070EBE
:100EF8002F1803E11DEC0CF005D0060E2F1802E1A7
:100F08000AEC0BF02C6AA0881200040E381803E0D3
:100F1800060E381825E10001635122E1020E625DD8
:100F28001FE2658C0000000000000000659C476A15
:100F3800475021D8475018D8472A010E4764F8D798
:100F4800F5EC0BF0030E376E62C036F0365005E054
:100F580026EC0CF0060E386E060C040E386E040CE7
:100F680051EC05F09EEF0BF0020DF3503E0FD96ED9
:100F7800DA6ADF841200020DF3503D0FD96EDA6A87
:100F8800DF8412004C5011E100017FEC0AF003E10C
:100F98000AEC0BF028D074AF03D0C7EC0BF002D0EA
:100FA80001EC0CF0060E2F6E1ED0000174AF03D0BA
:100FB800020E4C181BE074BF02D04C0417E04850D6
:100FC800705D495071594A5072594B5073590EE32C
:100FD8007051485C7151495872514A5873514B5875
:100FE80002E2010E2E6E0001746B010CFBEC0BF09B
:100FF800020E0001746F000C28EC0CF029D801E1F6
:101008001FD80CD802E0BDEF0BF02E5002E10AEF1A
:101018000BF001EC0CF02E6A84EF0AF0400E0B5E28
:10102800000E0C5A0D5A0E5A400E0001705F000E49
:10103800715B725B735B0B500C100D100E1012007D
:10104800052A000E062207220822156A166A1200CF
:10105800400E1526000E1622020E16181510120044
:1010680064AF03D0476A472A01D0476A26D8472485
:10107800486E4828496E61050AE164510F0B446EB9
:10108800000E64BF010E456E4950D0EF0BF064AFFF
:1010980003D0476A472A01D0476A0FD83D0F472433
:1010A800D96EDA6ADF824950040D000EF324416ECE
:1010B8000D0EF420426E9EEF0BF0000164510F0BF1
:1010C800020DF350120017C047F0185003E1090E43
:1010D800175C02E3080E476E3CB205D0140E17D811
:1010E800B8EC0AF004D01C0E12D8B8EC0AF047503D
:1010F8001926000E1A224750175E000E185A17506C
:10110800181001E01200F5EC0BF03EEF07F0416E0D
:101118000D0E426E19C043F01AC044F047C045F0A6
:101128000D0C800EA66E13D043C0F8FF42C0F7FF27
:1011380041C0F6FF090010D801E1120009000CD8DF
:1011480001E11200020E4126000E422243224450C1
:1011580045104610E9E1120047C0D9FF48C0DAFF40
:10116800F5CFDFFF474A482A4406000E455A465A3B
:10117800445045104610120041C045F042C046F0A8
:1011880043C047F044C048F0090ED890453646366B
:1011980047364836E82EF9D715504524496E16507B
:1011A80046204A6E000E47204B6E000E48204C6EBB
:1011B800000E4924416EF80E4A20426EFF0E4B2065
:1011C800436EFF0E4C20446E12004150D96EDA6A0D
:1011D8002F0EDF640BD04150D96EDA6A3A0EDF6009
:1011E80005D04150D96EDA6A300E10D04150D96E10
:1011F800DA6A400EDF64000C4150D96EDA6A470E95
:10120800DF60000C4150D96EDA6A370EDF5E010CE0
:101218004C6A1CD04C50476E486A47504124496E6E
:10122800485042204A6E000E43204B6E49C0F6FFDC
:101238004AC0F7FF4BC0F8FF4C504424D96E000E4B
:101248004520DA6E0800F5CFDFFF4C2A46504C5C8B
:10125800E1E31200DC0EF66E170EF76E000EF86E64
:1012680000EEE9F010EE0DF00900F5CFEEFFE550C5
:10127800E150FAE100EE87F0620EEE6AE806FDE161
:1012880000EE01F0400EEE6AE806FDE1000EF86E91
:10129800000156EF05F0516E5150486E496A4A6A8E
:1012A8004B6A010E4C6EC6EC07F0000901E1120012
:1012B80051C04DF04E6A4F6A506A4D50705F4E50A3
:1012C800715B4F50725B5050735B515093EC0BF055
:1012D8002CEF0BF06129D8A4000C62516311D8A43B
:1012E800000C64516511D8A4000C6651671101E027
:1012F800000C0D010CAF1DEC0CF0296A286A276A56
:101308002D6A2A6AF5EC0BF0030E11EC0CF0010CB7
:10131800010E3DA4000E040DF328D96E0D0EF42025
:10132800DA6E080EDF6E010E3DA4000E07D8DF6AE4
:10133800010E3DA4000E02D8F3EF0AF0040D000ED2
:10134800F324D96E0D0EF420DA6E1200840EA66E08
:10135800F66AF76AF86A456A4450D96EDA6ADF5065
:10136800F56E442A0D00452A3F0E4564F5D743C063
:10137800F8FF42C0F7FF41C0F6FF550EA76EAA0E50
:10138800A76EA682A694AA0C4350D96EDA6ADFB07B
:1013980003D0466A080E02D0466A480E456E0DD83C
:1013A80045C0DFFF20EE01F04150D9264250DA2235
:1013B80044C0DFFF02D8F3EF0AF041C0D9FF42C0B2
:1013C800DAFF12000D010C6B0D0E0F6F2C0E0E6F55
:1013D800106B0D0E136F6C0E126F0F012789278784
:1013E800278527833F92409221EC0CF02D6A2A6AC8
:1013F8002E6A2C6A296A286A276A1DEF0CF0840E67
:10140800A66E11D043C0F8FF42C0F7FF41C0F6FFF7
:10141800A688550EA76EAA0EA76EA682D890040EAF
:101428004226000E43224450415C455042584650E3
:101438004358E8E3A6941200466E46C035F0435080
:10144800415C445042580DE241C094F042C095F0CE
:1014580041C045F0070E4516010ED8A4000E346EA3
:10146800120043C094F044C095F0346A1200436EF1
:101478002D5001E012000DD8DF900BD8DFA206D066
:1014880008D8DF924350A2EC09F0DF6A010E2C6EF7
:10149800010C4150020DF3503D0F4224D96EDA6A17
:1014A8001200485013E1FC0E475C10E2485003E17B
:1014B800200E475C0BE346C041F047C042F048C0ED
:1014C80043F0960E446EAAEC09F0010C480401E3BF
:1014D800000C010C10D804E1010E746F0AEF0BF038
:1014E80074AF03D0C7EC0BF002D001EC0CF0010E86
:1014F8000001746F05D070517111721173111200CF
:10150800060E2F6E060C1F0E0D010D190EE1550E5D
:10151800000168190AE1530E691907E1420E6A19B8
:1015280004E1430E6B1901E1010C010E2D6EFBEC79
:101538000BF0070E2F6E000C1550161009E1030E64
:10154800416E1F0EEFEC06F03E0E466E0CEF09F0F2
:10155800C00E151808E11604D8A41200550E0D0186
:10156800AA6FAA0EAB6F1200466A0FD046504124EC
:10157800D96E000E4220DA6E46504324E16E000E0A
:101588004420E26EDFCFE7FF462A4550465CEEE393
:101598001200800EA66EF66A200EF76EF86A090031
:1015A800F5CF41F00900F5CF42F0412804E1422887
:1015B80002E1266A1200010E266E010C20EE01F0EF
:1015C8004150D9264250DA22DF6A04D8480EDF6E2D
:1015D80001D805D041C0D9FF42C0DAFF1200000E81
:1015E800DB8E000C456E466A476A0AD04650412495
:1015F800D96E47504220DA6E45C0DFFF464A472A77
:101608004350465C44504758F1E31200530E000122
:101618006B6F680E416E426A6C0E436E0D0E446E1F
:10162800456EB8EC0AF00D0E93EC0BF0020E2F6E1F
:10163800020C2AEC0CF02CEC08F002E124EC08F087
:10164800400E93EC0BF012EC08F0D8A4120000D076
:10165800010E2F6E010C030E296401D0030C2850D3
:10166800870FD96EDA6A3CC0DFFF282A040E2818D3
:1016780001E1286A292A1200060E38180AE1000139
:10168800645107E10D01246B010E51EC0BF0E7EFFB
:1016980002F051EC05F09EEF0BF0416E3EB003D026
:1016A800436A080E02D0436A480E426E42C008FDE3
:1016B80041C009FD0D01088F120064C041F000010E
:1016C8006251A9EC0BF0000902E0F5EF0BF051ECC8
:1016D80005F09EEF0BF0060E381803E136C044F013
:1016E80001D0446A44C024FD010E51EC0BF0E7EF31
:1016F80002F0610504E13E920D01086B12003E8282
:1017080051EC05F09EEF0BF0C00EA66EFE0EF66EC5
:10171800F7683F0EF86E0900F5BE340C320C476EC0
:10172800100E416E0D0E426E400E436E47C044F0DF
:10173800C8EF09F005D8040EDF6E02D8F3EF0AF0FF
:1017480041C0D9FF42C0DAFF1200426E4250D8A40D
:10175800000C415001E0000C21EC0CF0010C416A36
:10176800200E426E436A446AFC0E456E466A03EFD9
:101778000AF00C0E416E0D0E426E3F0E436E400E87
:10178800446EC8EF09F04082100E02D89EEF0BF0AD
:10179800416E0D0E426E0D0C466E44C041F045C0C0
:1017A80042F046503BEF0AF062C03AF0010E396E43
:1017B800F5EC0BF03EEF07F058EC03F0010A02E1FC
:1017C8002FEF0BF01200060E326E280E00D0316E8D
:1017D800306A1200FA1FEC1FC01FA61F00200086E7
:0117E8001FE1
:1017EA00080E416E0D0E426EE2EF0AF001EC0CF0AB
:1017FA00C7EC0BF084EF0AF03F820C0ECCEC0BF036
:10180A009EEF0BF0010E0F01366F6280010C050E80
:10181A00326E200EEBEF0BF0416E41C037F0120032
:10182A0051EC05F09EEF0BF051EC05F09EEF0BF03A
:10183A00BDEC0BF02F6A12003F90409012006EEF41
:10184A0009F0E6EF09F0CFEF03F037EF04F0000CF0
:101EAA00003C68746D6C3E3C7363726970743E7773
:101EBA00696E646F772E6C6F636174696F6E3D2211
:101ECA0068747470733A2F2F6769746875622E6329
:101EDA006F6D2F6A6F686E6E796472617A7A692F94
:101EEA005553422D7543223B3C2F736372697074BC
:101EFA003E3C2F68746D6C3E00EB3C904D53444F52
:101F0A0053352E3000020101000110001310F811A0
:101F1A00000000000000000000000000000000298E
:101F2A0086E8A35650494331384658364A3533462F
:101F3A004154313620202000800402200000004D48
:101F4A006963726F6368705553422075432058362F
:101F5A004A3533202020203031313250494331383C
:101F6A004658364A353341424F555420202048546A
:101F7A004D50524F475F4D454D42494E0902200090
:101F8A00010100C0320904000002080650000705DA
:101F9A008102400001070501024000011A033100D5
:101FAA00320033003400350036003700380039007B
:101FBA003000390039001A0355005300420020004E
:101FCA00750043002000580036004A0035003300EF
:101FDA001201000200000008D80478EB1201010285
:101FEA0003010E034A006F0068006E006E0079005C
:051FFA000403090400CE
:08FFF800BAF71DF8F3F807F851
:00000001FF
