:040000000EEF00F00F
:0400080004EF10F001
:100018000CEF10F0ABEF09F02C0E386E040E396EB1
:100028006D0E3A6E3B6A100E3C6E07EC0CF099ECC4
:100038000CF0000903E1A8EC0CF0040C71C0B2F05C
:1000480072C0B3F073C0B4F074C0B5F0BCD0DCD8E3
:10005800ECD8F4D83C6EABEC05F0F6D81C0E57146F
:1000680015E0100E5718561003E0526A536A03D071
:10007800536A020E526E52C0BAF01C6A1D6AB8D892
:10008800400E3D6ECDEC0AF03670030C040E561887
:100098005710D1E1020E0001BA6F010CB5D8C5D8CE
:1000A800CDD8010E3C6EABEC05F0CED856C051F061
:1000B800700E511613E0400E5618571003E0546A9C
:1000C800556A03D0556A020E546E54C0BAF01C6AC1
:1000D8001D6AFDEC0CF0CFEC06F0020C020E56186F
:1000E8005710D8E0A8D744EC0CF05DD08C0E8CECFF
:1000F8000BF0120E3C6E07EC0CF0120E4ED03FC403
:100108001AF03EC41BF01B5003E1250E1A5C03E3F2
:100118001B6A240E1A6E620E386E1F0E396E381066
:10012800D8A4000E3A6E6C0E3B6E040E3C6E1AC0DC
:100138003DF014EC0BF01AC042F01BC043F0446AC7
:10014800456A6FEF08F0030E04016C6F6D6B6E6B00
:100158006F6B040E22D004013D513E113F11401136
:1001680002E043A168D750D80450031005E1AC0E53
:10017800015C020E025805E36C696D696E696F696E
:1001880006D06C6B6D6B020E6E6FAB0E6F6F706B83
:10019800716B020E726F736B080E426E436A446A8B
:1001A800456A6FEF08F0000EEBEF0BF07B5108E0AB
:1001B80079AF03D0010E59EF0AF0020E59EF0AF099
:1001C800000E59EF0AF07C518EE0030A8FE0110A05
:1001D80096E0080AB8E0010AE6E03E0ABCE00D0A2B
:1001E80001E15CD7020A01E132D7050ADCE0DED77B
:1001F8000C0E386E040E396E360E3A6E040E3C6ED6
:100208002C0E3B6E3E6A2C0C40C401F03FC402F039
:100218003EC403F03DC404F001C005F002C006F07E
:1002280003C007F004C008F0120075C0B6F076C02D
:10023800B7F077C0B8F078C0B9F01200386A020E8B
:10024800396E3A6A3B6A020C38C056F039C057F02A
:100258001200516E245001E1E1D0510E386EF1ECDC
:100268000AF0000901E0DAD0246A0D0C0D0E5118CD
:10027800D8B40B0C0A0E511801E10B0C3A0E5118A8
:10028800F3E1216A136A020E126E236A010E246ECC
:100298000B0C2338F00B5110236EE1D8D8A40B0CAB
:1002A800100E236401D0E0D723502126136A040ED0
:1002B800126E166A176A020EEAD716C04DF017C0FA
:1002C8004EF0C1D8166E4E50176EC9D8D8A40B0C74
:1002D8001750212616502126136A020E126E206A24
:1002E800030ED5D7BCD8D8A40B0C51C020F0205091
:1002F800212610D0136A020E126E1F6A1E6A040E9F
:10030800C6D7BED829D0136A040E126E146A156AAD
:10031800050EBDD72050EEE0010AF3E0050AF3E030
:10032800A3D7A3D805E151C01EF01E3AF00E1E1641
:1003380012501310D8A40B0C51501E129CD81EC07A
:10034800DFFF99D8DF5021261F2A136A020E126E8A
:1003580023501F18D8A40B0C226A0A0E98D714C071
:100368004DF015C04EF06FD8146E4E50156E77D8FC
:10037800D8A40B0C1450212614504D6E15504E6EF7
:100388004F6A506A4EC050F04DC04FF04E6A4D6AE9
:100398004DC069F04EC06AF04FC06BF050C06CF0B1
:1003A8006FD8DAD762D805E151C022F0223AF00EB0
:1003B800221612501310D8A40B0C5150221222509E
:1003C8002126215001E050D722D01650000169257E
:1003D800436E17506A21446E000E6B21456E000E65
:1003E8006C21466E9E0E476E23C048F024EC05F043
:1003F800000901E139D710D0265007E09AEC05F042
:10040800BAEC08F0000901E12FD7246A0C0C20503F
:10041800DCE0010AF1E0050A246A0B0C245001E132
:1004280025D7010A01E135D7030A01E146D7010AB8
:1004380001E158D7070A01E174D7010A90E00F0AD1
:10044800D8A40B0CAFD74D3A4E3AF00E4E164D507D
:100458000F0B4E12F00E4D1651504D101200120691
:10046800D8A013061250131012001206D8A01306B3
:100478001204131012001F509E0FD96EDA6A120070
:10048800136A020E126E020CAC0E386E040E396E30
:10049800020E3B6E000E3A6A1CEC0CF0055006107A
:1004A800071008100FE1240E386E1F0ED7D83E0E25
:1004B8003D6E14EC0BF0550EE8CFAAF6AA0EE8CF65
:1004C800ABF6AA0C050406100710081062E1F80E36
:1004D800E8CFACF4FF0EE8CFADF4E8CFAEF4E8CF48
:1004E800AFF4E8CFB0F4E8CFB1F4C9D804E109001B
:1004F800F528D8B412004A6A040E496E4C6A060EF2
:100508004B6E49A019D0A3D80F0EDF164950100D15
:10051800F3CF42F0100E42269AD84250DF12A8D8E4
:10052800BDD8040E446ED89043324232442EFBD7D5
:100538004250DF6EB9D80FD08AD84928DF6E98D8D4
:10054800F00EDF16ABD843C042F0436A91D8425050
:10055800DF124B4A4C2A494A4A2A4A5003E1330ED1
:10056800495CCFE349A00AD072D80F0EDF166FD8C6
:10057800F00EDF127DD8DF6897D8000C68D8DF68E6
:1005880077D8F00EDF1674D80F0EDF124B4A4C2ABC
:100598000F0C030E7ED810E172D803E10900F5288C
:1005A80004E073D85BD8800E17D06FD857D8600E88
:1005B8003D6E14EC0BF0120008500710061004E111
:1005C800040E055CD8A01200040E63D808E1B30E2F
:1005D800386E1E0E43D8710E3D6E14EF0BF0050EEB
:1005E80058D80CE14B6A4C6A32D84B50D9EC0CF015
:1005F800DF6E4B4A4C2A4C04F7E3120005C038F072
:1006080006C039F007C03AF008C03BF0CEEC0BF05A
:1006180038C045F039C046F03AC047F03BC048F012
:1006280048504710C8E1800E465CD8B0120045C05B
:1006380038F046C039F047C03AF03B6A020E3C6ECB
:100648003D6AAC0E3E6E040E3F6EDCEF09F0AC0E58
:100658004B24D96E040E4C20DA6E1200396E381015
:10066800D8A4000E3A6EAC0E3B6E040E3C6E12001F
:10067800AD0E4B24D96E040E4C20DA6E1200F66AC9
:10068800200EF76E0900F5281200330E386E1E0E84
:100698001200051806100710081012004928426EAB
:1006A800000E4A20436E1200020E4B26000E4C220A
:1006B800000C25507EE10150051851E10250061842
:1006C8004EE1035007184BE10450081848E1085060
:1006D8000710061003E1040E055C41E3AC0E546EEE
:1006E800040E556E54C0D9FF55C0DAFF3A0EDE1815
:1006F80027E1566A576A570E3A6E030E86D831ECD0
:100708000AF0000901E11200560E3A6E050E7DD876
:1007180031EC0AF0000901E11200200E57185610BA
:100728001EE143EC03F003E10900F52802E0CFECF9
:100738000CF084EC05F01CEC0CF0010E256E0FD0CB
:10074800050E4DEC03F00BE1586A596A56D8386E1D
:10075800585068EC0CF0584A592A5904F7E3030E2C
:100768004DEC03F026E143EC03F003E10900F52822
:100778000CE025EE0CF0DF5004E00CC5E8FFE50ABC
:1007880004E1CFEC0CF0010E286E24EEECF0DF5003
:1007980004E0ECC4E8FFE50A0CE1586A596A3868D5
:1007A800585068EC0CF0584A592A5904F8E3010EDD
:1007B800286E2504D8A4120008500710061004E17A
:1007C800040E055CD8A01200586A596A16D82DEC98
:1007D80001F0536E0B0E53180AE00D0E531802E188
:1007E800CFEC0CF0020E256E010E286E010C584A53
:1007F800592A020E595CEAE31200AC0E5824D96E4D
:10080800040E5920DA6EDF50120054243B6E000E9D
:1008180055203C6E1200010E426E040E2C1866E044
:10082800050E2C1863E068D06205631165E1610567
:1008380002E1339201D03382426A5ED06251631181
:100848005BE1050E2C1808E164510F0B3F6E020E98
:100858003F6005D0426A03D064510F0BFBE0425061
:100868004BE164510F0B0BE1610504E13592040182
:10087800086B42D0358249D8B6EC0CF03DD064AF55
:1008880003D03F6A3F2A01D03F6A000170EC06F0AE
:100898003F24406E4028416E610517E164AF03D0E4
:1008A8003F6A3F2A01D03F6A35D8DF9064AF03D052
:1008B8003F6A3F2A01D03F6A2DD8DF9235D8A1EC94
:1008C80009F0DF6AE2EC0CF017D064AF03D03F6A9E
:1008D8003F2A01D03F6A1ED8DF8226D8F324386E1B
:1008E800040EF420396EB6EC0CF006D0000160510D
:1008F8001F0B9AE0020AA2E0425003E006D8B6EFC6
:100908000CF0C6EC0AF056EF0CF0080E386E040E28
:10091800396E040C000164510F0B020DF350340FB3
:100928003F24D96EDA6A12004150040D000C010E02
:100938004A6E45D0DA0E0D6E1F0E0E6E0D10D8A43D
:10094800000E0F6E4C6A120E4B6E4A6A42D062510C
:1009580040E168D859D86DD865D856D844C047F012
:1009680045C048F046C049F0020E4724F66E000E16
:100978004820F76E000E4920F86E0900F5CF4BF0BD
:100988000A00F5CF4CF0E1D7080E626122D062511F
:10099800020D290EF324F66E1E0E36D84AD80DC065
:1009A800F6FF0EC0F7FF0FC0F8FF0800F5504B6EBA
:1009B8004C6ACBD7FFEC0CF00009C7E10AD0000164
:1009C8006351010AB7E0030AC2E0010ADDE0050A43
:1009D800F1E14A5004E089EC04F0B6EF0CF06651FE
:1009E8004B5C67514C5807E24BC018F04CC019F0EB
:1009F800010E296E05D066C018F067C019F0296A83
:100A0800010E306E75EF06F0F420F76E0900F5CF91
:100A180042F00900F5CF43F042C044F043C045F02E
:100A2800466A12006251020D310EF324F66E1E0E54
:100A3800120044C00DF045C00EF046C00FF0120081
:100A480043503F0B276EC00E4314096E44500A6E84
:100A580045500B6E46500C6EBB51091809E1BC514C
:100A68000A1806E1BD510B1803E1BE510C180BE042
:100A7800265009E05BD8BAEC08F0000901E1000C47
:100A88003FD81CEC0CF04B6A4C6A06D041D8400E9B
:100A9800271804E04B4A4C2A52D8F8E3400E27188E
:100AA80024E109C03EF00AC03FF00BC040F00CC082
:100AB80041F0BAEC08F0000901E1000C21D81CEC67
:100AC8000CF0276A4B4A4C2A48504B5C000E4C5895
:100AD80004E305D01DD84B4A4C2A31D8FBE3400E1D
:100AE8000926000E0A220B220C2227C026F009C074
:100AF800BBF00AC0BCF00BC0BDF00CC0BEF0010CCE
:100B0800000E386E010E396E3B6A400E3A6EFF0CCD
:100B18004750D96EDA6A000E2724E16EE26A010EA8
:100B2800E222DFCFE7FF272A472A1200BBC03EF0A8
:100B3800BCC03FF0BDC040F0BEC041F012004850FC
:100B4800496E4A6A49504B5C4A504C5812004DD085
:100B580057D803E13E6A010E46D079AF03D03E6A0A
:100B6800080E41D0010E39D04BD803E13E6A020E7F
:100B78003AD079AF17D0385075190CE13950761939
:100B880009E13A50771906E13B50781903E13E6ACA
:100B9800200E29D03BD803E23E6A100E24D03E6ACC
:100BA800400E21D0020E19D02BD803E13E6A040E64
:100BB8001AD079BF16D0385075190BE1395076190B
:100BC80008E13A50771905E13B50781902E1080E1F
:100BD80004D01CD8040ED8B0100E3E6E000E3D6A2C
:100BE8000AD03E6A800E3D6E06D03C50B1E0010A44
:100BF800BBE0030AD9E03DC038F03EC039F012002E
:100C08000001755176117711781112007551385C11
:100C18007651395877513A5878513B581200010E9D
:100C2800406E240E386E040E396E3B6A080E3A6E1A
:100C3800000E1CEC0CF0040E2C1838E0050E2C18D5
:100C480035E03CD033A003D00401248102D0040154
:100C5800249133A202D0258102D004012591406A53
:100C68002DD0040E2C1805E164510F0B09E1406AE0
:100C780007D064510F0B3F6E020E3F6001D0F7D7CB
:100C880040501CE164AF03D03F6A3F2A01D03F6A5D
:100C9800000122D8340F3F24D96EDA6ADFA203D0CC
:100CA8000401248102D00401249108D0000160517C
:100CB8001F0BC8E0010AD3E0030AD3E0405004E068
:100CC80089EC04F0B6EF0CF0010E306EB8EC06F0CB
:100CD800020E3D6ECDEF0AF064510F0B020DF3507A
:100CE80012001850191037E0195003E1090E185C6A
:100CF80014E346D8080E3D6E14EC0BF0080E0D26D2
:100D0800000E0E220F2230D8080E3D6ECDEC0AF0F0
:100D1800080E185E000E195A000C18501910D8B495
:100D280012002ED818C03DF014EC0BF0080E386EE7
:100D3800040E396E350E3A6E040E3C6E240E3B6E70
:100D480018C03DF019C03EF0CDEC0AF01850185EFE
:100D58001950195A12002950D8B4120005D83D6A02
:100D6800CDEC0AF0296A1200080E386E040E396EAE
:100D7800350E3A6E040E3C6E240E3B6E3E6A240C11
:100D88000DC038F00EC039F00FC03AF0240E3B6E9B
:100D9800040E3C6E040C4F6A506AAC0E4D6E040E85
:100DA8004E6E4F504D2650504E221C504D24D96E39
:100DB8001D504E20DA6E6C0E4F24E16E040E50204A
:100DC800E26EDFCFE7FF4F4A502A505003E1400E52
:100DD8004F5CE3E328D805E12ED8FDEC0CF01C6A43
:100DE8001D6A0AD83E6A400E3D6ECDEC0AF0377097
:100DF8000ED801E1010C000C100E386E040E396E8D
:100E0800370E3A6E040E3C6E6C0E3B6E6C0C400E48
:100E18000001B65F000EB75BB85BB95BB651B7119E
:100E2800B811B9111200400E1C26000E1D22020E28
:100E38001D181C101200052A000E0622072208227F
:100E4800000C086B61B205D0140E48D807EC0CF002
:100E580004D01C0E43D807EC0CF0609878EC09F02D
:100E68003480358000016039E832030B05E031D069
:100E780089EC04F0B6EF0CF0615102E113EF06F0D3
:100E8800010A02E10FEF04F0020A02E10FEF04F099
:100E9800060A02E1C3EF0CF0030A02E19BEF04F03B
:100EA800010A02E1F0EF0CF00F0A02E179EF0CF011
:100EB800010A02E1A7EF0AF0030A02E130EF0CF0A1
:100EC800010A02E1ECEF0CF0070A02E1E8EF0CF08E
:100ED800CFD780EC0AF00009CBE01200386E040E80
:100EE800396E600E3A6E3B6A080E3C6E080C47D0AD
:100EF80010EC00F05E6E10D0010E2F6E010C74EC39
:100F08000BF0E5EF0CF0030E2F6E030C040E2F6EA2
:100F1800040C050E2F6E050C5E50EEE0010AEFE0A2
:100F2800030AF1E0010AF2E0070AD8A41200F1D797
:100F38002E5008E03782100EB2EC0CF0B6EC0CF034
:100F48002E6A12002D50DBE036820C0EB2EC0CF04B
:100F5800B6EC0CF02D6A1200FCEC00F01F0E3D6E92
:100F6800CDEC0AF036702F6A1200CFEC06F00009BB
:100F7800C3E1120044EC09F00009C1E112002F504E
:100F8800B7E0010AD5E0030AE7E0010AEEE0070A44
:100F9800F1E0010A1200D2882F0E0001C26FBF0EC5
:100FA800E82EFED7C22FFCD700D081BC06D043EC78
:100FB80003F03FE10900F5283CE181BCFED7939E90
:100FC80055EC0BF0286A22EC08F003EC09F02850E5
:100FD8000FE0104A112A100E0001C26F940EE82E7D
:100FE800FED7C22FFCD700F0140E101811101EE007
:100FF80081ACEBD7070E0001C36F170EC26F6A0EE4
:10100800E82EFED7C22FFCD7C32FFAD700F081BC39
:10101800FED7070E0001C36F170EC26F6A0EE82EC7
:10102800FED7C22FFCD7C32FFAD700F089EC0CF0FB
:10103800FF00D29800EF10F00EEF00F094EC0CF0E7
:101048006A6A080E6B6E636A33903392150E626E8D
:10105800386A396A000E3824D96E040E3920DA6EDF
:1010680034D803E1140E385CF5E3386A396A38502D
:10107800340FD96EDA6A29D803E1040E385CF7E335
:101088002A6A296A326A316A01D0659665B6FDD73F
:101098006098160E6A6E2C5007E16086010E2C6E61
:1010A80060BAFED7020E2C6E306A080E0401016F7A
:1010B800040E036F140E026F008F080E056F040EE6
:1010C800076F1C0E066F048F1C0C000EDF6E384A6B
:1010D800392A3950120042C038F043C039F044C0B0
:1010E8003AF045C03BF0010E3C6EABEC05F038C061
:1010F80048F039C049F048C038F049C039F042C01A
:101108003AF043C03BF044C03CF045C03DF007EC2A
:101118000AF048C046F0720E461625E048C046F070
:10112800700E46160BE000EC07F042C03DF043C0DD
:101138003EF0CDEC0AF03770476A02D0010E476ED8
:1011480048C046F0300E461603E00001BA6B03D0E3
:10115800020E0001BA6F100E4818491002E1010E84
:101168002E6E47501200A8EC0CF0040C41504010B1
:1011780016E1800E3F5C13E24150401003E1200E5F
:101188003F5C0DE33EC038F03FC039F040C03AF054
:10119800000E3B6E010E3C6E35EC0BF0010C200E80
:1011A80040183E103F10411029E0300E40183E1004
:1011B8003F10411023E0415020E13F04F00E405819
:1011C800D8B0000C415004E1F00E405CD8A0000CEF
:1011D8003F6A406A416A426A000E4224D96EDA6A5E
:1011E800010EDA22DF50386E42503E2468EC0CF0D3
:1011F800422A3F0E4264F0D7010C000C010C65A096
:101208003AD0020E2C1802E022EC08F0030E2C6EE5
:10121800659031D06130E832E8320F0B29E161B4D2
:101228000ED096EC09F00401DF30E8320F0B0D0AFE
:1012380003E125EC07F01ED078EC09F01BD0300450
:1012480004E1357075EC06F015D078EC09F02A50F9
:1012580011E02BC063FF030E2C1805E12B5003E0AF
:10126800040E2C6E03D02B5001E165802A6A02D04F
:101278007BEC07F0659665B6CDD765BC659C12001A
:101288005C6A5D6A2C0E5C24D96E040E5D20DA6EF1
:10129800AC0E5A6E040E5B6E5C505A265D505B2293
:1012A8001C505A24E16E1D505B20E26EDFCFE7FF31
:1012B8005C4A5D2A5D5003E1400E5C5CE3E317EC99
:1012C80007F006E1FBEC0CF01FEC07F01C6A1D6A46
:1012D8000BEC07F001E1010CFCEC00F0400E3D6E58
:1012E800CDEC0AF03670000C010E61A2000E040D60
:1012F800F328D96E040EF420DA6E080EDF6E61B2A0
:1013080005D0010E20D819D8140E04D0010E1BD810
:1013180014D81C0EDE6E040EDD6E04D8DF6A02D807
:10132800BBEF0CF0010E61A2000E040D000EF324B9
:10133800D96E040EF420DA6E1200F324D96E040E6E
:10134800F420DA6E120061A2000E040D020CE80E01
:10135800F66E190EF76E000EF86E00EEBBF010EE8A
:1013680007F00900F5CFEEFFE550E150FAE104EE91
:10137800ACF012EE00F0EE6AE550E150FCE1E2500C
:10138800FAE101EE00F0400EEE6AE806FDE100EE3B
:1013980069F0520EEE6AE806FDE100EE01F0370E44
:1013A800EE6AE806FDE1000EF86E0001CFEF07F0E7
:1013B800800EA66E13D03AC0F8FF39C0F7FF38C0C8
:1013C800F6FF090010D801E1120009000CD801E16C
:1013D8001200020E3826000E39223A223B503C10E9
:1013E8003D10E9E112003EC0D9FF3FC0DAFFF5CF5A
:1013F800DFFF3E4A3F2A3B06000E3C5A3D5A3B500F
:101408003C103D101200410E3E6E100E1AD802E03C
:1014180001EF0CF0380E3E6E0D0E13D802E119EFF5
:1014280001F03A500001755DB66F3B507659B76FC1
:101438003C507759B86F3D507859B96F120019EF81
:1014480001F03F6E38C040F039C041F03E504016C0
:101458003F5041164050411012003BC0D9FF3CC0DC
:10146800DAFFDF503D6E20EE01F03B50D9263C50AC
:10147800DA22DF503E6E3D0E386EF1EC0AF00009BC
:1014880001E1000C3E0E386EF1EC0AF0000901E1B2
:10149800000C3A50D96EDA6A3D38F00BDF6E3A50DC
:1014A800D96EDA6A3E50DF12010C3A6E04EC06F08F
:1014B80011E03A0407E13782100EB2EC0CF0B6ECFA
:1014C8000CF006D036820C0EB2EC0CF0B6EC0CF038
:1014D800040E01D0010E3B6E19EC01F0010E000163
:1014E800BA6F44EC0CF08E51F00B05098E6F200E8C
:1014F800986F996B3B501200FE0E611905E189EC5B
:1015080004F0B6EC0CF0010C6129D8A4000C36A24A
:1015180004D03690369204010C6B37A204D0379071
:1015280037920401106B04010CBF08D0FCEC00F0EA
:101538001F0E3D6ECDEC0AF036702F6AC6EC0AF02D
:1015480056EC0CF0010C040E2C1803E0050E2C18B8
:1015580015E10001635112E1020E625D0FE212D83B
:1015680056EC0CF062C032F0325005E093EC0BF010
:10157800050E2C6E050C040E2C6E040C89EC04F080
:10158800B6EF0CF0030E306E080E386E040E396E8E
:10159800040C3A50D96EDA6ADFA003D014D8480E8A
:1015A80002D011D8080EDF6E20EE01F011D83DC030
:1015B800DFFF20EE02F00CD83BC0DEFF3CC0DDFFB1
:1015C80002D8BBEF0CF038C0D9FF39C0DAFF1200DF
:1015D8003850D9263950DA2212003850D96EDA6AD2
:1015E8002F0EDF640BD03850D96EDA6A3A0EDF60FE
:1015F80005D03850D96EDA6A300E10D03850D96E0E
:10160800DA6A400EDF64000C3850D96EDA6A470E89
:10161800DF60000C3850D96EDA6A370EDF5E010CD5
:10162800416A1BD04150010DF35038243E6EF450EE
:1016380039203F6E000E3A20406E3EC0F6FF3FC094
:10164800F7FF40C0F8FF41503B24D96E000E3C2004
:10165800DA6E0800F5CFDFFF412A3D50415CE2E336
:101668001200840EA66EF66AF76AF86A3D6A3BC0F5
:10167800D9FF3CC0DAFFDF50F56E3B4A3C2A0D002B
:101688003D2A3F0E3D64F3D73AC0F8FF39C0F7FF53
:1016980038C0F6FF550EA76EAA0EA76EA682A694AE
:1016A800AA0C3A6A8A8E070E396E170E386E6A0EC1
:1016B800E82EFED7382EFCD7392EFAD700D08A9ECE
:1016C800040E396E0C0E386E340EE82EFED7382E06
:1016D800FCD7392EFAD73A2A020E3A64E3D7020C1D
:1016E800550E0001AE6F530EAF6F420EB06F530E22
:1016F800B16FAE0E0DD80D0E3C6E07EC0CF000EC81
:1017080007F03E6A0D0E3D6ECDEC0AF03770120000
:10171800386E396A6C0E3A6E040E3B6E040C040186
:101728000C6B040E0F6F2C0E0E6F106B040E136FE4
:101738006C0E126F6B886B966B846B823692379245
:10174800F8EC0CF02E6A2D6A2F6AFCEC00F01F0EE4
:101758003D6ECDEC0AF036701200840EA66E11D0E4
:101768003AC0F8FF39C0F7FF38C0F6FFA688550E13
:10177800A76EAA0EA76EA682400E3826000E392242
:101788003A223B50385C3C5039583D503A58E8E3CF
:10179800A694120038C03CF039C03DF03AC03EF083
:1017A8003BC03FF0090ED8903C363D363E363F36BA
:1017B800E82EF9D7000E3C24386E140E3D20396E01
:1017C800000E3E203A6E000E3F203B6E1200416E26
:1017D800386A396A3A6A3B6A3C6AABEC05F038C049
:1017E8003FF039C040F03F04401004E106D841C042
:1017F800BAF0010CA8EC0CF0040C0001B66BB76B46
:10180800B86BB96B12003D6A0FD03D503824D96EC1
:10181800000E3920DA6E3D503A24E16E000E3B206E
:10182800E26EDFCFE7FF3D2A3C503D5CEEE312005D
:101838003C6E3D6A3E6A0AD03D503824D96E3E500F
:101848003920DA6E3CC0DFFF3D4A3E2A3A503D5C03
:101858003B503E58F1E31200050E2C180DE1000133
:1018680064510AE131C024F4010E306EB8EC06F080
:10187800010E3D6ECDEF0AF089EC04F0B6EF0CF0E6
:10188800386A38508C0FD96EDA6ADF6A382A110E36
:101898003864F7D700018C51800B70098C6F0A0EE1
:1018A800936F0A0C20EE01F03850D9263950DA220D
:1018B800DF6A05D8480EDF6E02D8BBEF0CF038C0DF
:1018C800D9FF39C0DAFF1200396E39C0A9FF38C014
:1018D800A8FFA69EA69CA684550EA76EAA0EA76E64
:1018E800A682A6B2FED7A6941200050E2C1803E114
:1018F80032C024F402D00401246B010E306EB8EC1F
:1019080006F0010E3D6ECDEF0AF0606A626A6A6AFF
:101918006B6A01D0659665B6FDD702D82C6A1200AD
:10192800646A666A656A676A1200550E00016D1975
:101938000AE1530E6E1907E1420E6F1904E1430ED6
:10194800701901E1010C000C3782100E07D8B6ECB3
:101958000CF036820C0E02D8B6EF0CF0386E040E7E
:10196800396E040C07D8040EDF6E04D800D0000EC0
:10197800DB8E000C38C0D9FF39C0DAFF120062C014
:101988002BF0030E306E010E2A6E080E386E040E10
:10199800396E56EF0CF0386A200E396E3A6A3B6A97
:1019A800800E3C6E3D6AB1EF0BF0386E38C0A9FF6F
:1019B800A69EA69CA68000F0A850120074EC0BF01E
:1019C80000D0020E2F6E020C89EC04F0B6EF0CF07A
:1019D80089EC04F0B6EF0CF089EC04F0B6EF0CF0EB
:0719E80000200000002000B8
:1019F0003690379012005DEF03F048EF02F0000CD4
:101E280000FA1FEC1FC01FA61F861F5049433138F8
:101E38004658354B3530080000A07B0B4B0B4B0048
:101E480000A07B0B4B00000000000041424F55549E
:101E580020202048544D200000A07B0B4B0B4B004A
:101E680000A07B0B4B020071000000454550524F0B
:101E78004D202042494E200000A07B0B4B0B4B000D
:101E880000A07B0B4B03000001000050524F475F3E
:101E98004D454D42494E200000A07B0B4B0B4B009B
:101EA80000A07B0B4B0400006000003C68746D6C64
:101EB8003E3C686561643E3C6D657461206874747D
:101EC800702D65717569763D2272656672657368F5
:101ED8002220636F6E74656E743D22303B55524C00
:101EE8003D2768747470733A2F2F67697468756238
:101EF8002E636F6D2F6A6F686E6E796472617A7A7D
:101F0800692F5553422D75432722202F3E3C2F68B9
:101F18006561643E3C2F68746D6C3E00EB3C904DEF
:101F280053444F53352E300002010100011000AC1C
:101F380002F802000000000000000000000000009D
:101F480000002986E8A35650494331384658354B96
:101F580035304641543132202020008004022000D0
:101F680000004D6963726F63687055534220754372
:101F78002058354B353020202020303030370902AA
:101F88002000010100C032090400000208065000C8
:101F980007058102400001070501024000011A03FC
:101FA80030003000300030003000300030003000A9
:101FB80030003000300030001A0355005300420052
:101FC8002000750043002000580035004B00350004
:101FD80030001201000200000008D80404EF0700D6
:101FE800010203010E034A006F0068006E006E00D4
:071FF8007900040309040055
:020000040020DA
:08000000FFFFFFFFFFFFFFFF00
:020000040030CA
:0E00000020020222FFD181FF0FC00E800F40B0
:00000001FF
