:040000000EEF00F00F
:0400080004EF10F001
:100018000CEF10F0FFEF09F01B6E4D5001E1E9D035
:100028001B0E016E01EC0DF0000901E0E2D04D6AF3
:100038000D0C0D0E1B18D8B40B0C0A0E1B1801E181
:100048000B0C3A0E1B18F3E10001726B456A020EA5
:10005800446E4C6A010E4D6E0B0C4C38F00B1B10A5
:100068004C6EE8D8D8A40B0C100E4C6401D0DFD726
:100078004C5000017227456A040E446E466A476A6E
:10008800020EE9D746C017F047C018F0C7D8466E29
:100098001850476ECFD8D8A40B0C475000017227D0
:1000A80046507227456A020E446E4B6A030ED3D738
:1000B800C1D8D8A40B0C1BC04BF04B5000017227C1
:1000C80010D0456A020E446E4A6A716B040EC3D79B
:1000D800C2D82BD0456A040E446E6E6B6F6B050E4A
:1000E800BAD74B50EEE0010AF3E0050AF3E09FD7D8
:1000F800A7D806E11BC071F00001713BF00E711723
:1001080044504510D8A40B0C1B50000171139ED805
:1001180071C0DFFF9BD8DF5072274A2A456A020E5A
:10012800446E4C504A18D8A40B0C736B0A0E93D724
:100138006EC017F06FC018F071D800016E6F1850BC
:100148006F6F78D8D8A40B0C6E5172276E51176E4A
:100158006F51186E196A1A6A18C01AF017C019F088
:10016800186A176A17C060F018C061F019C062F009
:100178001AC063F070D8D9D763D806E11BC073F0F2
:100188000001733BF00E731744504510D8A40B0CB4
:100198001B500001731373517227725101E047D746
:1001A80021D0465060250D6E475061210E6E000E1D
:1001B80062210F6E000E6321106EA50E116E4CC0E9
:1001C80012F0D1EC04F0000901E131D710D04F5002
:1001D80007E048EC05F033EC09F0000901E127D706
:1001E8004D6A0C0C4B50DDE0010AF1E0050A4D6A3E
:1001F8000B0C4D5001E11DD7010A01E12ED7030A6E
:1002080001E140D7010A01E153D7070A01E170D79C
:10021800010A8EE00F0AD8A40B0CAED7173A183A89
:10022800F00E181617500F0B1812F00E17161B5059
:10023800171012004406D8A0450644504510120075
:100248004406D8A045064404451012004A50A50F9C
:10025800D96EDA6A1200456A020E446E020C900EDC
:10026800016E040E026E740E036E046A100E056EA3
:100278004BEC0EF0BBEC0EF0000903E1D9EC0EF0EC
:10028800040C78C0B9F079C0BAF07AC0BBF07BC072
:10029800BCF0BAD0CED8DED8E6D8056EBFEC06F0F2
:1002A800E8D81C0E201416E0100E20181F1003E0CA
:1002B8001B6A1C6A03D01C6A020E1B6E1BC0C1F0AD
:1002C800426A436AF3EC09F0400E066EDDEC0CF06E
:1002D8005B70030C040E1F182010D0E1CFD0A9D8F2
:1002E800B9D8C1D8010E056EBFEC06F0C2D81FC040
:1002F8001AF0700E1A1613E0400E1F18201003E0B3
:100308001D6A1E6A03D01E6A020E1D6E1DC0C1F052
:10031800426A436A13EC0FF0A8EC0AF0020C020ED2
:100328001F182010DBE0AAD7C7EC0DF05DD0930EA4
:10033800C0EC0DF0120E056E4BEC0EF0120E4ED006
:10034800A3C448F0A2C449F0495003E1250E485C13
:1003580003E3496A240E486E620E016E1F0E026E98
:100368000110D8A4000E036ED00E046E040E056EA4
:1003780048C006F047EC0DF048C00BF049C00CF03F
:100388000D6A0E6A84EF07F0030E0401D06FD16B7B
:10039800D26BD36B040E22D00401A151A211A31178
:1003A800A41102E0A7A16AD744D83D503C1005E14A
:1003B800AC0E3A5C020E3B5805E3D069D169D269AC
:1003C800D36906D0D06BD16B020ED26FAB0ED36F50
:1003D800D46BD56B020ED66FD76B080E0B6E0C6AFA
:1003E8000D6A0E6A84EF07F0000E02EF0EF08251DC
:1003F80008E080AF03D0010E10EF0BF0020E10EFF3
:100408000BF0000E10EF0BF083518EE0030A8FE023
:10041800110A96E0080AB8E0010AE6E03E0ABCE0E4
:100428000D0A01E15CD7020A01E134D7050ADCE0D4
:10043800DED7A4C43AF0A3C43BF0A2C43CF0A1C4E4
:100448003DF03AC03EF03BC03FF03CC040F03DC0FC
:1004580041F012007CC0BDF07DC0BEF07EC0BFF090
:100468007FC0C0F01200016A020E026E036A046ABD
:10047800020C01C01FF002C020F01200020E0001A1
:10048800C16F010C100E016E050E026E020E046E95
:10049800000E036A60EC0EF03E503F104010411011
:1004A8000FE1240E016E1F0EC1D83E0E066E47ECFA
:1004B8000DF0550EE8CF0EF7AA0EE8CF0FF7AA0CED
:1004C8003E043F104010411061E1F80EE8CF10F5EE
:1004D800FF0EE8CF11F5E8CF12F5E8CF13F50F0EB0
:1004E800E8CF14F5BBD804E10900F528D8B4120008
:1004F800136A030E126E156A040E146E12A019D038
:10050800A6D80F0EDF161250100DF3CF0BF0100EF9
:100518000B269DD80B50DF1293D8AFD8040E0D6E62
:10052800D8900C320B320D2EFBD70B50DF6EABD8A8
:100538000FD08DD81228DF6E83D8F00EDF169DD825
:100548000CC00BF00C6A7CD80B50DF12144A152A29
:10055800124A132A135003E1320E125CCFE312A0A1
:100568000AD075D80F0EDF1672D8F00EDF1268D8D1
:10057800DF6889D8000C6BD8DF6862D8F00EDF1608
:100588005FD80F0EDF12144A152A0F0C030E70D80D
:100598000DE164D803E10900F52804E065D846D8E0
:1005A800600E14D061D842D8400E10D0415040108F
:1005B8003F1004E1040E3E5CD8A01200040E58D887
:1005C80008E1530E016E1E0E31D8710E066E47EF0C
:1005D8000DF03EC001F03FC002F040C003F041C042
:1005E80004F0E5EC0DF001C00EF002C00FF003C0FE
:1005F80010F004C011F01150101017E1800E0F5CBC
:10060800D8B012000EC001F00FC002F010C003F005
:1006180011C004F0056A020E066E076A086A100E19
:10062800096E050E0A6E41EF0BF01200026E011002
:10063800D8A4000E036E100E046E050E056E12008F
:10064800110E1424D96E050E1520DA6E1200100E44
:100658001424D96E050E1520DA6E1200F66A200EE3
:10066800F76E0900F5281200C40E016E1E0E120066
:100678003E183F1040104110120012280B6E000E59
:1006880013200C6E1200020E1426000E1522000C08
:10069800DCD060BAFED7010E536E010C020E536E09
:1006A800020C65A0FED76590F4EF0BF065B088EFFB
:1006B8000EF0F0EC0EF039EC0AF0546E540401E13F
:1006C8001200545002E005EC0FF004018151050AB4
:1006D80002E1CCEF0BF0030A02E139EF06F0F9EF83
:1006E8000EF065B088EF0EF0F0EC0EF039EC0AF081
:1006F800546E540401E11200545002E005EC0FF06E
:100708000401815102E154EF06F0010A02E196EF7B
:1007180008F0020A02E13BEF08F0060A02E1CCEF1A
:100728000BF0030A02E139EF06F00E0A02E1DDEFF1
:100738000AF0010A02E168EF0DF0F9EF0EF065B07A
:1007480088EF0EF065B612D05E5003E0F0EC0EF0C4
:100758005E6A525005E024EC0DF0000901E0526A8F
:1007680065CF39F0030E3916D8B4030C65A206D04C
:1007780060986596020E546E05EC0FF065A061D086
:1007880060986596010E546E010C61B405EC0FF08B
:10079800040169EC0AF002E005EC0FF0040104BF63
:1007A800046B6EEC0AF08039E832030BE8062CE1A2
:1007B800BFEC09F0546E540401E11200545039E0C2
:1007C80005EC0FF036D054EC06F033D096EC08F078
:1007D80030D03BEC08F02DD0DDEC05F02AD00FEC42
:1007E8000FF027D0DDEC0AF024D068EC0DF021D012
:1007F800F7EC0BF01ED00DEC0FF01BD00BEC0FF04C
:1008080018D0F9EC0EF015D08151DDE0010ADEE0D8
:10081800020ADFE0050AE0E0010AE1E00F0AE2E08F
:10082800010AE3E0030AE4E0010AE5E0070AE6E07A
:10083800E8D7010E5E6E010C27EC07F0010E526E30
:10084800010C64EC0AF0A1E0F7D7535001E121D77D
:10085800010A01E123D7030A01E123D7010A01E1D3
:1008680025D7070A01E13DD7010A01E168D712003F
:100878004E5063E13A503E1849E13B503F1846E17B
:100888003C50401843E13D50411840E14150401070
:100898003F1003E1040E3E5C39E3100E1E6E050E98
:1008A8001F6E1EC0D9FF1FC0DAFF3A0EDE182EE1F8
:1008B800226A236A230E036E030E69D820EC0CF01B
:1008C800000901E11200220E036E050E60D820EC2B
:1008D8000CF0000901E11200200E2318221016E185
:1008E80032EC03F003E10900F52802E01EEC0EF0FB
:1008F8003EC068F03FC069F040C06AF041C06BF08C
:1009080032EC05F060EC0EF0010E4E6E030E3CEC7E
:1009180003F013E1050E0001681969116A116B11E2
:100928000CE125EE50F0DF5004E050C5E8FFE50A81
:1009380004E11EEC0EF0010E516E4E04D8A4120014
:10094800415040103F1004E1040E3E5CD8A0120054
:10095800206A216A100E2024D96E050E2120DA6E35
:10096800DF5010EC00F01D6E0B0E1D180AE00D0E86
:100978001D1802E11EEC0EF0020E4E6E010E516EB5
:10098800010C204A212A020E215CE4E312001E24F5
:10099800046E000E1F20056E12000D503F0B506EA6
:1009A800C00E0D14646F0E50656F0F50666F1050B7
:1009B800676FC251641909E1C351651906E1C45151
:1009C800661903E1C55167190BE04F5009E05CD87F
:1009D80033EC09F0000901E1000C40D860EC0EF09E
:1009E800156A166A06D042D8400E501804E0154A17
:1009F800162A53D8F8E3400E501825E164C008F0D1
:100A080065C009F066C00AF067C00BF033EC09F066
:100A1800000901E1000C22D860EC0EF0506A154A7A
:100A2800162A1250155C000E165804E305D01ED87D
:100A3800154A162A32D8FBE3400E00016427000E3F
:100A480065236623672350C04FF064C0C2F065C0B9
:100A5800C3F066C0C4F067C0C5F0010C000E016E9B
:100A6800010E026E046A400E036EFF0C1150D96E1F
:100A7800DA6A000E5024E16EE26A010EE222DFCF4C
:100A8800E7FF502A112A1200C2C008F0C3C009F0BB
:100A9800C4C00AF0C5C00BF012001250136E146ADD
:100AA8001350155C145016581200316E326A3150CA
:100AB8000AE12AC0F6FF2BC0F7FF2CC0F8FF080098
:100AC800F5CF33F002D0200E336E5D8033502F6E99
:100AD800306A2D502F5C2E50305820E233C02DF054
:100AE8002E6A010E326E1AD059D8080E066E47ECDF
:100AF8000DF0080E2A26000E2B222C2244D8080EB0
:100B0800066EB9EC0CF095EC0CF0546E545002E003
:100B180054501200080E2D5E000E2E5A2E50E4E19D
:100B2800090E2D5CE1E23AD82DC006F047EC0DF035
:100B3800040E016E026E5D0E036E040E056E880EC5
:100B4800046E2DC006F02EC007F0B9EC0CF095EC41
:100B58000CF0546E5450DCE1080E2D182E100BE1E9
:100B6800325009E010D8066AB9EC0CF095EC0CF09C
:100B7800546E5450CDE11CEC0CF074EC0EF09FEC6C
:100B88000BF0546EC5D7040E016E026E5D0E036E37
:100B9800040E056E880E046E076A880C2AC001F0E0
:100BA8002BC002F02CC003F0880E046E040E056EF4
:100BB800040C5BD0030E531808E164D82E6A080EA3
:100BC8002D6E000E59EC05F005D05CD864D8000EE7
:100BD80059EC05F0546E540401E112005450D8B495
:100BE800120005EF0FF0860E2A6E1F0E2B6E2A10CC
:100BF800D8A4000E2C6E4FD8010E59EC05F0546E97
:100C0800540401E11200545002E005EF0FF0120005
:100C18008251020D4B0EF324F66E1E0EF420F76E71
:100C28000900F5CF34F00900F5CF35F034C036F0BF
:100C380035C037F0386A36C02AF037C02BF038C0D4
:100C48002CF029D8000E59EC05F0546E540401E13B
:100C58001200545002E005EF0FF0120015EC0FF0EF
:100C6800000902E1F9EF0EF0120004018351010AB4
:100C7800A1E0030AB8E0010ACBE0050A02E1F9EFB6
:100C88000EF0ECD7DA0E2A6E1F0E2B6E2A10D8A49F
:100C9800000E2C6E120086C42DF087C42EF01200B0
:100CA800010E2A6E040E53183BE0050E531838E067
:100CB8003FD05AA002D0888102D0040188915AA25C
:100CC80002D0898102D0040189912A6A31D0040EA8
:100CD800531820E184510F0B2BE184BF06D05DA28D
:100CE80002D0888101D013D0F0D75DA402D08881CA
:100CF80001D00DD0EAD784BF06D05BA202D088818C
:100D080001D005D0E2D75CA202D0888102D00401CC
:100D18008891DBD784510F0BE0E0010AECE008D0A2
:100D2800040180511F0BC5E0010ACFE0030ACFE0A0
:100D38002A5002E0F9EF0EF0C7EC05F0020E066E3D
:100D4800B9EC0CF095EC0CF0546E540401E112006F
:100D5800545002E005EC0FF01CEC0CF074EC0EF0B3
:100D68009FEC0BF0546E540401E112005450D8A4C7
:100D780005EC0FF012004DD057D803E1076A010EB9
:100D880046D080AF03D0076A080E41D0010E39D093
:100D98004BD803E1076A020E3AD080AF17D0015052
:100DA8007C190CE102507D1909E103507E1906E116
:100DB80004507F1903E1076A200E29D03BD803E2CB
:100DC800076A100E24D0076A400E21D0020E19D0EF
:100DD8002BD803E1076A040E1AD080BF16D0015041
:100DE8007C190BE102507D1908E103507E1905E1D9
:100DF80004507F1902E1080E04D01CD8040ED8B0A4
:100E0800100E076E000E066A0AD0076A800E066E7C
:100E180006D00550B1E0010ABBE0030AD9E006C0DC
:100E280001F007C002F0120000017C517D117E1113
:100E38007F1112007C51015C7D5102587E5103588C
:100E48007F51045812004DD0659633EC01F0286E9E
:100E580011D0010E556E010CA8EC0DF0020E556E66
:100E6800020C030E556E030C040E556E040C050E91
:100E7800556E050C2850EDE0010AEEE0030AF1E09A
:100E8800010AF2E0070AD8A41200F1D76596575074
:100E980008E03BEC0BF0E5EC0EF0010E596E576ADA
:100EA80012005650D9E035EC0BF0E5EC0EF0010ECF
:100EB800586E566A12006596F3EC09F01F0E066E1E
:100EC800DDEC0CF05B70556A12006596A8EC0AF030
:100ED8000009BFE112006596E8EC08F00009BCE1E2
:100EE80012005550B1E0010AD1E0030AE4E0010A1A
:100EF800ECE0070AF0E0010A02E005EF0FF012004B
:100F08000BC001F00CC002F00DC003F00EC004F0DD
:100F1800010E056EBFEC06F001C00FF002C010F024
:100F28000FC001F010C002F00BC003F00CC004F0B9
:100F38000DC005F00EC006F048EC0CF0200E0F189E
:100F4800101008E129D833D8DDEC0CF05C700001F2
:100F5800C16B000C100E0F18101008E11DD827D80F
:100F6800DDEC0CF05C70010E576EF1D7400E0F18D7
:100F7800101009E111D81BD8DDEC0CF05C70020EE2
:100F88000001C16F000C020E0F18101002E142EFB1
:100F980002F0D9EC0EF0040C0C0E016E040E026E79
:100FA8005C0E036E040E056ED00E046ED00C0BC0E2
:100FB80006F00CC007F01200D2882F0E0001C96F8E
:100FC800BF0EE82EFED7C92FFCD700D081BC06D0B3
:100FD80032EC03F047E10900F52844E181BCFED773
:100FE8008A9E939E7EEC09F0CAEC0EF070EC0BF032
:100FF8004CEC03F0515014E000016C4B6D2B100EBB
:101008000001C96F940EE82EFED7C92FFCD700F057
:10101800140E00016C196D1103E1ABEC0EF0FF002A
:1010280081ACE6D7070E0001CA6F170EC96F6A0EAA
:10103800E82EFED7C92FFCD7CA2FFAD700F081BCFB
:10104800FED7070E0001CA6F170EC96F6A0EE82E89
:10105800FED7C92FFCD7CA2FFAD700F0ABEC0EF099
:10106800FF00C6D7D29800EF10F00EEF00F0010E87
:101078002A6E040E531831E0050E53182EE034D0B2
:101088008205831139E15A8214D08251831134E1E7
:10109800040E53181CE184510F0B2EE184BF06D0B7
:1010A8005D82016B040E006F008F03D05D84FCEC41
:1010B8000EF02A6A21D084BF05D035EC0BF0E5ECA0
:1010C8000EF0F7D73BEC0BF0E5EC0EF0F2D78451BD
:1010D8000F0BE4E0010AEFE00FD0040180511F0B71
:1010E800CFE0020AD2E008D0040180511F0B04E1CE
:1010F800020E82198311DDE02A5002E0F9EF0EF0AA
:101108000DD874EC0EF088EC0DF0546E540401E127
:1011180012005450D8A405EC0FF01200040E016E12
:10112800026E040C010E2A6E040E531834E0050EEC
:10113800531831E036D08205831133E15A9213D027
:10114800825183112EE1040E53181FE184510F0BB5
:1011580028E184BF02D05D9206D05D905D947B0E3D
:101168000417480E04132A6A1CD084BF07D05B906A
:101178005B927B0E0817480E0813F5D75C905C92BB
:101188007B0E0C17480E0C13EED784510F0BE5E0BD
:10119800010AEBE006D0040180511F0BCCE0020AE3
:1011A800CFE02A5002E0F9EF0EF092EC08F074EC70
:1011B8000EF088EC0DF0546E540401E11200545006
:1011C800D8A405EC0FF01200266A276A900E262490
:1011D800D96E040E2720DA6E100E246E050E256EC9
:1011E800265024262750252242502424E16E4350BD
:1011F8002520E26EDFCFE7FF264A272A275003E1A2
:10120800400E265CE3E31DD805E111EC0FF021D870
:10121800426A436A0AD801E1010CF3EC09F0400E76
:10122800066EDDEC0CF05B70000C400E0001BD5F3B
:10123800000EBE5BBF5BC05BBD51BE11BF11C011CC
:101248001200400E4226000E4322020E431842109E
:1012580012003E2A000E3F2240224122000C0B5071
:101268000A1018E1800E095C15E20B500A1003E120
:10127800200E095C0FE308C001F009C002F00AC0A3
:1012880003F00BC004F0000E056E010E066E73EC41
:101298000AF0010C200E0A18081009100B1029E09A
:1012A800300E0A18081009100B1023E00B5020E12B
:1012B8000904F00E0A58D8B0000C0B5004E1F00EE7
:1012C8000A5CD8A0000C096A0A6A0B6A0C6A000E4C
:1012D8000C24D96EDA6A010EDA22DF50016E0C5046
:1012E80008249AEC0EF00C2A3F0E0C64F0D7010C7F
:1012F800000C010C8A8E070E026E170E016E6A0E24
:10130800E82EFED7012EFCD7022EFAD700D08A9EEF
:10131800040E026E0C0E016E340EE82EFED7012E5E
:10132800FCD7022EFAD78A8E070E026E170E016EB0
:101338006A0EE82EFED7012EFCD7022EFAD700D06F
:101348008A9E040E026E0C0E016E340EE82EFED735
:10135800012EFCD7022EFAD78A8E070E026E170EC0
:10136800016E6A0EE82EFED7012EFCD7022EFAD7A0
:1013780000D08A9E12002A6AFE0E811903E1F9EC58
:101388000EF02BD0812927E108BF06D05B7027D843
:101398001F0E066EDDEC0CF05BA208D05B905B9232
:1013A8007B0E04010817480E0813586A5CA208D07F
:1013B8005C905C927B0E04010C17480E0C13596A62
:1013C800010E586E556A92EC08F074EC0EF088EC39
:1013D8000DF02A6E02D005EC0FF02A501200080E0C
:1013E800016E040E026E5B0E036E040E056E900E07
:1013F800046E076A900C020EF66E1E0EF76E000E53
:10140800F86E00EEC2F010EE07F00900F5CFEEFF1F
:10141800E550E150FAE12C0EF66E1E0EF76E000E46
:10142800F86E0900F5CF5EF005EE10F012EE00F050
:10143800EE6AE550E150FCE1E250FAE101EE00F01D
:10144800400EEE6AE806FDE100EE60F0620EEE6A1C
:10145800E806FDE100EE3AF0240EEE6AE806FDE14A
:10146800000EF86E0001E0EF07F005D065CF01F03F
:10147800030E011602E165A6F9D704BF046B65A245
:1014880003D06098BDEF0BF065A003D06098C2EF61
:101498000BF016D804E060986596030E0ED061A490
:1014A80003D06098C7EF0BF010D804E060986596F9
:1014B800050E03D00FD854501200546E5450120029
:1014C8006130E832E8320F0B12000031E8320F0BBE
:1014D8000D0A12005D8065966098546A12007F0EAE
:1014E8000216036A046A015002100310041006E091
:1014F8000106000E025A035A045A05D001687F0EED
:10150800026E036A046A03C0F8FF02C0F7FF01C055
:10151800F6FF076A05C0D9FF06C0DAFFDF50F56E8F
:10152800054A062A0F00072A3F0E0764F3D7A68E3E
:10153800A69CA684A698F29E550EA76EAA0EA76E24
:10154800A682A694F28EAA0C186A196A100E166E54
:10155800050E176E185016261950172242501624D9
:10156800D96E43501720DA6ED00E1824E16E040E9F
:101578001920E26EDFCFE7FF184A192A195003E154
:10158800400E185CE3E325EC09F006E12DEC09F0C8
:1015980013EC0FF0426A436AD0EC07F0076A400E7A
:1015A800066EDDEC0CF05C7019EC09F001E1010C41
:1015B800000C010E2A6E08D00401886B03D0010EBE
:1015C8000401886F2A6A05D05350040AF5E0010A1D
:1015D800F6E02A5002E0F9EF0EF0C7EC05F0010E34
:1015E800066EB9EC0CF095EC0CF0546E540401E165
:1015F8001200545002E005EC0FF01CEC0CF074ECF7
:101608000EF09FEC0BF0546E540401E1120054509C
:10161800D8A405EC0FF01200036E18EC07F00FE0E9
:10162800030406E124D8E5EC0EF0010E596E05D04E
:1016380018D8E5EC0EF0010E586E040E01D0010E1C
:10164800046E2EEC02F0010E0001C16FC7EC0DF024
:101658009551F00B0509956F200E9F6FA06B0450F4
:1016680012005B82080E016E040E026E040C5C828E
:101678000C0E016E040E026E040CA68EA69C14D0ED
:1016880003C0F8FF02C0F7FF01C0F6FF090012D837
:1016980001E1120009000ED801E11200020E012634
:1016A800000E02220322042205500610071008101B
:1016B800E7E1120009C0D9FF0AC0DAFFF5CFDFFF62
:1016C800094A0A2A0506000E065A075A085A0550FA
:1016D8000610071008101200B6EC0EF0628862843B
:1016E80062906292636AAFEC0EF064820401006B50
:1016F8001DD8046B040E076F880E066F6A886A96F9
:101708006A846A825A905A925D905D925D9408EC60
:101718000FF035EC0EF0536A010E526E5E6E596A88
:10172800586A576A566A608662881200040E036F08
:10173800800E026F800C05D065CF29F0030E2916A4
:1017480002E165A6F9D765B214D065B017D064EC8C
:101758000AF00AE027EC07F0010E526E24EC0DF0B7
:101768000009EFE0526AEDD761B40DD05D70B5EFB6
:101778000CF06596020E546E545012006596010ED8
:10178800546E545012006596040E546E5450120054
:10179800030E531805E0040E531802E0F9EF0EF09B
:1017A80082C42AF092EC08F074EC0EF088EC0DF08C
:1017B800546E540401E11200545002E005EC0FF09D
:1017C8002AC063FF030E531804E16350D8B4120013
:1017D80004D06350D8A4120003D0040E536E040C36
:1017E800030E536E030C050E531802E0F9EF0EF0CA
:1017F8000401886BC7EC05F0010E066EB9EC0CF01D
:1018080095EC0CF0546E540401E11200545002E0BF
:1018180005EC0FF00DD874EC0EF09FEC0BF0546E45
:10182800540401E112005450D8B4120005EF0FF02F
:10183800016A040E026E040C04C0D9FF05C0DAFF69
:10184800DF50066E20EE01F00450D9260550DA224A
:10185800DF50076E060E016E01EC0DF0000901E184
:10186800000C070E016E01EC0DF0000901E1000CFF
:101878000350D96EDA6A0638F00BDF6E0350D96E62
:10188800DA6A0750DF12010C410E076E100E18D8E5
:1018980002E018EF0EF0380E076E0D0E11D80EE0AC
:1018A800035000017C5DBD6F04507D59BE6F05502B
:1018B8007E59BF6F06507F59C06F12002EEF02F09D
:1018C800086E01C009F002C00AF007500916085056
:1018D8000A1609500A101200C00E011618D003C0CB
:1018E800F8FF02C0F7FF01C0F6FFA68EA69CA684EB
:1018F800A688F29E550EA76EAA0EA76EA682A6947B
:10190800F28E400E0126000E022203220422055008
:10191800015C065002580750035808500458DFE38A
:10192800120005D065CF29F0030E291602E165A63D
:10193800F9D765B2BDEF0BF065B0C2EF0BF064EC00
:101948000AF00AE027EC07F0010E526E24EC0DF0C5
:101958000009EDE0526AEBD761A4C7EF0BF05D70A8
:1019680000D06596546A5450120020EE01F01CD83D
:1019780006C0DFFF20EE02F017D804C0DEFF05C066
:10198800DDFF0350D96EDA6ADFA003D008D8480E0D
:1019980002D005D8080EDF6E02D885EF0EF001C020
:1019A800D9FF02C0DAFF12000150D9260250DA220C
:1019B800120020EE01F01CD806C0DFFF20EE02F076
:1019C80017D804C0DEFF05C0DDFF0350D96EDA6A00
:1019D800DFA003D008D8480E02D005D8080EDF6E65
:1019E80002D885EF0EF001C0D9FF02C0DAFF12005D
:1019F8000150D9260250DA2212000150D96EDA6A53
:101A08002F0EDF640BD00150D96EDA6A3A0EDF6010
:101A180005D00150D96EDA6A300E10D00150D96E57
:101A2800DA6A400EDF64000C0150D96EDA6A470E9C
:101A3800DF60000C0150D96EDA6A370EDF5E010CE8
:101A4800086A000170510BE0F3EC09F01F0E066EF6
:101A5800DDEC0CF05B700001706B010E086E5950E4
:101A680007E05CB205D0A8EC0DF0020E556E596A7D
:101A7800585007E05BB205D0A8EC0DF0020E556E89
:101A8800586A085012000A6A1BD00A50010DF35018
:101A98000124076EF4500220086E000E0320096E20
:101AA80007C0F6FF08C0F7FF09C0F8FF0A50042472
:101AB800D96E000E0520DA6E0800F5CFDFFF0A2A7E
:101AC80006500A5CE2E3120082C42AF0020E2A6081
:101AD800F9EF0EF092EC08F074EC0EF088EC0DF0D3
:101AE800546E540401E11200545002E005EC0FF06A
:101AF8005D9008EC0FF02A5002E1F1EF0BF0050EB3
:101B0800536E050CF1EF0BF005D065CF29F0030EED
:101B1800291602E165A6F9D765B2BDEF0BF065B0ED
:101B2800C2EF0BF064EC0AF00AE027EC07F0010EB4
:101B3800526E24EC0DF00009EDE0526AEBD761A477
:101B4800C7EF0BF0B5EF0CF0550E0001B56F530E53
:101B5800B66F420EB76F530EB86FB50E0DD80D0E97
:101B6800056E4BEC0EF0D0EC07F0076A0D0E066E12
:101B7800DDEC0CF05C701200016E026AD00E036E90
:101B8800040E046E040C00019351800B7009936FCE
:101B9800939F946BF00E95179599959B959D959F9E
:101BA800966B976B986B996B0A0E9A6F9B6B9C6BF5
:101BB8009D6B9E6B9F6BA06BA16BA26BA36BA46BC1
:101BC800120001C005F002C006F003C007F004C00F
:101BD80008F0090ED8900536063607360836E82E7E
:101BE800F9D7000E0524016E160E0620026E000EAF
:101BF8000720036E000E0820046E12000A6E016AA8
:101C0800026A036A046A056ABFEC06F001C008F0BC
:101C180002C009F00804091004E106D80AC0C1F09E
:101C2800010CD9EC0EF0040C0001BD6BBE6BBF6B50
:101C3800C06B1200016A200E026E036A046A056A0C
:101C4800800E066E076A086A70EC0CF0096A0A6A68
:101C5800016809509AEC0EF0094A0A2A0A04F8E3C6
:101C680012000401086B040E0B6F900E0A6F0C6BC8
:101C7800040E0F6FD00E0E6F6B886B966B846B82A1
:101C88005B925C92010E0001706F556A1200066A41
:101C98000FD006500124D96E000E0220DA6E0650CD
:101CA8000324E16E000E0420E26EDFCFE7FF062A70
:101CB8000550065CEEE31200056E066A076A0AD054
:101CC80006500124D96E07500220DA6E05C0DFFFE6
:101CD800064A072A0350065C04500758F1E312002D
:101CE80020EE01F00150D9260250DA22DF6A04D82A
:101CF800480EDF6E01D805D001C0D9FF02C0DAFF57
:101D08001200000EDB8E000C656A676A636A01D0F8
:101D1800659665B6FDD760985D9008EC0FF0030EE8
:101D2800531802E0030E536E65901200026E02C053
:101D3800A9FF01C0A8FFA69EA69CA684550EA76E63
:101D4800AA0EA76EA682A6B2FED7A69412000AD83B
:101D580002D8649212006596659665966596656ADE
:101D6800676A1200606A626A6A6A6B6A1200550ED4
:101D7800000174190AE1530E751907E1420E76192C
:101D880004E1430E771901E1010C000C32EC03F079
:101D980003E10900F52807E0050E0001686F000E51
:101DA800696B6A6B6B6B516A12003BEC0BF0E5ECEC
:101DB8000EF035EC0BF0E5EC0EF0010E596E586E96
:101DC800010C05D8000EDB8402D8DB8E000C01C0A4
:101DD800D9FF02C0DAFF1200080E0401016F9AEC65
:101DE8000BF0080E006F008F080C040101D8040CDA
:101DF800056B040E046F048F040C00200000002003
:011E080000D9
:101E0A0060968A8EFFD75B905C901200F9EF0EF015
:101E1A00F9EF0EF0F9EF0EF03CEF04F046EF02F0A6
:031E2A00000C01A8
:101E4A0000FA1FEC1FC01FA61F3C68746D6C3E3C55
:101E5A00686561643E3C6D65746120687474702DB8
:101E6A0065717569763D22726566726573682220AE
:101E7A00636F6E74656E743D22303B55524C3D273C
:101E8A0068747470733A2F2F6769746875622E6369
:101E9A006F6D2F6A6F686E6E796472617A7A692FD4
:101EAA005553422D75432722202F3E3C2F686561EA
:101EBA00643E3C2F68746D6C3E005049433138468D
:101ECA0058354B3530080000A07B0B4B0B4B0000FC
:101EDA00A07B0B4B00000000000041424F555420EC
:101EEA00202048544D200000A07B0B4B0B4B0000D8
:101EFA00A07B0B4B02007100000050524F475F4D10
:101F0A00454D42494E200000A07B0B4B0B4B000075
:101F1A00A07B0B4B030000600000EB3C904D534448
:101F2A004F53352E300002010100011000AC02F8B7
:101F3A000200000000000000000000000000000095
:101F4A002986E8A35650494331384658354B35302F
:101F5A004641543132202020008004022000000033
:101F6A004D6963726F6368705553422075432058F8
:101F7A00354B353020202020303030340902200003
:101F8A00010100C0320904000002080650000705DA
:101F9A008102400001070501024000011A033000D6
:101FAA0030003000300030003000300030003000A7
:101FBA003000300030001A03550053004200200060
:101FCA00750043002000580035004B0035003000F2
:101FDA001201000200000008D80404EF0400010204
:101FEA0003010E034A006F0068006E006E0079005C
:051FFA000403090400CE
:020000040020DA
:08000000FFFFFFFFFFFFFFFF00
:020000040030CA
:0E00000020020222FFD185FF0FC00E800F40AC
:00000001FF
