:040000000EEF00F00F
:0400080004EF10F001
:100018000CEF10F070EF09F06C0E9CEC06F0400E3F
:100028003C6E000E03EC0CF005500610071008108B
:1000380015E11E501F1006E1240E3A6E1F0E02D95C
:100048003E0E8CD0C00E1E1802E11F04D8A4120068
:10005800550E0201AA6FAA0EAB6FAA0C0504061072
:10006800071008106CE11E501F10D8A41200F80EDB
:1000780002016C6F6D696E696F6970697169ECD89E
:1000880004E10900F528D8B412004B6A040E4A6E40
:100098004D6A060E4C6E4AA01CD06C0ECDD80F0EC1
:1000A800DF164A50100DF3CF44F0100E44266C0EA4
:1000B800C3D84450DF126D0EBFD8D9D8040E466E8F
:1000C800D89045324432462EFBD74450DF6ED5D8FF
:1000D80012D06C0EB1D84A28DF6E6D0EADD8F00E76
:1000E800DF16C5D845C044F0456A6D0EA5D8445002
:1000F800DF124C4A4D2A4A4A4B2A4B5003E1130E51
:100108004A5CC9E34AA00DD06C0E96D80F0EDF16D4
:100118006C0E92D8F00EDF126D0E8ED8DF68ADD857
:10012800000C6C0E89D8DF686D0E86D8F00EDF16CD
:100138006D0E82D80F0EDF124C4A4D2A0F0C030E9B
:1001480091D822E189D803E10900F52811E01E5071
:100158001F1007E1330E3A6E1E0E27D03F6EFAEFDE
:100168000AF090D8D8A41200730E3A6E1E0E1DD055
:100178001E501F10EFE086D8D8A41200730E3A6EF6
:100188001E0E60D8200EEAD708500710061004E1AA
:10019800040E055CD8A01200040E64D814E11E50A9
:1001A8001F1006E1B30E3A6E1E0E4CD8400ED6D77D
:1001B800400E1E181F10D8A41200F30E3A6E1E0E21
:1001C80041D8310ECBD7050E4DD811E14C6A4D6A96
:1001D8006C0E32D81E504C24D5EC0CF0DF6E4C4A15
:1001E8004D2A4D5028E1400E4C5CF2E3120005C048
:1001F8003AF006C03BF007C03CF0D7EC0AF03AC032
:1002080047F03BC048F03CC049F0495003E1400E7C
:10021800485CD8B0120047C03AF048C03BF049C02B
:100228003CF0400E3D6E3E6A3F6A6C0E406E020E18
:10023800416E9FEC09F012004C24D96E020E4D203D
:10024800DA6E12003B6E3A10D8A4000E3C6E6C0EAB
:100258003D6E020E3E6E020CF66A200EF76E090025
:10026800F5281200051806100710081012004A2871
:10027800446E000E4B20456E1200020E4C26000EF6
:100288004D22000C400E1E181F101200506E2650F2
:1002980001E1DDD0500E3A6EB4EC0AF0000901E03D
:1002A800D6D0266A0D0C0D0E5018D8B40B0C0A0EB9
:1002B800501801E10B0C3A0E5018F3E1236A156A45
:1002C800020E146E256A010E266E0B0C2538F00BF3
:1002D8005010256EDDD8D8A40B0C100E256401D063
:1002E800E0D725502326156A040E146E186A196A79
:1002F800020EEAD7D9D8C0D8186E4D50196EC8D892
:10030800D8A40B0C1950232618502326156A020E60
:10031800146E226A030ED8D7BBD8D8A40B0C50C0D1
:1003280022F02250232610D0156A020E146E216A7C
:10033800206A040EC9D7C2D829D0156A040E146ED3
:10034800166A176A050EC0D72250EEE0010AF3E0DC
:10035800050AF3E0A6D7A2D805E150C020F0203A5C
:10036800F00E201614501510D8A40B0C5050201263
:10037800A0D820C0DFFF9DD8DF502326212A156A88
:10038800020E146E25502118D8A40B0C246A0A0EEC
:100398009BD716C04CF017C04DF06ED8166E4D5056
:1003A800176E76D8D8A40B0C16502326100E4C6E58
:1003B80016C04DF017C04EF04F6A4C2804D0D890A4
:1003C8004D364E364F36E82EFAD74DC009F04EC09E
:1003D8000AF04FC00BF072D8D9D760D805E150C0E9
:1003E80024F0243AF00E241614501510D8A40B0C3F
:1003F8005050241224502326235001E052D720D0F5
:1004080053D84E6A09504C24436E0A504D20446E0E
:100418000B504E20456E9A0E466E25C047F05DEC97
:1004280005F0000901E13DD710D0285007E0CEECD7
:1004380005F0CBEC08F0000901E133D7266A0C0C73
:100448002250DEE0010AF1E0050A266A0B0C26506C
:1004580001E129D7010A01E139D7030A01E14AD7A5
:10046800010A01E159D7070A01E175D7010A91E0AC
:100478000F0AD8A40B0CB1D74C3A4D3AF00E4D16D2
:100488004C500F0B4D12F00E4C1650504C101200E1
:100498001406D8A015061450151012001406D8A07A
:1004A800150614041510120018C04CF019C04DF0B0
:1004B800120021509A0FD96EDA6A1200156A020EDC
:1004C800146E020C2C0E3A6E020E3B6E690E3C6ED8
:1004D8003D6A100E3E6EEEEC0BF095EC0CF0000948
:1004E80003E1A4EC0CF0040C6DC0BEF06EC0BFF0CC
:1004F8006FC0C0F070C0C1F0B5D0D5D8E5D8EDD880
:100508003E6ED5EC05F0EFD81C0E541415E0100E15
:100518005418531003E04F6A506A03D0506A020E11
:100528004F6E4FC0C6F01E6A1F6AB1D8400E3F6EAC
:1005380090EC0AF03870030C040E53185410D1E1F3
:10054800020E0001C66F010CAED8BED8C6D8010E87
:100558003E6ED5EC05F0C7D853C04EF0700E4E165F
:1005680013E0400E5318541003E0516A526A03D046
:10057800526A020E516E51C0C6F01E6A1F6AF5EC2F
:100588000CF006EC09F0020C020E53185410D8E0D7
:10059800A8D73EEC0CF056D0880E71EC0BF0120E7A
:1005A8003E6EEEEC0BF0120E47D03FC21CF03EC27E
:1005B8001DF01D5003E1250E1C5C03E31D6A240E8B
:1005C8001C6E620E3A6E1F0E26EC01F01CC03FF046
:1005D800FAEC0AF01CC044F01DC045F0466A476AB0
:1005E8003FEF08F0030E02016C6F6D6B6E6B6F6B63
:1005F800040E22D002013D513E113F11401102E08C
:1006080043A16FD750D80450031005E1AC0E015C2C
:10061800020E025805E36C696D696E696F6906D050
:100628006C6B6D6B020E6E6FAB0E6F6F706B716BD8
:10063800020E726F736B080E446E456A466A476A0B
:100648003FEF08F0000ED2EF0BF0775108E075AFDE
:1006580003D0010E1CEF0AF0020E1CEF0AF0000E88
:100668001CEF0AF0785195E0030A96E0110A9DE024
:10067800080AB8E0010AE6E03E0ABCE00D0A01E11A
:1006880063D7020A01E139D7050ADCE0DED70C0E90
:100698003A6E020E3B6E380E3C6E020E3E6E2C0E0B
:1006A8003D6E406A2C0C40C201F03FC202F03EC2CF
:1006B80003F03DC204F001C005F002C006F003C01B
:1006C80007F004C008F0120071C0C2F072C0C3F095
:1006D80073C0C4F074C0C5F012003A6A020E3B6ED3
:1006E8003C6A3D6A020C3AC053F03BC054F0120019
:1006F800275001E086D00150051859E1025006182C
:1007080056E10350071853E10450081850E1085007
:100718000710061003E1040E055C49E31E501F1084
:1007280031E12C0E536E020E546E53C0D9FF54C0E3
:10073800DAFF3A0EDE1826E1556A566A560E3C6E06
:10074800030E8FD8F4EC09F0000901E11200550EF0
:100758003C6E050E86D8F4EC09F0000901E11200A0
:10076800200E561855100EE130EC01F003E1090097
:10077800F52802E0CBEC0CF0B3EC05F003EC0CF040
:10078800010E276E050E36EC01F011E11F040FE291
:10079800576A586A5ED83A6E1E50572474EC0CF0AB
:1007A800574A582A585003E1400E575CF3E3030EAA
:1007B80036EC01F026E1400E1E181F1022E130EC45
:1007C80001F003E10900F5280AE002014C5103E0B9
:1007D800E50E4C1904E1CBEC0CF0010E2A6E020177
:1007E8002C5103E0E50E2C190CE1576A586A3A6857
:1007F800575074EC0CF0574A582A5804F8E3010E85
:100808002A6E2704D8A4120008500710061004E125
:10081800040E055CD8A01200576A586A1AD84AEC28
:1008280001F0526E0B0E52180AE00D0E521802E13A
:10083800CBEC0CF0020E276E010E2A6E010C574A03
:10084800582A585005E1400E575CD8B01200E6D738
:1008580012002C0E5724D96E020E5820DA6EDF5083
:10086800120053243D6E000E54203E6E1200010EFD
:100878004C6E45D0DA0E0F6E1F0E106E0F10D8A4F6
:10088800000E116E4E6A120E4D6E4C6A42D06251C5
:1008980040E175D866D87AD872D863D846C049F08E
:1008A80047C04AF048C04BF0020E4924F66E000ECD
:1008B8004A20F76E000E4B20F86E0900F5CF4DF078
:1008C8000A00F5CF4EF0E1D7080E626122D06251DE
:1008D800020D290EF324F66E1E0E43D857D80FC00A
:1008E800F6FF10C0F7FF11C0F8FF0800F5504D6E75
:1008F8004E6ACBD7FAEC0CF00009C7E10AD0000128
:100908006351010AB7E0030AC2E0010ADDE0050A03
:10091800F1E14C5004E04BEC05F0B2EF0CF06651FD
:100928004D5C67514E5814E24DC01AF04EC01BF092
:1009380066C03AF067C03BF04DC03CF04EC03DF099
:1009480078EC0BF03A503B1007E0010E2B6E05D007
:1009580066C01AF067C01BF02B6A010E326EF7EF03
:1009680006F0F420F76E0900F5CF44F00900F5CF42
:1009780045F044C046F045C047F0486A120062514D
:10098800020D310EF324F66E1E0E120046C00FF053
:1009980047C010F048C011F01200010E446E040E5A
:1009A8002E1866E0050E2E1863E068D06205631104
:1009B80065E1610502E1359201D03582446A5ED075
:1009C800625163115BE1050E2E1808E164510F0BAB
:1009D800416E020E416005D0446A03D064510F0B8A
:1009E800FBE044504BE164510F0B0BE1610504E15E
:1009F80037920201086B42D0378249D8B2EC0CF02A
:100A08003DD064AF03D0416A412A01D0416A000158
:100A180097EC06F04124426E4228436E610517E1C7
:100A280064AF03D0416A412A01D0416A35D8DF90CA
:100A380064AF03D0416A412A01D0416A2DD8DF92C0
:100A480035D866EC09F0DF6ADEEC0CF017D064AF3D
:100A580003D0416A412A01D0416A1ED8DF8226D8D4
:100A6800F3243A6E020EF4203B6EB2EC0CF006D082
:100A7800000160511F0B9AE0020AA2E0445003E013
:100A880006D8B2EF0CF089EC0AF050EF0CF0080E23
:100A98003A6E020E3B6E020C000164510F0B020D00
:100AA800F350360F4124D96EDA6A12004350040D10
:100AB800000C43500F0B296EF00E43140C6E44507B
:100AC8000D6E45500E6E5C500C1806E15D500D1809
:100AD80003E15E500E180BE0285009E05BD8CBEC20
:100AE80008F0000901E1000C3AD803EC0CF04A6A5E
:100AF8004B6A06D03BD8100E291804E04A4A4B2A04
:100B080041D8F8E3100E291821E10CC03FF00DC0C0
:100B180040F00EC041F0CBEC08F0000901E1000CF8
:100B28001ED803EC0CF0296A4A4A4B2A47504A5C03
:100B3800000E4B5804E305D019D84A4A4B2A22D84C
:100B4800FBE3100E0C26000E0D220E2229C028F001
:100B58000CC05CF00DC05DF00EC05EF0010CAA0E7A
:100B68003A6E3B6A3D6A100E3C6EFF0C4650D96ED9
:100B7800DA6A2950AA0FE16EE26ADFCFE7FF292A75
:100B8800462A12004750486E496A48504A5C495004
:100B98004B5812005CC03FF05DC040F05EC041F0B1
:100BA80012004DD057D803E1406A010E46D075AF08
:100BB80003D0406A080E41D0010E39D04BD803E16A
:100BC800406A020E3AD075AF17D03A5071190CE14D
:100BD8003B50721909E13C50731906E13D507419F4
:100BE80003E1406A200E29D03BD803E2406A100E88
:100BF80024D0406A400E21D0020E19D02BD803E130
:100C0800406A040E1AD075BF16D03A5071190BE11C
:100C18003B50721908E13C50731905E13D507419B5
:100C280002E1080E04D01CD8040ED8B0100E406E95
:100C3800000E3F6A0AD0406A800E3F6E06D03E50D2
:100C4800B1E0010ABBE0030AD9E03FC03AF040C076
:100C58003BF01200000171517211731174111200EE
:100C680071513A5C72513B5873513C5874513D581C
:100C78001200010E426E240E5BD8080E3C6E000E68
:100C880003EC0CF0040E2E1838E0050E2E1835E093
:100C98003CD035A003D00201248102D00201249166
:100CA80035A202D0258102D002012591426A2DD0B9
:100CB800040E2E1805E164510F0B09E1426A07D0B2
:100CC80064510F0B416E020E416001D0F7D74250BC
:100CD8001CE164AF03D0416A412A01D0416A000196
:100CE80022D8360F4124D96EDA6ADFA203D0020176
:100CF800248102D00201249108D0000160511F0B09
:100D0800C8E0010AD3E0030AD3E0425004E04BEC08
:100D180005F0B2EF0CF0010E326E36EC07F0020E61
:100D28003F6E90EF0AF064510F0B020DF350120062
:100D38003A6E020E3B6E3D6A020C086B63B205D038
:100D4800140E48D8EEEC0BF004D01C0E43D8EEEC91
:100D58000BF064983DEC09F036803780000160396B
:100D6800E832030B05E031D04BEC05F0B2EF0CF0A4
:100D7800615102E13DEF06F0010A02E1D1EF04F012
:100D8800020A02E1D1EF04F0060A02E1BFEF0CF01B
:100D9800030A02E13BEF04F0010A02E1ECEF0CF078
:100DA8000F0A02E185EF0CF0010A02E16AEF0AF08E
:100DB800030A02E117EF0CF0010A02E1E8EF0CF078
:100DC800070A02E1E4EF0CF0CFD743EC0AF0000980
:100DD800CBE012003A6E020E3B6E600E3C6E3D6A2E
:100DE800080E3E6E080C1A501B1033E01B5003E12E
:100DF800090E1A5C14E342D8080E3F6EFAEC0AF0AA
:100E0800080E0F26000E102211222CD8080E3F6E55
:100E180090EC0AF0080E1A5E000E1B5A000C2ED831
:100E28001AC03FF0FAEC0AF0080E3A6E020E3B6E5A
:100E3800370E3C6E020E3E6E240E3D6E1AC03FF019
:100E48001BC040F090EC0AF01A501A5E1B501B5A57
:100E580012002B50D8B4120005D83F6A90EC0AF063
:100E68002B6A1200080E3A6E020E3B6E370E3C6E6D
:100E7800020E3E6E240E3D6E406A240C0FC03AF0FE
:100E880010C03BF011C03CF0240E3D6E020E3E6EC9
:100E9800020C47D066EC02F0596E10D0010E316E8C
:100EA800010C59EC0BF0E1EF0CF0030E316E030C62
:100EB800040E316E040C050E316E050C5950EEE02F
:100EC800010AEFE0030AF1E0010AF2E0070AD8A4F8
:100ED8001200F1D7305008E03982100EAEEC0CF059
:100EE800B2EC0CF0306A12002F50DBE038820C0EA6
:100EF800AEEC0CF0B2EC0CF02F6A12004BEC03F0E5
:100F08001F0E3F6E90EC0AF03870316A120006EC42
:100F180009F00009C3E112002BEC0CF00009C1E153
:100F280012003150B7E0010AD5E0030AE7E0010AF0
:100F3800EEE0070AF1E0010A12009B8C2F0E5A6EB0
:100F4800C00EE82EFED75A2EFCD77E6A82B006D095
:100F580030EC01F03CE10900F52839E182B0FED718
:100F680094921BEC0BF02A6AF1EC07F08AEC08F07B
:100F78002A500EE0124A132A100E5A6E940EE82ECA
:100F8800FED75A2EFCD700D0140E121813101CE0EE
:100F980082A0ECD7070E5B6E170E5A6E6A0EE82E0B
:100FA800FED75A2EFCD75B2EFAD700D082B0FED7D8
:100FB800070E5B6E170E5A6E6A0EE82EFED75A2E73
:100FC800FCD75B2EFAD700D062EC0CF0FF009B9C9C
:100FD8007E6800EF10F00EEF00F06EEC0CF0536B33
:100FE800080E546F5C6B35903592150E616E3A6A37
:100FF8003B6A000E3A24D96E020E3B20DA6E35D8D1
:1010080003E1140E3A5CF5E33A6A3B6A3A50360F4C
:10101800D96EDA6A2AD803E1040E3A5CF7E32C6A3F
:101028002B6A346A336A01D0629662B6FDD7649837
:10103800160E0F01536F2E5007E16486010E2E6EB7
:1010480064BAFED7020E2E6E326A080E0201016FD4
:10105800020E036F140E026F008F080E056F020E4A
:10106800076F1C0E066F048F1C0C000EDF6E3A4AC9
:101078003B2A3B50120044C03AF045C03BF046C002
:101088003CF047C03DF0010E3E6ED5EC05F03AC08D
:101098004AF03BC04BF04AC03AF04BC03BF044C06A
:1010A8003CF045C03DF046C03EF047C03FF0CAECBA
:1010B80009F04AC048F0720E481625E04AC048F0C8
:1010C800700E48160BE016EC09F044C03FF045C01E
:1010D80040F090EC0AF03970496A02D0010E496E6E
:1010E8004AC048F0300E481603E00001C66B03D032
:1010F800020E0001C66F100E4A184B1002E1010ED5
:10110800306E49501200A4EC0CF0040C62A03AD0E6
:10111800020E2E1802E0F1EC07F0030E2E6E62901C
:1011280031D06330E832E8320F0B29E163B40ED0D6
:101138005BEC09F00201DF30E8320F0B0D0A03E126
:10114800A1EC06F01ED03DEC09F01BD0320404E1FE
:101158003770F7EC06F015D03DEC09F02C5011E093
:101168002DC05CFF030E2E1805E12D5003E0040E80
:101178002E6E03D02D5001E162802C6A02D04DEC16
:1011880007F0629662B6CDD762BC629C12004150ED
:1011980013E1400E405C10E2415003E1200E405C38
:1011A8000BE33FC03AF040C03BF041C03CF0AA0E10
:1011B8003D6E97EC0BF0010C200E41183F104010CB
:1011C80020E0300E41183F1040101BE04004F00EA4
:1011D8004158D8B0000CF00E415CD8A0000C406A11
:1011E800416A426A4250AA0FD96EDA6ADF503A6EF3
:1011F80042503F2474EC0CF0422A0F0E4264F2D79E
:10120800010C010CF5EC0CF024D801E12AD80AD81D
:10121800406A400E3F6E90EC0AF039700ED801E13A
:10122800010C000C100E3A6E020E3B6E390E3C6E2D
:10123800020E3E6E6C0E3D6E6C0C400E0001C25FDD
:10124800000EC35BC45BC55BC251C311C411C51199
:101258001200400E1E26000E1F22020E1F181E101E
:101268001200052A000E0622072208221E6A1F6A9B
:101278001200010E63A2000E040DF328D96E020EAF
:10128800F420DA6E080EDF6E63B205D0010E20D8A6
:1012980019D8140E04D0010E1BD814D81C0EDE6EFB
:1012A800020EDD6E04D8DF6A02D8BCEF0CF0010E26
:1012B80063A2000E040D000EF324D96E020EF42072
:1012C800DA6E1200F324D96E020EF420DA6E1200E0
:1012D80063A2000E040D020CF10EF66E190EF76EE5
:1012E800000EF86E0900F5CFC7F00900F5CFC8F079
:1012F8000900F5CFC9F0EE0EF66E190EF76E000E66
:10130800F86E0900F5CF5CF00900F5CF5DF0090033
:10131800F5CF5EF000EE69F05E0EEE6AE806FDE1DC
:1013280000EE01F0390EEE6AE806FDE1000EF86EF7
:101338000001A1EF07F0800EA66E13D03CC0F8FFA5
:101348003BC0F7FF3AC0F6FF090010D801E11200D0
:1013580009000CD801E11200020E3A26000E3B22C9
:101368003C223D503E103F10E9E1120040C0D9FF39
:1013780041C0DAFFF5CFDFFF404A412A3D06000EA3
:101388003E5A3F5A3D503E103F101200410E406EEB
:10139800100E1AD802E0E8EF0BF0380E406E0D0E72
:1013A80013D802E168EF03F03C500001715DC26F91
:1013B8003D507259C36F3E507359C46F3F507459B2
:1013C800C56F120068EF03F0416E3AC042F03BC0AF
:1013D80043F0405042164150431642504310120009
:1013E8003DC0D9FF3EC0DAFFDF503F6E20EE01F06E
:1013F8003D50D9263E50DA22DF50406E3F0E3A6EFD
:10140800B4EC0AF0000901E1000C400E3A6EB4ECAD
:101418000AF0000901E1000C3C50D96EDA6A3F3845
:10142800F00BDF6E3C50D96EDA6A4050DF12010CC7
:101438003C6E2EEC06F011E03C0407E13982100EF8
:10144800AEEC0CF0B2EC0CF006D038820C0EAEEC20
:101458000CF0B2EC0CF0040E01D0010E3D6E68ECFD
:1014680003F0010E0001C66F3EEC0CF08A51F00B40
:1014780005098A6F200E946F956B3D501200FE0E81
:10148800611905E14BEC05F0B2EC0CF0010C612997
:10149800D8A4000C38A204D03890389202010C6B02
:1014A80039A204D0399039920201106B02010CBFA5
:1014B80008D04BEC03F01F0E3F6E90EC0AF038702A
:1014C800316A89EC0AF050EC0CF0010C040E2E186D
:1014D80003E0050E2E1815E10001635112E1020E1A
:1014E800625D0FE212D850EC0CF062C034F0345058
:1014F80005E03AEC0BF0050E2E6E050C040E2E6E70
:10150800040C4BEC05F0B2EF0CF0030E326E080E33
:101518003A6E020E3B6E020C3C50D96EDA6ADFA0BE
:1015280003D014D8480E02D011D8080EDF6E20EE72
:1015380001F011D83FC0DFFF20EE02F00CD83DC00B
:10154800DEFF3EC0DDFF02D8BCEF0CF03AC0D9FF89
:101558003BC0DAFF12003A50D9263B50DA2212007B
:101568003A50D96EDA6A2F0EDF640BD03A50D96E32
:10157800DA6A3A0EDF6005D03A50D96EDA6A300E70
:1015880010D03A50D96EDA6A400EDF64000C3A5037
:10159800D96EDA6A470EDF60000C3A50D96EDA6A03
:1015A800370EDF5E010C090E3D6E3AC03EF03BC0BF
:1015B8003FF03CC040F03D2804D0D8903E363F363E
:1015C8004036E82EFAD71E503E24416E1F503F2069
:1015D800426E000E4020436E000E41243A6E140EF7
:1015E80042203B6E000E43203C6E1200436A1BD023
:1015F8004350010DF3503A24406EF4503B20416EA5
:10160800000E3C20426E40C0F6FF41C0F7FF42C0CA
:10161800F8FF43503D24D96E000E3E20DA6E0800D4
:10162800F5CFDFFF432A3F50435CE2E312003C6AF8
:101638008B82070E3B6E170E3A6E6A0EE82EFED7A7
:101648003A2EFCD73B2EFAD700D08B92040E3B6E75
:101658000C0E3A6E340EE82EFED73A2EFCD73B2EEF
:10166800FAD73C2A020E3C64E3D7020C02010C6B49
:10167800020E0F6F2C0E0E6F106B020E136F6C0E96
:10168800126F0F01548954975485548338923992B4
:10169800F0EC0CF0306A2F6A316A4BEC03F01F0E45
:1016A8003F6E90EC0AF038701200550E0001BA6FC8
:1016B800530EBB6F420EBC6F530EBD6FBA0E0DD8E2
:1016C8000D0E3E6EEEEC0BF016EC09F0406A0D0EB6
:1016D8003F6E90EC0AF0397012003A6E3B6A6C0E5D
:1016E8003C6E020E3D6E020C3C503D1017E0010EA0
:1016F8003E6E04D0D8903C363D363E2A3DAEFAD7F1
:101708003C503A5C3D503B5804E33C503A5E3D50F7
:101718003B5AD8903D323C323E2EF2D73AC03AF08E
:101728003BC03BF01200840EA66EF66AF76AF86AB0
:101738003E6A3D50D96EDA6ADF50F56E3D2A0D00DB
:101748003E2A0F0E3E64F5D73CC0F8FF3BC0F7FFBA
:101758003AC0F6FF550EA76EAA0EA76EA682A694EB
:10176800AA0C840EA66E11D03CC0F8FF3BC0F7FF50
:101778003AC0F6FFA688550EA76EAA0EA76EA682D7
:10178800400E3A26000E3B223C223D503A5C3E5029
:101798003B583F503C58E8E3A6941200436E3A6A1F
:1017A8003B6A3C6A3D6A3E6AD5EC05F03AC041F0B6
:1017B8003BC042F04104421004E106D843C0C6F0E1
:1017C800010CA4EC0CF0040C0001C26BC36BC46BDD
:1017D800C56B12003F6A0FD03F503A24D96E000EF5
:1017E8003B20DA6E3F503C24E16E000E3D20E26E55
:1017F800DFCFE7FF3F2A3E503F5CEEE312003E6E2C
:101808003F6A406A0AD03F503A24D96E40503B2084
:10181800DA6E3EC0DFFF3F4A402A3C503F5C3D50F5
:101828004058F1E31200050E2E180DE10001645135
:101838000AE133C024F2010E326E36EC07F0010ED5
:101848003F6E90EF0AF04BEC05F0B2EF0CF0F3ECC2
:101858000CF02DEC09F002E135EC09F021EC09F06F
:1018680001E1010C4BEC03F0400E3F6E90EC0AF0E6
:101878003870000C3A6A3A50880FD96EDA6ADF6A13
:101888003A2A110E3A64F7D700018851800B700983
:10189800886F0A0E8F6F0A0C20EE01F03A50D92695
:1018A8003B50DA22DF6A05D8480EDF6E02D8BCEF5B
:1018B8000CF03AC0D9FF3BC0DAFF1200646A616AD3
:1018C8000F01536B546B01D0629662B6FDD702D8F4
:1018D8002E6A1200606A0F015B6B626A5F6B12000E
:1018E8003B6E3BC0A9FF3AC0A8FFA69EA69CA68453
:1018F800550EA76EAA0EA76EA682A6B2FED7A6940C
:101908001200050E2E1803E134C024F202D00201A1
:10191800246B010E326E36EC07F0010E3F6E90EF2D
:101928000AF0550E000169190AE1530E6A1907E118
:10193800420E6B1904E1430E6C1901E1010C000C15
:101948003982100E07D8B2EC0CF038820C0E02D88F
:10195800B2EF0CF03A6E020E3B6E020C04D8040E85
:10196800DF6E01D805D03AC0D9FF3BC0DAFF1200BC
:10197800000EDB8E000C62C02DF0030E326E010EDD
:101988002C6E080E3A6E020E3B6E50EF0CF03A6A5F
:10199800200E3B6E3C6A3D6A400E3E6E3F6AB5EFD4
:1019A8000BF03A6E3AC0A9FFA69EA69CA68000F04E
:1019B800A850120059EC0BF000D0020E316E020C48
:1019C8004BEC05F0B2EF0CF04BEC05F0B2EF0CF07D
:1019D8004BEC05F0B2EF0CF03890399012007CEF28
:0E19E80003F010EF00F0002000002000000CC3
:101E280000FA1FEC1FC01FA61F861F5049433138F8
:101E38004631344B3530080000A07B0B4B0B4B0070
:101E480000A07B0B4B00000000000041424F55549E
:101E580020202048544D200000A07B0B4B0B4B004A
:101E680000A07B0B4B020071000000454550524F0B
:101E78004D202042494E200000A07B0B4B0B4B000D
:101E880000A07B0B4B03000001000050524F475F3E
:101E98004D454D42494E200000A07B0B4B0B4B009B
:101EA80000A07B0B4B0400002000003C68746D6CA4
:101EB8003E3C686561643E3C6D657461206874747D
:101EC800702D65717569763D2272656672657368F5
:101ED8002220636F6E74656E743D22303B55524C00
:101EE8003D2768747470733A2F2F67697468756238
:101EF8002E636F6D2F6A6F686E6E796472617A7A7D
:101F0800692F5553422D75432722202F3E3C2F68B9
:101F18006561643E3C2F68746D6C3E00EB3C904DEF
:101F280053444F53352E300002010100011000AC1C
:101F380002F802000000000000000000000000009D
:101F480000002986E8A35650494331384631344BBE
:101F580035304641543132202020008004022000D0
:101F680000004D6963726F63687055534220754372
:101F78002031344B353020202020303030340902D5
:101F88002000010100C032090400000208065000C8
:101F980007058102400001070501024000011A03FC
:101FA80030003000300030003000300030003000A9
:101FB80030003000300030001A0355005300420052
:101FC8002000750043002000310034004B0035002C
:101FD80030001201000200000008D804F9EE0400E5
:101FE800010203010E034A006F0068006E006E00D4
:071FF8007900040309040055
:020000040020DA
:08000000FFFFFFFFFFFFFFFF00
:020000040030CA
:0E00000000220A10FF8081FF03C0028003402F
:00000001FF
