:040000000EEF00F00F
:0400080004EF10F001
:100018000CEF10F048EF0BF0900E016E020E026E1E
:10002800046A400E036E000EF7EC0DF03B503C10D6
:100038003D103E1015E14550461006E1240E016EB4
:100048001F0E08D93E0E90D0C00E451802E1460496
:10005800D8A41200550E0201CE6FAA0ECF6FAA0CBB
:100068003B043C103D103E106FE145504610D8A4AB
:100078001200F80E0201906F9169926993690F0E50
:10008800946F10EC05F004E10900F528D8B41200CB
:1000980094699569156A040E146E176A060E166E31
:1000A80014A01CD0900ED0D80F0EDF161450100DCF
:1000B800F3CF0DF0100E0D26900EC6D80D50DF129E
:1000C800910EC2D8D6D8040E0F6ED8900E320D32CB
:1000D8000F2EFBD70D50DF6ED2D812D0900EB4D8A9
:1000E8001428DF6E910EB0D8F00EDF16C2D80EC0FD
:1000F8000DF00E6A910EA8D80D50DF12164A172A75
:10010800144A152A155003E1130E145CC9E314A010
:100118000DD0900E99D80F0EDF16900E95D8F00ED0
:10012800DF12910E91D8DF68AAD8000C900E8CD8F7
:10013800DF68910E89D8F00EDF16910E85D80F0E64
:10014800DF12164A172A0F0C030E8ED81DE110EC89
:1001580005F003E10900F52813E04550461007E1D2
:10016800330E016E1E0E21D0066EC0EF0CF0400E4D
:1001780045184610D8A41200730E016E1E0E15D035
:1001880045504610EDE012003E503D103C1004E191
:10019800040E3B5CD8A01200040E66D814E145504A
:1001A800461006E1B30E016E1E0E54D8400EDCD781
:1001B800400E45184610D8A41200F30E016E1E0E0C
:1001C80049D8310ED1D7050E4FD811E1166A176AF2
:1001D800900E3AD84550162486EC0EF0DF6E164A7B
:1001E800172A175030E1400E165CF2E312003BC0AC
:1001F80001F03CC002F03DC003F03EC004F072ECD8
:100208000BF001C010F002C011F003C012F004C0DE
:1002180013F01350121003E1400E115CD8B0120015
:1002280010C001F011C002F012C003F013C004F0B6
:10023800400E056E066A076A086A900E096E020E7D
:100248000A6E67EC0AF012001624D96E020E172007
:10025800DA6E1200026E0110D8A4000E036E900E22
:10026800046E020E056E020C3B183C103D103E1049
:10027800120014280D6E000E15200E6E1200020ECC
:100288001626000E1722000C1A6E4E5001E1E3D01C
:100298001A0E016E7AEC0CF0000901E0DCD04E6A0F
:1002A8000D0C0D0E1A18D8B40B0C0A0E1A1801E111
:1002B8000B0C3A0E1A18F3E14B6A406A020E3F6EB5
:1002C8004D6A010E4E6E0B0C4D38F00B1A104D6E28
:1002D800E3D8D8A40B0C100E4D6401D0E0D74D50D4
:1002E8004B26406A040E3F6E416A426A020EEAD704
:1002F80041C016F042C017F0C3D8416E1750426E85
:10030800CBD8D8A40B0C42504B2641504B26406A00
:10031800020E3F6E4A6A030ED5D7BED8D8A40B0C7E
:100328001AC04AF04A504B2611D0406A020E3F6E5E
:10033800496A486A040EC6D7C0D82AD0406A040E53
:100348003F6E00016A6B6B6B050EBCD74A50EDE03F
:10035800010AF2E0050AF2E0A2D7A4D805E11AC022
:1003680048F0483AF00E48163F504010D8A40B0CFD
:100378001A5048129DD848C0DFFF9AD8DF504B2644
:10038800492A406A020E3F6E4D504918D8A40B0CFA
:100398004C6A0A0E97D76AC016F06BC017F070D86F
:1003A80000016A6F17506B6F77D8D8A40B0C6A518D
:1003B8004B266A51166E6B51176E186A196A17C068
:1003C80019F016C018F0176A166A16C060F017C040
:1003D80061F018C062F019C063F06FD8D9D762D83D
:1003E80005E11AC04CF04C3AF00E4C163F50401044
:1003F800D8A40B0C1A504C124C504B264B5001E011
:100408004ED722D04150000160250C6E4250612128
:100418000D6E000E62210E6E000E63210F6E9D0E92
:10042800106E4DC011F0AAEC05F0000901E137D7B4
:1004380010D0505007E01EEC06F016EC09F0000949
:1004480001E12DD74E6A0C0C4A50DCE0010AF1E0BC
:10045800050A4E6A0B0C4E5001E123D7010A01E14F
:1004680033D7030A01E144D7010A01E156D7070A45
:1004780001E173D7010A8FE00F0AD8A40B0CAFD79C
:10048800163A173AF00E171616500F0B1712F00EF1
:1004980016161A50161012003F06D8A040063F50F4
:1004A800401012003F06D8A040063F04401012003A
:1004B80049509D0FD96EDA6A1200406A020E3F6EEB
:1004C800020C500E016E020E026E6C0E036E046A70
:1004D800100E056ECEEC0DF054EC0EF0000903E1A1
:1004E8006FEC0EF0040C70C0C1F071C0C2F072C0A5
:1004F800C3F073C0C4F0B3D0C7D8D7D8DFD8056E5F
:100508002FEC06F0E5D81C0E1E1416E0100E1E186F
:100518001D1003E0196A1A6A03D01A6A020E196ECE
:1005280019C0C9F0456A466A91EC09F0400E066E9A
:1005380033EC0CF05C70030C040E1D181E10D0E197
:10054800C3D0A2D8B2D8BAD8010E056E2FEC06F0E7
:10055800BFD81DC018F0700E181613E0400E1D18F5
:100568001E1003E01B6A1C6A03D01C6A020E1B6E75
:100578001BC0C9F0456A466AB7EC0EF0E3EC0DF013
:10058800020C020E1D181E10DBE0AAD77EEC0DF03F
:1005980056D08B0E59EC0DF0120E056ECEEC0DF008
:1005A800120E47D063C243F062C244F0445003E1E4
:1005B800250E435C03E3446A240E436E620E016E0B
:1005C8001F0E2EEC01F043C006F0C0EC0CF043C047
:1005D8000BF044C00CF00D6A0E6ABFEF07F0030E73
:1005E8000201906F916B926B936B040E22D0020103
:1005F800615162116311641102E067A171D744D897
:100608003A50391005E1AC0E375C020E385805E354
:10061800906991699269936906D0906B916B020E0B
:10062800926FAB0E936F946B956B020E966F976BF0
:10063800080E0B6E0C6A0D6A0E6ABFEF07F0000E0B
:100648009CEF0DF07A5108E078AF03D0010ED7EF98
:1006580009F0020ED7EF09F0000ED7EF09F07B5131
:1006680095E0030A96E0110A9DE0080AB8E0010A3D
:10067800E6E03E0ABCE00D0A01E163D7020A01E1A7
:100688003BD7050ADCE0DED764C237F063C238F036
:1006980062C239F061C23AF037C03BF038C03CF072
:1006A80039C03DF03AC03EF0120074C0C5F075C0C4
:1006B800C6F076C0C7F077C0C8F01200016A020E13
:1006C800026E036A046A020C020E0001C96F010C73
:1006D80001C01DF002C01EF01200D1D064BAFED7CE
:1006E800010E546E010C020E546E020C62A0FED76D
:1006F800629042EF0BF062B01FEF0EF08FEC0EF03D
:100708009DEC09F0556E550401E11200BAEC0EF0AB
:1007180002014151050A02E11DEF0BF0030A02E153
:1007280042EF07F098EF0EF062B01FEF0EF08FEC7B
:100738000EF09DEC09F0556E550401E11200BAEC7B
:100748000EF00201415102E197EF06F0010A02E1C1
:10075800C7EF08F0020A02E11BEF08F0060A02E1FF
:100768001DEF0BF0030A02E142EF07F00E0A02E167
:1007780096EF0AF0010A02E160EF0DF098EF0EF033
:1007880062B01FEF0EF062B612D05F5003E08FEC3C
:100798000EF05F6A535005E0E1EC0CF0000901E04F
:1007A800536A62CF34F0030E3416D8B4030C62B225
:1007B800A9EC0EF062A05FD064986296010E556EA7
:1007C800010C63B4A9EC0EF00201D2EC09F002E0CE
:1007D800A9EC0EF0020104BF046BCDEC09F040391E
:1007E800E832030BE8062AE15DEC09F0556E550482
:1007F80001E11200BAEC0EF036D097EC06F033D0D7
:10080800C7EC08F030D01BEC08F02DD0FDEC06F05A
:100818002AD0B3EC0EF027D096EC0AF024D060EC86
:100828000DF021D057EC0CF01ED0B1EC0EF01BD01F
:10083800AFEC0EF018D098EC0EF015D04151DDE079
:10084800010ADEE0020ADFE0050AE0E0010AE1E071
:100858000F0AE2E0010AE3E0030AE4E0010AE5E046
:10086800070AE6E0E8D7010E5F6E010C62EC07F0BC
:10087800010E536E010CC8EC09F0A3E0F7D75450F1
:1008880001E12CD7010A01E12ED7030A01E12ED795
:10089800010A01E130D7070A01E146D7010A01E15F
:1008A8006FD712004F5001E08FD037503B1864E1EA
:1008B80038503C1861E139503D185EE13A503E1815
:1008C800D8A45AD03E503D103C1003E1040E3B5CC6
:1008D80053E34550461030E1500E1D6E020E1E6E59
:1008E8001DC0D9FF1EC0DAFF3A0EDE1825E11F6AC7
:1008F800206A200E036E030E9DD89BEC0BF00009B6
:1009080001E112001F0E036E050E94D89BEC0BF04C
:10091800000901E11200200E20181F100DE17CD8FB
:1009280003E10900F52802E063EC0EF00BEC06F099
:10093800F7EC0DF0010E4F6E050E38EC01F01CE1DE
:100948006BD803E10900F52817E0460415E2216A8F
:10095800226A68D8016E4550212432EC0EF0214AF3
:10096800222A225003E1400E215CF3E3C00E451811
:10097800461002E1010E526E030E38EC01F024E13C
:100988004BD803E10900F5281FE0400E4518461032
:100998001BE10201505103E0E50E50190DE1216AF7
:1009A800226A0168215032EC0EF0214A222A2204E0
:1009B800F8E3010E526E08D0705103E0E50E70198D
:1009C80003E163EC0EF0F5D74F04D8A412003E50B3
:1009D8003D103C1004E1040E3B5CD8A01200216AD3
:1009E800226A20D848EC01F01C6E0B0E1C180AE095
:1009F8000D0E1C1802E163EC0EF0020E4F6E010E94
:100A0800526E010C214A222A225005E1400E215C37
:100A1800D8B01200E6D71200F66A200EF76E090069
:100A2800F5281200500E2124D96E020E2220DA6E0B
:100A3800DF5012001D24046E000E1E20056E1200E9
:100A48002C6E2D6A2C500AE125C0F6FF26C0F7FF50
:100A580027C0F8FF0800F5CF2EF002D0200E2E6E2A
:100A68005E802E502A6E2B6A28502A5C29502B58FB
:100A780020E22EC028F0296A010E2D6E1AD05BD80C
:100A8800080E066EC0EC0CF0080E2526000E262275
:100A9800272245D8080E066E0FEC0CF0EBEC0BF095
:100AA800556E555002E055501200080E285E000E93
:100AB800295A2950E4E1090E285CE1E23CD828C013
:100AC80006F0C0EC0CF0040E016E020E026E5E0E13
:100AD800036E020E056E480E046E28C006F029C08B
:100AE80007F00FEC0CF0EBEC0BF0556E5550DBE11A
:100AF800080E281829100BE12D5009E010D8066AB5
:100B08000FEC0CF0EBEC0BF0556E5550CCE176EC9D
:100B18000CF00BEC0EF0C4EC0AF0556EC4D7040EC2
:100B2800016E020E026E5E0E036E020E056E480E18
:100B3800046E076A480C25C001F026C002F027C0E1
:100B480003F0480E046E020E056E020C0C500F0BDB
:100B5800516EF00E0C14646F0D50656F0E50666F79
:100B68000F50676FCA51641909E1CB51651906E145
:100B7800CC51661903E1CD5167190BE0505009E0DB
:100B880059D816EC09F0000901E1000C40D8F7EC3F
:100B98000DF0146A156A06D041D8100E511804E0F9
:100BA800144A152A50D8F8E3100E511825E164C0EC
:100BB80007F065C008F066C009F067C00AF016ECD7
:100BC80009F0000901E1000C22D8F7EC0DF0516A98
:100BD800144A152A1150145C000E155804E305D068
:100BE8001DD8144A152A2FD8FBE3100E00016427DC
:100BF800000E65236623672351C050F064C0CAF015
:100C080065C0CBF066C0CCF067C0CDF0010CAD0E6E
:100C1800016E026A046A100E036EFF0C1050D96E42
:100C2800DA6A5150AD0FE16EE26ADFCFE7FF512A71
:100C3800102A1200CAC007F0CBC008F0CCC009F0D7
:100C4800CDC00AF012001150126E136A1250145CD3
:100C58001350155812004DD057D803E1076A010EFA
:100C680046D078AF03D0076A080E41D0010E39D0BC
:100C78004BD803E1076A020E3AD078AF17D001507B
:100C880074190CE10250751909E10350761906E14F
:100C98000450771903E1076A200E29D03BD803E2F4
:100CA800076A100E24D0076A400E21D0020E19D010
:100CB8002BD803E1076A040E1AD078BF16D001506A
:100CC80074190BE10250751908E10350761905E112
:100CD8000450771902E1080E04D01CD8040ED8B0CD
:100CE800100E076E000E066A0AD0076A800E066E9E
:100CF80006D00550B1E0010ABBE0030AD9E006C0FE
:100D080001F007C002F0120000017451751176114C
:100D1800771112007451015C7551025876510358CD
:100D2800775104581200010E256E040E54183BE04A
:100D3800050E541838E03FD05BA002D0488102D09D
:100D4800020148915BA202D0498102D00201499177
:100D5800256A31D0040E541820E144510F0B2BE1C1
:100D680044BF06D05EA202D0488101D013D0F0D78C
:100D78005EA402D0488101D00DD0EAD744BF06D086
:100D88005CA202D0488101D005D0E2D75DA202D092
:100D9800488102D002014891DBD744510F0BE0E0B3
:100DA800010AECE008D0020140511F0BC5E0010A1E
:100DB800CFE0030ACFE0255002E098EF0EF093EC65
:100DC80005F0020E066E0FEC0CF0EBEC0BF0556E16
:100DD800550401E11200BAEC0EF076EC0CF00BECC5
:100DE8000EF0C4EC0AF0556E550402E0BAEF0EF0AE
:100DF800120044D0030E541808E152D8296A080E8C
:100E0800286E000E24EC05F030D04AD852D8000ED7
:100E180024EC05F02AD0860E256E1F0E266E2510AE
:100E2800D8A4000E276E45D8010E24EC05F01DD07D
:100E38004251020D2B0EF324F66E1E0EF420F76EAF
:100E48000900F5CF2FF00900F5CF30F02FC031F0B1
:100E580030C032F0336A31C025F032C026F033C0DA
:100E680027F027D8000E24EC05F0556E14D0B9EC05
:100E78000EF0000902E198EF0EF012000201435152
:100E8800010AB8E0030AC7E0010AD2E0050A02E154
:100E980098EF0EF0ECD7550402E0BAEF0EF012000E
:100EA800DA0E256E1F0E266E2510D8A4000E276EAA
:100EB800120046C228F047C229F012004DD06296AF
:100EC80065EC02F0236E11D0010E566E010C41EC58
:100ED8000DF0020E566E020C030E566E030C040E35
:100EE800566E040C050E566E050C2350EDE0010AF3
:100EF800EEE0030AF1E0010AF2E0070AD8A41200C2
:100F0800F1D76296585008E002EC0AF07BEC0EF03C
:100F1800010E5A6E586A12005750D9E0FCEC09F0DD
:100F28007BEC0EF0010E596E576A1200629691EC36
:100F380009F01F0E066E33EC0CF05C70566A120056
:100F48006296E3EC0DF00009BFE112006296F1EC45
:100F58000AF00009BCE112005650B1E0010AD1E0E4
:100F6800030AE4E0010AECE0070AF0E0010A02E003
:100F7800A9EF0EF012000BC001F00CC002F00DC07A
:100F880003F00EC004F0010E056E2FEC06F001C050
:100F98000FF002C010F00FC001F010C002F00BC03B
:100FA80003F00CC004F00DC005F00EC006F0C3EC51
:100FB8000BF0200E0F18101008E129D833D833ECA5
:100FC8000CF05D700001C96B000C100E0F181010AA
:100FD80008E11DD827D833EC0CF05D70010E586E6F
:100FE800F1D7400E0F18101009E111D81BD833ECB7
:100FF8000CF05D70020E0001C96F000C020E0F1894
:10100800101002E168EF03F06FEC0EF0040C0C0E08
:10101800016E020E026E5D0E036E020E056E900EDC
:10102800046E900C0BC006F00CC007F01200010E05
:10103800256E040E541831E0050E54182EE034D0F5
:101048004205431139E15B8214D04251431134E126
:10105800040E54181CE144510F0B2EE144BF06D076
:101068005E82016B040E006F008F03D05E849BECE0
:101078000EF0256A21D044BF05D0FCEC09F07BECCA
:101088000EF0F7D702EC0AF07BEC0EF0F2D74451E1
:101098000F0BE4E0010AEFE00FD0020140511F0BF3
:1010A800CFE0020AD2E008D0020140511F0B04E150
:1010B800020E42194311DDE0255002E098EF0EF0D0
:1010C8000AD80BEC0EF002EC0DF0556E550402E058
:1010D800BAEF0EF01200040E016E020E026E020C40
:1010E8009B8C2F0E356EC00EE82EFED7352EFCD702
:1010F8007E6A82B006D010EC05F03FE10900F528C1
:101108003CE182B0FED7949222EC0DF0A0EC0EF0F8
:1011180008EC0AF071EC03F0525010E00001684B43
:10112800692B100E356E940EE82EFED7352EFCD79F
:1011380000D0140E0001681969111CE082A0EAD7DA
:10114800070E366E170E356E6A0EE82EFED7352E50
:10115800FCD7362EFAD700D082B0FED7070E366EEF
:10116800170E356E6A0EE82EFED7352EFCD7362EB2
:10117800FAD700D043EC0EF0FF009B9C7E6800EF8E
:1011880010F00EEF00F0010E256E040E541834E036
:10119800050E541831E036D04205431133E15B9215
:1011A80013D0425143112EE1040E54181FE144514B
:1011B8000F0B28E144BF02D05E9206D05E905E9489
:1011C8007B0E0417480E0413256A1CD044BF07D0B1
:1011D8005C905C927B0E0817480E0813F5D75D905B
:1011E8005D927B0E0C17480E0C13EED744510F0B73
:1011F800E5E0010AEBE006D0020140511F0BCCE00C
:10120800020ACFE0255002E098EF0EF06FEC08F0EC
:101218000BEC0EF002EC0DF0556E550402E0BAEF3F
:101228000EF012000A50091016E1400E085C13E295
:101238000A50091003E1200E085C0DE307C001F015
:1012480008C002F009C003F00AC004F0AD0E056E34
:1012580038EC0AF0010C200E0918071008100A10C3
:1012680027E0300E0918071008100A1021E00A506C
:101278001EE10804F00E0958D8B0000C0A5004E129
:10128800F00E095CD8A0000C086A096A0A6A0B6AA1
:101298000B50AD0FD96EDA6ADF50016E0B50072480
:1012A80032EC0EF00B2A0F0E0B64F2D7010C000C77
:1012B800010C256AFE0E411903E198EC0EF02BD0C3
:1012C800412927E108BF06D05C7027D81F0E066E9B
:1012D80033EC0CF05CA208D05C905C927B0E0201AF
:1012E8000817480E0813596A5DA208D05D905D92F0
:1012F8007B0E02010C17480E0C135A6A010E596E28
:10130800566A6FEC08F00BEC0EF002EC0DF0256E4F
:1013180002D0A9EC0EF025501200080E016E020E44
:10132800026E5C0E036E020E056E500E046E076AA6
:10133800500C05D062CF01F0030E011602E162A63F
:10134800F9D704BF046B62A203D06498ECEF0AF0EB
:1013580062A003D06498E2EF0AF016D804E064981B
:101368006296030E0ED063A403D06498E7EF0AF0E8
:1013780015D804E064986296050E03D00AD8555033
:101388001200556E555012006330E832E8320F0BE8
:1013980012005E8062966498556A12000031E83245
:1013A8000F0B0D0A1200036E88EC06F00FE0030421
:1013B80006E124D87BEC0EF0010E5A6E05D018D841
:1013C8007BEC0EF0010E596E040E01D0010E046E76
:1013D80059EC03F0010E0001C96F7EEC0DF08D5140
:1013E800F00B05098D6F200E976F986B0450120053
:1013F8005C82080E016E020E026E020C5D820C0EFB
:10140800016E020E026E020C4EEC0EF061886184D1
:10141800619061925C6B47EC0EF060820201006B98
:101428001ED8046B020E076F480E066F0F01538912
:101438005397538553835B905B925E905E925E9464
:10144800ACEC0EF0B8EC0DF0546A010E536E5F6E02
:101458005A6A596A586A576A648661881200020E85
:10146800036F400E026F400C01500210031004106D
:1014780006E00106000E025A035A045A05D0016814
:101488003F0E026E036A046A03C0F8FF02C0F7FF4A
:1014980001C0F6FF066A0550D96EDA6ADF50F56EAC
:1014A800052A0F00062A0F0E0664F5D7A68EA69CFD
:1014B800A684A698F29E550EA76EAA0EA76EA682BF
:1014C800A694F28EAA0CA68EA69C14D003C0F8FF90
:1014D80002C0F7FF01C0F6FF090012D801E11200AF
:1014E80009000ED801E11200020E0126000E0222A8
:1014F800032204220550061007100810E7E1120025
:1015080009C0D9FF0AC0DAFFF5CFDFFF094A0A2A66
:101518000506000E065A075A085A05500610071005
:1015280008101200010E256E08D00201486B03D086
:10153800010E0201486F256A05D05450040AF5E0EF
:10154800010AF6E0255002E098EF0EF093EC05F062
:10155800010E066E0FEC0CF0EBEC0BF0556E55041B
:1015680001E11200BAEC0EF076EC0CF00BEC0EF088
:10157800C4EC0AF0556E550402E0BAEF0EF0120002
:1015880005D062CF24F0030E241602E162A6F9D733
:1015980062B21ED062B012D0C8EC09F00AE062EC68
:1015A80007F0010E536EE1EC0CF00009EFE0536A0E
:1015B800EDD763B408D05E700BEF0CF06296010EA5
:1015C800556E555012006296040E556E5550120015
:1015D8006296020E556E55501200B5EC0EF019D8F1
:1015E80001E11FD80AD801E1010C91EC09F0400E85
:1015F800066E33EC0CF05C70000C400E0001C55F09
:10160800000EC65BC75BC85BC551C611C711C811C0
:101618001200400E4526000E4622020E46184510BE
:1016280012003B2A000E3C223D223E22456A466AB1
:101638001200030E541805E0040E541802E098EF47
:101648000EF042C225F06FEC08F00BEC0EF002EC45
:101658000DF0556E550401E11200BAEC0EF025C0EC
:101668005CFF030E541805E10F015C51D8B4120059
:1016780008D00F015C51D8A4120000D0030E546E9C
:10168800030C040E546E040C4A0EF66E1D0EF76E13
:10169800000EF86E00EECAF010EE07F00900F5CF64
:1016A800EEFFE550E150FAE1760EF66E1D0EF76E8C
:1016B800000EF86E0900F5CF5FF000EE60F06A0EDC
:1016C800EE6AE806FDE100EE37F0280EEE6AE8065D
:1016D800FDE1000EF86E000174EF08F001C005F09E
:1016E80002C006F003C007F004C008F0090ED89045
:1016F8000536063607360836E82EF9D7455005244C
:10170800096E465006200A6E000E07200B6E000E6A
:1017180008200C6E000E0924016E140E0A20026EB9
:10172800000E0B20036E000E0C20046E120004C085
:10173800D9FF05C0DAFFDF50066E20EE01F0045035
:10174800D9260550DA22DF50076E060E016E7AECB4
:101758000CF0000901E1000C070E016E7AEC0CF0A8
:10176800000901E1000C0350D96EDA6A0638F00B63
:10177800DF6E0350D96EDA6A0750DF12010C410E92
:10178800076E100E18D802E0B2EF0DF0380E076E93
:101798000D0E11D80EE003500001745DC56F0450A2
:1017A8007559C66F05507659C76F06507759C86F77
:1017B800120059EF03F0086E01C009F002C00AF0E8
:1017C8000750091608500A1609500A10120005D0C9
:1017D80062CF24F0030E241602E162A6F9D762B2A2
:1017E800ECEF0AF062B0E2EF0AF0C8EC09F00AE0A8
:1017F80062EC07F0010E536EE1EC0CF00009EDE02D
:10180800536AEBD763A4E7EF0AF05E7000D06296E4
:10181800556A5550120020EE01F01CD806C0DFFFB3
:1018280020EE02F017D804C0DEFF05C0DDFF03502C
:10183800D96EDA6ADFA003D008D8480E02D005D8DE
:10184800080EDF6E02D81CEF0EF001C0D9FF02C0EF
:10185800DAFF12000150D9260250DA22120020EED7
:1018680001F01CD806C0DFFF20EE02F017D804C034
:10187800DEFF05C0DDFF0350D96EDA6ADFA003D0B2
:1018880008D8480E02D005D8080EDF6E02D81CEF23
:101898000EF001C0D9FF02C0DAFF12000150D926AC
:1018A8000250DA221200050E541802E098EF0EF0EA
:1018B8000201486B93EC05F0010E066E0FEC0CF07C
:1018C800EBEC0BF0556E550401E11200BAEC0EF08A
:1018D80009D80BEC0EF0C4EC0AF0556E5504D8B4D8
:1018E80012001200016A020E026E020C0150D96E3B
:1018F800DA6A2F0EDF640BD00150D96EDA6A3A0E1D
:10190800DF6005D00150D96EDA6A300E10D0015070
:10191800D96EDA6A400EDF64000C0150D96EDA6ABB
:10192800470EDF60000C0150D96EDA6A370EDF5EB1
:10193800010C18D003C0F8FF02C0F7FF01C0F6FF82
:10194800A68EA69CA684A688F29E550EA76EAA0E01
:10195800A76EA682A694F28E400E0126000E0222E1
:10196800032204220550015C065002580750035810
:1019780008500458DFE312000A6A1BD00A50010D10
:10198800F3500124076EF4500220086E000E032065
:10199800096E07C0F6FF08C0F7FF09C0F8FF0A5034
:1019A8000424D96E000E0520DA6E0800F5CFDFFF9B
:1019B8000A2A06500A5CE2E31200086A47500AE065
:1019C80091EC09F01F0E066E33EC0CF05C70476A60
:1019D800010E086E5A5007E05DB205D041EC0DF0DB
:1019E800020E566E5A6A595007E05CB205D041ECB7
:1019F8000DF0020E566E596A0850120005D062CFDB
:101A080024F0030E241602E162A6F9D762B2ECEFC5
:101A18000AF062B0E2EF0AF0C8EC09F00AE062EC02
:101A280007F0010E536EE1EC0CF00009EDE0536A8B
:101A3800EBD763A4E7EF0AF00BEF0CF0036A8B8295
:101A4800070E026E170E016E6A0EE82EFED7012EE3
:101A5800FCD7022EFAD700D08B92040E026E0C0E21
:101A6800016E340EE82EFED7012EFCD7022EFAD7CF
:101A7800032A020E0364E3D7020C550E0001BD6F62
:101A8800530EBE6F420EBF6F530EC06FBD0E0DD802
:101A98000D0E056ECEEC0DF00BEC08F0076A0D0E7E
:101AA800066E33EC0CF05D701200016E026A900E47
:101AB800036E020E046E020C42C225F0020E25606F
:101AC80098EF0EF06FEC08F00BEC0EF002EC0DF056
:101AD800556E550401E11200BAEC0EF05E90ACECC4
:101AE8000EF0255002E145EF0BF0050E546E050C83
:101AF80045EF0BF000018B51800B70098B6F8B9FAA
:101B08008C6BF00E8D178D998D9B8D9D8D9F8E6B97
:101B18008F6B906B916B0A0E926F936B946B956BB6
:101B2800966B976B986B996B9A6B9B6B9C6B12007F
:101B38000A6E016A026A036A046A056A2FEC06F0F3
:101B480001C008F002C009F00804091004E106D831
:101B58000AC0C9F0010C6FEC0EF0040C0001C56B53
:101B6800C66BC76BC86B12000201086B020E0B6FC5
:101B7800500E0A6F0C6B020E0F6F900E0E6F0F0156
:101B880054895497548554835C925D92010E476E34
:101B9800566A1200066A0FD006500124D96E000E4C
:101BA8000220DA6E06500324E16E000E0420E26E75
:101BB800DFCFE7FF062A0550065CEEE31200B7EC1C
:101BC8000EF00DEC0BF002E115EC0BF00BEC08F04D
:101BD800076A400E066E33EC0CF05D7001EC0BF0FA
:101BE80001E1010C000C056E066A076A0AD006506E
:101BF8000124D96E07500220DA6E05C0DFFF064ABD
:101C0800072A0350065C04500758F1E3120020EE3F
:101C180001F00150D9260250DA22DF6A04D8480EB2
:101C2800DF6E01D805D001C0D9FF02C0DAFF12006B
:101C3800000EDB8E000C626A0F015F6B5C6B01D0DB
:101C4800629662B6FDD764985E90ACEC0EF0030E17
:101C5800541802E0030E546E62901200026E02C025
:101C6800A9FF01C0A8FFA69EA69CA684550EA76E34
:101C7800AA0EA76EA682A6B2FED7A69412000AD80C
:101C880002D8609212006296629662966296626AC2
:101C98005F6B1200646A616A0F01536B546B120028
:101CA800550E00016C190AE1530E6D1907E1420E39
:101CB8006E1904E1430E6F1901E1010C000C016A71
:101CC800200E026E036A046A056A400E066E076AF1
:101CD800086A9DEF0CF002EC0AF07BEC0EF0FCECCD
:101CE80009F07BEC0EF0010E5A6E596E010C05D806
:101CF800000EDB8402D8DB8E000C01C0D9FF02C0C5
:101D0800DAFF1200016E01C0A9FFA69EA69CA6805C
:101D180000F0A8501200080E0201016F33EC0AF01F
:101D2800080E006F008F080C020101D8040C056B27
:101D3800040E046F048F040CF66A200EF76E526AC4
:091D480012000020000000200040
:101D520064968B82FFD75C905D90120098EF0EF034
:101D620098EF0EF098EF0EF056EF04F010EF00F03F
:051D7200000C1200014D
:101E2A0000FA1FEC1FC01FA61F5049433138463124
:101E3A00344B3530080000A07B0B4B0B4B0000A045
:101E4A007B0B4B00000000000041424F55542020FC
:101E5A002048544D200000A07B0B4B0B4B0000A0E8
:101E6A007B0B4B020071000000454550524F4D203C
:101E7A002042494E200000A07B0B4B0B4B0000A0D8
:101E8A007B0B4B03000001000050524F475F4D454A
:101E9A004D42494E200000A07B0B4B0B4B0000A08B
:101EAA007B0B4B0400002000003C68746D6C3E3CC8
:101EBA00686561643E3C6D65746120687474702D58
:101ECA0065717569763D227265667265736822204E
:101EDA00636F6E74656E743D22303B55524C3D27DC
:101EEA0068747470733A2F2F6769746875622E6309
:101EFA006F6D2F6A6F686E6E796472617A7A692F74
:101F0A005553422D75432722202F3E3C2F68656189
:101F1A00643E3C2F68746D6C3E00EB3C904D53441C
:101F2A004F53352E300002010100011000AC02F8B7
:101F3A000200000000000000000000000000000095
:101F4A002986E8A35650494331384631344B353057
:101F5A004641543132202020008004022000000033
:101F6A004D6963726F63687055534220754320311F
:101F7A00344B353020202020303030320902200006
:101F8A00010100C0320904000002080650000705DA
:101F9A008102400001070501024000011A033000D6
:101FAA0030003000300030003000300030003000A7
:101FBA003000300030001A03550053004200200060
:101FCA00750043002000310034004B00350030001A
:101FDA001201000200000008D804F9EE0200010212
:101FEA0003010E034A006F0068006E006E0079005C
:051FFA000403090400CE
:020000040020DA
:08000000FFFFFFFFFFFFFFFF00
:020000040030CA
:0E00000000220A10FF8085FF03C0028003402B
:00000001FF
