:040000000EEF00F00F
:0400080004EF10F001
:100018000CEF10F0EDEF09F04E6E2B5001E1E4D03B
:100028004E0E346ECAEC09F0000901E0DDD02B6AEF
:100038000D0C0D0E4E18D8B40B0C0A0E4E1801E11B
:100048000B0C3A0E4E18F3E10001A66B166A020E6D
:10005800156E2A6A010E2B6E0B0C2A38F00B4E1007
:100068002A6EE4D8D8A40B0C100E2A6401D0DFD76E
:100078002A500001A627166A040E156E9B6B9C6B0E
:10008800020EE9D7E6D8C5D89B6F4B509C6FCED8E7
:10009800D8A40B0C9C51A6279B51A627166A020EC2
:1000A800156E296A030ED7D7C1D8D8A40B0C4EC039
:1000B80029F029500001A62710D0166A020E156EE5
:1000C800286AA56B040EC7D7CED82CD0166A040EA2
:1000D800156E996B9A6B050EBED72950EEE0010A92
:1000E800F3E0050AF3E0A3D7AED806E14EC0A5F0C9
:1000F8000001A53BF00EA51715501610D8A40B0C3F
:100108004E500001A513AAD8A5C0DFFFA7D8DF501D
:10011800A627282A166A020E156E2A502818D8A46F
:100128000B0C0001A76B0A0E96D799C04AF09AC02B
:100138004BF06FD8996F4B509A6F78D8D8A40B0CA6
:100148009951A627100E4A6E99C04BF09AC04CF0F0
:100158004D6A4A2804D0D8904B364C364D36E82E96
:10016800FAD74BC092F04CC093F04DC094F07BD8B6
:10017800D8D769D806E14EC0A7F00001A73BF00E1A
:10018800A71715501610D8A40B0C4E500001A71332
:10019800A751A627A65101E04AD71FD05AD84C6AC2
:1001A80092514A243D6E93514B203E6E94514C20FF
:1001B8003F6EE80E406E2AC041F0F2EC04F00009F0
:1001C80001E135D70FD02D5006E036D866EC08F09F
:1001D800000901E12CD72B6A0C0C2950DFE0010A39
:1001E800F2E0050A2B6A0B0C2B5001E122D7010A19
:1001F80001E133D7030A01E145D7010A01E154D7E8
:10020800070A01E171D7010A90E00F0AD8A40B0C84
:10021800B0D74A3A4B3AF00E4B164A500F0B4B12D6
:10022800F00E4A164E504A10000112001506D8A0CA
:100238001606155016101200F8C039F0F9C03AF039
:10024800FAC03BF012001506D8A0160615041610C1
:1002580012009BC04AF09CC04BF012002850E80FD7
:10026800D96EDA6A1200166A020E156E020C2C0E8E
:10027800346E040E356E680E366E376A1F0E386E91
:1002880024EC0BF0F5EC0AF0000901E0EED01200C6
:10029800280E7719010ED8A4020E486E7FC009F007
:1002A8007EC00AF009500A1008E1000E3A6E3B6E53
:1002B8003C6E3D6E3E6EE3EF08F0EBD80950052426
:1002C800446E0A500620456E000E0720466E000E4A
:1002D8000820476E4750461005E1140E445C100E86
:1002E800455807E3050EA06F210E9F6F9E6BDCEF4C
:1002F8000AF00950446E0A50456E466A476A090E6C
:10030800D8904436453646364736E82EF9D744C0A5
:100318000BF045C00CF046C00DF047C00EF00BC006
:100328003AF00CC03BF00DC03CF00EC03DF048C0A8
:100338003EF0E3EC08F0000901E11200176A186AC0
:10034800020E481805E112EC0CF0050E206E050CA3
:100358004EEC0BF0030E206E030C1C50A6E01C6A3A
:100368003CEC0CF0DCEF0AF07BC00FF0106A0F5089
:1003780010109BE0105003E1130E0F5C03E3106AAA
:10038800120E0F6E97D80FC036F010C037F0000E5F
:1003980062EC0BF0700E04016C6FA0C06EF40A0ED4
:1003A800736F9FC078F49EC079F42FD07BC00FF094
:1003B8007AC010F00F50101001E177D7105003E108
:1003C800250E0F5C03E3106A240E0F6E630E346E65
:1003D8001F0E30EC03F00FC039F0A5EC09F015D072
:1003E8007BC00FF0106A0F50101001E15ED710505B
:1003F80003E1050E0F5C03E3106A040E0F6E030E93
:1004080004016C6F6D6B6E6B6F6B0F500EEF0AF023
:1004180079517A117B117C1106E07FB104D0050E69
:10042800A06F240E62D735D80450031005E1130ECF
:10043800015C100E025806E304016C696D696E696F
:100448006F6907D004016C6B6D6B100E6E6F120E26
:100458006F6F706B716B020E726F736B080E0EEF1D
:100468000AF055EC0CF0DCEF0AF00001775101E1DD
:1004780074D7030A01E178D7110A98E0080AB0E0B6
:100488003F0AC6E00D0A01E103D7020A01E100D7DD
:10049800E8D77CC001F07BC002F07AC003F079C0D5
:1004A80004F001C005F002C006F003C007F004C064
:1004B80008F012006C0E346E040E356E040C5EECFF
:1004C80002F0376A400E366E000E62EC0BF00550F3
:1004D80006100710081015E11750181006E1F90E5C
:1004E800346E1E0EB9D83E0E7AD0C00E171802E12F
:1004F8001804D8A41200550E0401AA6FAA0EAB6FF7
:10050800AA0C050406100710081002E123EF08F0F2
:10051800120EB7D846E1175018101BE1370E346E8B
:100528001F0E9AD80B0E396EA5EC09F0080E0401BF
:10053800776F420E346E1F0E356E98D8A5EC09F011
:10054800210E0401976F020EA66F580EA86FA96BB3
:100558001200400E17181810D8A412004D0E346E51
:100568001F0E7AD80B0E396EA5EC09F0200E040187
:10057800776F030E866F886B010E896F2F50D8B482
:100588001200580E346E1F0E356E70D8A5EC09F0A7
:10059800210E0401976F040EA66FA86B200EA96F99
:1005A800200C08500710061004E1130E055CD8A0B3
:1005B8001200130E66D816E11750181006E1A10EA6
:1005C800346E1E0E49D8400E0AD0400E1718181067
:1005D800D8A41200E10E346E1E0E3ED8180E396EE5
:1005E800A5EF09F0140E4DD811E1436A6C0E4324AF
:1005F800D96EDA6A040EDA224350172409EC0CF09B
:10060800DF6E432A3F0E4364F1D73F0C05C034F038
:1006180006C035F007C036F008C037F07CEC09F0AA
:100628003450406E35C041F036C042F0425003E1CC
:10063800400E415CD8B0120040C034F041C035F0E3
:1006480042C036F0400E376E386A396A6C0E3A6E20
:10065800040E3B6E51EF09F0356E3410D8A4000E2D
:10066800366E6C0E376E040E386E040C3410D8A437
:10067800000E366E8C0E376E040E386E0B0E396E09
:100688000B0C05180610071008101200010E4B6E0F
:100698004FD0DB0E8F6F1F0E906F8F11D8A4000EF6
:1006A800916F986B120E976F4B6A4CD062514AE16A
:1006B8006AD879D868D845C048F046C049F047C0DC
:1006C8004AF0020E4824F66E000E4920F76E000E1E
:1006D8004A20F86E0900F5CF97F00A00F5CF98F098
:1006E800E3D7080E62612ED06251020D990EF324F1
:1006F800F66E1E0EF420F76E0900F5CF43F00900E0
:10070800F5CF44F043C045F044C046F0476A4BD8A3
:100718008FC0F6FF90C0F7FF91C0F8FF0800F550B2
:10072800976F986BC1D77CEC0CF00009BDE10AD03B
:1007380000016351010AADE0030AB8E0010AD1E003
:10074800050AF1E14B5004E0E4EC04F0D6EF0BF0BD
:100758006651975D675198590DE297C013F098C09C
:1007680014F097C043F0070E431601E007D0010EBE
:10077800A36F05D066C013F067C014F0A36B266A98
:1007880037EC06F017D06251020DF350FB0FD96E0B
:10079800DA6ADECF43F0DDCF44F043C045F044C011
:1007A80046F0476A120045C08FF046C090F047C037
:1007B80091F01200010E226E010C2C5060E10150E4
:1007C800051837E10250061834E10350071831E1E3
:1007D800045008182EE108500710061003E1130E04
:1007E800055C27E3140E45EC03F012E1180421E23E
:1007F800506A516A6CD8346E1750502499EC0BF03B
:10080800504A512A515015E1400E505C12E2F2D77D
:10081800175018100EE13A0E04012C190AE12F5056
:1008280002E0EDEC0BF049EC05F062EC0BF0010E88
:100838002C6E120E45EC03F022E1400E171818102A
:100848001EE12F500AE004014C5103E0E50E4C195B
:1008580004E1EDEC0BF0010E2E6E04012C5103E0C7
:10086800E50E2C190CE1506A516A3468505099EC25
:100878000BF0504A512A5104F8E3010E2E6E2C0455
:10088800D8A4120008500710061004E1130E055CE6
:10089800D8A01200506A516A1AD810EC00F04F6EB6
:1008A8000B0E4F180AE00D0E4F1802E1EDEC0BF09D
:1008B800020E2C6E010E2E6E010C504A512A515018
:1008C80005E1400E505CD8B01200E6D712002C0E9D
:1008D8005024D96E040E5120DA6EDF501200010E3A
:1008E8003D6E040E23185EE0060E23185BE060D010
:1008F800620563115DE1610502E1259201D025825F
:100908003D6A56D06251631153E1060E231808E17F
:1009180064510F0B3A6E020E3A6005D03D6A03D05F
:1009280064510F0BFBE03D5043E164510F0B0BE1A9
:10093800610504E131920401086B3AD0318240D854
:10094800D6EC0BF035D064AF03D03A6A3A2A01D01E
:100958003A6A3BD83A243B6E3B283C6E61050BE172
:1009680064510F0B376E000E64BF010E386E3C5099
:100978002DEC0CF01DD064AF03D03A6A3A2A01D0AE
:100988003A6A23D8300F3A24D96EDA6ADF823C50AB
:10099800040D000EF324346E040EF420356ED6ECEC
:1009A8000BF006D0000160511F0BA2E0020AAAE07A
:1009B8003D5003E005D8D6EF0BF043EC0CF00BD01C
:1009C800080E346E040E356E040C000164510F0BD2
:1009D800020DF3501200030E226E030C3D503F0B24
:1009E800496EC00E3D14446E3E50456E3F50466EF3
:1009F800F851441806E1F951451803E1FA5146182F
:100A08000CE02D500AE020EC01F066EC08F000093B
:100A180001E1000C3AD862EC0BF0476A486A06D04C
:100A28003BD8400E491804E0474A482A41D8F8E321
:100A3800400E491821E144C039F045C03AF046C09B
:100A48003BF066EC08F0000901E1000C1ED862ECEE
:100A58000BF0496A474A482A4150475C000E4858FB
:100A680004E305D019D8474A482A22D8FBE3400EA8
:100A78004426000E4522462249C02DF044C0F8F015
:100A880045C0F9F046C0FAF0010CA80E346E356A7C
:100A9800376A400E366EFF0C4050D96EDA6A4950FC
:100AA800A80FE16EE26ADFCFE7FF492A402A120069
:100AB8004150426E436A4250475C435048581200C6
:100AC80065B464A40BD06494050E231805E1609204
:100AD800A1C023F001D0659465B4FDD7050E231895
:100AE80001E1120065A008D0020E231802E041ECD3
:100AF80007F0030E236E659065A807D064846082B2
:100B080023C0A1F0050E236E6598030E236041D023
:100B1800030C00F000F061CF27F065963DD837E16F
:100B280027B41BD027A202D0308401D03094010E04
:100B380027A2000E63EC0AF0DF30E8320F0B0D0A33
:100B480003E1EAEC06F025D0020E221803E130702A
:100B5800DFEC07F04DEC0AF01CD0220404E1317000
:100B680037EC06F016D04DEC0AF00001A25111E066
:100B780024C063FF030E231805E1245003E0040E8C
:100B8800236E03D0245001E16580A26B02D035ECBE
:100B98000CF065A61200BDD72730E832E8320F0BFB
:100BA8001200700ED3129B8ED2882F0E346EC00E98
:100BB800E82EFED7342EFCD7B588B58E0F015C9D84
:100BC800040E536E0C0E526E340EE82EFED7522EC3
:100BD800FCD7532EFAD739EC0BF081BC02D02F503A
:100BE8001EE181BCFED7020E536E380E526EAD0E5A
:100BF800E82EFED7522EFCD7532EFAD700F0939E3C
:100C08008A8E2E6A66EC0CF064EC05F097EC07F01F
:100C18002E5015E181ACF8D72F500FE1F5D70F0111
:100C28005C69B56AD2989B9E300ED36E00EF10F0C7
:100C380004D064EC05F097EC07F081BCFAD764ECBB
:100C480005F097EC07F00001A42B080E526ECA0EAF
:100C5800E82EFED7522EFCD7C80E0001A419EFE1EA
:100C6800FF000EEF00F01350141035E0145003E1AC
:100C7800090E135C1DE326500CE137D8080E396EB7
:100C8800A5EC09F00001080E8F27000E9023912390
:100C980007D03BD8080E386E24EC0BF01EEC08F099
:100CA800080EE3EC0BF0080E135E000E145A000C4D
:100CB800265006E11AD813C039F0A5EC09F005D082
:100CC80024D813C038F024EC0BF01350E3EC0BF0ED
:100CD800136A146A12000001A351D8B41200000E5E
:100CE800E3EC0BF00001A36B12008FC040F090C042
:100CF80041F0426A40C034F041C035F042C036F09D
:100D0800240E376E040E386E040C11C034F012C075
:100D180035F0240E366E040E376E040C010E3E6E4E
:100D28003C6A040E231833E0060E231830E037D04F
:100D380025A002D03C8001D03C9025A202D03D8065
:100D480001D03D903E6A2BD0040E231805E1645172
:100D58000F0B09E13E6A07D064510F0B3B6E020E80
:100D68003B6001D0F7D73E501AE164AF03D03B6A2D
:100D78003B2A01D03B6AE9EC04F0300F3B24D96EE2
:100D8800DA6ADFA202D03C8001D03C9008D0000192
:100D980060511F0BCDE0010AD5E0030AD5E03E50B3
:100DA80004E0E4EC04F0D6EF0BF0240E346E040EED
:100DB800356E376A080E366E000E62EC0BF03CC0DA
:100DC80024F4020EE3EC0BF0DEEF03F00401086BF1
:100DD80027A205D01C0E48D824EC0BF004D0140E22
:100DE80043D824EC0BF060984DEC0AF03080318049
:100DF80000016039E832030B05E031D0E4EC04F07F
:100E0800D6EF0BF0615102E192EF06F0010A02E120
:100E180073EF04F0020A02E173EF04F0060A02E13C
:100E280000EF0CF0030A02E14AEF03F0010A02E1C5
:100E380062EF0CF00F0A02E1C8EF0BF0010A02E1C1
:100E4800A6EF08F0030A02E188EF0BF0010A02E1BD
:100E5800BAEF0BF0070A02E15EEF0CF0CFD774ECA3
:100E68000CF00009CBE01200346E040E356E600EF3
:100E7800366E376A080E386E080C646A666A656AE8
:100E8800676A6A6A080E6B6E636A25902592150E6A
:100E9800626E346A040E356E376A140E366E000EB2
:100EA80062EC0BF0040E0401036F140E026F040EC3
:100EB800076F1C0E066F040E0B6F240E0A6F300EA0
:100EC800346E356A376A040E366E000E62EC0BF02B
:100ED8003B6A3B50D5EC08F03B50DCEC08F03B2A71
:100EE800010E3B64F6D70001A26BA36B216A01D007
:100EF800659665B6FDD76098160E6A6E235007E1B1
:100F08006086010E236E60BAFED7020E236E226A37
:100F1800608C00F000F000F000F0609C4DEC0AF0EE
:100F280030944DEF0AF0A3941B5035E01950870F09
:100F3800D96EDA6A0001DFB40DD0327006D01DEC2C
:100F480009F022D03BEC01F01FD02050FBE0050A4D
:100F5800F6E01AD0337011D04EEC0BF015D01F50BC
:100F680006E024EC0CF01F6A060E206E0DD00EEC85
:100F78000BF00AD06AEC0CF007D02050010AEFE021
:100F8800030AF8E0010AE8E0192A040E191801E139
:100F9800196A1B060ED01D500CE0070E201803E13D
:100FA8006AEC0CF005D0060E201802E10EEC0BF0EE
:100FB8001D6AA38412000001965103E1090E955D94
:100FC80016E327B207D0140E2DD8080E386E24EC7D
:100FD8000BF006D01C0E26D8080E386E24EC0BF049
:100FE80029D8080E0001955F000E965B13D027B232
:100FF80007D0140E17D895C038F024EC0BF006D0A3
:101008001C0E10D895C038F024EC0BF013D8000152
:10101800956B966B95519611D8A4120043EC0CF081
:10102800EFEF04F0346E040E356E11C036F012C0C6
:1010380037F0040C080E1126000E1222000C6C0E5C
:10104800386E040E396E17501810D8A4120038C024
:10105800D9FF39C0DAFFF80EDE6EDD6820EE02F047
:1010680024D820EE04F021D820EE06F01ED82F5008
:10107800D8B41200376A040E366E3628346E000E65
:101088003720356E19D83850D9263950DA2234C06D
:10109800DEFF35C0DDFF364A372A375003E1130E2D
:1010A800365CEBE309D801D8FF0C3850D926395003
:1010B800DA22DE68DD681200D8903634D96E37340B
:1010C800DA6E12003B5013E1400E3A5C10E23B50DE
:1010D80003E1200E3A5C0BE339C034F03AC035F036
:1010E8003BC036F0A80E376E6BEC0AF0010C200EF0
:1010F8003B1839103A1025E0300E3B1839103A10D9
:1011080020E03A04F00E3B5815E2F00E3B5C12E387
:101118003A6A3B6A3C6A3C50A80FD96EDA6ADF50DB
:10112800346E3C50392499EC0BF03C2A3F0E3C6459
:10113800F2D7010C3B5004E1200E3A5C02E3000CAC
:10114800000C010C040E231803E0060E231825E1F9
:101158000001635122E1020E625D1FE2608C00F023
:1011680000F000F000F0609C366A36501AD836500D
:101178001FD8362A010E3664F8D743EC0CF0030E5C
:10118800226E62C021F0215005E076EC0CF0060ECC
:10119800236E060C040E236E040CE4EC04F0D6EF68
:1011A8000BF0020DF350300FD96EDA6ADF841200AB
:1011B800020DF350310FD96EDA6ADF8412003E5007
:1011C80011E10001EDEC0AF003E10EEC0BF028D080
:1011D80074AF03D024EC0CF002D04FEC0CF0060EE8
:1011E800206E1ED0000174AF03D0020E3E181BE023
:1011F80074BF02D03E0417E03A50705D3B507159FD
:101208003C5072593D5073590EE370513A5C71511C
:101218003B5872513C5873513D5802E2010E1F6E03
:101228000001746B010C49EC0CF0020E0001746FA4
:10123800000C78EC0CF029D801E11FD80CD802E09A
:1012480012EF0CF01F5002E10EEF0BF04FEC0CF018
:101258001F6AF2EF0AF0400E0B5E000E0C5A0D5A90
:101268000E5A400E0001705F000E715B725B735B7B
:101278000B500C100D100E101200052A000E06223D
:1012880007220822176A186A1200400E1726000E55
:101298001822020E181817101200800EA66E13D00E
:1012A80036C0F8FF35C0F7FF34C0F6FF090010D884
:1012B80001E1120009000CD801E11200020E3426E7
:1012C800000E35223622375038103910E9E1120065
:1012D8003AC0D9FF3BC0DAFFF5CFDFFF3A4A3B2AD5
:1012E8003706000E385A395A37503810391012005C
:1012F80034C038F035C039F036C03AF037C03BF06A
:10130800090ED890383639363A363B36E82EF9D7B2
:10131800175038243C6E185039203D6E000E3A2084
:101328003E6E000E3B203F6E000E3C24346EF60EDF
:101338003D20356EFF0E3E20366EFF0E3F20376E85
:1013480012003F6A1FD03F50010DF3CF3AF0F4CF9F
:101358003BF03A5034243C6E3B5035203D6E000E35
:1013680036203E6E3CC0F6FF3DC0F7FF3EC0F8FF9A
:101378003F503724D96E000E3820DA6E0800F5CFBA
:10138800DFFF3F2A39503F5CDEE312003450D96E4C
:10139800DA6A2F0EDF640BD03450D96EDA6A3A0E4F
:1013A800DF6005D03450D96EDA6A300E10D0345070
:1013B800D96EDA6A400EDF64000C3450D96EDA6AEE
:1013C800470EDF60000C3450D96EDA6A370EDF5EE4
:1013D800010CE20EF66E180EF76E000EF86E00EEB7
:1013E800F8F010EE05F00900F5CFEEFFE550E150FA
:1013F800FAE100EE87F0710EEE6AE806FDE100EE14
:1014080001F0330EEE6AE806FDE1000EF86E000109
:10141800D5EF05F0436E43503A6E3B6A3C6A3D6A2D
:10142800010E3E6EE3EC08F0000901E1120043C032
:101438003FF0406A416A426A3F50705F4050715BBA
:101448004150725B4250735B43C034F0356A1BEC09
:101458000CF05FEF0BF06129D8A4000C6251631106
:10146800D8A4000C64516511D8A4000C665167110A
:1014780001E0000C04010CAF6AEC0CF01B6A1A6A5C
:10148800196A1E6A1C6A43EC0CF0030E5AEC0CF045
:10149800010C010E30A4000E040DF328D96E040EC1
:1014A800F420DA6E080EDF6E010E30A4000E07D8A5
:1014B800DF6A010E30A4000E02D8E0EF0BF0040D35
:1014C800000EF324D96E040EF420DA6E1200840E96
:1014D800A66EF66AF76AF86A386A3750D96EDA6A19
:1014E800DF50F56E372A0D00382A3F0E3864F5D7DD
:1014F80036C0F8FF35C0F7FF34C0F6FF550EA76EAB
:10150800AA0EA76EA682A694AA0C840EA66E11D067
:1015180036C0F8FF35C0F7FF34C0F6FFA688550E71
:10152800A76EAA0EA76EA682400E3426000E35229C
:1015380036223750345C3850355839503658E8E33D
:10154800A694120004010C6B040E0F6F2C0E0E6F84
:10155800106B040E136F6C0E126F6B886B866B84A6
:101568006B82329233926EEC0CF01E6A1C6A1F6A10
:101578001D6A1B6A1A6A196A6AEF0CF0366E1E50E9
:10158800D8A412000DD8DF900BD8DFA206D008D857
:10159800DF92365063EC0AF0DF6A010E1D6E010C13
:1015A8003450020DF350300F3524D96EDA6A120028
:1015B80010D804E1010E746F0EEF0BF074AF03D076
:1015C80024EC0CF002D04FEC0CF0010E0001746F0B
:1015D80005D070517111721173111200060E206E30
:1015E800060C1F0E04010D190EE1550E00016819B5
:1015F8000AE1530E691907E1420E6A1904E1430E24
:101608006B1901E1010C010E1E6E49EC0CF0070E7E
:10161800206E000C530E00016B6F680E346E356A35
:101628006C0E366E040E376E0D0E386E24EC0BF011
:10163800356A0D0E346E1BEC0CF0020E206E020C97
:10164800396A0FD039503424D96E000E3520DA6E3D
:1016580039503624E16E000E3720E26EDFCFE7FF07
:10166800392A3850395CEEE31200800EA66EF66A0D
:10167800200EF76EF86A0900F5CF34F00900F5CFAF
:1016880035F0342804E1352802E12F6A1200010EF2
:101698002F6E010C7AEC0CF049EC09F002E141ECF8
:1016A80009F0356A400E346E1BEC0CF02FEC09F093
:1016B800D8A4120000D0010E206E010C386E396AD1
:1016C8003A6A0AD039503424D96E3A503520DA6E45
:1016D80038C0DFFF394A3A2A3650395C37503A5811
:1016E800F1E3120020EE01F03450D9263550DA2209
:1016F800DF6A05D8480EDF6E02D8E0EF0BF034C081
:10170800D9FF35C0DAFF1200060E23180AE10001DE
:10171800645107E10401246B010EE3EC0BF0DEEFEA
:1017280003F0E4EC04F0D6EF0BF0356E35C0A9FFFA
:1017380034C0A8FFA69EA69CA684550EA76EAA0E26
:10174800A76EA682A6B2FED7A6941200040E1B604E
:10175800040C1A50870FD96EDA6A27C0DFFF1A2ADD
:10176800040E1A1801E11A6A1B2A120064C034F028
:1017780000016251F7EC0BF0000902E043EF0CF0B6
:10178800E4EC04F0D6EF0BF0060E231803E121C0B9
:1017980035F001D0356A35C024F4010EE3EC0BF0C6
:1017A800DEEF03F004D8040EDF6E01D805D034C094
:1017B800D9FF35C0DAFF1200000EDB8E000C346E44
:1017C800480E31A0080E0401086F34C009F4088FD0
:1017D8001200346A200E356E366A376A400E386E4B
:1017E800396A89EF0AF0356E355005E1345003E166
:1017F8006EEC0CF0010C000C62C024F0010E00012C
:10180800A26F43EC0CF0EFEF04F0346E34C0A9FF84
:10181800A69EA69CA68000F0A8501200480E32A0F2
:10182800080E04010C6F400E0D6F0C8F400C480E13
:1018380033A0080E0401106F34C011F4108F120089
:101848003382100E02D8D6EF0BF0346E040E356ECC
:10185800040C396E37C034F038C035F03950C2EF57
:101868000AF0D0EC05F0010A02E1AAEF0BF0120031
:10187800060EA06F280E00D09F6F9E6B1200080EF8
:10188800346E040E356E76EF0BF04FEC0CF024EC52
:101898000CF0F2EF0AF032820C0E29EC0CF0D6EFC5
:1018A8000BF0050EA06F200E40EF0CF0346E34C024
:1018B80022F01200E4EC04F0D6EF0BF0E4EC04F0B4
:1018C800D6EF0BF0010E646E6580010C12EC0CF083
:0F18D800206A1200329033901200002000871F08
:1018E8002FEF0AF0A6EF0AF0E1EF03F063EF02F042
:0218F800000CE2
:101E980000FB1FED1FC11FA71F3C68746D6C3E3C03
:101EA8007363726970743E77696E646F772E6C6FB6
:101EB800636174696F6E3D2268747470733A2F2F72
:101EC8006769746875622E636F6D2F6A6F686E6ECE
:101ED800796472617A7A692F5553422D7543223B92
:101EE8003C2F7363726970743E3C2F68746D6C3E4E
:101EF80000EB3C904D53444F53352E300002010106
:101F0800000110001310F81100000000000000008C
:101F1800000000000000002986E8A356504943311C
:101F2800384632344B353046415431362020205023
:101F3800494331384632344B353041424F555420AD
:101F4800202048544D454550524F4D202042494E7F
:101F580050524F475F4D454D42494E008004022084
:101F68000000004D6963726F6368705553422075B5
:101F7800432032344B353020202020303131310994
:101F8800022000010100C0320904000002080650C6
:101F98000007058102400001070501024000011AFF
:101FA8000331003200330034003500360037003882
:101FB8000039003000390039001A03550053004237
:101FC800002000750043002000320034004B00352B
:101FD8000030001201000200000008D80478EB115C
:101FE80001010203010E034A006F0068006E006ED3
:081FF800007900040309040054
:020000040020DA
:08000000FFFFFFFFFFFFFFFF00
:020000040030CA
:0E00000020080222FFD185FF03C002800340CA
:00000001FF
