:04200000B3EF3FF00B
:107F66000001C6EF3FF0700ED3129B8ED2882F0E03
:107F7600016EC00EE82EFED7012EFCD7B588B58E51
:107F86000F015C9D1200B6EC3FF0939E8A9E81AC79
:107F960019D08A8E100E036E390E026E0E0EE82E62
:107FA600FED7022EFCD7032EFAD78A9E100E036E3A
:107FB600390E026E0E0EE82EFED7022EFCD7032EC9
:107FC600FAD7E5D78A8E1F0E036E710E026E1E0E4D
:107FD600E82EFED7022EFCD7032EFAD700D08A9EB3
:107FE6001F0E036E710E026E1E0EE82EFED7022EB7
:0A7FF600FCD7032EFAD700D0CAD73B
:020000040020DA
:08000000FFFFFFFFFFFFFFFF00
:020000040030CA
:0E00000000255F3FFFD385FF0FC00FE00F40CC
:00000001FF
