:020000040000FA
:04200000C2EF3FF0FC
:107F84000001C5EF3FF0700ED312000E0F015B6FBE
:107F9400899E929E80AC19D0898E060E026E130EB5
:107FA400016EAE0EE82EFED7012EFCD7022EFAD7B4
:107FB400899E060E026E130E016EAE0EE82EFED7DB
:107FC400012EFCD7022EFAD7E5D7898E0B0E026E4E
:107FD400260E016E5E0EE82EFED7012EFCD7022E71
:107FE400FAD7899E0B0E026E260E016E5E0EE82EE7
:0C7FF400FED7012EFCD7022EFAD7CCD706
:020000040020DA
:08000000FFFFFFFFFFFFFFFF00
:020000040030CA
:0E00000000255F3FFFD385FF0FC00FE00F40CC
:00000001FF
