:040000000EEF00F00F
:0400080004EF10F001
:100018000CEF10F035EF0AF02C0E3D6E040E3E6E1C
:10002800680E3F6E406A1F0E416E8DEC0CF072EC4C
:100038000CF0000903E141EC0DF0070C6CC0C7F0AF
:100048006DC0C8F06EC0C9F06FC0CAF029D17FC0BA
:1000580009F07EC00AF009500A1001E1E2D02A0E28
:100068007719020ED8A4010E596E2DD9095005240E
:10007800556E0A500620566E000E0720576E000E69
:100088000820586E5850571004E15504080E565869
:1000980006E3210E3F6E406A595003EF0AF00950FB
:1000A800556E0A50566E576A586A090ED8905536DA
:1000B800563657365836E82EF9D755C00BF056C085
:1000C8000CF057C00DF058C00EF070C00FF071C0A2
:1000D80010F072C011F073C012F00BC03DF00CC0EC
:1000E8003EF00DC03FF00EC040F059C041F0AFECFB
:1000F80006F03DC05AF03EC05BF05AC03DF05BC010
:100108003EF00BC03FF00CC040F00DC041F00EC0F7
:1001180042F097EC0AF01C0E5B140DE0100E5B1811
:100128005A1002E1E1D802D00001CF6B1D6A1E6AA5
:100138009BEC0DF0050C5AC055F0700E55160FE0EB
:10014800400E5A185B1002E1CFD802D00001CF6BE5
:100158001D6A1E6ACAEC0DF0D1EC09F0040C5AC0F5
:1001680055F0060E551604E0020E0001CF6F010C83
:10017800BBD841EC0DF0060CF0EC0CF052D07BC073
:100188001BF01C6A1B501C104CE01C5003E1130EA2
:100198001B5C03E31C6A120E1B6EA10E15EC0CF01F
:1001A8001BC041F08DEC0CF01BC047F01CC048F0A0
:1001B800496A4A6A7AEF08F07BC01BF07AC01CF0E3
:1001C8001B501C102EE01C5003E1250E1B5C03E3A2
:1001D8001C6A240E1B6E620E3D6E1F0E3E6E3D1095
:1001E800D8A4000E3F6E6C0E406E040E416E1BC00C
:1001F80042F05FEC0BF0D8D77BC01BF01C6A1B5099
:100208001C100FE01C5003E1050E1B5C03E31C6A85
:10021800040E1B6E030E04016C6F6D6B6E6B6F6BBF
:10022800C3D7000E80EF0BF079517A117B117C1146
:1002380002E07FA19ED747D80450031003E1080EBF
:10024800025C06E304016C696D696E696F6906D02A
:1002580004016C6B6D6B070E6E6F6F69706B716B61
:10026800020E726F736B080E476E486A496A4A6AD3
:100278007AEF08F076510EE074AF06D0200E3F6E8C
:10028800406A010E03EF0AF0200E3F6E406A020E2C
:1002980003EF0AF0200E3F6E000E406A03EF0AF0EB
:1002A800775101E169D7030A01E169D7110A84E0AE
:1002B800080AA2E03F0AB8E00D0A01E1C8D6020A1E
:1002C80001E1C5D6D7D77CC001F07BC002F07AC067
:1002D80003F079C004F001C005F002C006F003C0C5
:1002E80007F004C008F01200020E0001CF6F020CE4
:1002F800546E285001E1E7D0540E3D6E3CEC0BF0F3
:10030800000901E0E0D0286A0D0C0D0E5418D8B48D
:100318000B0C0A0E541801E10B0C3A0E5418F3E1B9
:1003280000019F6B186A020E176E276A010E286E6D
:100338000B0C2738F00B5410276EE6D8D8A40B0CFA
:10034800100E276401D0DFD7275000019F27186AB5
:10035800040E176E196A1A6A020EE9D7E1D8C8D8CE
:10036800196E51501A6ED0D8D8A40B0C1A5000012F
:100378009F2719509F27186A020E176E266A030EC8
:10038800D6D7C2D8D8A40B0C54C026F026500001EA
:100398009F2710D0186A020E176E256A9E6B040EEE
:1003A800C6D7C8D82CD0186A040E176E9A6B9B6BE8
:1003B800050EBDD72650EEE0010AF3E0050AF3E08A
:1003C800A2D7A8D806E154C09EF000019E3BF00ECB
:1003D8009E1717501810D8A40B0C545000019E13E8
:1003E800A4D89EC0DFFFA1D8DF509F27252A186A0E
:1003F800020E176E27502518D8A40B0C0001A06B0D
:100408000A0E95D79AC050F09BC051F071D80001E0
:100418009A6F51509B6F78D8D8A40B0C9A519F278C
:10042800100E506E9AC051F09BC052F0536A50287B
:1004380004D0D890513652365336E82EFAD751C0E8
:100448008FF052C090F053C091F074D8D7D762D8CB
:1004580006E154C0A0F00001A03BF00EA017175011
:100468001810D8A40B0C54500001A013A0519F27BA
:100478009F5101E048D720D053D8526A8F51502459
:10048800476E90515120486E91515220496EB30EDB
:100498004A6E27C04BF055EC05F0000901E133D74F
:1004A80010D02A5007E0CAEC05F04AEC09F0000920
:1004B80001E129D7286A0C0C2650DEE0010AF1E098
:1004C800050A286A0B0C285001E11FD7010A01E12F
:1004D80030D7030A01E142D7010A01E152D7070ADE
:1004E80001E16FD7010A8EE00F0AD8A40B0CAFD731
:1004F800503A513AF00E511650500F0B5112F00E5F
:1005080050165450501012001706D8A0180617504D
:10051800181012001706D8A0180617041810120091
:1005280019C050F01AC051F012002550B30FD96EFF
:10053800DA6A1200186A020E176E020CAC0E3D6ED3
:10054800040E3E6E020E406E000E3F6ACAEC0CF0BE
:1005580005500610071008100FE1240E3D6E1F0EFF
:10056800D6D83E0E426E5FEC0BF0550EE8CFAAF6D9
:10057800AA0EE8CFABF6AA0C05040610071008105F
:1005880063E1F80EE8CFACF4FF0EE8CFADF4E8CFA6
:10059800AEF4E8CFAFF4E8CFB0F4E8CFB1F43AEC7A
:1005A80004F004E10900F528D8B412004E6A040EDC
:1005B8004D6E506A060E4F6E4DA019D0A1D80F0E81
:1005C800DF164D50100DF3CF47F0100E472698D880
:1005D8004750DF12A6D8B5D8040E496ED8904832D5
:1005E8004732492EFBD74750DF6EB1D80FD088D895
:1005F8004D28DF6E96D8F00EDF16A3D848C047F016
:10060800486A8FD84750DF124F4A502A4D4A4E2A1F
:100618004E5003E1130E4D5CCFE34DA00AD070D8C5
:100628000F0EDF166DD8F00EDF127BD8DF688FD87B
:10063800000C66D8DF6875D8F00EDF1672D80F0E7A
:10064800DF124F4A502A0F0C070E76D811E13AEC08
:1006580004F003E10900F52804E06AD858D8800EB0
:1006680017D066D854D8600E426E5FEC0BF01200BB
:1006780008500710061004E1080E055CD8A0120007
:10068800080E5AD808E1B30E3D6E1E0E40D8710E02
:10069800426E5FEF0BF0090E4FD80CE14F6A506ABB
:1006A8002FD84F5089EC0DF0DF6E4F4A502A500476
:1006B800F7E3120005C03DF006C03EF007C03FF06A
:1006C80008C040F039EC0CF03D504A6E3EC04BF08B
:1006D8003FC04CF04C50CBE1400E4B5CD8B0120000
:1006E8004AC03DF04BC03EF04CC03FF0406A020E9D
:1006F800416E426AAC0E436E040E446EC6EF0AF0B9
:10070800AC0E4F24D96E040E5020DA6E12003E6EE5
:100718003D10D8A4000E3F6EAC0E406E040E416E24
:100728001200AD0E4F24D96E040E5020DA6E12005E
:10073800330E3D6E1E0E1200051806100710081025
:1007480012004D28476E000E4E20486E1200020E11
:100758004F26000E5022000C295064E10150051864
:1007680038E10250061835E10350071832E1045009
:1007780008182FE108500710061003E1080E055C61
:1007880028E3AC0E566E040E576E090EA0EC03F06B
:100798000CE1596A5A6A70D83D6E595002EC0DF056
:1007A800594A5A2A5A0415E2F6D756C0D9FF57C0F3
:1007B800DAFF3A0EDE180DE159D803E10900F528F1
:1007C80002E06DEC0DF0ACEC05F0CAEC0CF0010E9B
:1007D800296E070EA0EC03F025E148D803E10900D3
:1007E800F5280CE025EE0CF0DF5004E00CC5E8FF1E
:1007F800E50A04E16DEC0DF0010E2C6E24EEECF030
:10080800DF5004E0ECC4E8FFE50A0CE1596A5A6AD3
:100818003D68595002EC0DF0594A5A2A5A04F8E337
:10082800010E2C6E2904D8A41200085007100610D7
:1008380004E1080E055CD8A01200596A5A6A1CD84F
:100848007CEC01F0586E0B0E58180AE00D0E581883
:1008580002E16DEC0DF0020E296E010E2C6E010CFA
:10086800594A5A2A020E5A5CEAE31200F66A200E26
:10087800F76E0900F5281200AC0E5924D96E040E43
:100888005A20DA6EDF501200010E4F6E45D0DA0E94
:10089800956F1F0E966F9511D8A4000E976F9D6BDC
:1008A800120E9C6F4F6A42D0625140E16FD860D8F7
:1008B80074D86CD85DD849C04CF04AC04DF04BC0D4
:1008C8004EF0020E4C24F66E000E4D20F76E000E10
:1008D8004E20F86E0900F5CF9CF00A00F5CF9DF088
:1008E800E1D7080E626122D06251020D290EF3246D
:1008F800F66E1E0E3DD851D895C0F6FF96C0F7FF8C
:1009080097C0F8FF0800F5509C6F9D6BCBD7CCECD7
:100918000DF00009C7E10AD000016351010AB7E0F0
:10092800030AC2E0010ADDE0050AF1E14F5004E0E4
:100938004AEC05F058EF0DF066519C5D67519D59E2
:100948000DE29CC023F09DC024F09CC047F0070E28
:10095800471601E007D0010E376E05D066C023F0B8
:1009680067C024F0376A366A71EC07F0B3EF0CF011
:10097800F420F76E0900F5CF47F00900F5CF48F0ED
:1009880047C049F048C04AF04B6A12006251020D54
:10099800310EF324F66E1E0E120049C095F04AC0BF
:1009A80096F04BC097F01200010E4C6E040E3A18E8
:1009B8005EE0060E3A185BE060D0620563115DE107
:1009C800610502E13C9201D03C824C6A56D06251EA
:1009D800631153E1060E3A1808E164510F0B496E92
:1009E800020E496005D04C6A03D064510F0BFBE03E
:1009F8004C5043E164510F0B0BE1610504E1149283
:100A08000401086B3AD0148241D858EC0DF035D067
:100A180064AF03D0496A492A01D0496A3CD84924BD
:100A28004A6E4A284B6E61050BE164510F0B466E06
:100A3800000E64BF010E476E4B50A4EC0DF01DD0A4
:100A480064AF03D0496A492A01D0496A24D8130FF0
:100A58004924D96EDA6ADF824B50040D000EF32464
:100A68003D6E040EF4203E6E58EC0DF006D00001E9
:100A780060511F0BA2E0020AAAE04C5003E006D81E
:100A880058EF0DF0ACEC0DF06AEF0DF0080E3D6E6E
:100A9800040E3E6E040C000164510F0B020DF3505E
:100AA800120047503F0B2B6EC00E4714926F4850F0
:100AB800936F4950946FD051921906E1D15193190F
:100AC80003E1D25194190BE02A5009E05FD84AECAF
:100AD80009F0000901E1000C3BD8CAEC0CF04E6AA1
:100AE8004F6A06D03DD8400E2B1804E04E4A4F2AD4
:100AF80045D8F8E3400E2B1822E192C043F093C08A
:100B080044F094C045F04AEC09F0000901E1000CFA
:100B18001FD8CAEC0CF02B6A4E4A4F2A4B504E5C39
:100B2800000E4F5804E305D01BD84E4A4F2A26D84A
:100B3800FBE3400E00019227000E932394232BC061
:100B48002AF092C0D0F093C0D1F094C0D2F0010C3A
:100B5800000E3D6E010E3E6E406A400E3F6EFF0C69
:100B68004A50D96EDA6A000E2B24E16EE26A010E51
:100B7800E222DFCFE7FF2B2A4A2A12004B504C6EA5
:100B88004D6A4C504E5C4D504F581200D0C043F047
:100B9800D1C044F0D2C045F0120065B464A40CD0B2
:100BA80064946494050E3A1805E1609233C03AF0F3
:100BB80001D0659465B4FDD7050E3A1801E112001D
:100BC80065A008D0020E3A1802E040EC06F0030EC9
:100BD8003A6E659065A808D06484648460823AC0DF
:100BE80033F0050E3A6E6598030E3A6042D0030C56
:100BF80000F000F061CF3BF0659653EC0DF037E163
:100C08003BB41CD03BA202D0138401D01394010E34
:100C18003BA2000EF6EC0BF00401DF30E8320F0BBC
:100C28000D0A03E124EC08F024D0020E381803E181
:100C3800137006EC09F0E0EC0BF01BD0380404E16B
:100C4800147071EC07F015D0E0EC0BF0345011E0A3
:100C580035C063FF030E3A1805E1355003E0040E72
:100C68003A6E03D0355001E16580346A02D04DEC0C
:100C78000DF065A61200BCD72EEC0DF06A6A080EBE
:100C88006B6E636A3C903C92150E626E3D6A3E6ADA
:100C9800000E3D24D96E040E3E20DA6E56D803E1CC
:100CA800140E3D5CF5E3040E0401036F140E026F8D
:100CB800040E076F1C0E066F040E0B6F240E0A6FCE
:100CC8003D6A3E6A3D50130FD96EDA6A3ED803E199
:100CD800040E3D5CF7E33D6A3E6A3D5028D83D501E
:100CE8002DD83D4A3E2A3E5003E1020E3D5CF5E315
:100CF800346A376A396A01D0659665B6FDD7609857
:100D0800160E6A6E3A5007E16086010E3A6E60BAB6
:100D1800FED7020E3A6E386A608C00F000F000F0E0
:100D280000F0609CE0EC0BF01394E0EF0BF0020D88
:100D3800F350130FD96EDA6ADF841200020DF350F4
:100D4800140FD96EDA6ADF841200000EDF6E3D4A96
:100D58003E2A3E5012004DD057D803E1436A010E97
:100D680046D074AF03D0436A080E41D0010E39D083
:100D78004BD803E1436A020E3AD074AF17D03D5006
:100D880070190CE13E50711909E13F50721906E1E2
:100D98004050731903E1436A200E29D03BD803E27F
:100DA800436A100E24D0436A400E21D0020E19D097
:100DB8002BD803E1436A040E1AD074BF16D03D50F5
:100DC80070190BE13E50711908E13F50721905E1A5
:100DD8004050731902E1080E04D01CD8040ED8B094
:100DE800100E436E000E426A0AD0436A800E426EAD
:100DF80006D04150B1E0010ABBE0030AD9E042C085
:100E08003DF043C03EF012000001705171117211A3
:100E18007311120070513D5C71513E5872513F5828
:100E2800735140581200010E476E456A040E3A1875
:100E380033E0060E3A1830E037D03CA002D04580A7
:100E480001D045903CA202D0468001D04690476A26
:100E58002BD0040E3A1805E164510F0B09E1476ADB
:100E680007D064510F0B446E020E446001D0F7D7CF
:100E780047501AE164AF03D0446A442A01D0446A57
:100E88004FEC05F0130F4424D96EDA6ADFA202D0C2
:100E9800458001D0459008D0000160511F0BCDE07E
:100EA800010AD5E0030AD5E0475004E04AEC05F012
:100EB80058EF0DF0240E3D6E040E3E6E406A080E8B
:100EC8003F6E000ECAEC0CF045C024F43E6A020ED8
:100ED8003D6E80EC0DF0B3EF0CF0235024103AE097
:100EE800245003E1090E235C1FE336500CE13BD884
:100EF800080E426E5FEC0BF00001080E9527000EFD
:100F08009623972307D03AD8080E416E8DEC0CF043
:100F180045EC09F03E6A080E3D6E80EC0DF0080EB7
:100F2800235E000E245A000C365006E11CD823C05C
:100F380042F05FEC0BF005D021D823C041F08DECD6
:100F48000CF023C03DF024C03EF080EC0DF0236A85
:100F5800246A12003750D8B412003E6A3D6A80EC09
:100F68000DF0376A120095C03DF096C03EF097C06C
:100F78003FF0240E406E040E416E040C1FC03DF07D
:100F880020C03EF0240E3F6E040E406E040C9B8E73
:100F9800D2882F0E0001D66FBF0EE82EFED7D62FAF
:100FA800FCD700D081BC06D03AEC04F043E109003C
:100FB800F52840E181BCFED7939EC1EC0BF02C6A6A
:100FC80040EC06F0D1EC05F08EEC09F02C5011E065
:100FD8000001984B992B100E0001D66F940EE82E45
:100FE800FED7D62FFCD700F0140E000198199911DE
:100FF8001EE081ACE7D7070E0001D76F170ED66F3A
:101008006A0EE82EFED7D62FFCD7D72FFAD700F0D6
:1010180081BCFED7070E0001D76F170ED66F6A0E78
:10102800E82EFED7D62FFCD7D72FFAD700F023EC1F
:101038000DF0FF00D2989B9E00EF10F00EEF00F02D
:10104800086B3BA205D01C0E48D88DEC0CF004D0E0
:10105800140E43D88DEC0CF06098E0EC0BF0138084
:10106800148000016039E832030B05E031D04AEC06
:1010780005F058EF0DF0615102E117EF07F0010A92
:1010880002E1D8EF04F0020A02E1D8EF04F0060A00
:1010980002E163EF0DF0030A02E148EF04F0010AF0
:1010A80002E1B6EF0DF00F0A02E1DEEF0CF0010AE3
:1010B80002E166EF0AF0030A02E1A2EF0CF0010A6E
:1010C80002E133EF0DF0070A02E1B2EF0DF0CFD7DE
:1010D800C4EC0DF00009CBE012003D6E040E3E6E2C
:1010E800600E3F6E406A080E416E080C47C03DF026
:1010F80048C03EF049C03FF04AC040F0010E416E82
:10110800AFEC06F03DC04DF03EC04EF04DC03DF096
:101118004EC03EF047C03FF048C040F049C041F0E3
:101128004AC042F097EC0AF04DC04BF0720E4B16D5
:1011380021E04DC04BF0700E4B1608E047C03DF063
:1011480048C03EF092EC0DF0020E01D0010E4C6E3C
:101158004DC04BF0300E4B1603E00001CF6B02D0B0
:1011680078EC01F0100E4D184E1002E1010E316EB0
:101178004C50120041EC0DF0060C5D6A5E6A2C0EB4
:101188005D24D96E040E5E20DA6EAC0E5B6E040E22
:101198005C6E5D505B265E505C221D505B24E16EE8
:1011A8001E505C20E26EDFCFE7FF5D4A5E2A5E508C
:1011B80003E1400E5D5CE3E317D805E1C8EC0DF0F0
:1011C8001BD81D6A1E6A05D801E1010C9BEC0DF0C5
:1011D800000C400E0F5E000E105A115A125A0F5092
:1011E8001010111012101200400E1D26000E1E22A3
:1011F800020E1E181D101200052A000E06220722D4
:101208000822000C225003E1090E215C15E33BB2D1
:1012180007D0140E2ED8080E416E8DEC0CF006D0B7
:101228001C0E27D8080E416E8DEC0CF02AD8080E3B
:10123800215E000E225A15D03BB207D0140E19D8E1
:1012480021C041F08DEC0CF006D01C0E12D821C044
:1012580041F08DEC0CF0080E1F26000E2022216AAA
:10126800226A21502210D8A41200ACEC0DF06AEFCB
:101278000DF03D6E040E3E6E1FC03FF020C040F0E2
:10128800040C080E1F26000E2022000C455015E104
:10129800400E445C12E2455003E1200E445C0DE32D
:1012A80043C03DF044C03EF045C03FF0000E406EE4
:1012B800010E416EA1EC0BF0010C200E45184310F5
:1012C800441027E0300E45184310441022E044042F
:1012D800F00E455817E2F00E455C14E3446A456A7F
:1012E800466A000E4624D96EDA6A010EDA22DF5009
:1012F8003D6E4650432402EC0DF0462A3F0E4664EC
:10130800F0D7010C455004E1200E445C02E3000CC8
:10131800000C010CA3942F503EE02D50870FD96E7E
:10132800DA6A0001DFB414D015700DD0C1EC08F0F2
:1013380000092BE0FEEC0BF028D010EC00F0326E28
:101348003204F8E022D03250F8E0050AEFE01DD070
:10135800167014D0D1EC09F0000917E0020E326EB5
:1013680014D03150E7E01682100E28EC0AF058EC41
:101378000DF0316A0AD0BAEC0DF007D03250020AEB
:10138800F0E0010AF8E0070AE5E02D2A040E2D181E
:1013980001E12D6A2F06A3841200536A546AAC0E29
:1013A800516E040E526E53505126545052221D5005
:1013B8005124D96E1E505220DA6E6C0E5324E16E01
:1013C800040E5420E26EDFCFE7FF534A542A5450EC
:1013D80003E1400E535CE3E3F8EC08F006E100ECAF
:1013E80009F0CAEC0DF01D6A1E6A3E6A400E3D6E99
:1013F80092EC0DF0EDEC08F001E1010C000C416EEF
:1014080008EC07F00FE0410406E11682100E1CD824
:1014180058EC0DF005D015820C0E16D858EC0DF0CE
:10142800060E01D0010E426E13D8010E0001CF6FD7
:10143800F0EC0CF0A351F00B0509A36F3FC0ADF021
:1014480040C0AEF0425012003D6E040E3E6E040CD9
:1014580070C0CBF071C0CCF072C0CDF073C0CEF0CC
:1014680012007C0EF66E1B0EF76E000EF86E00EE84
:10147800D0F010EE06F00900F5CFEEFFE550E15090
:10148800FAE104EEACF012EE00F0EE6AE550E1503D
:10149800FCE1E250FAE101EE00F0400EEE6AE806E7
:1014A800FDE100EE87F0490EEE6AE806FDE100EE88
:1014B80001F03C0EEE6AE806FDE1000EF86E000150
:1014C800CBEF07F0040E3A1803E0060E3A1827E1AE
:1014D8000001635124E1020E625D21E2608C00F09C
:1014E80000F000F000F0609C3F6A3F509BEC06F073
:1014F8003F50A2EC06F03F2A010E3F64F6D7ACEC51
:101508000DF0030E386E62C039F0395005E0C6ECB4
:101518000DF0060E3A6E060C040E3A6E040C4AECF8
:1015280005F058EF0DF0410E436E100E19D801E08A
:1015380023D0380E436E0D0E13D802E12CEF0AF0BB
:101548003F500001705DCB6F40507159CC6F4150D6
:101558007259CD6F42507359CE6F12002CEF0AF0BA
:10156800446E3DC045F03EC046F0435045164450D9
:1015780046164550461012000001CB6BCC6BCD6B64
:10158800CE6B1200800EA66E13D03FC0F8FF3EC08F
:10159800F7FF3DC0F6FF090010D801E1120009006D
:1015A8000CD801E11200020E3D26000E3E223F2219
:1015B800405041104210E9E1120043C0D9FF44C035
:1015C800DAFFF5CFDFFF434A442A4006000E415AAE
:1015D800425A4050411042101200456E3050D8A473
:1015E80012001AD8DF9018D8DFA206D015D8DF92DB
:1015F8004550F6EC0BF0DF6A070E321802E1BAEF3D
:101608000DF0060E321802E1FEEF0BF0020E321852
:10161800D8A41200FEEF0BF04350020DF350130F45
:101628004424D96EDA6A1200FE0E611905E14AEC0B
:1016380005F058EC0DF0010C6129D8A4000C62519A
:101648006311D8A4000C64516511D8A4000C66512C
:10165800671101E0000C04010CAFBAEC0DF02F6A21
:101668002E6A2D6A306AACEC0DF0030E386E010C50
:101678003D50D96EDA6A2F0EDF640BD03D50D96E1B
:10168800DA6A3A0EDF6005D03D50D96EDA6A300E5C
:1016980010D03D50D96EDA6A400EDF64000C3D5020
:1016A800D96EDA6A470EDF60000C3D50D96EDA6AEF
:1016B800370EDF5E010C466A1BD04650010DF35011
:1016C8003D24436EF4503E20446E000E3F20456E8C
:1016D80043C0F6FF44C0F7FF45C0F8FF465040241A
:1016E800D96E000E4120DA6E0800F5CFDFFF462ADA
:1016F8004250465CE2E31200476E3D6A3E6A3F6A2A
:10170800406A416AAFEC06F03DC048F03EC049F07F
:101718004804491005E1C0EC0AF047C0CFF0010CBD
:1017280048C03DF049C03EF03F6A406A416A426A9B
:1017380097EC0AF041EC0DF0060C840EA66EF66AE2
:10174800F76AF86A426A40C0D9FF41C0DAFFDF5041
:10175800F56E404A412A0D00422A3F0E4264F3D7F3
:101768003FC0F8FF3EC0F7FF3DC0F6FF550EA76E1D
:10177800AA0EA76EA682A694AA0C3F6A8A8E070EA6
:101788003E6E170E3D6E6A0EE82EFED73D2EFCD734
:101798003E2EFAD700D08A9E040E3E6E0C0E3D6E89
:1017A800340EE82EFED73D2EFCD73E2EFAD73F2A20
:1017B800020E3F64E3D7020C010E13A4000E040DC1
:1017C800F328D96E040EF420DA6E080EDF6E010ECF
:1017D80013A4000E07D8DF6A010E13A4000E02D866
:1017E800C7EF0CF0040D000EF324D96E040EF4209C
:1017F800DA6E1200550E0001C36F530EC46F420E0D
:10180800C56F530EC66FC30E0CD80D0E416E8DEC0E
:101818000CF03E6A0D0E3D6E92EC0DF0030E326E2A
:10182800030C3D6E3E6A6C0E3F6E040E406E040C57
:10183800840EA66E11D03FC0F8FF3EC0F7FF3DC032
:10184800F6FFA688550EA76EAA0EA76EA682400EB2
:101858003D26000E3E223F2240503D5C41503E58FE
:1018680042503F58E8E3A69412003DC041F03EC004
:1018780042F03FC043F040C044F0090ED8904136D2
:10188800423643364436E82EF9D7000E41243D6EE1
:101898000C0E42203E6E000E43203F6E000E442088
:1018A800406E120004010C6B040E0F6F2C0E0E6FAD
:1018B800106B040E136F6C0E126F6B886B866B8443
:1018C8006B8215921692C1EC0DF0306A316A2F6A5C
:1018D8002E6A2D6AF0EC0CF0BAEF0DF0010E3D6E99
:1018E8001F0E04010D1901E03D6A550E000168192B
:1018F80009E1530E691906E1420E6A1903E1430E24
:101908006B1901E03D6A3D5002E1010E306E3D5019
:101918001200426A0FD042503D24D96E000E3E207C
:10192800DA6E42503F24E16E000E4020E26EDFCFB7
:10193800E7FF422A4150425CEEE31200060E3A18D5
:101948000AE10001645107E10401246BECEC0CF09E
:1019580080EC0DF004D04AEC05F058EF0DF0010EC4
:10196800386E010C20EE01F03D50D9263E50DA22A7
:10197800DF6A04D8480EDF6E01D805D03DC0D9FF14
:101988003EC0DAFF1200000EDB8E000C416E426A88
:10199800436A0AD042503D24D96E43503E20DA6E45
:1019A80041C0DFFF424A432A3F50425C40504358FF
:1019B800F1E31200060E3A1803E139C03FF001D0F6
:1019C8003F6A3FC024F404D880EC0DF0B3EF0CF06C
:1019D8003E6A010E3D6E010C3D6A3D50A10FD96E65
:1019E800DA6ADF6A3D2A110E3D64F7D70001A1517A
:1019F800800B7009A16F0A0EA86F0A0C3E6E3EC0DC
:101A0800A9FF3DC0A8FFA69EA69CA684550EA76E5A
:101A1800AA0EA76EA682A6B2FED7A6941200040E3E
:101A28002F60040C2E50870FD96EDA6A3BC0DFFF97
:101A38002E2A040E2E1801E12E6A2F2A1200606A3F
:101A4800626A6A6A6B6A01D0659665B6FDD702D884
:101A58003A6A1200646A666A656A676A120064C054
:101A68003DF00001625177EC0DF0000902E0ACEFA7
:101A78000DF04AEC05F058EF0DF01682100E28EC28
:101A88000AF058EC0DF015820C0E28EC0AF058EF0D
:101A98000DF005D8010A02E113EF0DF012003B30FA
:101AA800E832E8320F0B120005D8040EDF6E02D8B8
:101AB800C7EF0CF03DC0D9FF3EC0DAFF120062C08C
:101AC80035F0010E346EACEC0DF000D0030E386E1C
:101AD800030C3D6A200E3E6E3F6A406A400E416E1E
:101AE800426A1CEF0CF03E6E3E5005E13D5003E1AA
:101AF800C1EC0DF0010C000C480E14A0080E0401F6
:101B0800086F3DC009F4088F12003D6E3DC0A9FF63
:101B1800A69EA69CA68000F0A8501200480E16A00B
:101B2800080E0401106F3DC011F4108F1200480E0A
:101B380015A0080E04010C6F400E0D6F0C8F400CA1
:101B4800486E46C043F047C044F04850F1EF0AF0F1
:101B5800080E3D6E040E3E6EB6EF0CF04AEC05F032
:101B680058EF0DF04AEC05F058EF0DF09BEC0DF036
:101B7800326A120000200000200015901690120012
:101B880018EF0BF056EF0CF0B0EF03F0A2EF02F0F5
:021B9800000C3F
:101E280000FA1FEC1FC01FA61F861F5049433138F8
:101E38004632344B3530080000A07B0B4B0B4B006F
:101E480000A07B0B4B00000000000041424F55549E
:101E580020202048544D200000A07B0B4B0B4B004A
:101E680000A07B0B4B020071000000454550524F0B
:101E78004D202042494E200000A07B0B4B0B4B000D
:101E880000A07B0B4B03000001000050524F475F3E
:101E98004D454D42494E200000A07B0B4B0B4B009B
:101EA80000A07B0B4B0400002000003C68746D6CA4
:101EB8003E3C686561643E3C6D657461206874747D
:101EC800702D65717569763D2272656672657368F5
:101ED8002220636F6E74656E743D22303B55524C00
:101EE8003D2768747470733A2F2F67697468756238
:101EF8002E636F6D2F6A6F686E6E796472617A7A7D
:101F0800692F5553422D75432722202F3E3C2F68B9
:101F18006561643E3C2F68746D6C3E00EB3C904DEF
:101F280053444F53352E30000201010001100000C8
:101F380008F8060000000000000000000000000093
:101F480000002986E8A35650494331384632344BBD
:101F580035304641543132202020008004022000D0
:101F680000004D6963726F63687055534220754372
:101F78002032344B353020202020303030380902D0
:101F88002000010100C032090400000208065000C8
:101F980007058102400001070501024000011A03FC
:101FA80030003000300030003000300030003000A9
:101FB80030003000300030001A0355005300420052
:101FC8002000750043002000320034004B0035002B
:101FD80030001201000200000008D804FFEE0800DB
:101FE800010203010E034A006F0068006E006E00D4
:071FF8007900040309040055
:020000040020DA
:08000000FFFFFFFFFFFFFFFF00
:020000040030CA
:0E00000020020222FFD185FF03C002800340D0
:00000001FF
