:040000000EEF00F00F
:0400080004EF10F001
:100018000CEF10F0DCEF09F01B6E4D5001E1E9D058
:100028001B0E016ED1EC0CF0000901E0E2D04D6A24
:100038000D0C0D0E1B18D8B40B0C0A0E1B1801E181
:100048000B0C3A0E1B18F3E100016E6B456A020EA9
:10005800446E4C6A010E4D6E0B0C4C38F00B1B10A5
:100068004C6EE8D8D8A40B0C100E4C6401D0DFD726
:100078004C5000016E27456A040E446E466A476A72
:10008800020EE9D746C017F047C018F0C7D8466E29
:100098001850476ECFD8D8A40B0C475000016E27D4
:1000A80046506E27456A020E446E4B6A030ED3D73C
:1000B800C1D8D8A40B0C1BC04BF04B5000016E27C5
:1000C80010D0456A020E446E4A6A6D6B040EC3D79F
:1000D800C2D82BD0456A040E446E6A6B6B6B050E52
:1000E800BAD74B50EEE0010AF3E0050AF3E09FD7D8
:1000F800A7D806E11BC06DF000016D3BF00E6D172F
:1001080044504510D8A40B0C1B5000016D139ED809
:100118006DC0DFFF9BD8DF506E274A2A456A020E62
:10012800446E4C504A18D8A40B0C6F6B0A0E93D728
:100138006AC017F06BC018F071D800016A6F1850C8
:100148006B6F78D8D8A40B0C6A516E276A51176E5A
:100158006B51186E196A1A6A18C01AF017C019F08C
:10016800186A176A17C060F018C061F019C062F009
:100178001AC063F070D8D9D763D806E11BC06FF0F6
:1001880000016F3BF00E6F1744504510D8A40B0CBC
:100198001B5000016F136F516E276E5101E047D756
:1001A80021D0465060250D6E475061210E6E000E1D
:1001B80062210F6E000E6321106EA10E116E4CC0ED
:1001C80012F001EC05F0000901E131D710D04F50D1
:1001D80007E078EC05F051EC09F0000901E127D7B8
:1001E8004D6A0C0C4B50DDE0010AF1E0050A4D6A3E
:1001F8000B0C4D5001E11DD7010A01E12ED7030A6E
:1002080001E140D7010A01E153D7070A01E170D79C
:10021800010A8EE00F0AD8A40B0CAED7173A183A89
:10022800F00E181617500F0B1812F00E17161B5059
:10023800171012004406D8A0450644504510120075
:100248004406D8A045064404451012004A50A10FA0
:10025800D96EDA6A1200456A020E446E020C100E5C
:10026800016E050E026E020E046E000E036A36EC75
:100278000EF03E503F10401041100FE1240E016E69
:100288001F0EE0D83E0E066E17EC0DF0550EE8CFA7
:100298000EF7AA0EE8CF0FF7AA0C3E043F10401045
:1002A800411067E1F80EE8CF10F5FF0EE8CF11F521
:1002B800E8CF12F5E8CF13F50F0EE8CF14F5EDEC03
:1002C80004F004E10900F528D8B41200FF0EE8CFC5
:1002D80014F5E8CF15F5136A040E126E156A060EAA
:1002E800146E12A019D0A7D80F0EDF161250100DD9
:1002F800F3CF0BF0100E0B269ED80B50DF12ACD8A4
:10030800BBD8040E0D6ED8900C320B320D2EFBD7D5
:100318000B50DF6EB7D80FD08ED81228DF6E9CD85E
:10032800F00EDF16A9D80CC00BF00C6A95D80B504C
:10033800DF12144A152A124A132A135003E1130E26
:10034800125CCFE312A00AD076D80F0EDF1673D84E
:10035800F00EDF1281D8DF6895D8000C6CD8DF6802
:100368007BD8F00EDF1678D80F0EDF12144A152A44
:100378000F0C030E7CD811E1EDEC04F003E1090049
:10038800F52804E070D85ED8800E17D06CD85AD8FB
:10039800400E066E17EC0DF01200415040103F1051
:1003A80004E1040E3E5CD8A01200040E60D808E1F7
:1003B800B30E016E1E0E46D8710E066E17EF0DF0C5
:1003C800050E55D80CE1146A156A35D81450C3ECDB
:1003D8000EF0DF6E144A152A1504F7E312003EC02A
:1003E80001F03FC002F040C003F041C004F0D2EC7D
:1003F8000DF001C00EF002C00FF003C010F004C0F1
:1004080011F011501010C8E1400E0F5CD8B0120066
:100418000EC001F00FC002F010C003F011C004F0CC
:10042800056A020E066E076A086A100E096E050E46
:100438000A6EEBEF0AF0100E1424D96E050E152083
:10044800DA6E1200026E0110D8A4000E036E100EB0
:10045800046E050E056E1200110E1424D96E050ED9
:100468001520DA6E1200330E016E1E0E12003E18B1
:100478003F1040104110120012280B6E000E13207E
:100488000C6E1200020E1426000E1522000C900E9F
:10049800016E040E026E700E036E046A100E056E75
:1004A80021EC0EF091EC0EF0000903E1ACEC0EF03B
:1004B800040C74C0B5F075C0B6F076C0B7F077C05C
:1004C800B8F0BAD0CED8DED8E6D8056E0DEC06F076
:1004D800E8D81C0E201416E0100E20181F1003E098
:1004E8001B6A1C6A03D01C6A020E1B6E1BC0BDF07F
:1004F800426A436AD0EC09F0400E066E8AEC0CF0B2
:100508005B70030C040E1F182010D0E1CFD0A9D8BF
:10051800B9D8C1D8010E056E0DEC06F0C2D81FC0BF
:100528001AF0700E1A1613E0400E1F18201003E080
:100538001D6A1E6A03D01E6A020E1D6E1DC0BDF024
:10054800426A436AF4EC0EF085EC0AF0020C020EE3
:100558001F182010DBE0AAD7B4EC0DF05DD08F0E89
:100568008FEC0DF0120E056E21EC0EF0120E4ED02F
:10057800A3C448F0A2C449F0495003E1250E485CE1
:1005880003E3496A240E486E620E016E1F0E026E66
:100598000110D8A4000E036ED00E046E040E056E72
:1005A80048C006F017EC0DF048C00BF049C00CF03D
:1005B8000D6A0E6A03EF08F0030E0401D06FD16BC9
:1005C800D26BD36B040E22D00401A151A211A31146
:1005D800A41102E0A7A16AD744D83D503C1005E118
:1005E800AC0E3A5C020E3B5805E3D069D169D2697A
:1005F800D36906D0D06BD16B020ED26FAB0ED36F1E
:10060800D46BD56B020ED66FD76B080E0B6E0C6AC7
:100618000D6A0E6A03EF08F0000EEFEF0DF07E5141
:1006280008E07CAF03D0010EBAEF0AF0020EBAEF71
:100638000AF0000EBAEF0AF07F518EE0030A8FE04D
:10064800110A96E0080AB8E0010AE6E03E0ABCE0B2
:100658000D0A01E15CD7020A01E134D7050ADCE0A2
:10066800DED7A4C43AF0A3C43BF0A2C43CF0A1C4B2
:100678003DF03AC03EF03BC03FF03CC040F03DC0CA
:1006880041F0120078C0B9F079C0BAF07AC0BBF076
:100698007BC0BCF01200016A020E026E036A046A93
:1006A800020C01C01FF002C020F01200020E00016F
:1006B800BD6F010CD1D060BAFED7010E536E010C8C
:1006C800020E536E020C65A0FED76590C7EF0BF0C3
:1006D80065B05EEF0EF0CCEC0EF016EC0AF0546E3E
:1006E800540401E11200F7EC0EF004018151050AEF
:1006F80002E1A4EF0BF0030A02E186EF07F0D5EF61
:100708000EF065B05EEF0EF0CCEC0EF016EC0AF0D1
:10071800546E540401E11200F7EC0EF0040181510B
:1007280002E1DBEF06F0010A02E1B7EF08F0020A86
:1007380002E15FEF08F0060A02E1A4EF0BF0030AFA
:1007480002E186EF07F00E0A02E149EF0BF0010A19
:1007580002E196EF0DF0D5EF0EF065B05EEF0EF00A
:1007680065B612D05E5003E0CCEC0EF05E6A5250D3
:1007780005E0F4EC0CF0000901E0526A65CF39F0AD
:10078800030E3916D8B4030C65B2E6EC0EF065A07A
:100798005FD060986596010E546E010C61B4E6EC6A
:1007A8000EF0040146EC0AF002E0E6EC0EF004015B
:1007B80004BF046B4BEC0AF08039E832030BE806FF
:1007C8002AE19CEC09F0546E540401E11200F7ECA4
:1007D8000EF036D0DBEC06F033D0B7EC08F030D0B2
:1007E8005FEC08F02DD041EC07F02AD0F0EC0EF0C9
:1007F80027D049EC0BF024D096EC0DF021D0AEECCC
:100808000CF01ED0EEEC0EF01BD0ECEC0EF018D075
:10081800D5EC0EF015D08151DDE0010ADEE0020AC8
:10082800DFE0050AE0E0010AE1E00F0AE2E0010A80
:10083800E3E0030AE4E0010AE5E0070AE6E0E8D7B6
:10084800010E5E6E010CA6EC07F0010E526E010C53
:1008580041EC0AF0A3E0F7D7535001E12CD7010A85
:1008680001E12ED7030A01E12ED7010A01E130D7B1
:10087800070A01E146D7010A01E16FD712004E507D
:1008880001E083D03A503E1857E13B503F1854E1FD
:100898003C50401851E13D5041184EE14150401044
:1008A8003F1003E1040E3E5C47E3100E1E6E050E7A
:1008B8001F6E1EC0D9FF1FC0DAFF3A0EDE1826E1F0
:1008C800206A216A210E036E030E91D8CDEC0BF03D
:1008D800000901E11200200E036E050E88D8CDEC48
:1008E8000BF0000901E11200200E2118201024E16C
:1008F80070D803E10900F52802E0A0EC0EF062ECE4
:1009080005F036EC0EF0010E4E6E16D0050E3BECDF
:1009180002F012E15ED803E10900F5280DE0226A31
:10092800236A5DD8016E225070EC0EF0224A232A09
:100938002304F7E3010E516E030E3BEC02F025E1B0
:1009480048D803E10900F52820E025EE70F0DF50D3
:1009580004E070C5E8FFE50A05E1A0EC0EF0010E21
:10096800516E13D025EE50F0DF5004E050C5E8FF7B
:10097800E50A0BE1226A236A0168225070EC0EF046
:10098800224A232A2304EBE2F7D74E04D8A4120004
:10099800415040103F1004E1040E3E5CD8A0120004
:1009A800226A236A1CD810EC00F01D6E0B0E1D186D
:1009B8000AE00D0E1D1802E1A0EC0EF0020E4E6EBC
:1009C800010E516E010C224A232A020E235CEAE32F
:1009D8001200F66A200EF76E0900F5281200100EB4
:1009E8002224D96E050E2320DA6EDF5012001E2451
:1009F800046E000E1F20056E12000D503F0B506E46
:100A0800C00E0D14646F0E50656F0F50666F105056
:100A1800676FBE51641909E1BF51651906E1C051FC
:100A2800661903E1C15167190BE04F5009E05CD822
:100A380051EC09F0000901E1000C40D836EC0EF049
:100A4800156A166A06D042D8400E501804E0154AB6
:100A5800162A53D8F8E3400E501825E164C008F070
:100A680065C009F066C00AF067C00BF051EC09F0E8
:100A7800000901E1000C22D836EC0EF0506A154A44
:100A8800162A1250155C000E165804E305D01ED81D
:100A9800154A162A32D8FBE3400E00016427000EDF
:100AA80065236623672350C04FF064C0BEF065C05D
:100AB800BFF066C0C0F067C0C1F0010C000E016E47
:100AC800010E026E046A400E036EFF0C1150D96EBF
:100AD800DA6A000E5024E16EE26A010EE222DFCFEC
:100AE800E7FF502A112A1200BEC008F0BFC009F063
:100AF800C0C00AF0C1C00BF012001250136E146A85
:100B08001350155C145016581200316E326A315069
:100B18000AE12AC0F6FF2BC0F7FF2CC0F8FF080037
:100B2800F5CF33F002D0200E336E5D8033502F6E38
:100B3800306A2D502F5C2E50305820E233C02DF0F3
:100B48002E6A010E326E1AD059D8080E066E17ECAE
:100B58000DF0080E2A26000E2B222C2244D8080E4F
:100B6800066E66EC0CF042EC0CF0546E545002E049
:100B780054501200080E2D5E000E2E5A2E50E4E13D
:100B8800090E2D5CE1E23AD82DC006F017EC0DF005
:100B9800040E016E026E5D0E036E040E056E880E65
:100BA800046E2DC006F02EC007F066EC0CF042EC87
:100BB8000CF0546E5450DCE1080E2D182E100BE189
:100BC800325009E010D8066A66EC0CF042EC0CF0E2
:100BD800546E5450CDE1CDEC0CF04AEC0EF077ECAD
:100BE8000BF0546EC5D7040E016E026E5D0E036ED7
:100BF800040E056E880E046E076A880C2AC001F080
:100C08002BC002F02CC003F0880E046E040E056E93
:100C1800040C4DD057D803E1076A010E46D07CAFCB
:100C280003D0076A080E41D0010E39D04BD803E132
:100C3800076A020E3AD07CAF17D0015078190CE140
:100C48000250791909E103507A1906E104507B1919
:100C580003E1076A200E29D03BD803E2076A100E89
:100C680024D0076A400E21D0020E19D02BD803E1F8
:100C7800076A040E1AD07CBF16D0015078190BE110
:100C88000250791908E103507A1905E104507B19DB
:100C980002E1080E04D01CD8040ED8B0100E076E5E
:100CA800000E066A0AD0076A800E066E06D0055046
:100CB800B1E0010ABBE0030AD9E006C001F007C0B1
:100CC80002F012000001785179117A117B1112009B
:100CD8007851015C795102587A5103587B51045874
:100CE8001200700ED3129B8ED2882F0E0001C56F92
:100CF800BF0EE82EFED7C52FFCD700D0B588B58E1D
:100D08000F015B6B80BC06D0EDEC04F042E10900FA
:100D1800F5283FE180BCFED7929E58EC0DF0DDEC43
:100D28000EF01AEC0BF05EEC03F0515011E00001EC
:100D3800684B692B100E0001C56F940EE82EFED784
:100D4800C52FFCD700F0140E0001681969111EE0C8
:100D580080ACE9D7070E0001C66F170EC56F6A0E83
:100D6800E82EFED7C52FFCD7C62FFAD700F080BCD7
:100D7800FED7070E0001C66F170EC56F6A0EE82E64
:100D8800FED7C52FFCD7C62FFAD700F081EC0EF09E
:100D9800FF000F015B69B598B59ED2989B9ED35012
:100DA8008F0B3009D36E00EF10F00EEF00F0010E3C
:100DB8002A6E040E53183BE0050E531838E03FD056
:100DC8005AA002D0888102D0040188915AA202D088
:100DD800898102D0040189912A6A31D0040E5318FE
:100DE80020E184510F0B2BE184BF06D05DA202D015
:100DF800888101D013D0F0D75DA402D0888101D0BA
:100E08000DD0EAD784BF06D05BA202D0888101D07A
:100E180005D0E2D75CA202D0888102D00401889173
:100E2800DBD784510F0BE0E0010AECE008D00401A5
:100E380080511F0BC5E0010ACFE0030ACFE02A501A
:100E480002E0D5EF0EF0F7EC05F0020E066E66EC48
:100E58000CF042EC0CF0546E540401E11200F7EC73
:100E68000EF0CDEC0CF04AEC0EF077EC0BF0546E73
:100E7800540402E0F7EF0EF0120044D0030E5318AA
:100E880008E152D82E6A080E2D6E000E89EC05F086
:100E980030D04AD852D8000E89EC05F02AD0860EF8
:100EA8002A6E1F0E2B6E2A10D8A4000E2C6E45D861
:100EB800010E89EC05F01DD08251020D2B0EF32492
:100EC800F66E1E0EF420F76E0900F5CF34F0090017
:100ED800F5CF35F034C036F035C037F0386A36C053
:100EE8002AF037C02BF038C02CF027D8000E89EC38
:100EF80005F0546E14D0F6EC0EF0000902E1D5EFBF
:100F08000EF0120004018351010AB8E0030AC7E099
:100F1800010AD2E0050A02E1D5EF0EF0ECD754043D
:100F280002E0F7EF0EF01200DA0E2A6E1F0E2B6E9B
:100F38002A10D8A4000E2C6E120086C42DF087C487
:100F48002EF012004DD065964BEC02F0286E11D0B1
:100F5800010E556E010C77EC0DF0020E556E020C69
:100F6800030E556E030C040E556E040C050E556EDB
:100F7800050C2850EDE0010AEEE0030AF1E0010A51
:100F8800F2E0070AD8A41200F1D76596575008E096
:100F9800E5EC0AF0B8EC0EF0010E596E576A120033
:100FA8005650D9E0DFEC0AF0B8EC0EF0010E586E9E
:100FB800566A12006596D0EC09F01F0E066E8AEC90
:100FC8000CF05B70556A1200659685EC0AF0000912
:100FD800BFE11200659606EC09F00009BCE11200B9
:100FE8005550B1E0010AD1E0030AE4E0010AECE05F
:100FF800070AF0E0010A02E0E6EF0EF012000BC06B
:1010080001F00CC002F00DC003F00EC004F0010E98
:10101800056E0DEC06F001C00FF002C010F00FC015
:1010280001F010C002F00BC003F00CC004F00DC0BA
:1010380005F00EC006F0F5EC0BF0200E0F1810109E
:1010480008E129D833D88AEC0CF05C700001BD6B3C
:10105800000C100E0F18101008E11DD827D88AECC4
:101068000CF05C70010E576EF1D7400E0F1810107F
:1010780009E111D81BD88AEC0CF05C70020E000153
:10108800BD6F000C020E0F18101002E15AEF03F0AA
:10109800ACEC0EF0040C0C0E016E040E026E5C0E2D
:1010A800036E040E056ED00E046ED00C0BC006F055
:1010B8000CC007F01200010E2A6E040E531831E01E
:1010C800050E53182EE034D08205831139E15A8277
:1010D80014D08251831134E1040E53181CE1845159
:1010E8000F0B2EE184BF06D05D82016B040E006FEA
:1010F800008F03D05D84D8EC0EF02A6A21D084BF1B
:1011080005D0DFEC0AF0B8EC0EF0F7D7E5EC0AF002
:10111800B8EC0EF0F2D784510F0BE4E0010AEFE0CF
:101128000FD0040180511F0BCFE0020AD2E008D093
:10113800040180511F0B04E1020E82198311DDE0C6
:101148002A5002E0D5EF0EF00AD84AEC0EF038EC3F
:101158000DF0546E540402E0F7EF0EF01200040E86
:10116800016E026E040C010E2A6E040E531834E050
:10117800050E531831E036D08205831133E15A92B7
:1011880013D0825183112EE1040E53181FE18451AC
:101198000F0B28E184BF02D05D9206D05D905D946C
:1011A8007B0E0417480E04132A6A1CD084BF07D08C
:1011B8005B905B927B0E0817480E0813F5D75C907E
:1011C8005C927B0E0C17480E0C13EED784510F0B54
:1011D800E5E0010AEBE006D0040180511F0BCCE0EA
:1011E800020ACFE02A5002E0D5EF0EF0B3EC08F087
:1011F8004AEC0EF038EC0DF0546E540402E0F7EFB0
:101208000EF01200266A276A900E2624D96E040E64
:101218002720DA6E100E246E050E256E2650242621
:101228002750252242502424E16E43502520E26EA7
:10123800DFCFE7FF264A272A275003E1400E265C26
:10124800E3E31DD805E1F2EC0EF021D8426A436AC7
:101258000AD801E1010CD0EC09F0400E066E8AECC8
:101268000CF05B70000C400E0001B95F000EBA5B19
:10127800BB5BBC5BB951BA11BB11BC111200400E6B
:101288004226000E4322020E4318421012003E2A44
:10129800000E3F2240224122000C0B500A1018E198
:1012A800400E095C15E20B500A1003E1200E095CA0
:1012B8000FE308C001F009C002F00AC003F00BC038
:1012C80004F0000E056E010E066E50EC0AF0010CDB
:1012D800200E0A18081009100B1029E0300E0A1801
:1012E800081009100B1023E00B5020E10904F00E40
:1012F8000A58D8B0000C0B5004E1F00E0A5CD8A0D4
:10130800000C096A0A6A0B6A0C6A000E0C24D96E72
:10131800DA6A010EDA22DF50016E0C50082470ECF4
:101328000EF00C2A3F0E0C64F0D7010C000C010CD7
:101338002A6AFE0E811903E1D5EC0EF02BD0812923
:1013480027E108BF06D05B7027D81F0E066E8AEC0F
:101358000CF05BA208D05B905B927B0E040108172F
:10136800480E0813586A5CA208D05C905C927B0E09
:1013780004010C17480E0C13596A010E586E556A71
:10138800B3EC08F04AEC0EF038EC0DF02A6E02D0FF
:10139800E6EC0EF02A501200080E016E040E026EE2
:1013A8005B0E036E040E056E900E046E076A900CB9
:1013B800C40EF66E1D0EF76E000EF86E00EEBEF04F
:1013C80010EE07F00900F5CFEEFFE550E150FAE125
:1013D800F00EF66E1D0EF76E000EF86E0900F5CFD2
:1013E8005EF005EE10F012EE00F0EE6AE550E15006
:1013F800FCE1E250FAE101EE00F0400EEE6AE80688
:10140800FDE100EE60F05E0EEE6AE806FDE100EE3A
:101418003AF0240EEE6AE806FDE1000EF86E0001CF
:1014280075EF06F005D065CF01F0030E011602E155
:1014380065A6F9D704BF046B65A203D0609895EF41
:101448000BF065A003D060989AEF0BF016D804E073
:1014580060986596030E0ED061A403D060989FEF44
:101468000BF010D804E060986596050E03D00FD8ED
:1014780054501200546E545012006130E832E83271
:101488000F0B12000031E8320F0B0D0A12005D80BD
:1014980065966098546A12007F0E0216036A046A01
:1014A800015002100310041006E00106000E025A53
:1014B800035A045A05D001687F0E026E036A046A53
:1014C80003C0F8FF02C0F7FF01C0F6FF076A05C0B6
:1014D800D9FF06C0DAFFDF50F56E054A062A0F006D
:1014E800072A3F0E0764F3D7A68EA69CA684A69863
:1014F800F29E550EA76EAA0EA76EA682A694F28E2D
:10150800AA0C186A196A100E166E050E176E185076
:1015180016261950172242501624D96E4350172008
:10152800DA6ED00E1824E16E040E1920E26EDFCFB9
:10153800E7FF184A192A195003E1400E185CE3E343
:1015480043EC09F006E14BEC09F0F4EC0EF0426ACA
:10155800436A4FEC08F0076A400E066E8AEC0CF0FE
:101568005C7037EC09F001E1010C000C036E66ECCD
:1015780006F00FE0030406E124D8B8EC0EF0010EE3
:10158800596E05D018D8B8EC0EF0010E586E040E3E
:1015980001D0010E046E46EC03F0010E0001BD6F90
:1015A800B4EC0DF09151F00B0509916F200E9B6F73
:1015B8009C6B045012005B82080E016E040E026ED2
:1015C800040C5C820C0E016E040E026E040CA68ED6
:1015D800A69C14D003C0F8FF02C0F7FF01C0F6FFB5
:1015E800090012D801E1120009000ED801E1120029
:1015F800020E0126000E02220322042205500610C4
:1016080007100810E7E1120009C0D9FF0AC0DAFF85
:10161800F5CFDFFF094A0A2A0506000E065A075ABF
:10162800085A055006100710081012008CEC0EF02E
:101638006288628462906292636A85EC0EF06482CA
:101648000401006B1DD8046B040E076F880E066F2B
:101658006A886A966A846A825A905A925D905D9204
:101668005D94E9EC0EF00BEC0EF0536A010E526E2D
:101678005E6E596A586A576A566A608662881200AE
:10168800040E036F800E026F800C010E2A6E08D0C4
:101698000401886B03D0010E0401886F2A6A05D003
:1016A8005350040AF5E0010AF6E02A5002E0D5EFAB
:1016B8000EF0F7EC05F0010E066E66EC0CF042EC4D
:1016C8000CF0546E540401E11200F7EC0EF0CDEC6E
:1016D8000CF04AEC0EF077EC0BF0546E540402E078
:1016E800F7EF0EF0120005D065CF29F0030E29168A
:1016F80002E165A6F9D765B214D065B017D041EC00
:101708000AF00AE0A6EC07F0010E526EF4EC0CF0B9
:101718000009EFE0526AEDD761B40DD05D7062EF59
:101728000CF06596020E546E545012006596010E28
:10173800546E545012006596040E546E54501200A4
:10174800030E531805E0040E531802E0D5EF0EF00F
:1017580082C42AF0B3EC08F04AEC0EF038EC0DF035
:10176800546E540401E11200F7EC0EF02AC063FF36
:10177800030E531804E16350D8B4120007D0635025
:10178800D8A4120000D0030E536E030C040E536E3F
:10179800040C04C0D9FF05C0DAFFDF50066E20EE46
:1017A80001F00450D9260550DA22DF50076E060EE4
:1017B800016ED1EC0CF0000901E1000C070E016E7E
:1017C800D1EC0CF0000901E1000C0350D96EDA6A83
:1017D8000638F00BDF6E0350D96EDA6A0750DF1255
:1017E800010C410E076E100E18D802E005EF0EF03E
:1017F800380E076E0D0E11D80EE003500001785D0B
:10180800B96F04507959BA6F05507A59BB6F0650B1
:101818007B59BC6F120046EF03F0086E01C009F057
:1018280002C00AF00750091608500A1609500A1093
:101838001200C00E011618D003C0F8FF02C0F7FF4F
:1018480001C0F6FFA68EA69CA684A688F29E550E19
:10185800A76EAA0EA76EA682A694F28E400E012647
:10186800000E0222032204220550015C0650025891
:101878000750035808500458DFE3120005D065CF1D
:1018880029F0030E291602E165A6F9D765B295EF8E
:101898000BF065B09AEF0BF041EC0AF00AE0A6EC09
:1018A80007F0010E526EF4EC0CF00009EDE0526AFC
:1018B800EBD761A49FEF0BF05D7000D06596546A7A
:1018C8005450120020EE01F01CD806C0DFFF20EEB5
:1018D80002F017D804C0DEFF05C0DDFF0350D96E43
:1018E800DA6ADFA003D008D8480E02D005D8080E5F
:1018F800DF6E02D85BEF0EF001C0D9FF02C0DAFF3D
:1019080012000150D9260250DA22120020EE01F00E
:101918001CD806C0DFFF20EE02F017D804C0DEFF97
:1019280005C0DDFF0350D96EDA6ADFA003D008D8FE
:10193800480E02D005D8080EDF6E02D85BEF0EF015
:1019480001C0D9FF02C0DAFF12000150D9260250A7
:10195800DA221200050E531802E0D5EF0EF004014A
:10196800886BF7EC05F0010E066E66EC0CF042ECA5
:101978000CF0546E540401E11200F7EC0EF009D893
:101988004AEC0EF077EC0BF0546E5404D8B4120005
:101998001200016A040E026E040C0150D96EDA6A54
:1019A8002F0EDF640BD00150D96EDA6A3A0EDF6071
:1019B80005D00150D96EDA6A300E10D00150D96EB8
:1019C800DA6A400EDF64000C0150D96EDA6A470EFD
:1019D800DF60000C0150D96EDA6A370EDF5E010C49
:1019E800086A00016C510BE0D0EC09F01F0E066E7E
:1019F8008AEC0CF05B7000016C6B010E086E59509C
:101A080007E05CB205D077EC0DF0020E556E596A0E
:101A1800585007E05BB205D077EC0DF0020E556E1A
:101A2800586A085012000A6A1BD00A50010DF35078
:101A38000124076EF4500220086E000E0320096E80
:101A480007C0F6FF08C0F7FF09C0F8FF0A500424D2
:101A5800D96E000E0520DA6E0800F5CFDFFF0A2ADE
:101A680006500A5CE2E3120005D065CF29F0030EA8
:101A7800291602E165A6F9D765B295EF0BF065B0B6
:101A88009AEF0BF041EC0AF00AE0A6EC07F0010E21
:101A9800526EF4EC0CF00009EDE0526AEBD761A449
:101AA8009FEF0BF062EF0CF0036A898E070E026E4F
:101AB800170E016E6A0EE82EFED7012EFCD7022EF5
:101AC800FAD700D0899E040E026E0C0E016E340EF9
:101AD800E82EFED7012EFCD7022EFAD7032A020ED3
:101AE8000364E3D7020C550E0001B16F530EB26FB9
:101AF800420EB36F530EB46FB10E0DD80D0E056EB6
:101B080021EC0EF04FEC08F0076A0D0E066E8AEC19
:101B18000CF05C701200016E026AD00E036E040EA7
:101B2800046E040C82C42AF0020E2A60D5EF0EF06F
:101B3800B3EC08F04AEC0EF038EC0DF0546E540497
:101B480001E11200F7EC0EF05D90E9EC0EF02A507E
:101B580002E1CAEF0BF0050E536E050CCAEF0BF04D
:101B680000018F51800B70098F6F8F9F906BF00E63
:101B780091179199919B919D919F926B936B946B07
:101B8800956B0A0E966F976B986B996B9A6B9B6B1C
:101B98009C6B9D6B9E6B9F6BA06B120001C005F048
:101BA80002C006F003C007F004C008F0090ED89080
:101BB8000536063607360836E82EF9D7000E05240E
:101BC800016E140E0620026E000E0720036E000E32
:101BD8000820046E12000A6E016A026A036A046A27
:101BE800056A0DEC06F001C008F002C009F008040F
:101BF800091004E106D80AC0BDF0010CACEC0EF0E7
:101C0800040C0001B96BBA6BBB6BBC6B120004010E
:101C1800086B040E0B6F900E0A6F0C6B040E0F6F9F
:101C2800D00E0E6F6B886B966B846B825B925C92A6
:101C3800010E00016C6F556A1200066A0FD006503B
:101C48000124D96E000E0220DA6E06500324E16EDC
:101C5800000E0420E26EDFCFE7FF062A0550065C7F
:101C6800EEE31200056E066A076A0AD006500124E0
:101C7800D96E07500220DA6E05C0DFFF064A072A30
:101C88000350065C04500758F1E3120020EE01F0FF
:101C98000150D9260250DA22DF6A04D8480EDF6ED6
:101CA80001D805D001C0D9FF02C0DAFF1200000E2A
:101CB800DB8E000C656A676A636A01D0659665B653
:101CC800FDD760985D90E9EC0EF0030E531802E022
:101CD800030E536E65901200026E02C0A9FF01C088
:101CE800A8FFA69EA69CA684550EA76EAA0EA76E50
:101CF800A682A6B2FED7A69412000AD802D8649289
:101D080012006596659665966596656A676A12001B
:101D1800606A626A6A6A6B6A1200550E000170197D
:101D28000AE1530E711907E1420E721904E1430EDC
:101D3800731901E1010C000C016A200E026E036A9E
:101D4800046A056A400E066E076A086A1DEF0CF001
:101D5800E5EC0AF0B8EC0EF0DFEC0AF0B8EC0EF0A7
:101D6800010E596E586E010C05D8000EDB8402D89E
:101D7800DB8E000C01C0D9FF02C0DAFF1200016E31
:101D880001C0A9FFA69EA69CA68000F0A85012003C
:101D9800080E0401016F44EC0BF0080E006F008F71
:101DA800080C040101D8040C056B040E046F048FA1
:101DB800040CF66A200EF76E516A1200002000002B
:031DC800002000F8
:101DCC006096898EFFD75B905C901200D5EF0EF079
:101DDC00D5EF0EF0D5EF0EF043EF04F033EF01F03A
:051DEC00000C120001D3
:101E2A0000FA1FEC1FC01FA61F5049433138463223
:101E3A00344B3530080000A07B0B4B0B4B0000A045
:101E4A007B0B4B00000000000041424F55542020FC
:101E5A002048544D200000A07B0B4B0B4B0000A0E8
:101E6A007B0B4B020071000000454550524F4D203C
:101E7A002042494E200000A07B0B4B0B4B0000A0D8
:101E8A007B0B4B03000001000050524F475F4D454A
:101E9A004D42494E200000A07B0B4B0B4B0000A08B
:101EAA007B0B4B0400002000003C68746D6C3E3CC8
:101EBA00686561643E3C6D65746120687474702D58
:101ECA0065717569763D227265667265736822204E
:101EDA00636F6E74656E743D22303B55524C3D27DC
:101EEA0068747470733A2F2F6769746875622E6309
:101EFA006F6D2F6A6F686E6E796472617A7A692F74
:101F0A005553422D75432722202F3E3C2F68656189
:101F1A00643E3C2F68746D6C3E00EB3C904D53441C
:101F2A004F53352E300002010100011000AC02F8B7
:101F3A000200000000000000000000000000000095
:101F4A002986E8A35650494331384632344B353056
:101F5A004641543132202020008004022000000033
:101F6A004D6963726F63687055534220754320321E
:101F7A00344B353020202020303030330902200005
:101F8A00010100C0320904000002080650000705DA
:101F9A008102400001070501024000011A033000D6
:101FAA0030003000300030003000300030003000A7
:101FBA003000300030001A03550053004200200060
:101FCA00750043002000320034004B003500300019
:101FDA001201000200000008D804FFEE030001020B
:101FEA0003010E034A006F0068006E006E0079005C
:051FFA000403090400CE
:020000040020DA
:08000000FFFFFFFFFFFFFFFF00
:020000040030CA
:0E00000020080222FFD185FF03C002800340CA
:00000001FF
