:040000000EEF00F00F
:0400080004EF10F001
:100018000CEF10F06BEF09F02C0E386E0D0E396EE8
:100028006D0E3A6E3B6A100E3C6ECAEC0BF04DEC4E
:100038000CF0000903E15CEC0CF0040C71C0B2F0A8
:1000480072C0B3F073C0B4F074C0B5F0BCD0DCD8E3
:10005800ECD8F4D83C6E72EC05F0F6D81C0E5714A8
:1000680015E0100E5718561003E0526A536A03D071
:10007800536A020E526E52C0BAF01C6A1D6AB8D892
:10008800400E3D6E8DEC0AF03670030C040E5618C7
:100098005710D1E1020E0001BA6F010CB5D8C5D8CE
:1000A800CDD8010E3C6E72EC05F0CED856C051F09A
:1000B800700E511613E0400E5618571003E0546A9C
:1000C800556A03D0556A020E546E54C0BAF01C6AC1
:1000D8001D6AA9EC0CF096EC06F0020C020E5618FC
:1000E8005710D8E0A8D707EC0CF05DD08C0E6DEC5B
:1000F8000BF0120E3C6ECAEC0BF0120E4ED03FCD38
:100108001AF03ECD1BF01B5003E1250E1A5C03E3E9
:100118001B6A240E1A6E620E386E1F0E396E381066
:10012800D8A4000E3A6E6C0E3B6E0D0E3C6E1AC0D3
:100138003DF0F6EC0AF01AC042F01BC043F0446AE6
:10014800456A37EF08F0030E0D016C6F6D6B6E6B2F
:100158006F6B040E22D00D013D513E113F1140112D
:1001680002E043A168D750D80450031005E1AC0E53
:10017800015C020E025805E36C696D696E696F696E
:1001880006D06C6B6D6B020E6E6FAB0E6F6F706B83
:10019800716B020E726F736B080E426E436A446A8B
:1001A800456A37EF08F0000EAEEF0BF07B5108E020
:1001B80079AF03D0010E19EF0AF0020E19EF0AF019
:1001C800000E19EF0AF07C518EE0030A8FE0110A45
:1001D80096E0080AB8E0010AE6E03E0ABCE00D0A2B
:1001E80001E15CD7020A01E132D7050ADCE0DED77B
:1001F8000C0E386E0D0E396E360E3A6E0D0E3C6EC4
:100208002C0E3B6E3E6A2C0C40CD01F03FCD02F027
:100218003ECD03F03DCD04F001C005F002C006F06C
:1002280003C007F004C008F0120075C0B6F076C02D
:10023800B7F077C0B8F078C0B9F01200386A020E8B
:10024800396E3A6A3B6A020C38C056F039C057F02A
:100258001200506E245001E1E1D0500E386EB1EC1E
:100268000AF0000901E0DAD0246A0D0C0D0E5018CE
:10027800D8B40B0C0A0E501801E10B0C3A0E5018AA
:10028800F3E1216A116A020E106E236A010E246ED0
:100298000B0C2338F00B5010236EE1D8D8A40B0CAC
:1002A800100E236401D0E0D723502126116A040ED2
:1002B800106E146A156A020EEAD714C04CF015C005
:1002C8004DF0C1D8146E4D50156EC9D8D8A40B0C7A
:1002D8001550212614502126116A020E106E206A2C
:1002E800030ED5D7BCD8D8A40B0C50C020F0205092
:1002F800212610D0116A020E106E1F6A1E6A040EA3
:10030800C6D7BED829D0116A040E106E126A136AB5
:10031800050EBDD72050EEE0010AF3E0050AF3E030
:10032800A3D7A3D805E150C01EF01E3AF00E1E1642
:1003380010501110D8A40B0C50501E129CD81EC07F
:10034800DFFF99D8DF5021261F2A116A020E106E8E
:1003580023501F18D8A40B0C226A0A0E98D712C073
:100368004CF013C04DF06FD8126E4D50136E77D805
:10037800D8A40B0C1250212612504C6E13504D6EFF
:100388004E6A4F6A4DC04FF04CC04EF04D6A4C6AF1
:100398004CC069F04DC06AF04EC06BF04FC06CF0B5
:1003A8006FD8DAD762D805E150C022F0223AF00EB1
:1003B800221610501110D8A40B0C505022122250A3
:1003C8002126215001E050D722D014500001692580
:1003D800426E15506A21436E000E6B21446E000E6A
:1003E8006C21456E9E0E466E23C047F0EBEC04F080
:1003F800000901E139D710D0265007E061EC05F07B
:10040800D4EC0AF0000901E12FD7246A0C0C205023
:10041800DCE0010AF1E0050A246A0B0C245001E132
:1004280025D7010A01E135D7030A01E146D7010AB8
:1004380001E158D7070A01E174D7010A90E00F0AD1
:10044800D8A40B0CAFD74C3A4D3AF00E4D164C5081
:100458000F0B4D12F00E4C1650504C101200100697
:10046800D8A011061050111012001006D8A01106BD
:100478001004111012001F509E0FD96EDA6A120074
:10048800116A020E106E020C400E386E010E396EA3
:10049800020E3B6E000E3A6ADFEC0BF005500610B8
:1004A800071008100FE1240E386E1F0EBDD83E0E3F
:1004B8003D6EF6EC0AF0550EE8CF3EF3AA0EE8CFF3
:1004C8003FF3AA0C050406100710081061E1F80EA6
:1004D800E8CF40F1FF0EE8CF41F1E8CF42F1E8CF95
:1004E80043F10F0EE8CF44F1B7D804E10900F5282D
:1004F800D8B412004A6A030E496E4C6A040E4B6E59
:1005080049A019D0A2D80F0EDF164950100DF3CF0D
:1005180042F0100E422699D84250DF128FD8ABD83D
:10052800040E446ED89043324232442EFBD74250D8
:10053800DF6EA7D80FD089D84928DF6E7FD8F00E94
:10054800DF1699D843C042F0436A78D84250DF1288
:100558004B4A4C2A494A4A2A4A5003E1F20E495C5E
:10056800CFE349A00AD071D80F0EDF166ED8F00E6F
:10057800DF1264D8DF6885D8000C67D8DF685ED8DA
:10058800F00EDF165BD80F0EDF124B4A4C2A0F0C09
:10059800030E6CD80DE160D803E10900F52804E0EA
:1005A80061D842D8600E14D05DD83ED8400E10D025
:1005B80008500710061004E1040E055CD8A01200CC
:1005C800040E54D808E1530E386E1E0E2DD8710E45
:1005D8003D6EF6EF0AF005C038F006C039F007C0E6
:1005E8003AF008C03BF091EC0BF038C045F039C048
:1005F80046F03AC047F03BC048F0485014E1020EBC
:10060800475CD8B0120045C038F046C039F047C042
:100618003AF03B6A020E3C6E3D6A400E3E6E010E99
:100628003F6E9CEF09F01200396E3810D8A4000E06
:100638003A6E400E3B6E010E3C6E1200410E4B248A
:10064800D96E010E4C20DA6E1200400E4B24D96E82
:10065800010E4C20DA6E1200F66A200EF76E0900C1
:10066800F5281200C40E386E1E0E1200051806106A
:100678000710081012004928426E000E4A20436EE7
:100688001200020E4B26000E4C22000C25505AE197
:100698000150051841E1025006183EE103500718C1
:1006A8003BE10450081838E108500710061003E130
:1006B800040E055C31E3400E536E010E546E53C0B8
:1006C800D9FF54C0DAFF3A0EDE1826E1576A586A95
:1006D800580E3A6E030E60D8F1EC09F0000901E1FA
:1006E8001200570E3A6E050E57D8F1EC09F00009C2
:1006F80001E11200200E581857100EE130EC03F0FB
:1007080003E10900F52802E083EC0CF04BEC05F05E
:10071800DFEC0BF0010E256E030E3AEC03F012E14C
:1007280030EC03F003E10900F5280CE021EE80F03D
:10073800DF5004E080C1E8FFE50A04E183EC0CF037
:10074800010E286E2504D8A41200085007100610C0
:1007580004E1040E055CD8A01200556A566A400EE2
:100768005524D96E010E5620DA6EDF502DEC01F0BB
:10077800526E0B0E52180AE00D0E521802E183EC6D
:100788000CF0020E256E010E286E010C554A562AF1
:10079800020E565CE4E3120053243B6E000E542014
:1007A8003C6E1200010E426E040E2C1866E0050E17
:1007B8002C1863E068D06205631165E1610502E108
:1007C800339201D03382426A5ED0625163115BE199
:1007D800050E2C1808E164510F0B3F6E020E3F60A6
:1007E80005D0426A03D064510F0BFBE042504BE145
:1007F80064510F0B0BE1610504E135920D01086BA3
:1008080042D0358249D86AEC0CF03DD064AF03D0B1
:100818003F6A3F2A01D03F6A000137EC06F03F24C7
:10082800406E4028416E610517E164AF03D03F6A0E
:100838003F2A01D03F6A35D8DF9064AF03D03F6AC2
:100848003F2A01D03F6A2DD8DF9235D861EC09F0F4
:10085800DF6A8EEC0CF017D064AF03D03F6A3F2AF2
:1008680001D03F6A1ED8DF8226D8F324386E0D0ED9
:10087800F420396E6AEC0CF006D0000160511F0BB1
:100888009AE0020AA2E0425003E006D86AEF0CF0B0
:1008980086EC0AF019EF0CF0080E386E0D0E396E62
:1008A8000D0C000164510F0B020DF350340F3F245F
:1008B800D96EDA6A12004150040D000C010E4A6E1E
:1008C80045D0DA0E0D6E1F0E0E6E0D10D8A4000E58
:1008D8000F6E4C6A120E4B6E4A6A42D0625140E16A
:1008E80068D859D86DD865D856D844C047F045C09F
:1008F80048F046C049F0020E4724F66E000E482024
:10090800F76E000E4920F86E0900F5CF4BF00A008B
:10091800F5CF4CF0E1D7080E626122D06251020D8A
:10092800490EF324F66E1E0E36D84AD80DC0F6FFCF
:100938000EC0F7FF0FC0F8FF0800F5504B6E4C6A69
:10094800CBD7ABEC0CF00009C7E10AD0000163512A
:10095800010AB7E0030AC2E0010ADDE0050AF1E195
:100968004A5004E050EC04F06AEF0CF066514B5C1E
:1009780067514C5807E24BC018F04CC019F0010EF3
:10098800296E05D066C018F067C019F0296A010EF3
:10099800306E3CEF06F0F420F76E0900F5CF42F018
:1009A8000900F5CF43F042C044F043C045F0466A21
:1009B80012006251020D510EF324F66E1E0E120043
:1009C80044C00DF045C00EF046C00FF01200425072
:1009D8003F0B276EC00E4214096E43500A6E4450F6
:1009E8000B6E45500C6EBB51091809E1BC510A1831
:1009F80006E1BD510B1803E1BE510C180BE026505F
:100A080009E05BD8D4EC0AF0000901E1000C3FD8FA
:100A1800DFEC0BF04A6A4B6A06D041D8400E271823
:100A280004E04A4A4B2A52D8F8E3400E271824E13A
:100A380009C03EF00AC03FF00BC040F00CC041F0C6
:100A4800D4EC0AF0000901E1000C21D8DFEC0BF02E
:100A5800276A4A4A4B2A47504A5C000E4B5804E31F
:100A680005D01DD84A4A4B2A31D8FBE3400E092647
:100A7800000E0A220B220C2227C026F009C0BBF068
:100A88000AC0BCF00BC0BDF00CC0BEF0010C000EDB
:100A9800386E010E396E3B6A400E3A6EFF0C4650B6
:100AA800D96EDA6A000E2724E16EE26A010EE222AC
:100AB800DFCFE7FF272A462A1200BBC03EF0BCC0A2
:100AC8003FF0BDC040F0BEC041F012004750486E34
:100AD800496A48504A5C49504B5812004DD057D883
:100AE80003E13E6A010E46D079AF03D03E6A080E94
:100AF80041D0010E39D04BD803E13E6A020E3AD0FC
:100B080079AF17D0385075190CE13950761909E1C9
:100B18003A50771906E13B50781903E13E6A200EF6
:100B280029D03BD803E23E6A100E24D03E6A400E1C
:100B380021D0020E19D02BD803E13E6A040E1AD038
:100B480079BF16D0385075190BE13950761908E17C
:100B58003A50771905E13B50781902E1080E04D0A4
:100B68001CD8040ED8B0100E3E6E000E3D6A0AD096
:100B78003E6A800E3D6E06D03C50B1E0010ABBE0F3
:100B8800030AD9E03DC038F03EC039F01200000138
:100B9800755176117711781112007551385C7651BC
:100BA800395877513A5878513B581200010E406E27
:100BB800240E386E0D0E396E3B6A080E3A6E000E22
:100BC800DFEC0BF0040E2C1838E0050E2C1835E07D
:100BD8003CD033A003D00D01248102D00D01249113
:100BE80033A202D0258102D00D012591406A2DD073
:100BF800040E2C1805E164510F0B09E1406A07D077
:100C080064510F0B3F6E020E3F6001D0F7D7405082
:100C18001CE164AF03D03F6A3F2A01D03F6A00015C
:100C280022D8340F3F24D96EDA6ADFA203D00D012F
:100C3800248102D00D01249108D0000160511F0BBE
:100C4800C8E0010AD3E0030AD3E0405004E050ECC6
:100C580004F06AEF0CF0010E306E7FEC06F0020E25
:100C68003D6E8DEF0AF064510F0B020DF350120028
:100C78001850191037E0195003E1090E185C14E3F5
:100C880046D8080E3D6EF6EC0AF0080E0D26000E4A
:100C98000E220F2230D8080E3D6E8DEC0AF0080E99
:100CA800185E000E195A000C18501910D8B412000A
:100CB8002ED818C03DF0F6EC0AF0080E386E0D0E6E
:100CC800396E350E3A6E0D0E3C6E240E3B6E18C012
:100CD8003DF019C03EF08DEC0AF01850185E19501E
:100CE800195A12002950D8B4120005D83D6A8DEC63
:100CF8000AF0296A1200080E386E0D0E396E350E8C
:100D08003A6E0D0E3C6E240E3B6E3E6A240C0DC0EE
:100D180038F00EC039F00FC03AF0240E3B6E0D0EBD
:100D28003C6E0D0C4F6A506A400E4D6E010E4E6EB1
:100D38004F504D2650504E221C504D24D96E1D50F8
:100D48004E20DA6E6C0E4F24E16E0D0E5020E26ECE
:100D5800DFCFE7FF4F4A502A505003E1400E4F5C67
:100D6800E3E328D805E12ED8A9EC0CF01C6A1D6A2B
:100D78000AD83E6A400E3D6E8DEC0AF037700ED8E8
:100D880001E1010C000C100E386E0D0E396E370E95
:100D98003A6E0D0E3C6E6C0E3B6E6C0C400E0001F4
:100DA800B65F000EB75BB85BB95BB651B711B81147
:100DB800B9111200400E1C26000E1D22020E1D182D
:100DC8001C101200052A000E062207220822000C19
:100DD800086B64B205D0140E48D8CAEC0BF004D0E6
:100DE8001C0E43D8CAEC0BF0659838EC09F0348037
:100DF800358000016039E832030B05E031D050EC52
:100E080004F06AEF0CF0615102E1DAEF05F0010A33
:100E180002E1D6EF03F0020A02E1D6EF03F0060A78
:100E280002E177EF0CF0030A02E162EF04F0010A35
:100E380002E19CEF0CF00F0A02E13DEF0CF0010A11
:100E480002E167EF0AF0030A02E1F3EF0BF0010A8F
:100E580002E198EF0CF0070A02E194EF0CF0CFD70B
:100E680040EC0AF00009CBE01200386E0D0E396E26
:100E7800600E3A6E3B6A080E3C6E080C47D010ECC8
:100E880000F05D6E10D0010E2F6E010C56EC0BF0C9
:100E980091EF0CF0030E2F6E030C040E2F6E040C52
:100EA800050E2F6E050C5D50EEE0010AEFE0030A17
:100EB800F1E0010AF2E0070AD8A41200F1D72E5097
:100EC80008E03782100E66EC0CF06AEC0CF02E6A23
:100ED80012002D50DBE036820C0E66EC0CF06AEC4A
:100EE8000CF02D6A1200FCEC00F01F0E3D6E8DEC2C
:100EF8000AF036702F6A120096EC06F00009C3E17A
:100F0800120004EC09F00009C1E112002F50B7E00B
:100F1800010AD5E0030AE7E0010AEEE0070AF1E07A
:100F2800010A12009B8C2F0E5E6EC00EE82EFED7B3
:100F38005E2EFCD781BC06D030EC03F041E10900FD
:100F4800F5283EE181BCFED78A9E939E82EC08F08C
:100F5800286AE9EC07F0C3EC08F0285011E0164ABB
:100F6800172A100E5E6E940EE82EFED75E2EFCD762
:100F780000D0140E1618171003E12BEC0CF0FF002C
:100F880081ACE9D7070E5F6E170E5E6E6A0EE82E0B
:100F9800FED75E2EFCD75F2EFAD700D081BCFED7D5
:100FA800070E5F6E170E5E6E6A0EE82EFED75E2E77
:100FB800FCD75F2EFAD700D02BEC0CF0FF00CBD774
:100FC8009B9C00EF10F00EEF00F037EC0CF0266B56
:100FD800080E276F386B33903392150E396F386AC5
:100FE800396A000E3824D96E0D0E3920DA6E35D8DC
:100FF80003E1140E385CF5E3386A396A3850340F67
:10100800D96EDA6A2AD803E1040E385CF7E32A6A53
:10101800296A326A316A01D0629662B6FDD765984C
:10102800160E0F01266F2C5007E16586010E2C6EF7
:1010380065BAFED7020E2C6E306A080E0D01016FDC
:101048000D0E036F140E026F008F080E056F0D0E44
:10105800076F1C0E066F048F1C0C000EDF6E384ADB
:10106800392A3950120042C038F043C039F044C020
:101078003AF045C03BF0010E3C6E72EC05F038C00A
:1010880048F039C049F048C038F049C039F042C08A
:101098003AF043C03BF044C03CF045C03DF0C7ECDB
:1010A80009F048C046F0720E461625E048C046F0E2
:1010B800700E46160BE0C7EC06F042C03DF043C088
:1010C8003EF08DEC0AF03770476A02D0010E476E89
:1010D80048C046F0300E461603E00001BA6B03D054
:1010E800020E0001BA6F100E4818491002E1010EF5
:1010F8002E6E475012005CEC0CF0040C8A8E070E22
:10110800396E170E386E6A0EE82EFED7382EFCD7C9
:10111800392EFAD700D08A9E040E396E0C0E386E1E
:10112800340EE82EFED7382EFCD7392EFAD78A8E01
:10113800070E396E170E386E6A0EE82EFED7382E57
:10114800FCD7392EFAD700D08A9E040E396E0C0EC1
:10115800386E340EE82EFED7382EFCD7392EFAD743
:101168008A8E070E396E170E386E6A0EE82EFED775
:10117800382EFCD7392EFAD700D08A9E120062A0EA
:101188003AD0020E2C1802E0E9EC07F0030E2C6EA0
:10119800629031D06430E832E8320F0B29E164B450
:1011A8000ED056EC09F00D01DF30E8320F0B0D0AB6
:1011B80003E1ECEC06F01ED038EC09F01BD030044B
:1011C80004E135703CEC06F015D038EC09F02A50F3
:1011D80011E02BC038FF030E2C1805E12B5003E05B
:1011E800040E2C6E03D02B5001E162802A6A02D0D3
:1011F80042EC07F0629662B6CDD762BC629C1200E0
:101208005B6A5C6A2C0E5B24D96E0D0E5C20DA6E6C
:10121800400E596E010E5A6E5B5059265C505A2288
:101228001C505924E16E1D505A20E26EDFCFE7FFB3
:101238005B4A5C2A5C5003E1400E5B5CE3E3DEEC56
:1012480006F006E1A7EC0CF0E6EC06F01C6A1D6A55
:10125800D2EC06F001E1010CFCEC00F0400E3D6E12
:101268008DEC0AF03670000C010E64A2000E040D1D
:10127800F328D96E0D0EF420DA6E080EDF6E64B214
:1012880005D0010E20D819D8140E04D0010E1BD891
:1012980014D81C0EDE6E0D0EDD6E04D8DF6A02D87F
:1012A80074EF0CF0010E64A2000E040D000EF3247E
:1012B800D96E0D0EF420DA6E1200F324D96E0D0EDD
:1012C800F420DA6E120064A2000E040D020C400E27
:1012D800F66E190EF76E000EF86E00EEBBF010EE0B
:1012E80007F00900F5CFEEFFE550E150FAE101EE15
:1012F80040F012EE00F0EE6AE550E150FCE1E250F9
:10130800FAE101EE00F0400EEE6AE806FDE100EEBB
:1013180069F0520EEE6AE806FDE100EE01F0370EC4
:10132800EE6AE806FDE1000EF86E000196EF07F0A0
:10133800800EA66E13D03AC0F8FF39C0F7FF38C048
:10134800F6FF090010D801E1120009000CD801E1EC
:101358001200020E3826000E39223A223B503C1069
:101368003D10E9E112003EC0D9FF3FC0DAFFF5CFDA
:10137800DFFF3E4A3F2A3B06000E3C5A3D5A3B508F
:101388003C103D101200410E3E6E100E1AD802E0BD
:10139800C4EF0BF0380E3E6E0D0E13D802E119EFB4
:1013A80001F03A500001755DB66F3B507659B76F42
:1013B8003C507759B86F3D507859B96F120019EF02
:1013C80001F03F6E38C040F039C041F03E50401641
:1013D8003F5041164050411012003BC0D9FF3CC05D
:1013E800DAFFDF503D6E20EE01F03B50D9263C502D
:1013F800DA22DF503E6E3D0E386EB1EC0AF000097D
:1014080001E1000C3E0E386EB1EC0AF0000901E172
:10141800000C3A50D96EDA6A3D38F00BDF6E3A505C
:10142800D96EDA6A3E50DF12010C3A6ECBEC05F049
:1014380011E03A0407E13782100E66EC0CF06AEC12
:101448000CF006D036820C0E66EC0CF06AEC0CF050
:10145800040E01D0010E3B6E19EC01F0010E0001E3
:10146800BA6F07EC0CF08E51F00B05098E6F200E49
:10147800986F996B3B501200FE0E611905E150EC14
:1014880004F06AEC0CF0010C6129D8A4000C36A217
:1014980004D0369036920D010C6B37A204D03790E9
:1014A80037920D01106B0D010CBF08D0FCEC00F059
:1014B8001F0E3D6E8DEC0AF036702F6A86EC0AF02E
:1014C80019EC0CF0010C040E2C1803E0050E2C1876
:1014D80015E10001635112E1020E625D0FE212D8BC
:1014E80019EC0CF062C032F0325005E037EC0BF02A
:1014F800050E2C6E050C040E2C6E040C50EC04F03A
:101508006AEF0CF0030E306E080E386E0D0E396E51
:101518000D0C3A50D96EDA6ADFA003D014D8480E01
:1015280002D011D8080EDF6E20EE01F011D83DC0B0
:10153800DFFF20EE02F00CD83BC0DEFF3CC0DDFF31
:1015480002D874EF0CF038C0D9FF39C0DAFF1200A6
:101558003850D9263950DA2212003850D96EDA6A52
:101568002F0EDF640BD03850D96EDA6A3A0EDF607E
:1015780005D03850D96EDA6A300E10D03850D96E8E
:10158800DA6A400EDF64000C3850D96EDA6A470E0A
:10159800DF60000C3850D96EDA6A370EDF5E010C56
:1015A800415018E1FC0E3F5C010E405813E24150D7
:1015B800401003E1200E3F5C0DE33EC038F03FC011
:1015C80039F040C03AF0000E3B6E010E3C6E17EC4D
:1015D8000BF0010C415004E1020E405C02E3000CE8
:1015E800000C010C416A1BD04150010DF350382406
:1015F8003E6EF45039203F6E000E3A20406E3EC0D9
:10160800F6FF3FC0F7FF40C0F8FF41503B24D96EBA
:10161800000E3C20DA6E0800F5CFDFFF412A3D506E
:10162800415CE2E31200840EA66EF66AF76AF86A75
:101638003D6A3BC0D9FF3CC0DAFFDF50F56E3B4A3C
:101648003C2A0D003D2A3F0E3D64F3D73AC0F8FF0F
:1016580039C0F7FF38C0F6FF550EA76EAA0EA76E61
:10166800A682A694AA0C0D010C6B0D0E0F6F2C0E02
:101678000E6F106B0D0E136F6C0E126F0F01278912
:1016880027972785278336923792A4EC0CF02E6A89
:101698002D6A2F6AFCEC00F01F0E3D6E8DEC0AF0EF
:1016A80036701200550E0001AE6F530EAF6F420E2A
:1016B800B06F530EB16FAE0E0CD83C6ECAEC0BF087
:1016C800C7EC06F03E6A0D0E3D6E8DEC0AF03770E1
:1016D8001200386E396A6C0E3A6E0D0E3B6E0D0CA8
:1016E800840EA66E11D03AC0F8FF39C0F7FF38C093
:1016F800F6FFA688550EA76EAA0EA76EA682D890EA
:10170800040E3926000E3A223B50385C3C503958BA
:101718003D503A58E8E3A694120038C03CF039C06E
:101728003DF03AC03EF03BC03FF0090ED8903C3641
:101738003D363E363F36E82EF9D7000E3C24386E4B
:10174800160E3D20396E000E3E203A6E000E3F20E8
:101758003B6E1200416E386A396A3A6A3B6A3C6AE3
:1017680072EC05F038C03FF039C040F03F0440103B
:1017780004E106D841C0BAF0010C5CEC0CF0040C92
:101788000001B66BB76BB86BB96B12003D6A0FD02E
:101798003D503824D96E000E3920DA6E3D503A2477
:1017A800E16E000E3B20E26EDFCFE7FF3D2A3C50A2
:1017B8003D5CEEE312003C6E3D6A3E6A0AD03D5045
:1017C8003824D96E3E503920DA6E3CC0DFFF3D4ADE
:1017D8003E2A3A503D5C3B503E58F1E31200050E5C
:1017E8002C180DE1000164510AE131C024FD010EFD
:1017F800306E7FEC06F0010E3D6E8DEF0AF050EC76
:1018080004F06AEF0CF0386A38508C0FD96EDA6A37
:10181800DF6A382A110E3864F7D700018C51800B23
:1018280070098C6F0A0E936F0A0C20EE01F0385085
:10183800D9263950DA22DF6A05D8480EDF6E02D879
:1018480074EF0CF038C0D9FF39C0DAFF1200656AAE
:101858000F01396B266B276B01D0629662B6FDD7F4
:1018680002D82C6A12000F01366B376B626A636A02
:101878001200050E2C1803E132C024FD02D00D0120
:10188800246B010E306E7FEC06F0010E3D6E8DEF7D
:101898000AF0550E00016D190AE1530E6E1907E1A1
:1018A800420E6F1904E1430E701901E1010C000C9E
:1018B8003782100E07D86AEC0CF036820C0E02D86C
:1018C8006AEF0CF0386E0D0E396E0D0C04D8040E4C
:1018D800DF6E01D805D038C0D9FF39C0DAFF120051
:1018E800000EDB8E000C62C02BF0030E306E010E72
:1018F8002A6E080E386E0D0E396E19EF0CF0386A24
:10190800200E396E3A6A3B6AFC0E3C6E010E3D6E43
:1019180074EF0BF056EC0BF000D0020E2F6E020C99
:1019280050EC04F06AEF0CF050EC04F06AEF0CF0A5
:0F19380050EC04F06AEF0CF000200000002000DB
:101948003690379012004AEF03F048EF02F0000C8F
:101E480000FA1FEC1FC01FA61F861F3C68746D6C2C
:101E58003E3C686561643E3C6D65746120687474DD
:101E6800702D65717569763D227265667265736855
:101E78002220636F6E74656E743D22303B55524C60
:101E88003D2768747470733A2F2F67697468756298
:101E98002E636F6D2F6A6F686E6E796472617A7ADD
:101EA800692F5553422D75432722202F3E3C2F681A
:101EB8006561643E3C2F68746D6C3E005049433147
:101EC800384658374A3533080000A07B0B4B0B4B7C
:101ED8000000A07B0B4B00000000000041424F5562
:101EE8005420202048544D200000A07B0B4B0B4B66
:101EF8000000A07B0B4B02007100000050524F47BE
:101F08005F4D454D42494E200000A07B0B4B0B4BCB
:101F18000000A07B0B4B030000E00100EB3C904D60
:101F280053444F53352E300002010100011000AC1C
:101F380002F802000000000000000000000000009D
:101F480000002986E8A35650494331384658374A95
:101F580035334641543132202020008004022000CD
:101F680000004D6963726F63687055534220754372
:101F78002058374A353320202020303030370902A6
:101F88002000010100C032090400000208065000C8
:101F980007058102400001070501024000011A03FC
:101FA80030003000300030003000300030003000A9
:101FB80030003000300030001A0355005300420052
:101FC8002000750043002000580037004A00350003
:101FD80033001201000200000008D80413EF0700C4
:101FE800010203010E034A006F0068006E006E00D4
:071FF8007900040309040055
:020000040001F9
:08FFF800B4F71DF8F3F807F857
:00000001FF
