:020000040000FA
:040000000EEF00F00F
:0400080004EF10F001
:100018000CEF10F000EF0AF04E6E2B5001E1E4D027
:100028004E0E346EBCEC09F0000901E0DDD02B6AFD
:100038000D0C0D0E4E18D8B40B0C0A0E4E1801E11B
:100048000B0C3A0E4E18F3E10001A66B166A020E6D
:10005800156E2A6A010E2B6E0B0C2A38F00B4E1007
:100068002A6EE4D8D8A40B0C100E2A6401D0DFD76E
:100078002A500001A627166A040E156E9B6B9C6B0E
:10008800020EE9D7E6D8C5D89B6F4B509C6FCED8E7
:10009800D8A40B0C9C51A6279B51A627166A020EC2
:1000A800156E296A030ED7D7C1D8D8A40B0C4EC039
:1000B80029F029500001A62710D0166A020E156EE5
:1000C800286AA56B040EC7D7CED82CD0166A040EA2
:1000D800156E996B9A6B050EBED72950EEE0010A92
:1000E800F3E0050AF3E0A3D7AED806E14EC0A5F0C9
:1000F8000001A53BF00EA51715501610D8A40B0C3F
:100108004E500001A513AAD8A5C0DFFFA7D8DF501D
:10011800A627282A166A020E156E2A502818D8A46F
:100128000B0C0001A76B0A0E96D799C04AF09AC02B
:100138004BF06FD8996F4B509A6F78D8D8A40B0CA6
:100148009951A627100E4A6E99C04BF09AC04CF0F0
:100158004D6A4A2804D0D8904B364C364D36E82E96
:10016800FAD74BC092F04CC093F04DC094F07BD8B6
:10017800D8D769D806E14EC0A7F00001A73BF00E1A
:10018800A71715501610D8A40B0C4E500001A71332
:10019800A751A627A65101E04AD71FD05AD84C6AC2
:1001A80092514A243D6E93514B203E6E94514C20FF
:1001B8003F6EA80E406E2AC041F05FEC05F00009C2
:1001C80001E135D70FD02D5006E036D858EC08F0AD
:1001D800000901E12CD72B6A0C0C2950DFE0010A39
:1001E800F2E0050A2B6A0B0C2B5001E122D7010A19
:1001F80001E133D7030A01E145D7010A01E154D7E8
:10020800070A01E171D7010A90E00F0AD8A40B0C84
:10021800B0D74A3A4B3AF00E4B164A500F0B4B12D6
:10022800F00E4A164E504A10000112001506D8A0CA
:100238001606155016101200C8C039F0C9C03AF099
:10024800CAC03BF012001506D8A0160615041610F1
:1002580012009BC04AF09CC04BF012002850A80F17
:10026800D96EDA6A1200166A020E156E020C2C0E8E
:10027800346E020E356E680E366E376A1F0E386E93
:1002880016EC0BF0E7EC0AF0000901E0EED01200E2
:10029800280E7719010ED8A4020E486E7FC009F007
:1002A8007EC00AF009500A1008E1000E3A6E3B6E53
:1002B8003C6E3D6E3E6ED5EF08F0EBD80950052434
:1002C800446E0A500620456E000E0720466E000E4A
:1002D8000820476E4750461005E1140E445C100E86
:1002E800455807E3050EA06F210E9F6F9E6BCEEF5A
:1002F8000AF00950446E0A50456E466A476A090E6C
:10030800D8904436453646364736E82EF9D744C0A5
:100318000BF045C00CF046C00DF047C00EF00BC006
:100328003AF00CC03BF00DC03CF00EC03DF048C0A8
:100338003EF0D5EC08F0000901E11200176A186ACE
:10034800020E481805E104EC0CF0050E206E050CB1
:1003580040EC0BF0030E206E030C1C50A6E01C6A48
:100368002EEC0CF0CEEF0AF07BC00FF0106A0F50A5
:1003780010109BE0105003E1130E0F5C03E3106AAA
:10038800120E0F6E97D80FC036F010C037F0000E5F
:1003980054EC0BF0700E02016C6FA0C06EF20A0EE6
:1003A800736F9FC078F29EC079F22FD07BC00FF098
:1003B8007AC010F00F50101001E177D7105003E108
:1003C800250E0F5C03E3106A240E0F6E630E346E65
:1003D8001F0E30EC03F00FC039F097EC09F015D080
:1003E8007BC00FF0106A0F50101001E15ED710505B
:1003F80003E1050E0F5C03E3106A040E0F6E030E93
:1004080002016C6F6D6B6E6B6F6B0F50DFEF09F055
:1004180079517A117B117C1106E07FB104D0050E69
:10042800A06F240E62D735D80450031005E1130ECF
:10043800015C100E025806E302016C696D696E6971
:100448006F6907D002016C6B6D6B100E6E6F120E28
:100458006F6F706B716B020E726F736B080EDFEF4C
:1004680009F047EC0CF0CEEF0AF00001775101E1FA
:1004780074D7030A01E178D7110A98E0080AB0E0B6
:100488003F0AC6E00D0A01E103D7020A01E100D7DD
:10049800E8D77CC001F07BC002F07AC003F079C0D5
:1004A80004F001C005F002C006F003C007F004C064
:1004B80008F012006C0E346E020E356E020C5EEC03
:1004C80002F0376A400E366E000E54EC0BF0055001
:1004D80006100710081015E11750181006E1F90E5C
:1004E800346E1E0EB9D83E0E7AD0C00E171802E12F
:1004F8001804D8A41200550E0201AA6FAA0EAB6FF9
:10050800AA0C050406100710081002E115EF08F000
:10051800120EB7D846E1175018101BE1370E346E8B
:100528001F0E9AD80B0E396E97EC09F0080E0201CF
:10053800776F420E346E1F0E356E98D897EC09F01F
:10054800210E0201976F020EA66F580EA86FA96BB5
:100558001200400E17181810D8A412004D0E346E51
:100568001F0E7AD80B0E396E97EC09F0200E020197
:10057800776F030E866F886B010E896F2F50D8B482
:100588001200580E346E1F0E356E70D897EC09F0B5
:10059800210E0201976F040EA66FA86B200EA96F9B
:1005A800200C08500710061004E1130E055CD8A0B3
:1005B8001200130E66D816E11750181006E1A10EA6
:1005C800346E1E0E49D8400E0AD0400E1718181067
:1005D800D8A41200E10E346E1E0E3ED8180E396EE5
:1005E80097EF09F0140E4DD811E1436A6C0E4324BD
:1005F800D96EDA6A020EDA2243501724FBEC0BF0AC
:10060800DF6E432A3F0E4364F1D73F0C05C034F038
:1006180006C035F007C036F008C037F06EEC09F0B8
:100628003450406E35C041F036C042F0425003E1CC
:10063800400E415CD8B0120040C034F041C035F0E3
:1006480042C036F0400E376E386A396A6C0E3A6E20
:10065800020E3B6E43EF09F0356E3410D8A4000E3D
:10066800366E6C0E376E020E386E020C3410D8A43B
:10067800000E366E8C0E376E020E386E0B0E396E0B
:100688000B0C05180610071008101200010E4B6E0F
:1006980045D0DB0E8F6F1F0E906F8F11D8A4000E00
:1006A800916F986B120E976F4B6A42D0625140E17E
:1006B8006ED85FD873D86BD85CD845C048F046C0B0
:1006C80049F047C04AF0020E4824F66E000E492051
:1006D800F76E000E4A20F86E0900F5CF97F00A0071
:1006E800F5CF98F0E1D7080E626122D06251020D71
:1006F800970EF324F66E1E0E3CD850D88FC0F6FF26
:1007080090C0F7FF91C0F8FF0800F550976F986BFD
:10071800CBD76DEC0CF00009C7E10AD0000163519A
:10072800010AB7E0030AC2E0010ADDE0050AF1E1C7
:100738004B5004E0DFEC04F0C8EF0BF06651975D16
:10074800675198590DE297C013F098C014F097C0FC
:1007580043F0070E431601E007D0010EA36F05D042
:1007680066C013F067C014F0A36B266AD1EC05F0DD
:100778001CD0F420F76E0900F5CF43F00900F5CF3F
:1007880044F043C045F044C046F0476A1200625145
:10079800020D9F0EF324F66E1E0E120045C08FF058
:1007A80046C090F047C091F01200010E226E010C75
:1007B8002C5060E10150051837E10250061834E169
:1007C8000350071831E1045008182EE108500710AB
:1007D800061003E1130E055C27E3140E45EC03F045
:1007E80012E1180421E2506A516A6CD8346E17502D
:1007F80050248BEC0BF0504A512A515015E1400E11
:10080800505C12E2F2D7175018100EE13A0E0201AE
:100818002C190AE12F5002E0DFEC0BF0B6EC05F0E2
:1008280054EC0BF0010E2C6E120E45EC03F022E195
:10083800400E171818101EE12F500AE002014C5103
:1008480003E0E50E4C1904E1DFEC0BF0010E2E6E0F
:1008580002012C5103E0E50E2C190CE1506A516A93
:10086800346850508BEC0BF0504A512A5104F8E38D
:10087800010E2E6E2C04D8A4120008500710061082
:1008880004E1130E055CD8A01200506A516A1AD808
:1008980010EC00F04F6E0B0E4F180AE00D0E4F18BB
:1008A80002E1DFEC0BF0020E2C6E010E2E6E010C35
:1008B800504A512A515005E1400E505CD8B0120000
:1008C800E6D712002C0E5024D96E020E5120DA6E93
:1008D800DF501200010E3D6E040E23185EE0060E76
:1008E80023185BE060D0620563115DE1610502E1F8
:1008F800259201D025823D6A56D06251631153E199
:10090800060E231808E164510F0B3A6E020E3A6086
:1009180005D03D6A03D064510F0BFBE03D5043E125
:1009280064510F0B0BE1610504E131920201086B80
:100938003AD0318240D8C8EC0BF035D064AF03D040
:100948003A6A3A2A01D03A6A3BD83A243B6E3B28A5
:100958003C6E61050BE164510F0B376E000E64BFEE
:10096800010E386E3C501FEC0CF01DD064AF03D064
:100978003A6A3A2A01D03A6A23D8300F3A24D96E13
:10098800DA6ADF823C50040D000EF324346E020E46
:10099800F420356EC8EC0BF006D0000160511F0B37
:1009A800A2E0020AAAE03D5003E005D8C8EF0BF028
:1009B80035EC0CF00BD0080E346E020E356E020CBE
:1009C800000164510F0B020DF3501200030E226E4A
:1009D800030C62B460A40BD06094050E231805E1E3
:1009E8006492A1C023F001D0629462B4FDD7050ED1
:1009F800231801E1120062A008D0020E231802E0B9
:100A08002CEC06F0030E236E629062A807D0608477
:100A1800648223C0A1F0050E236E6298030E236042
:100A280042D0030C00F000F063CF27F062963ED866
:100A380038E127B41CD027A202D0308401D03094EA
:100A4800010E27A2000E54EC0AF00201DF30E83252
:100A58000F0B0D0A03E133EC07F025D0020E221824
:100A680003E13070D1EC07F03EEC0AF01CD0220410
:100A780004E13170D1EC05F016D03EEC0AF000012B
:100A8800A25111E024C05CFF030E231805E1245095
:100A980003E0040E236E03D0245001E16280A26BB0
:100AA80002D027EC0CF062A61200BCD72730E8323F
:100AB800E8320F0B12003D500F0B496EF00E3D143B
:100AC800446E3E50456E3F50466EC851441806E18C
:100AD800C951451803E1CA5146180CE02D500AE0E7
:100AE80020EC01F058EC08F0000901E1000C3AD8BC
:100AF80054EC0BF0476A486A06D03BD8100E4918E8
:100B080004E0474A482A41D8F8E3100E491821E181
:100B180044C039F045C03AF046C03BF058EC08F004
:100B2800000901E1000C1ED854EC0BF0496A474A51
:100B3800482A4150475C000E485804E305D019D8AC
:100B4800474A482A22D8FBE3100E4426000E4522C5
:100B5800462249C02DF044C0C8F045C0C9F046C07F
:100B6800CAF0010CB80E346E356A376A100E366E4C
:100B7800FF0C4050D96EDA6A4950B80FE16EE26A4C
:100B8800DFCFE7FF492A402A12004150426E436AEC
:100B98004250475C4350485812001350141035E037
:100BA800145003E1090E135C1DE326500CE137D8FD
:100BB800080E396E97EC09F00001080E8F27000E19
:100BC8009023912307D03BD8080E386E16EC0BF013
:100BD80010EC08F0080ED5EC0BF0080E135E000EB2
:100BE800145A000C265006E11AD813C039F097ECB5
:100BF80009F005D024D813C038F016EC0BF01350C8
:100C0800D5EC0BF0136A146A12000001A351D8B492
:100C18001200000ED5EC0BF00001A36B12008FC080
:100C280040F090C041F0426A40C034F041C035F015
:100C380042C036F0240E376E020E386E020C11C018
:100C480034F012C035F0240E366E020E376E020CE8
:100C5800606A0F015B6B626A5F6B536B080E546FBF
:100C68005C6B25902592150E616E346A020E356E06
:100C7800376A140E366E000E54EC0BF0020E0201A9
:100C8800036F140E026F020E076F1C0E066F020E22
:100C98000B6F240E0A6F300E346E356A376A040EF5
:100CA800366E000E54EC0BF03B6A3B50C7EC08F074
:100CB8003B50CEEC08F03B2A010E3B64F6D700010E
:100CC800A26BA36B216A01D0629662B6FDD76498C5
:100CD800160E0F01536F235007E16486010E236E31
:100CE80064BAFED7020E236E226A648C00F000F00C
:100CF80000F000F0649C3EEC0AF030943EEF0AF0FD
:100D0800010E3E6E3C6A040E231833E0060E2318CB
:100D180030E037D025A002D03C8001D03C9025A2FD
:100D280002D03D8001D03D903E6A2BD0040E23189E
:100D380005E164510F0B09E13E6A07D064510F0BBE
:100D48003B6E020E3B6001D0F7D73E501AE164AF0C
:100D580003D03B6A3B2A01D03B6AE4EC04F0300F35
:100D68003B24D96EDA6ADFA202D03C8001D03C90E5
:100D780008D0000160511F0BCDE0010AD5E0030A3D
:100D8800D5E03E5004E0DFEC04F0C8EF0BF0240E91
:100D9800346E020E356E376A080E366E000E54EC4D
:100DA8000BF03CC024F2020ED5EC0BF0D9EF03F0A7
:100DB8009B8C2F0E346EC00EE82EFED7342EFCD737
:100DC8007E98040E536E0C0E526E340EE82EFED72B
:100DD800522EFCD7532EFAD72BEC0BF082A002D060
:100DE8002F501EE182A0FED7020E536E380E526EAF
:100DF800AD0EE82EFED7522EFCD7532EFAD700F0B0
:100E080094928B822E6A58EC0CF0EDEC04F089EC8D
:100E180007F02E5010E182B0F8D72F500AE1F5D72D
:100E28007E689B9C00EF10F004D0EDEC04F089EC98
:100E380007F082A0FAD7EDEC04F089EC07F0000186
:100E4800A42B080E526ECA0EE82EFED7522EFCD7DF
:100E5800C80E0001A419EFE1FF000EEF00F0086BC7
:100E680027A205D01C0E48D816EC0BF004D0140E9F
:100E780043D816EC0BF064983EEC0AF030803180D1
:100E880000016039E832030B05E031D0DFEC04F0F3
:100E9800C8EF0BF0615102E184EF06F0010A02E1AC
:100EA8006EEF04F0020A02E16EEF04F0060A02E1B6
:100EB800F2EF0BF0030A02E14AEF03F0010A02E144
:100EC80054EF0CF00F0A02E1BAEF0BF0010A02E14D
:100ED80098EF08F0030A02E17AEF0BF0010A02E149
:100EE800ACEF0BF0070A02E150EF0CF0CFD763EC40
:100EF8000CF00009CBE01200346E020E356E600E65
:100F0800366E376A080E386E080CA0941B5035E010
:100F18001950870FD96EDA6A0001DFB40DD032702C
:100F280006D00FEC09F022D03BEC01F01FD0205086
:100F3800FBE0050AF6E01AD0337011D040EC0BF054
:100F480015D01F5006E016EC0CF01F6A060E206E36
:100F58000DD000EC0BF00AD05CEC0CF007D0205060
:100F6800010AEFE0030AF8E0010AE8E0192A040E92
:100F7800191801E1196A1B060ED01D500CE0070E66
:100F8800201803E15CEC0CF005D0060E201802E1F5
:100F980000EC0BF01D6AA08412000001965103E1D9
:100FA800090E955D16E327B207D0140E2DD8080E4A
:100FB800386E16EC0BF006D01C0E26D8080E386ECC
:100FC80016EC0BF029D8080E0001955F000E965B11
:100FD80013D027B207D0140E17D895C038F016ECE6
:100FE8000BF006D01C0E10D895C038F016EC0BF09C
:100FF80013D80001956B966B95519611D8A41200E1
:1010080035EC0CF0EAEF04F0346E020E356E11C0C8
:1010180036F012C037F0020C080E1126000E12220C
:10102800000C6C0E386E020E396E17501810D8A4CA
:10103800120038C0D9FF39C0DAFFF80EDE6EDD685D
:1010480020EE02F024D820EE04F021D820EE06F09D
:101058001ED82F50D8B41200376A040E366E3628C0
:10106800346E000E3720356E19D83850D9263950CD
:10107800DA2234C0DEFF35C0DDFF364A372A375062
:1010880003E1130E365CEBE309D801D8FF0C3850A6
:10109800D9263950DA22DE68DD681200D890363455
:1010A800D96E3734DA6E12003B5013E1400E3A5CC9
:1010B80010E23B5003E1200E3A5C0BE339C034F0F8
:1010C8003AC035F03BC036F0B80E376E5CEC0AF02B
:1010D800010C200E3B1839103A1025E0300E3B1851
:1010E80039103A1020E03A04F00E3B5815E2F00EA1
:1010F8003B5C12E33A6A3B6A3C6A3C50B80FD96ED3
:10110800DA6ADF50346E3C5039248BEC0BF03C2A01
:101118000F0E3C64F2D7010C3B5004E1200E3A5C00
:1011280002E3000C000C010C040E231803E0060E69
:10113800231825E10001635122E1020E625D1FE2DE
:10114800648C00F000F000F000F0649C366A3650C1
:101158001AD836501FD8362A010E3664F8D735EC1F
:101168000CF0030E226E62C021F0215005E065EC00
:101178000CF0060E236E060C040E236E040CDFEC36
:1011880004F0C8EF0BF0020DF350300FD96EDA6A95
:10119800DF841200020DF350310FD96EDA6ADF8452
:1011A80012003E5011E10001DFEC0AF003E100EC0F
:1011B8000BF028D074AF03D016EC0CF002D041EC41
:1011C8000CF0060E206E1ED0000174AF03D0020E84
:1011D8003E181BE074BF02D03E0417E03A50705D21
:1011E8003B5071593C5072593D5073590EE3705140
:1011F8003A5C71513B5872513C5873513D5802E268
:10120800010E1F6E0001746B010C3BEC0CF0020E1A
:101218000001746F000C67EC0CF021D801E127D8AD
:101228000CD802E004EF0CF01F5002E100EF0BF0C5
:1012380041EC0CF01F6AE4EF0AF0400E0B5E000E62
:101248000C5A0D5A0E5A400E0001705F000E715B69
:10125800725B735B0B500C100D100E101200400ED9
:101268001726000E1822020E181817101200052A49
:10127800000E062207220822176A186A1200800E3A
:10128800A66E13D036C0F8FF35C0F7FF34C0F6FF9E
:10129800090010D801E1120009000CD801E1120080
:1012A800020E3426000E35223622375038103910F7
:1012B800E9E112003AC0D9FF3BC0DAFFF5CFDFFF02
:1012C8003A4A3B2A3706000E385A395A37503810EE
:1012D8003910120034C038F035C039F036C03AF051
:1012E80037C03BF0090ED890383639363A363B3697
:1012F800E82EF9D7175038243C6E185039203D6E27
:10130800000E3A203E6E000E3B203F6E000E3C243D
:10131800346EF60E3D20356EFF0E3E20366EFF0E03
:101328003F20376E12003F6A1FD03F50010DF3CFA8
:101338003AF0F4CF3BF03A5034243C6E3B50352021
:101348003D6E000E36203E6E3CC0F6FF3DC0F7FFF6
:101358003EC0F8FF3F503724D96E000E3820DA6EB1
:101368000800F5CFDFFF3F2A39503F5CDEE312006B
:101378003450D96EDA6A2F0EDF640BD03450D96E30
:10138800DA6A3A0EDF6005D03450D96EDA6A300E68
:1013980010D03450D96EDA6A400EDF64000C345035
:1013A800D96EDA6A470EDF60000C3450D96EDA6AFB
:1013B800370EDF5E010C436E43503A6E3B6A3C6A5F
:1013C8003D6A010E3E6ED5EC08F0000901E11200FD
:1013D80043C03FF0406A416A426A3F50705F4050E4
:1013E800715B4150725B4250735B43C034F0356AA5
:1013F8000DEC0CF051EF0BF0D60EF66E180EF76EE2
:10140800000EF86E0900F5CFC8F00900F5CFC9F055
:101418000900F5CFCAF000EE87F0410EEE6AE80643
:10142800FDE100EE01F0330EEE6AE806FDE1000E84
:10143800F86E0001DCEF06F06129D8A4000C6251B7
:101448006311D8A4000C64516511D8A4000C66512E
:10145800671101E0000C02010CAF5CEC0CF01B6A98
:101468001A6A196A1E6A1C6A35EC0CF0030E4CECF9
:101478000CF0010C010E30A4000E040DF328D96EF7
:10148800020EF420DA6E080EDF6E010E30A4000E94
:1014980007D8DF6A010E30A4000E02D8D2EF0BF095
:1014A800040D000EF324D96E020EF420DA6E120039
:1014B800840EA66EF66AF76AF86A386A3750D96EEB
:1014C800DA6ADF50F56E372A0D00382A0F0E3864B5
:1014D800F5D736C0F8FF35C0F7FF34C0F6FF550E14
:1014E800A76EAA0EA76EA682A694AA0C02010C6B80
:1014F800020E0F6F2C0E0E6F106B020E136F6C0E18
:10150800126F0F0154895487548554833292339251
:1015180060EC0CF01E6A1C6A1F6A1D6A1B6A1A6A54
:10152800196A5CEF0CF0840EA66E11D036C0F8FF75
:1015380035C0F7FF34C0F6FFA688550EA76EAA0E71
:10154800A76EA682400E3426000E3522362237506A
:10155800345C3850355839503658E8E3A6941200B0
:10156800366E1E50D8A412000DD8DF900BD8DFA21B
:1015780006D008D8DF92365054EC0AF0DF6A010E24
:101588001D6E010C3450020DF350300F3524D96E06
:10159800DA6A120010D804E1010E746F00EF0BF044
:1015A80074AF03D016EC0CF002D041EC0CF0010E35
:1015B8000001746F05D0705171117211731112000E
:1015C800060E206E060C1F0E02010D190EE1550EB7
:1015D800000168190AE1530E691907E1420E6A19F8
:1015E80004E1430E6B1901E1010C010E1E6E3BEC88
:1015F8000CF0070E206E000C530E00016B6F680E86
:10160800346E356A6C0E366E020E376E0D0E386EFD
:1016180016EC0BF0356A0D0E346E0DEC0CF0020E64
:10162800206E020C396A0FD039503424D96E000E5E
:101638003520DA6E39503624E16E000E3720E26E1E
:10164800DFCFE7FF392A3850395CEEE31200800E0D
:10165800A66EF66A200EF76EF86A0900F5CF34F028
:101668000900F5CF35F0342804E1352802E12F6A66
:101678001200010E2F6E010C69EC0CF033EC09F02E
:1016880002E13BEC09F0356A400E346E0DEC0CF0CB
:1016980021EC09F0D8A4120000D0010E206E010C34
:1016A800386E396A3A6A0AD039503424D96E3A50B9
:1016B8003520DA6E38C0DFFF394A3A2A3650395CAD
:1016C80037503A58F1E3120020EE01F03450D92691
:1016D8003550DA22DF6A05D8480EDF6E02D8D2EF1D
:1016E8000BF034C0D9FF35C0DAFF1200060E2318FC
:1016F8000AE10001645107E10201246B010ED5ECF7
:101708000BF0D9EF03F0DFEC04F0C8EF0BF0356E07
:1017180035C0A9FF34C0A8FFA69EA69CA684550E76
:10172800A76EAA0EA76EA682A6B2FED7A69412002E
:10173800040E1B60040C1A50870FD96EDA6A27C092
:10174800DFFF1A2A040E1A1801E11A6A1B2A12006E
:1017580064C034F000016251E9EC0BF0000902E0CA
:1017680035EF0CF0DFEC04F0C8EF0BF0060E231891
:1017780003E121C035F001D0356A35C024F2010EED
:10178800D5EC0BF0D9EF03F004D8040EDF6E01D8C6
:1017980005D034C0D9FF35C0DAFF1200000EDB8E49
:1017A800000C346E480E31A0080E0201086F34C0D8
:1017B80009F2088F1200346A200E356E366A376ACD
:1017C800400E386E396A97EF0AF0356E355005E1EC
:1017D800345003E160EC0CF0010C000C62C024F002
:1017E800010E0001A26F35EC0CF0EAEF04F0346E44
:1017F80034C0A9FFA69EA69CA68000F0A85012009F
:10180800480E32A0080E02010C6F400E0D6F0C8FAF
:10181800400C480E33A0080E0201106F34C011F2BC
:10182800108F12003382100E02D8C8EF0BF0346EFE
:10183800020E356E020C396E37C034F038C035F000
:101848003950B4EF0AF05AEC05F0010A02E19CEFB6
:101858000BF01200060EA06F280E00D09F6F9E6B33
:101868001200080E346E020E356E68EF0BF041EC74
:101878000CF016EC0CF0E4EF0AF032820C0E1BECC4
:101888000CF0C8EF0BF0050EA06F200E32EF0CF035
:10189800346E34C022F01200DFEC04F0C8EF0BF015
:1018A800DFEC04F0C8EF0BF0010E606E6280010CF3
:1018B80004EC0CF0206A120032903390120020EFF2
:1018C8000AF07AEF0AF0DCEF03F063EF02F0002091
:0118D800000F
:0218DA00000C00
:101E960000FB1FED1FC11FA71F871F3C68746D6CD9
:101EA6003E3C7363726970743E77696E646F772E19
:101EB6006C6F636174696F6E3D2268747470733AF7
:101EC6002F2F6769746875622E636F6D2F6A6F684E
:101ED6006E6E796472617A7A692F5553422D754315
:101EE600223B3C2F7363726970743E3C2F68746D9D
:101EF6006C3E00EB3C904D53444F53352E30000260
:101F06000101000110001310F8110000000000008C
:101F16000000000000000000002986E8A356504992
:101F26004331384631344B35304641543136202022
:101F36002050494331384631344B353041424F55B4
:101F46005420202048544D454550524F4D202042A4
:101F5600494E50524F475F4D454D42494E00800411
:101F660002200000004D6963726F6368705553422A
:101F76002075432031344B3530202020203031313C
:101F86003009022000010100C032090400000208E5
:101F960006500007058102400001070501024000C6
:101FA600011A0331003200330034003500360037A1
:101FB60000380039003000390039001A0355005343
:101FC6000042002000750043002000310034004B21
:101FD60000350030001201000200000008D8047825
:101FE600EB1001010203010E034A006F0068006E48
:0A1FF600006E0079000403090400E6
:020000040020DA
:08000000FFFFFFFFFFFFFFFF00
:020000040030CA
:0E00000000220A10FF8081FF03C0028003402F
:00000001FF
