:040000000EEF00F00F
:0400080004EF10F001
:100018000CEF10F083EF09F02C0E406E040E416EC9
:10002800680E426E436A1F0E446EF3EC0AF0C2EC8F
:100038000AF0000901E0F5D01200280E7719010E28
:10004800D8A4020E596E7FC009F07EC00AF009508C
:100058000A1008E1000E476E486E496E4A6E4B6EF4
:1000680019EF08F0F2D809500524516E0A500620FD
:10007800526E000E0720536E000E0820546E545026
:10008800531005E1140E515C100E525807E3050E8B
:10009800316E210E306E2F6AA9EF0AF00950516EA9
:1000A8000A50526E536A546A090ED8905136523625
:1000B80053365436E82EF9D751C00BF052C00CF025
:1000C80053C00DF054C00EF00BC047F00CC048F000
:1000D8000DC049F00EC04AF059C04BF019EC08F0B9
:1000E800000901E11200156A166A020E591805E1A5
:1000F8000AEC0CF0050E2E6E050C59EC0BF0030EF5
:100108002E6E030C2950A6E0296A3DEC0CF0A9EFED
:100118000AF07BC013F0146A135014109BE01450BB
:1001280003E1130E135C03E3146A120E136E9ED8D8
:1001380013C042F014C043F0000E31EC0BF0700E07
:1001480004016C6F31C06EF40A0E736F30C078F41E
:100158002FC079F42FD07BC013F07AC014F013505D
:10016800141001E177D7145003E1250E135C03E363
:10017800146A240E136E650E406E1F0E51EC05F0C6
:1001880013C045F061EC09F015D07BC013F0146A78
:100198001350141001E15ED7145003E1050E135CEF
:1001A80003E3146A040E136E030E04016C6F6D6B87
:1001B8006E6B6F6B1350A4EF09F079517A117B11B4
:1001C8007C1106E07FB104D0050E316E240E62D793
:1001D8003CD8045003100CE1130E015C100E0258B9
:1001E80007E2556A566A100E576E120E586E04D002
:1001F800556856685768586855C06CF456C06DF411
:1002080057C06EF458C06FF40401706B716B020E26
:10021800726F736B080EA4EF09F05DEC0CF0A9EF98
:100228000AF00001775101E16DD7030A01E171D7A6
:10023800110A91E0080AA9E03F0ABFE00D0A01E1AE
:10024800FCD6020A01E1F9D6E8D77CC001F07BC0F0
:1002580002F07AC003F079C004F001C005F002C0D2
:1002680006F003C007F004C008F012006C0E406EE0
:10027800040E416E040C5A6E5A0E406E3EEC09F0A4
:100288001B6E205003E01B5001E10D0C0B0E216E7C
:100298000FC056F010C057F0563A573AF00E57169E
:1002A80056500F0B5712F00E56165A5056100F6E26
:1002B8005750106E114A122A205011E10D0E5A188B
:1002C80001E1B3D00A0E5A1801E1AFD03A0E5A181C
:1002D80003E1010E206EA8D00D0E216EA6D02004D9
:1002E8000DE1020E1118121009E10FC01FF0110ED6
:1002F8001F60F2D71FC01EF0020E11D0020E201888
:1003080010E1040E111812100CE10FC092F010C089
:1003180093F0000192511E2693511E26030E206E63
:1003280082D0030E201819E1020E1118121015E1DF
:100338000FC01DF01D501E261D5003E11C6A040E3F
:10034800EED71D0402E10A0EEAD7040E1D1802E1D9
:10035800050EE5D70D0E216E66D0040E20180FE1AC
:10036800020E111812100BE170D80FC0DFFF6DD804
:10037800DF501E261C2A1F501C5CE5E254D0050ED7
:1003880020181EE1040E111812101AE10F501E2633
:1003980010501E26100E566E0FC057F010C058F0A1
:1003A800596A562804D0D890573658365936E82E08
:1003B800FAD757C08FF058C090F059C091F0C3D702
:1003C8000A0E201832E1020E111812102EE10F50F9
:1003D8001E261E5081E11D501AE192C056F093C0AE
:1003E80057F0586A00018F515624496E9051572092
:1003F8004A6E915158204B6EB80E4C6E1FC04DF08E
:10040800C4EC03F000090EE10D0E216E0BD01D04A3
:1004180009E10C0E216E235005E010D89CEC07F082
:100428000009F2E0206A010E1A6E1A5005E0116AFE
:10043800126A0F6A106A1A6A21501200D3C045F076
:10044800D4C046F0D5C047F012001C50B80FD96E82
:10045800DA6A1200225060E10150051837E10250B3
:10046800061834E10350071831E1045008182EE14A
:1004780008500710061003E1130E055C27E3140E5D
:10048800BFEC03F012E1160410E25C6A5D6A6CD8F6
:10049800406E15505C248DEC0BF05C4A5D2A5D5073
:1004A80015E1400E5C5C12E2F2D7155016100EE111
:1004B8003A0E04012C190AE1255002E000EC0CF078
:1004C8001BEC04F031EC0BF0010E226E120EBFECA7
:1004D80003F022E1400E151816101EE125500AE01F
:1004E80004014C5103E0E50E4C1904E100EC0CF05A
:1004F800010E246E04012C5103E0E50E2C190CE1C9
:100508005C6A5D6A40685C508DEC0BF05C4A5D2A61
:100518005D04F8E3010E246E2204D8A412000850EA
:100528000710061004E1130E055CD8A012005C6ADF
:100538005D6A1AD83FEC01F05B6E0B0E5B180AE09F
:100548000D0E5B1802E100EC0CF0020E226E010E9B
:10055800246E010C5C4A5D2A5D5005E1400E5C5C2E
:10056800D8B01200E6D712002C0E5C24D96E040E07
:100578005D20DA6EDF501200010E586E596A5A6A11
:1005880048D0DB0EC86F1F0EC96FC811D8A4000E63
:10059800CA6F5A6A120E596E586A45D0625143E1C1
:1005A80062D855D865D85FD852D852C055F053C0D4
:1005B80056F054C057F0020E5524F66E000E562021
:1005C800F76E000E5720F86E0900F5CF59F00A00B3
:1005D800F5CF5AF0E1D7070E626501D024D06251F9
:1005E800020DF350CB0F33D843D8C8C0F6FFC9C0AB
:1005F800F7FFCAC0F8FF0800F550596E5A6ACCD701
:10060800C80E406E590E416E81EC0CF00009C4E131
:100618000AD000016351010AB4E0030ABFE0010AED
:10062800DAE0050AEDE1585004E0BCEC05F0EBEF28
:100638000BF059C040F05AC041F066C042F067C0A4
:1006480043F0000E74EC0AF06DEC06F018D0D96E89
:10065800DA6ADECF50F0DDCF51F050C052F051C011
:1006680053F0546A12006251020DF350D60F120073
:1006780052C0C8F053C0C9F054C0CAF01200010EED
:10068800366E010C3AEC01F0436A400E426E000EE1
:1006980031EC0BF0055006100710081002E1DBEFF3
:1006A8000AF0050406100710081002E1A6EF04F08E
:1006B800120E61D802E107EF05F008500710061086
:1006C80004E1130E055CD8A01200130E54D818E1EB
:1006D8001550161007E1A30E406E1E0E51EC05F0E2
:1006E800400E0BD0400E15181610D8A41200E30EB9
:1006F800406E1E0E51EC05F0180E456E61EF09F0C4
:10070800140E39D811E14F6A6C0E4F24D96EDA6A8B
:10071800040EDA2215504F2414EC0CF0DF6E4F2A29
:100728003F0E4F64F1D73F0C05C040F006C041F0C2
:1007380007C042F008C043F015EC09F040504C6E79
:1007480041C04DF042C04EF04E5014E1600E4D5C79
:10075800D8B012004CC040F04DC041F04EC042F03D
:10076800400E436E446A456A6C0E466E040E476E30
:10077800EAEF08F01200051806100710081012001A
:1007880049501F0B556EE00E4914506E4A50516E79
:100798004B50526ED351501806E1D451511803E111
:1007A800D55152180CE023500AE022EC02F09CECE0
:1007B80007F0000901E1000C3AD831EC0BF0536A5C
:1007C800546A06D03BD8200E551804E0534A542AE0
:1007D80041D8F8E3200E551821E150C045F051C02A
:1007E80046F052C047F09CEC07F0000901E1000C0C
:1007F8001ED831EC0BF0556A534A542A4D50535CBD
:10080800000E545804E305D019D8534A542A22D864
:10081800FBE3200E5026000E5122522255C023F031
:1008280050C0D3F051C0D4F052C0D5F0010C980E8E
:10083800406E416A436A200E426EFF0C4C50D96EDE
:10084800DA6A5550980FE16EE26ADFCFE7FF552A62
:100858004C2A12004D504E6E4F6A4E50535C4F500A
:100868005458120068B469A40BD06994050E37185F
:1008780005E16D9232C037F001D0689468B4FDD7B5
:10088800050E371801E1120068A008D0020E3718CB
:1008980002E018EC06F0030E376E689068A807D0DF
:1008A80069846D8237C032F0050E376E6898030E82
:1008B800376040D0030C000000006CCF3BF0689616
:1008C8003CD802E036EF0CF03BB41BD03BA202D080
:1008D8003C8401D03C94010E3BA2000EF7EC09F0D9
:1008E800DF30E8320F0B0D0A03E1C1EC05F022D02E
:1008F800020E361803E13C70BAEC08F0E1EC09F09E
:1009080019D0360404E13D706DEC06F013D0E1EC2B
:1009180009F0385001E1120039C06EFF030E371894
:1009280005E1395003E0040E376E03D0395001E178
:100938006880386A68A61200BED73B30E832E832D1
:100948000F0B12006C0E466E040E476E15501610F3
:1009580015E146C0D9FF47C0DAFFF80EDE6EDD6844
:1009680020EE02F043D820EE04F040D820EE06F046
:100978003DD8000E456E040E446E07D0D890163050
:10098800406E1530446E40C045F0255001E112001C
:1009980045502BE1250E445C01E312001F0E441460
:1009A800426E436A435021E11BD0230E4418451080
:1009B80003E123D81BD8FF0C4428406E000E4520C5
:1009C800416E1BD84650D9264750DA2240C0DEFF78
:1009D80041C0DDFF444A452A424A432A435005E1C3
:1009E800200E425CD8B01200E0D712004650D9263B
:1009F8004750DA22DE68DD681200D8904234D96E9A
:100A08004334DA6E1200155016101FE1390E406E8D
:100A18001F0E43D80B0E456E61EC09F0080E040159
:100A2800776FD5EC0BF00401726F440E406E1F0E09
:100A3800416E3DD861EC09F0210E0401976F020E5A
:100A4800A66F580EA86FA96B1200400E1518161045
:100A5800D8A412004F0E406E1F0E1FD80B0E456E05
:100A680061EC09F0200E0401776F030E866F886B26
:100A7800010E896F2550D8B412005A0E406E1F0E11
:100A8800416E15D861EC09F0210E0401976F040E30
:100A9800A66FA86B400EA96F400C416E4010D8A4F9
:100AA800000E426E6C0E436E040E446E040C401031
:100AB800D8A4000E426E8C0E436E040E446E0B0ECC
:100AC800456E0B0C010E486E496A040E371832E069
:100AD800060E37182FE036D03AA002D0498001D050
:100AE80049903AA202D04A8001D04A90486A2AD056
:100AF800060E371807E164510F0B476E010E476465
:100B080001D020D0060E371803E064510F0B1AE10C
:100B180064AF03D0476A472A01D0476AB4EC08F0AB
:100B28003C0F4724D96EDA6ADFA202D0498001D08F
:100B38004990DCD7000160511F0BCEE0010AD6E0D6
:100B4800030AD6E0485003E013D8EBEF0BF0240E6D
:100B5800406E040E416E436A080E426E000E31EC80
:100B68000BF049C024F4020E9EEC0BF043EF03F0A7
:100B7800080E406E040E416E040C0401086B3BA283
:100B880005D01C0E48D8F3EC0AF004D0140E43D854
:100B9800F3EC0AF06D98E1EC09F03C803D8000012F
:100BA8006039E832030B05E031D0BCEC05F0EBEF1F
:100BB8000BF0615102E166EF05F0010A02E10CEF6A
:100BC80007F0020A02E10CEF07F0060A02E12EEF35
:100BD8000CF0030A02E1C0EF02F0010A02E16AEF39
:100BE8000CF00F0A02E1BCEF0BF0010A02E1DCEFA6
:100BF80007F0030A02E17CEF0BF0010A02E1AEEF15
:100C08000BF0070A02E166EF0CF0CFD779EC0CF095
:100C18000009CBE01200406E040E416E600E426E79
:100C2800436A080E446E080C696A6B6A686A6A6AE5
:100C3800706A080E716E6E6A3A903A92150E6F6E6F
:100C4800406A040E416E436A140E426E000E31EC87
:100C58000BF0040E0401036F140E026F040E076FED
:100C68001C0E066F040E0B6F240E0A6F3C0E406EAE
:100C7800416A436A040E426E000E31EC0BF0476A7B
:100C880047500BEC08F0475012EC08F0472A010EC9
:100C98004764F6D7386A336A356A01D0689668B609
:100CA800FDD76D98160E706E375007E16D86010EF0
:100CB800376E6DBAFED7020E376E366A6D8C00003D
:100CC8000000000000006D9CE1EC09F03C94E1EFAD
:100CD80009F094C04FF00001955103E1090E945DAD
:100CE80002E3080E4F6E945195113BE0345020E119
:100CF800C8C04CF0C9C04DF04E6A4CC040F04DC061
:100D080041F04EC042F0240E436E040E446E4FC0B4
:100D180045F061EC09F04F504C6E4D6A4CC0E8FF4D
:100D28000001C8274DC0E8FFC923000ECA2310D010
:100D380017C040F018C041F0240E426E040E436EF6
:100D48004FC044F0F3EC0AF04F501726000E18225B
:100D58004F509EEC0BF04F500001945F000E955BD6
:100D6800000C3350D8B41200000E9EEC0BF0336A1E
:100D780012002F0E406EC00EE82EFED7402EFCD774
:100D8800040E5F6E0C0E5E6E340EE82EFED75E2EDD
:100D9800FCD75F2EFAD708EC0BF084A602D02550BA
:100DA8001CE184A6FED7020E5F6E380E5E6EAD0E95
:100DB800E82EFED75E2EFCD75F2EFAD70000246AF5
:100DC8006EEC0CF036EC04F054EC07F024500EE115
:100DD80084B6F8D7255008E1F5D700EF10F004D015
:100DE80036EC04F054EC07F084A6FAD736EC04F09D
:100DF80054EC07F0192A080E5E6ECA0EE82EFED7CC
:100E08005E2EFCD7C80E1918F1E1FF000EEF00F0B6
:100E1800010E4A6E040E371831E0060E37182EE020
:100E280033D06205631130E1610503E0496A492A5C
:100E380001D0496A49463A504918FD0B49183A6E9B
:100E48004A6A22D0625163111FE1060E371807E182
:100E580064510F0B496E010E496401D015D0060E7E
:100E6800371803E064510F0B0FE164510F0B03E1D6
:100E7800CAEC0BF0E5D787EC08F0E2D70001605127
:100E88001F0BCFE0020ADEE04A5004E0BCEC05F09C
:100E9800EBEF0BF04BEC0CF000D0030E366E030CAE
:100EA800A09A285035E02650870FD96EDA6A0001DB
:100EB800DFB40DD03E7006D053EC08F022D010EC11
:100EC80000F01FD02E50FBE0050AF6E01AD03F7064
:100ED80011D059EC0BF015D02D5006E01DEC0CF09C
:100EE8002D6A060E2E6E0DD045EC0BF00AD072EC72
:100EF8000CF007D02E50010AEFE0030AF8E0010ACF
:100F0800E8E0262A040E261801E1266A28060ED0F3
:100F18002B500CE0070E2E1803E172EC0CF005D0F4
:100F2800060E2E1802E145EC0BF02B6AA08A12007F
:100F3800475013E1600E465C10E2475003E1200E73
:100F4800465C0BE345C040F046C041F047C042F064
:100F5800980E436EFFEC09F0010C200E471845105F
:100F6800461025E0300E47184510461020E046048C
:100F7800F00E475815E2F00E475C12E3466A476ADE
:100F8800486A4850980FD96EDA6ADF50406E45506B
:100F980048248DEC0BF0482A1F0E4864F2D7010C48
:100FA800475004E1200E465C02E3000C000C010CE3
:100FB800040E371803E0060E371825E100016351C7
:100FC80022E1020E625D1FE26D8C0000000000004D
:100FD80000006D9C466A46501AD846501FD8462ACB
:100FE800010E4664F8D74BEC0CF0030E366E62C067
:100FF80035F0355005E07BEC0CF0060E376E060C2C
:10100800040E376E040CBCEC05F0EBEF0BF0020D90
:10101800F3503C0FD96EDA6ADF841200020DF350E8
:101028003D0FD96EDA6ADF8412004B5011E10001DE
:10103800BAEC0AF003E145EC0BF028D074AF03D00A
:101048001DEC0CF002D057EC0CF0060E2E6E1ED0E4
:10105800000174AF03D0020E4B181BE074BF02D01E
:101068004B0417E04750705D485071594950725908
:101078004A5073590EE37051475C71514858725188
:10108800495873514A5802E2010E2D6E0001746BE3
:10109800010C51EC0CF0020E0001746F000C7DEC99
:1010A8000CF029D801E11FD80CD802E00AEF0CF0A7
:1010B8002D5002E145EF0BF057EC0CF02D6ABFEF15
:1010C8000AF0400E0B5E000E0C5A0D5A0E5A400ED6
:1010D8000001705F000E715B725B735B0B500C104C
:1010E8000D100E101200052A000E062207220822F3
:1010F800156A166A1200400E1526000E1622020EF8
:1011080016181510120064AF03D0466A462A01D09B
:10111800466A26D84624476E4728486E61050AE184
:1011280064510F0B436E000E64BF010E446E4850AD
:1011380026EF0CF064AF03D0466A462A01D0466A0F
:101148000FD83C0F4624D96EDA6ADF824850040D66
:10115800000EF324406E040EF420416EEBEF0BF00A
:10116800000164510F0B020DF350120096C046F0B7
:101178000001975103E1090E965D02E3080E466EE1
:101188003BB205D0140E18D8F3EC0AF004D01C0EAC
:1011980013D8F3EC0AF046501726000E18224650D2
:1011A8000001965F000E975B9651971101E01200BF
:1011B8004BEC0CF051EF07F0406E040E416E17C077
:1011C80042F018C043F046C044F0040C800EA66EEE
:1011D80013D042C0F8FF41C0F7FF40C0F6FF090036
:1011E80010D801E1120009000CD801E11200020E2A
:1011F8004026000E41224222435044104510E9E1A6
:10120800120046C0D9FF47C0DAFFF5CFDFFF464AD4
:10121800472A4306000E445A455A43504410451085
:10122800120040C044F041C045F042C046F043C0FF
:1012380047F0090ED8904436453646364736E82EEC
:10124800F9D715504424486E16504520496E000EB3
:1012580046204A6E000E47204B6E000E4824406E12
:10126800F60E4920416EFF0E4A20426EFF0E4B20BB
:10127800436E12004050D96EDA6A2F0EDF640BD02D
:101288004050D96EDA6A3A0EDF6005D04050D96E08
:10129800DA6A300E10D04050D96EDA6A400EDF6438
:1012A800000C4050D96EDA6A470EDF60000C4050DF
:1012B800D96EDA6A370EDF5E010C4B6A1CD04B50D0
:1012C800466E476A46504024486E47504120496E52
:1012D800000E42204A6E48C0F6FF49C0F7FF4AC0D8
:1012E800F8FF4B504324D96E000E4420DA6E0800F4
:1012F800F5CFDFFF4B2A45504B5CE1E31200880E27
:10130800F66E180EF76E000EF86E00EECBF010EECB
:101318000DF00900F5CFEEFFE550E150FAE100EEDF
:1013280087F0440EEE6AE806FDE100EE01F03F0E9C
:10133800EE6AE806FDE1000EF86E0001BDEF06F06A
:10134800506E5050476E486A496A4A6A010E4B6EA1
:1013580019EC08F0000901E1120050C04CF04D6A88
:101368004E6A4F6A4C50705F4D50715B4E50725BC5
:101378004F50735B5050E0EC0BF068EF0BF06129B5
:10138800D8A4000C62516311D8A4000C64516511F3
:10139800D8A4000C6651671101E0000C04010CAFE1
:1013A80072EC0CF0286A276A266A2C6A296A4BECC8
:1013B8000CF0030E62EC0CF0010C010E3CA4000EC4
:1013C800040DF328D96E040EF420DA6E080EDF6ED1
:1013D800010E3CA4000E07D8DF6A010E3CA4000EE3
:1013E80002D82EEF0BF0040D000EF324D96E040E74
:1013F800F420DA6E1200840EA66EF66AF76AF86AAE
:10140800446A4350D96EDA6ADF50F56E432A0D00FC
:10141800442A1F0E4464F5D742C0F8FF41C0F7FFC5
:1014280040C0F6FF550EA76EAA0EA76EA682A69418
:10143800AA0C4250D96EDA6ADFB003D0456A080EAA
:1014480002D0456A480E446E0DD844C0DFFF20EE36
:1014580001F04050D9264150DA2243C0DFFF02D8BC
:101468002EEF0BF040C0D9FF41C0DAFF1200840E06
:10147800A66E11D042C0F8FF41C0F7FF40C0F6FF8A
:10148800A688550EA76EAA0EA76EA682400E402605
:10149800000E412242224350405C4450415845507E
:1014A8004258E8E3A694120004010C6B040E0F6F77
:1014B8002C0E0E6F106B040E136F6C0E126F71886A
:1014C8007186718471823E923F9276EC0CF02C6AA0
:1014D800296A2D6A2B6A286A276A266A72EF0CF035
:1014E800456E45C034F04250405C435041580DE2CF
:1014F80040C094F041C095F040C044F0070E441637
:10150800010ED8A4000E336E120042C094F043C0FE
:1015180095F0336A1200426E2C5001E012000DD88B
:10152800DF900BD8DFA206D008D8DF924250F7EC44
:1015380009F0DF6A010E2B6E010C4050020DF350CA
:101548003C0F4124D96EDA6A120010D804E1010E6A
:10155800746F45EF0BF074AF03D01DEC0CF002D0A4
:1015680057EC0CF0010E0001746F05D07051711129
:10157800721173111200060E2E6E060C1F0E040156
:101588000D190EE1550E000168190AE1530E69198B
:1015980007E1420E6A1904E1430E6B1901E1010CDF
:1015A800010E2C6E51EC0CF0070E2E6E000C15502F
:1015B800161009E1FB0E406E1E0E51EC05F03E0EB2
:1015C800456E61EF09F0C00E151808E11604D8A49D
:1015D8001200550E0401AA6FAA0EAB6F1200456ADD
:1015E8000FD045504024D96E000E4120DA6E455088
:1015F8004224E16E000E4320E26EDFCFE7FF452A6A
:101608004450455CEEE31200800EA66EF66A200E8A
:10161800F76EF86A0900F5CF40F00900F5CF41F000
:10162800402804E1412802E1256A1200010E256ED6
:10163800010C20EE01F04050D9264150DA22DF6A31
:1016480004D8480EDF6E01D805D040C0D9FF41C08C
:10165800DAFF1200000EDB8E000C446E456A466A03
:101668000AD045504024D96E46504120DA6E44C015
:10167800DFFF454A462A4250455C43504658F1E34D
:101688001200530E00016B6F680E406E416A6C0EBB
:10169800426E040E436E0D0E446EF3EC0AF00D0E0E
:1016A800E0EC0BF0020E2E6E020C7FEC0CF07FECDF
:1016B80008F002E177EC08F0400EE0EC0BF065EC86
:1016C80008F0D8A4120000D0010E2E6E010C030EF3
:1016D800286401D0030C2750870FD96EDA6A3BC003
:1016E800DFFF272A040E271801E1276A282A12009B
:1016F800060E37180AE10001645107E10401246B62
:10170800010E9EEC0BF043EF03F0BCEC05F0EBEFA1
:101718000BF0416E41C0A9FF40C0A8FFA69EA69C41
:10172800A684550EA76EAA0EA76EA682A6B2FED7ED
:10173800A6941200406E3DB003D0426A080E02D053
:10174800426A480E416E41C008F440C009F40401E1
:10175800088F120064C040F000016251F6EC0BF0F3
:10176800000902E04BEF0CF0BCEC05F0EBEF0BF0DE
:10177800060E371803E135C043F001D0436A43C071
:1017880024F4010E9EEC0BF043EF03F0610504E135
:101798003D920401086B12003D82BCEC05F0EBEFB2
:1017A8000BF0C00EA66EFE0EF66EF7683F0EF86ED2
:1017B8000900F5BC320C340C466E100E406E040E57
:1017C800416E3F0E426E46C043F01DEF0AF005D849
:1017D800040EDF6E02D82EEF0BF040C0D9FF41C0D7
:1017E800DAFF1200416E4150D8A4000C405001E0CD
:1017F800000C76EC0CF0010C406A200E416E426A37
:10180800436A600E446E456A3BEF0AF00C0E406E68
:10181800040E416E3E0E426E400E436E1DEF0AF0FE
:10182800406E40C0A9FFA69EA69CA6800000A850B6
:1018380012003F82100E02D8EBEF0BF0406E040E40
:10184800416E040C456E43C040F044C041F0455021
:101858008FEF0AF062C039F0010E386E4BEC0CF0D5
:1018680051EF07F0A1EC04F0010A02E16BEF0BF075
:101878001200060E316E280E00D0306E2F6A12004C
:0D188800FB1FED1FC31FA91F002000891FBB
:10189600080E406E040E416E1DEF0BF057EC0CF077
:1018A6001DEC0CF0BFEF0AF03E820C0E22EC0CF0A1
:1018B600EBEF0BF0050E316E200E41EF0CF0406E93
:1018C60040C036F01200BCEC05F0EBEF0BF0BCECC0
:1018D60005F0EBEF0BF0010E696E6880010C0AEC67
:1018E6000CF02E6A12003E903F901200C3EF09F0F2
:0E18F60058EF0AF02EEF02F046EF03F0000C60
:101EA200003C68746D6C3E3C7363726970743E777B
:101EB200696E646F772E6C6F636174696F6E3D2219
:101EC20068747470733A2F2F6769746875622E6331
:101ED2006F6D2F6A6F686E6E796472617A7A692F9C
:101EE2005553422D7543223B3C2F736372697074C4
:101EF2003E3C2F68746D6C3E00EB3C904D53444F5A
:101F020053352E3000020101000110001310F811A8
:101F12000000000000000000000000000000002996
:101F220086E8A35650494331384658343535204661
:101F320041543136202020504943313846583435F7
:101F4200352041424F555420202048544D4545509C
:101F5200524F4D202042494E50524F475F4D454D02
:101F620042494E00800402200000004D6963726FF6
:101F7200636870555342207543205834353520200C
:101F82002020203031313309022000010100C0320B
:101F92000904000002080650000705810240000102
:101FA200070501024000011A0331003200330034F8
:101FB200003500360037003800390030003900396A
:101FC2000018035500530042002000750043002012
:101FD20000580034003500350012010002000000F4
:101FE20008D80478EB1301010203010E034A006FC3
:0E1FF2000068006E006E007900040309040010
:020000040020DA
:08000000FFFFFFFFFFFFFFFF00
:020000040030CA
:0E000000230E3210FF0181FF0FC00E800F4053
:00000001FF
