:040000000EEF00F00F
:0400080004EF10F001
:100018000CEF10F085EF09F02C0E406E040E416EC7
:10002800680E426E436A1F0E446EF5EC0AF0C4EC8B
:100038000AF0000901E0F5D01200280E7719010E28
:10004800D8A4020E596E7FC009F07EC00AF009508C
:100058000A1008E1000E476E486E496E4A6E4B6EF4
:100068001BEF08F0F2D809500524516E0A500620FB
:10007800526E000E0720536E000E0820546E545026
:10008800531005E1140E515C100E525807E3050E8B
:10009800316E210E306E2F6AABEF0AF00950516EA7
:1000A8000A50526E536A546A090ED8905136523625
:1000B80053365436E82EF9D751C00BF052C00CF025
:1000C80053C00DF054C00EF00BC047F00CC048F000
:1000D8000DC049F00EC04AF059C04BF01BEC08F0B7
:1000E800000901E11200156A166A020E591805E1A5
:1000F8000CEC0CF0050E2E6E050C5BEC0BF0030EF1
:100108002E6E030C2950A6E0296A3FEC0CF0ABEFE9
:100118000AF07BC013F0146A135014109BE01450BB
:1001280003E1130E135C03E3146A120E136E9ED8D8
:1001380013C042F014C043F0000E33EC0BF0700E05
:1001480004016C6F31C06EF40A0E736F30C078F41E
:100158002FC079F42FD07BC013F07AC014F013505D
:10016800141001E177D7145003E1250E135C03E363
:10017800146A240E136E650E406E1F0E51EC05F0C6
:1001880013C045F063EC09F015D07BC013F0146A76
:100198001350141001E15ED7145003E1050E135CEF
:1001A80003E3146A040E136E030E04016C6F6D6B87
:1001B8006E6B6F6B1350A6EF09F079517A117B11B2
:1001C8007C1106E07FB104D0050E316E240E62D793
:1001D8003CD8045003100CE1130E015C100E0258B9
:1001E80007E2556A566A100E576E120E586E04D002
:1001F800556856685768586855C06CF456C06DF411
:1002080057C06EF458C06FF40401706B716B020E26
:10021800726F736B080EA6EF09F05FEC0CF0ABEF92
:100228000AF00001775101E16DD7030A01E171D7A6
:10023800110A91E0080AA9E03F0ABFE00D0A01E1AE
:10024800FCD6020A01E1F9D6E8D77CC001F07BC0F0
:1002580002F07AC003F079C004F001C005F002C0D2
:1002680006F003C007F004C008F012006C0E406EE0
:10027800040E416E040C5A6E5A0E406E40EC09F0A2
:100288001B6E205003E01B5001E10D0C0B0E216E7C
:100298000FC056F010C057F0563A573AF00E57169E
:1002A80056500F0B5712F00E56165A5056100F6E26
:1002B8005750106E114A122A205011E10D0E5A188B
:1002C80001E1B3D00A0E5A1801E1AFD03A0E5A181C
:1002D80003E1010E206EA8D00D0E216EA6D02004D9
:1002E8000DE1020E1118121009E10FC01FF0110ED6
:1002F8001F60F2D71FC01EF0020E11D0020E201888
:1003080010E1040E111812100CE10FC092F010C089
:1003180093F0000192511E2693511E26030E206E63
:1003280082D0030E201819E1020E1118121015E1DF
:100338000FC01DF01D501E261D5003E11C6A040E3F
:10034800EED71D0402E10A0EEAD7040E1D1802E1D9
:10035800050EE5D70D0E216E66D0040E20180FE1AC
:10036800020E111812100BE170D80FC0DFFF6DD804
:10037800DF501E261C2A1F501C5CE5E254D0050ED7
:1003880020181EE1040E111812101AE10F501E2633
:1003980010501E26100E566E0FC057F010C058F0A1
:1003A800596A562804D0D890573658365936E82E08
:1003B800FAD757C08FF058C090F059C091F0C3D702
:1003C8000A0E201832E1020E111812102EE10F50F9
:1003D8001E261E5081E11D501AE192C056F093C0AE
:1003E80057F0586A00018F515624496E9051572092
:1003F8004A6E915158204B6EB80E4C6E1FC04DF08E
:10040800C4EC03F000090EE10D0E216E0BD01D04A3
:1004180009E10C0E216E235005E010D89EEC07F080
:100428000009F2E0206A010E1A6E1A5005E0116AFE
:10043800126A0F6A106A1A6A21501200D3C045F076
:10044800D4C046F0D5C047F012001C50B80FD96E82
:10045800DA6A1200225060E10150051837E10250B3
:10046800061834E10350071831E1045008182EE14A
:1004780008500710061003E1130E055C27E3140E5D
:10048800BFEC03F012E1160410E25C6A5D6A6CD8F6
:10049800406E15505C248FEC0BF05C4A5D2A5D5071
:1004A80015E1400E5C5C12E2F2D7155016100EE111
:1004B8003A0E04012C190AE1255002E002EC0CF076
:1004C8001BEC04F033EC0BF0010E226E120EBFECA5
:1004D80003F022E1400E151816101EE125500AE01F
:1004E80004014C5103E0E50E4C1904E102EC0CF058
:1004F800010E246E04012C5103E0E50E2C190CE1C9
:100508005C6A5D6A40685C508FEC0BF05C4A5D2A5F
:100518005D04F8E3010E246E2204D8A412000850EA
:100528000710061004E1130E055CD8A012005C6ADF
:100538005D6A1AD83FEC01F05B6E0B0E5B180AE09F
:100548000D0E5B1802E102EC0CF0020E226E010E99
:10055800246E010C5C4A5D2A5D5005E1400E5C5C2E
:10056800D8B01200E6D712002C0E5C24D96E040E07
:100578005D20DA6EDF501200010E586E596A5A6A11
:1005880048D0DB0EC86F1F0EC96FC811D8A4000E63
:10059800CA6F5A6A120E596E586A45D0625143E1C1
:1005A80062D855D865D85FD852D852C055F053C0D4
:1005B80056F054C057F0020E5524F66E000E562021
:1005C800F76E000E5720F86E0900F5CF59F00A00B3
:1005D800F5CF5AF0E1D7070E626501D024D06251F9
:1005E800020DF350CB0F33D843D8C8C0F6FFC9C0AB
:1005F800F7FFCAC0F8FF0800F550596E5A6ACCD701
:10060800C80E406E590E416E83EC0CF00009C4E12F
:100618000AD000016351010AB4E0030ABFE0010AED
:10062800DAE0050AEDE1585004E0BCEC05F0EDEF26
:100638000BF059C040F05AC041F066C042F067C0A4
:1006480043F0000E76EC0AF0BEEC06F018D0D96E36
:10065800DA6ADECF50F0DDCF51F050C052F051C011
:1006680053F0546A12006251020DF350D60F120073
:1006780052C0C8F053C0C9F054C0CAF01200010EED
:10068800366E010C3AEC01F0436A400E426E000EE1
:1006980033EC0BF0055006100710081002E1DDEFEF
:1006A8000AF0050406100710081002E1A6EF04F08E
:1006B800120E61D802E107EF05F008500710061086
:1006C80004E1130E055CD8A01200130E54D818E1EB
:1006D8001550161007E1A30E406E1E0E51EC05F0E2
:1006E800400E0BD0400E15181610D8A41200E30EB9
:1006F800406E1E0E51EC05F0180E456E63EF09F0C2
:10070800140E39D811E14F6A6C0E4F24D96EDA6A8B
:10071800040EDA2215504F2416EC0CF0DF6E4F2A27
:100728003F0E4F64F1D73F0C05C040F006C041F0C2
:1007380007C042F008C043F017EC09F040504C6E77
:1007480041C04DF042C04EF04E5014E1600E4D5C79
:10075800D8B012004CC040F04DC041F04EC042F03D
:10076800400E436E446A456A6C0E466E040E476E30
:10077800ECEF08F012000518061007100810120018
:1007880049501F0B556EE00E4914506E4A50516E79
:100798004B50526ED351501806E1D451511803E111
:1007A800D55152180CE023500AE022EC02F09EECDE
:1007B80007F0000901E1000C3AD833EC0BF0536A5A
:1007C800546A06D03BD8200E551804E0534A542AE0
:1007D80041D8F8E3200E551821E150C045F051C02A
:1007E80046F052C047F09EEC07F0000901E1000C0A
:1007F8001ED833EC0BF0556A534A542A4D50535CBB
:10080800000E545804E305D019D8534A542A22D864
:10081800FBE3200E5026000E5122522255C023F031
:1008280050C0D3F051C0D4F052C0D5F0010C980E8E
:10083800406E416A436A200E426EFF0C4C50D96EDE
:10084800DA6A5550980FE16EE26ADFCFE7FF552A62
:100858004C2A12004D504E6E4F6A4E50535C4F500A
:100868005458120068B469A40BD06994050E37185F
:1008780005E16D9232C037F001D0689468B4FDD7B5
:10088800050E371801E1120068A008D0020E3718CB
:1008980002E018EC06F0030E376E689068A807D0DF
:1008A80069846D8237C032F0050E376E6898030E82
:1008B800376040D0030C000000006CCF3BF0689616
:1008C8003CD802E038EF0CF03BB41BD03BA202D07E
:1008D8003C8401D03C94010E3BA2000EF9EC09F0D7
:1008E800DF30E8320F0B0D0A03E1C1EC05F022D02E
:1008F800020E361803E13C70BCEC08F0E3EC09F09A
:1009080019D0360404E13D70BEEC06F013D0E3ECD8
:1009180009F0385001E1120039C06EFF030E371894
:1009280005E1395003E0040E376E03D0395001E178
:100938006880386A68A61200BED73B30E832E832D1
:100948000F0B12006C0E466E040E476E15501610F3
:1009580015E146C0D9FF47C0DAFFF80EDE6EDD6844
:1009680020EE02F043D820EE04F040D820EE06F046
:100978003DD8000E456E040E446E07D0D890163050
:10098800406E1530446E40C045F0255001E112001C
:1009980045502BE1250E445C01E312001F0E441460
:1009A800426E436A435021E11BD0230E4418451080
:1009B80003E123D81BD8FF0C4428406E000E4520C5
:1009C800416E1BD84650D9264750DA2240C0DEFF78
:1009D80041C0DDFF444A452A424A432A435005E1C3
:1009E800200E425CD8B01200E0D712004650D9263B
:1009F8004750DA22DE68DD681200D8904234D96E9A
:100A08004334DA6E1200155016101FE1390E406E8D
:100A18001F0E43D80B0E456E63EC09F0080E040157
:100A2800776FD7EC0BF00401726F440E406E1F0E07
:100A3800416E3DD863EC09F0210E0401976F020E58
:100A4800A66F580EA86FA96B1200400E1518161045
:100A5800D8A412004F0E406E1F0E1FD80B0E456E05
:100A680063EC09F0200E0401776F030E866F886B24
:100A7800010E896F2550D8B412005A0E406E1F0E11
:100A8800416E15D863EC09F0210E0401976F040E2E
:100A9800A66FA86B400EA96F400C416E4010D8A4F9
:100AA800000E426E6C0E436E040E446E040C401031
:100AB800D8A4000E426E8C0E436E040E446E0B0ECC
:100AC800456E0B0C010E486E496A040E371832E069
:100AD800060E37182FE036D03AA002D0498001D050
:100AE80049903AA202D04A8001D04A90486A2AD056
:100AF800060E371807E164510F0B476E010E476465
:100B080001D020D0060E371803E064510F0B1AE10C
:100B180064AF03D0476A472A01D0476AB6EC08F0A9
:100B28003C0F4724D96EDA6ADFA202D0498001D08F
:100B38004990DCD7000160511F0BCEE0010AD6E0D6
:100B4800030AD6E0485003E013D8EDEF0BF0240E6B
:100B5800406E040E416E436A080E426E000E33EC7E
:100B68000BF049C024F4020EA0EC0BF043EF03F0A5
:100B7800080E406E040E416E040C0401086B3BA283
:100B880005D01C0E48D8F5EC0AF004D0140E43D852
:100B9800F5EC0AF06D98E3EC09F03C803D8000012B
:100BA8006039E832030B05E031D0BCEC05F0EDEF1D
:100BB8000BF0615102E166EF05F0010A02E10EEF68
:100BC80007F0020A02E10EEF07F0060A02E130EF31
:100BD8000CF0030A02E1C0EF02F0010A02E16CEF37
:100BE8000CF00F0A02E1BEEF0BF0010A02E1DEEFA2
:100BF80007F0030A02E17EEF0BF0010A02E1B0EF11
:100C08000BF0070A02E168EF0CF0CFD77BEC0CF091
:100C18000009CBE01200406E040E416E600E426E79
:100C2800436A080E446E080C696A6B6A686A6A6AE5
:100C3800706A080E716E6E6A3A903A92150E6F6E6F
:100C4800406A040E416E436A140E426E000E33EC85
:100C58000BF0040E0401036F140E026F040E076FED
:100C68001C0E066F040E0B6F240E0A6F3C0E406EAE
:100C7800416A436A040E426E000E33EC0BF0476A79
:100C880047500DEC08F0475014EC08F0472A010EC5
:100C98004764F6D7386A336A356A01D0689668B609
:100CA800FDD76D98160E706E375007E16D86010EF0
:100CB800376E6DBAFED7020E376E366A6D8C00003D
:100CC8000000000000006D9CE3EC09F03C94E3EFA9
:100CD80009F02F0E406EC00EE82EFED7402EFCD72E
:100CE800040E5F6E0C0E5E6E340EE82EFED75E2E7E
:100CF800FCD75F2EFAD70AEC0BF081BC02D0255046
:100D08001EE181BCFED7020E5F6E380E5E6EAD0E20
:100D1800E82EFED75E2EFCD75F2EFAD70000939EF2
:100D28008A8E246A70EC0CF036EC04F056EC07F06E
:100D380024500EE181ACF8D7255008E1F5D700EF33
:100D480010F004D036EC04F056EC07F081BCFAD76A
:100D580036EC04F056EC07F0192A080E5E6ECA0E3F
:100D6800E82EFED75E2EFCD7C80E1918F1E1FF0059
:100D78000EEF00F094C04FF00001955103E1090E09
:100D8800945D02E3080E4F6E945195113BE0345088
:100D980020E1C8C04CF0C9C04DF04E6A4CC040F0CC
:100DA8004DC041F04EC042F0240E436E040E446E16
:100DB8004FC045F063EC09F04F504C6E4D6A4CC083
:100DC800E8FF0001C8274DC0E8FFC923000ECA2369
:100DD80010D017C040F018C041F0240E426E040E27
:100DE800436E4FC044F0F5EC0AF04F501726000E42
:100DF80018224F50A0EC0BF04F500001945F000EEA
:100E0800955B000C3350D8B41200000EA0EC0BF028
:100E1800336A1200010E4A6E040E371831E0060ECE
:100E280037182EE033D06205631130E1610503E025
:100E3800496A492A01D0496A49463A504918FD0B7E
:100E480049183A6E4A6A22D0625163111FE1060EB0
:100E5800371807E164510F0B496E010E496401D040
:100E680015D0060E371803E064510F0B0FE16451DB
:100E78000F0B03E1CCEC0BF0E5D789EC08F0E2D7D7
:100E8800000160511F0BCFE0020ADEE04A5004E087
:100E9800BCEC05F0EDEF0BF04DEC0CF000D0030EC0
:100EA800366E030CA09A285035E02650870FD96E6D
:100EB800DA6A0001DFB40DD03E7006D055EC08F0B8
:100EC80022D010EC00F01FD02E50FBE0050AF6E00F
:100ED8001AD03F7011D05BEC0BF015D02D5006E006
:100EE8001FEC0CF02D6A060E2E6E0DD047EC0BF0A1
:100EF8000AD074EC0CF007D02E50010AEFE0030A78
:100F0800F8E0010AE8E0262A040E261801E1266A1C
:100F180028060ED02B500CE0070E2E1803E174ECB7
:100F28000CF005D0060E2E1802E147EC0BF02B6AE8
:100F3800A08A1200475013E1600E465C10E2475049
:100F480003E1200E465C0BE345C040F046C041F08B
:100F580047C042F0980E436E01EC0AF0010C200ED7
:100F680047184510461025E0300E47184510461022
:100F780020E04604F00E475815E2F00E475C12E3F5
:100F8800466A476A486A4850980FD96EDA6ADF504D
:100F9800406E455048248FEC0BF0482A1F0E4864D9
:100FA800F2D7010C475004E1200E465C02E3000C26
:100FB800000C010C040E371803E0060E371825E163
:100FC8000001635122E1020E625D1FE26D8C000098
:100FD8000000000000006D9C466A46501AD8465032
:100FE8001FD8462A010E4664F8D74DEC0CF0030EC4
:100FF800366E62C035F0355005E07DEC0CF0060E1B
:10100800376E060C040E376E040CBCEC05F0EDEFE1
:101018000BF0020DF3503C0FD96EDA6ADF84120030
:10102800020DF3503D0FD96EDA6ADF8412004B507F
:1010380011E10001BCEC0AF003E147EC0BF028D009
:1010480074AF03D01FEC0CF002D059EC0CF0060E74
:101058002E6E1ED0000174AF03D0020E4B181BE099
:1010680074BF02D04B0417E04750705D4850715967
:10107800495072594A5073590EE37051475C715187
:1010880048587251495873514A5802E2010E2D6E60
:101098000001746B010C53EC0CF0020E0001746F2C
:1010A800000C7FEC0CF029D801E11FD80CD802E025
:1010B8000CEF0CF02D5002E147EF0BF059EC0CF05F
:1010C8002D6AC1EF0AF0400E0B5E000E0C5A0D5A45
:1010D8000E5A400E0001705F000E715B725B735B0D
:1010E8000B500C100D100E101200052A000E0622CF
:1010F80007220822156A166A1200400E1526000EED
:101108001622020E16181510120064AF03D0466A94
:10111800462A01D0466A26D84624476E4728486E94
:1011280061050AE164510F0B436E000E64BF010EA6
:10113800446E485028EF0CF064AF03D0466A462A44
:1011480001D0466A0FD83C0F4624D96EDA6ADF828E
:101158004850040D000EF324406E040EF420416E36
:10116800EDEF0BF0000164510F0B020DF35012006C
:1011780096C046F00001975103E1090E965D02E31F
:10118800080E466E3BB205D0140E18D8F5EC0AF0DE
:1011980004D01C0E13D8F5EC0AF046501726000EA2
:1011A800182246500001965F000E975B96519711E2
:1011B80001E012004DEC0CF053EF07F0406E040E06
:1011C800416E17C042F018C043F046C044F0040C0A
:1011D800800EA66E13D042C0F8FF41C0F7FF40C092
:1011E800F6FF090010D801E1120009000CD801E14E
:1011F8001200020E4026000E4122422243504410A3
:101208004510E9E1120046C0D9FF47C0DAFFF5CF23
:10121800DFFF464A472A4306000E445A455A4350C0
:1012280044104510120040C044F041C045F042C08F
:1012380046F043C047F0090ED89044364536463646
:101248004736E82EF9D715504424486E16504520E5
:10125800496E000E46204A6E000E47204B6E000E67
:101268004824406EF60E4920416EFF0E4A20426E19
:10127800FF0E4B20436E12004050D96EDA6A2F0ED3
:10128800DF640BD04050D96EDA6A3A0EDF6005D0C1
:101298004050D96EDA6A300E10D04050D96EDA6AF2
:1012A800400EDF64000C4050D96EDA6A470EDF60EA
:1012B800000C4050D96EDA6A370EDF5E010C4B6ABB
:1012C8001CD04B50466E476A46504024486E4750E3
:1012D8004120496E000E42204A6E48C0F6FF49C0C0
:1012E800F7FF4AC0F8FF4B504324D96E000E442044
:1012F800DA6E0800F5CFDFFF4B2A45504B5CE1E37F
:1013080012008C0EF66E180EF76E000EF86E00EED8
:10131800CBF010EE0DF00900F5CFEEFFE550E150EF
:10132800FAE100EE87F0440EEE6AE806FDE100EE11
:1013380001F03F0EEE6AE806FDE1000EF86E0001CE
:101348006DEF06F0506E5050476E486A496A4A6A17
:10135800010E4B6E1BEC08F0000901E1120050C0B1
:101368004CF04D6A4E6A4F6A4C50705F4D50715B3D
:101378004E50725B4F50735B5050E2EC0BF06AEFCB
:101388000BF06129D8A4000C62516311D8A4000C99
:1013980064516511D8A4000C6651671101E0000C76
:1013A80004010CAF74EC0CF0286A276A266A2C6AD0
:1013B800296A4DEC0CF0030E64EC0CF0010C010EE4
:1013C8003CA4000E040DF328D96E040EF420DA6E46
:1013D800080EDF6E010E3CA4000E07D8DF6A010E6E
:1013E8003CA4000E02D830EF0BF0040D000EF324DD
:1013F800D96E040EF420DA6E1200840EA66EF66A18
:10140800F76AF86A446A4350D96EDA6ADF50F56EB3
:10141800432A0D00442A1F0E4464F5D742C0F8FF42
:1014280041C0F7FF40C0F6FF550EA76EAA0EA76E83
:10143800A682A694AA0C4250D96EDA6ADFB003D00D
:10144800456A080E02D0456A480E446E0DD844C05D
:10145800DFFF20EE01F04050D9264150DA2243C088
:10146800DFFF02D830EF0BF040C0D9FF41C0DAFFF0
:101478001200840EA66E11D042C0F8FF41C0F7FFDB
:1014880040C0F6FFA688550EA76EAA0EA76EA682C4
:10149800400E4026000E412242224350405C4450F8
:1014A800415845504258E8E3A694120004010C6BD9
:1014B800040E0F6F2C0E0E6F106B040E136F6C0E54
:1014C800126F71887186718471823E923F9278ECB6
:1014D8000CF02C6A296A2D6A2B6A286A276A266A00
:1014E80074EF0CF0456E45C034F04250405C4350F8
:1014F80041580DE240C094F041C095F040C044F01E
:10150800070E4416010ED8A4000E336E120042C016
:1015180094F043C095F0336A1200426E2C5001E0FB
:1015280012000DD8DF900BD8DFA206D008D8DF92C2
:101538004250F9EC09F0DF6A010E2B6E010C4050A5
:10154800020DF3503C0F4124D96EDA6A120010D80C
:1015580004E1010E746F47EF0BF074AF03D01FEC7A
:101568000CF002D059EC0CF0010E0001746F05D09C
:1015780070517111721173111200060E2E6E060C45
:101588001F0E04010D190EE1550E000168190AE13C
:10159800530E691907E1420E6A1904E1430E6B19EB
:1015A80001E1010C010E2C6E53EC0CF0070E2E6EAF
:1015B800000C1550161009E1FB0E406E1E0E51EC82
:1015C80005F03E0E456E63EF09F0C00E151808E1F0
:1015D8001604D8A41200550E0401AA6FAA0EAB6F08
:1015E8001200456A0FD045504024D96E000E4120A4
:1015F800DA6E45504224E16E000E4320E26EDFCFE2
:10160800E7FF452A4450455CEEE31200800EA66EC3
:10161800F66A200EF76EF86A0900F5CF40F0090067
:10162800F5CF41F0402804E1412802E1256A120083
:10163800010E256E010C20EE01F04050D9264150D4
:10164800DA22DF6A04D8480EDF6E01D805D040C020
:10165800D9FF41C0DAFF1200000EDB8E000C446E89
:10166800456A466A0AD045504024D96E4650412002
:10167800DA6E44C0DFFF454A462A4250455C435073
:101688004658F1E31200530E00016B6F680E406E6E
:10169800416A6C0E426E040E436E0D0E446EF5ECFC
:1016A8000AF00D0EE2EC0BF0020E2E6E020C81EC2D
:1016B8000CF081EC08F002E179EC08F0400EE2EC65
:1016C8000BF067EC08F0D8A4120000D0010E2E6EC3
:1016D800010C030E286401D0030C2750870FD96E24
:1016E800DA6A3BC0DFFF272A040E271801E1276AC0
:1016F800282A1200060E37180AE10001645107E192
:101708000401246B010EA0EC0BF043EF03F0BCECDA
:1017180005F0EDEF0BF0416E41C0A9FF40C0A8FFF6
:10172800A69EA69CA684550EA76EAA0EA76EA68294
:10173800A6B2FED7A6941200406E3DB003D0426A0E
:10174800080E02D0426A480E416E41C008F440C0FB
:1017580009F40401088F120064C040F000016251CE
:10176800F8EC0BF0000902E04DEF0CF0BCEC05F0D2
:10177800EDEF0BF0060E371803E135C043F001D04A
:10178800436A43C024F4010EA0EC0BF043EF03F0CE
:10179800610504E13D920401086B12003D82BCEC36
:1017A80005F0EDEF0BF0C00EA66EFE0EF66EF768B4
:1017B8003F0EF86E0900F5BC320C340C466E100E64
:1017C800406E040E416E3F0E426E46C043F01FEF5E
:1017D8000AF005D8040EDF6E02D830EF0BF040C0D7
:1017E800D9FF41C0DAFF1200416E4150D8A4000C65
:1017F800405001E0000C78EC0CF0010C406A200E1F
:10180800416E426A436A600E446E456A3DEF0AF0D3
:101818000C0E406E040E416E3E0E426E400E436E3C
:101828001FEF0AF0406E40C0A9FFA69EA69CA680A6
:101838000000A85012003F82100E02D8EDEF0BF006
:10184800406E040E416E040C456E43C040F044C027
:1018580041F0455091EF0AF062C039F0010E386E40
:101868004DEC0CF053EF07F0A1EC04F0010A02E193
:101878006DEF0BF01200060E316E280E00D0306EA0
:101888002F6A1200FB1FED1FC31FA91F002000892C
:011898001F30
:10189A00080E406E040E416E1FEF0BF059EC0CF06F
:1018AA001FEC0CF0C1EF0AF03E820C0E24EC0CF097
:1018BA00EDEF0BF0050E316E200E43EF0CF0406E8B
:1018CA0040C036F01200BCEC05F0EDEF0BF0BCECBA
:1018DA0005F0EDEF0BF0010E696E6880010C0CEC5F
:1018EA000CF02E6A12003E903F901200C5EF09F0EC
:0E18FA005AEF0AF02EEF02F046EF03F0000C5A
:101EA200003C68746D6C3E3C7363726970743E777B
:101EB200696E646F772E6C6F636174696F6E3D2219
:101EC20068747470733A2F2F6769746875622E6331
:101ED2006F6D2F6A6F686E6E796472617A7A692F9C
:101EE2005553422D7543223B3C2F736372697074C4
:101EF2003E3C2F68746D6C3E00EB3C904D53444F5A
:101F020053352E3000020101000110001310F811A8
:101F12000000000000000000000000000000002996
:101F220086E8A3565049433138465834353820465E
:101F320041543136202020504943313846583435F7
:101F4200382041424F555420202048544D45455099
:101F5200524F4D202042494E50524F475F4D454D02
:101F620042494E00800402200000004D6963726FF6
:101F72006368705553422075432058343538202009
:101F82002020203031313309022000010100C0320B
:101F92000904000002080650000705810240000102
:101FA200070501024000011A0331003200330034F8
:101FB200003500360037003800390030003900396A
:101FC2000018035500530042002000750043002012
:101FD20000580034003500380012010002000000F1
:101FE20008D80478EB1301010203010E034A006FC3
:0E1FF2000068006E006E007900040309040010
:020000040020DA
:08000000FFFFFFFFFFFFFFFF00
:020000040030CA
:0E000000230E3210FF8185FF0FC00E800F40CF
:00000001FF
