:040000000EEF00F00F
:0400080004EF12F0FF
:100018000CEF12F028EF0EF0166A176AFAD8DF6AAA
:10002800164A172A020E175CF9E304510511061146
:10003800071114E1240E126E230E136E166A176A46
:10004800EFD8E7D8F9D803E13E0E165CF9E3550E70
:10005800E8CFE1F3AA0EE8CFE2F3AA0C04050511F4
:100068000611071161E1F80EE8CFE3F1FF0EE8CFC2
:10007800E4F1E8CFE5F1E8CFE6F10F0EE8CFE7F1DC
:10008800E4D804E10900F528D8B41200156A030E73
:10009800146E176A040E166E14A019D0BAD80F0E73
:1000A800DF161450100DF3CF0BF0100E0B26B1D83D
:1000B8000B50DF12BAD8D4D8040E0D6ED8900C327B
:1000C8000B320D2EFBD70B50DF6ED0D80FD0A1D836
:1000D8001428DF6EAAD8F00EDF16C2D80CC00BF0B9
:1000E8000C6AA3D80B50DF12164A172A144A152A8D
:1000F800155003E1F00E145CCFE314A00AD089D8A0
:100108000F0EDF1686D8F00EDF128FD8DF68AED854
:10011800000C7FD8DF6889D8F00EDF1686D80F0E5E
:10012800DF12164A172A0F0C030E95D81FE1C40ECA
:10013800126E220E136E89D803E10900F5280CE02F
:10014800166A176A6DD865D877D805E1600E165C0F
:10015800D8B01200F7D71200166A176A61D859D8B2
:100168006BD856E1400E165CF9E3120007510611F0
:10017800051104E1040E045DD8A01200040E6BD82A
:100188001CE1166A176A4B0E1624F66E220E17200B
:10019800F76E3FD80800F5CFDFFF164A172A175029
:1001A80003E1710E165CEFE3020E175C01E3120027
:1001B80030D8DF6A164A172AF7D704C101F005C1FB
:1001C80002F006C103F007C104F086EC0FF001C08D
:1001D8000EF002C00FF003C010F004C011F011506F
:1001E80017E1020E105CD8B012000EC001F00FC06B
:1001F80002F010C003F011C004F0056A020E066E8A
:10020800076A086AE30E096E010E0A6EA6EF0DF082
:100218001200E30E1624D96E010E1720DA6E1200B2
:1002280012C0F6FF13C0F7FF1200E40E1624D96EB1
:10023800010E1720DA6E12000800F5CFDFFF124A10
:10024800132A164A172A17501200F66A240EF76E58
:100258000900F528120004190511061107111200EA
:1002680014280B6E000E15200C6E1200020E1626B6
:10027800000E1722000C1F6E0101265101E1DBD090
:100288001F0E016E9CEC0EF0000901E0D4D00101B4
:10029800266B0D0C0D0E1F18D8B40B0C0A0E1F1868
:1002A80001E10B0C3A0E1F18F2E1236B156B020EDD
:1002B800146F256B010E266F0B0C2539F00B1F10E0
:1002C800256FDBD8D8A40B0C100E256501D0DFD71D
:1002D80025512327156B040E146F186B196B020E2A
:1002E800EAD718C11BF019C11CF0BBD8186F1C50F5
:1002F800196FC3D8D8A40B0C1951232718512327D9
:10030800156B020E146F226B030ED5D7B6D8D8A47E
:100318000B0C1FC022F12251232710D0156B020E9F
:10032800146F216B206B040EC6D7BAD829D0156B71
:10033800040E146F166B176B050EBDD72251EEE035
:10034800010AF3E0050AF3E0A2D7A4D805E11FC02B
:1003580020F1203BF00E201714511511D8A40B0CD6
:100368001F50201390D820C1DFFF8DD8DF502327DE
:10037800212B156B020E146F25512119D8A40B0CD3
:10038800246B0A0E98D716C11BF017C11CF069D848
:10039800166F1C50176F71D8D8A40B0C1651232751
:1003A80016511B6E17511C6E1D6A1E6A1CC01EF06A
:1003B8001BC01DF01C6A1B6A1BC008F11CC009F198
:1003C8001DC00AF11EC00BF16BD8DAD763D805E15E
:1003D8001FC024F1243BF00E241714511511D8A482
:1003E8000B0C1F50241324512327235101E04FD70E
:1003F8001AD0185108250E6E195109210F6E000EDA
:100408000A21106E000E0B21116EA30E126E010E42
:10041800136E25C114F0A7EC05F0000901E137D7E8
:1004280007D0266B0C0C2251E4E0010AFAE0050A19
:100438000101266B0B0C0101265101E12BD7010AA2
:1004480001E13BD7030A01E14CD7010A01E15ED77C
:10045800070A01E17AD7010A96E00F0AD8A40B0C23
:10046800B5D71B3A1C3AF00E1C161B500F0B1C126A
:10047800F00E1B161F501B1012001407D8A01507EA
:10048800145115111200A30E2125D96EDA6A010E36
:10049800DA2212001407D8A0150714051511120046
:1004A800156B020E146F020C700E016E026A720E4A
:1004B800036E010E046E100E056E0BEC10F051EC7D
:1004C80010F0000903E16FEC10F0040C76C1B7F1ED
:1004D80077C1B8F178C1B9F179C1BAF1BED0D2D833
:1004E80031EC0DF0E0D8056ECDEC07F0E2D81C0E2B
:1004F800221418E0100E2218211003E01D6A1E6A4B
:1005080003D01E6A020E1D6E1DC0BFF101011A6BD9
:100518001B6BD3EC0BF0400E076E26EC0FF00101BD
:10052800C071030C040E21182210CDE1C7D0AAD83F
:1005380031EC0DF0B8D8010E056ECDEC07F0B9D846
:1005480021C01CF0700E1C1613E0400E211822105A
:1005580003E01F6A206A03D0206A020E1F6E1FC0C4
:10056800BFF116EC0CF0A3EC10F0E0EC0BF0020C71
:10057800020E21182210DAE0A6D7A3EC0FF05DD006
:10058800910E016E010E63EC0FF0120E056E0BEC6E
:1005980010F0120E4CD083C01EF182C01FF11F5103
:1005A80003E1250E1E5D03E31F6B240E1E6F620E12
:1005B800016E230E026EB00E036E046A1EC105F0B2
:1005C800DCEC0FF01EC10BF01FC10CF00D6A0E6AB7
:1005D80053EF09F0030E0001B06FB16BB26BB36B50
:1005E800040E25D00001815182118311841102E08B
:1005F80087A169D747D801010351021105E1AC0E63
:10060800005D020E015906E30001B069B169B269E3
:10061800B36907D00001B06BB16B020EB26FAB0EBD
:10062800B36FB46BB56B020EB66FB76B080E0B6E7B
:100638000C6A0D6A0E6A53EF09F0000EC0EF0FF056
:10064800805108E07EAF03D0010E46EF0DF0020E98
:1006580046EF0DF0000E46EF0DF081518EE0030AD3
:100668008FE0110A98E0080AB5E0010AE6E03E0AC0
:10067800B9E00D0A01E15BD7020A01E130D7050AAA
:10068800DCE0DED784C000F183C001F182C002F152
:1006980081C003F100C104F101C105F102C106F1F5
:1006A80003C107F11200016A020E026E036A046AAE
:1006B800020C01C021F002C022F01200020E01015A
:1006C800BF6F010CE3D065BAFED7010E0001FE6FC3
:1006D800010C020EFE6F020C62A0FED762900EEFB4
:1006E8000DF062B0F6EF0FF087EC10F025EC0BF090
:1006F800FF6FFF0501E11200FF5102E068EC0FF007
:1007080000016151050A02E1E5EF0CF0030A02E17C
:10071800B0EF07F090EF10F062B0F6EF0FF087EC53
:1007280010F025EC0BF0FF6FFF0501E11200FF51FF
:1007380002E068EC0FF00001615102E1DAEF06F027
:10074800010A02E1F5EF08F0020A02E135EF08F0CC
:10075800060A02E1E5EF0CF0030A02E1B0EF07F048
:100768000E0A02E166EF0BF0010A02E1E2EF0EF079
:1007780090EF10F062B0F6EF0FF062B615D00101FD
:10078800E25104E087EC10F00101E26B2B5105E027
:1007980004EC0FF0000901E02B6B62CFFBF0030EB5
:1007A8000001FB17D8B4030C62A206D065986296C4
:1007B800020EFF6F68EC0FF062A064D05EEC0BF0E5
:1007C8000001FF6F010C64B468EC0FF00D0161ECDF
:1007D8000BF002E068EC0FF00D0104BF046B57EC5E
:1007E8000BF06039E832030BE8062DE1A4EC0BF0BE
:1007F8000001FF6FFF0501E11200FF5139E068ECCD
:100808000FF036D0DAEC06F033D0F5EC08F030D043
:1008180035EC08F02DD05BEC07F02AD09FEC10F0F7
:1008280027D066EC0BF024D0E2EC0EF021D081EC5E
:100838000CF01ED09DEC10F01BD09BEC10F018D0E3
:1008480090EC10F015D06151DDE0010ADEE0020AFB
:10085800DFE0050AE0E0010AE1E00F0AE2E0010A50
:10086800E3E0030AE4E0010AE5E0070AE6E0E8D786
:10087800010E0101E26F010C96EC08F0010E010176
:100888002B6F010C52EC0BF09EE0F6D70001FE51E5
:1008980001E119D7010A01E11CD7030A01E11CD7BC
:1008A800010A01E11ED7070A01E136D7010A01E171
:1008B80061D71200275169E1005104194EE1015135
:1008C80005194BE10251061948E10351071945E1A1
:1008D80007510611051103E1040E045D3EE3E30E22
:1008E8004D6E010E4E6E4DC0D9FF4EC0DAFF3A0E66
:1008F800DE1833E14F6A506A500E036E030E78D843
:1009080050EC0EF0000901E112004F0E036E050EC7
:100918006FD850EC0EF0000901E11200240E5018B7
:100928004F101BE104C110F105C111F106C112F10C
:1009380007C113F11AEC0CF061D8320E5124D96EAC
:10094800010E5220DA6EDF684BD8521003E1400ED8
:10095800515CF3E3010E0101276F030E01012FEC37
:1009680001F013E1050E10191111121113110DE107
:1009780022EE23F0DF5004E023C2E8FFE50A05E198
:100988001AEC0CF0010E01012A6F0751061105112E
:1009980004E1040E045DD8A012002705D8A41200B3
:1009A8002DD8E30E5124D96E010E5220DA6EDF5095
:1009B8003FEC01F04C6E0B0E4C180AE00D0E4C1873
:1009C80002E11AEC0CF00101276B010E2A6F010CF1
:1009D80007D805E1020E525CD8B01200E2D7120027
:1009E800512A000E522253225422545053101200FE
:1009F8004D24046E000E4E20056E1200516A526A94
:100A0800536A546A1200F0C0F6FFF1C0F7FFF2C053
:100A1800F8FF0800F5CF5BF0F3515B5C5E6E5D6A32
:100A28000101C2815E505B6E5C6A0001F4515B5C3F
:100A3800F5515C5805E25EC0F4F0F56B010E5D6E91
:100A4800F351010DF350F027F450F123000EF22377
:100A580015D05F6A57D8070E5F64FCD747D8D6EC25
:100A680006F078EC0EF0B3EC0CF0FF6FFF5102E0EB
:100A7800FF511200080EF45F000EF55BF551E9E135
:100A8800090EF45DE6E2080EF419F5111BE15F6A40
:100A980001D038D84BD8FDE329D850D878EC0EF0DF
:100AA800B3EC0CF0FF6FFF51E3E15D5017E01ED887
:100AB800086A076A78EC0EF0B3EC0CF0FF6FFF5190
:100AC800D7E10CD05F6A01D01DD830D8FDE30ED82D
:100AD80035D878EC0EF0B3EC0CF0F0D7AFEC0CF0A6
:100AE80060EC10F0D3EC0DF0FF6FC2D7040E016E6E
:100AF8000D0E026EC20E036E010E046E066A680EBB
:100B0800056E680CF0C0F6FFF1C0F7FFF2C0F8FF01
:100B1800680E5F24D96EDA6A000EDA220800F5CF73
:100B2800DFFFF02BF123F2235F2A000C5F505B6E8E
:100B38005C6AF4515B5CF5515C581200F4C007F034
:100B4800F5C008F012000E503F0B286FC00E0E14AF
:100B58000C6F0F500D6F10500E6F11500F6FDB514F
:100B68000C1909E1DC510D1906E1DD510E1903E1FB
:100B7800DE510F191DE0DBC108F0DCC109F0DDC151
:100B88000AF0DEC10BF0A1EC0AF0000901E1000C4B
:100B9800196A1A6A320E1924D96E010E1A20DA6EF1
:100BA800DF68194A1A2A1A5003E1400E195CF2E369
:100BB800196A1A6A0AD05ED801014BD8124A132A58
:100BC800400E281904E0194A1A2A4CD8F4E3400EBA
:100BD8000101281935E10CC108F00DC109F00EC159
:100BE8000AF00FC10BF0A1EC0AF0000901E1000CBA
:100BF800176A186A320E1724D96E010E1820DA6E99
:100C0800DF68174A182A185003E1400E175CF2E310
:100C18000101286B194A1A2A1450195C000E1A5837
:100C280007E308D027D815D8124A132A194A1A2ACE
:100C380019D8F8E3400E0C27000E0D230E230F23BE
:100C48000CC1DBF10DC1DCF10EC1DDF10FC1DEF12C
:100C5800010C2825E16EE26A010EE222DFCFE7FFF0
:100C6800282B12001450156E166A1550195C165070
:100C78001A58120012C0D9FF13C0DAFF320E120040
:100C8800F16F860E0001F36F230EF46F880EF66E77
:100C9800230EF76E0800F5CF5DF0F1515D5CF26F41
:100CA800F06B0101C2810001F25170D805E2F2C077
:100CB8005BF05C6A010EF06FF151010DF350F32700
:100CC800F450F42315D0F56B50D8070EF565FCD712
:100CD8007AEC05F067D878EC0EF0B3EC0CF0FF6F07
:100CE800FF5102E0FF511200080E5B5E000E5C5AD5
:100CF8005C50E9E1090E5B5CE6E2080E5B185C10EB
:100D08001EE1F56B01D031D8F55140D8FCE37AECFF
:100D180005F043D878EC0EF0B3EC0CF0FF6FFF5100
:100D2800E1E1F0511AE07AEC05F0086A076A78EC1C
:100D38000EF0B3EC0CF0FF6FFF51D4E10ED0F56B61
:100D480001D013D8F55122D8FCE37AEC05F025D868
:100D580078EC0EF0B3EC0CF0EED7AFEC0CF060ECE6
:100D680010F0D3EC0DF0FF6FBDD7F3C0F6FFF4C061
:100D7800F7FF680EF525D96EDA6A000EDA22080048
:100D8800F5CFDFFFF34BF42BF52B000C5D6E5E6A9D
:100D98005B505D5C5C505E5812005BC007F05CC045
:100DA80008F01200086A080E076E080C010E5B6E48
:100DB8005C6A680E5C249BEC0AF05C2A070E5C6493
:100DC800F8D7040E0001FE1947E0050EFE1944E0AD
:100DD8004AD0010131A103D00001688102D000018D
:100DE8006891010131A303D00001698102D000019B
:100DF80069915B6A38D0040EFE1928E164510F0B23
:100E080032E164BF08D00101C2A303D000016881A8
:100E180001D019D0EED70101C2A503D00001688125
:100E280001D011D0E6D764BF08D00101C0A303D018
:100E38000001688101D007D0DCD70101C1A303D02C
:100E48000001688102D000016891D3D764510F0B6B
:100E5800D8E0010AE8E007D060511F0BBAE0010AA8
:100E6800C8E0030AC8E05B5002E090EF10F07AECAB
:100E780005F0086A020E076E78EC0EF0B3EC0CF081
:100E8800FF6FFF0501E11200FF5102E068EC0FF06F
:100E9800AFEC0CF060EC10F0D3EC0DF0FF6FFF0539
:100EA80001E11200FF51D8A468EC0FF0120054D0F1
:100EB800030EFE1907E15DD8F56B080EF46F07EC19
:100EC80005F004D056D860D807EC05F0FF6FFF0591
:100ED80001E11200FF51D8B4120068EF0FF066C0AC
:100EE8005BF067C05CF0000E44EC06F0FF6FFF0596
:100EF80001E11200FF5102E068EF0FF012006251A9
:100F0800020DBC0EF324F66E220EF420F76E0900D3
:100F1800F5CFF6F00900F5CFF7F0F6C0F8F0F7C016
:100F2800F9F0FA6BF8C0F0F0F9C0F1F0FAC0F2F09D
:100F3800F36B2AD807EC05F0FF6FFF0501E11200FB
:100F4800FF5102E068EF0FF01200A5EC10F0000965
:100F580002E190EF10F0120000016351010AA8E0CD
:100F6800030ABDE0010ACBE0050A02E190EF10F0A8
:100F7800ECD7DA0EF06F230EF16FF011D8A4000E43
:100F8800F26F62C0F3F0120066C0F4F067C0F5F0CB
:100F980012004DD057D803E1076A010E46D07EAF44
:100FA80003D0076A080E41D0010E39D04BD803E1AF
:100FB800076A020E3AD07EAF17D001507A190CE1B9
:100FC80002507B1909E103507C1906E104507D1990
:100FD80003E1076A200E29D03BD803E2076A100E06
:100FE80024D0076A400E21D0020E19D02BD803E175
:100FF800076A040E1AD07EBF16D001507A190BE189
:1010080002507B1908E103507C1905E104507D1951
:1010180002E1080E04D01CD8040ED8B0100E076EDA
:10102800000E066A0AD0076A800E066E06D00550C2
:10103800B1E0010ABBE0030AD9E006C001F007C02D
:1010480002F0120001017A517B117C117D1112000E
:101058007A51015C7B5102587C5103587D510458E8
:101068001200010E5B6E040E0001FE1937E0050E3A
:10107800FE1934E039D0620563113DE10101318385
:1010880017D06251631137E1040EFE1921E1645152
:101098000F0B31E164BF08D00101C2830D01016B60
:1010A800040E006F008F04D00101C28592EC10F08D
:1010B8005B6A21D064BF06D001016AEC0DF07CECBC
:1010C80010F0F6D7010170EC0DF07CEC10F0F0D7C1
:1010D80064510F0BDFE0010AEDE00DD060511F0BEA
:1010E800CAE0020ACEE007D060511F0B04E1020EED
:1010F80062196311DDE05B5002E090EF10F00DD84B
:1011080060EC10F0FEEC0DF0FF6FFF0501E112003E
:10111800FF51D8A468EC0FF01200040E016E0D0EFA
:10112800026E0D0C4ED0629658EC02F0596E11D03A
:10113800010E2C6F010C48EC0FF0020E2C6F020C04
:10114800030E2C6F030C040E2C6F040C050E2C6F71
:10115800050C5950EDE0010AEEE0030AF1E0010A3E
:10116800F2E0070AD8A41200F1D762962E5108E0DF
:1011780070EC0DF07CEC10F0010E306F2E6B12004D
:101188002D51D9E06AEC0DF07CEC10F0010E2F6FB8
:101198002D6B12006296D3EC0BF01F0E076E26EC37
:1011A8000FF00101C0712C6B12006296E0EC0BF09D
:1011B8000009BEE1120062960EEC0AF00009BBE1DC
:1011C800120001012C51AFE0010ACFE0030AE2E06E
:1011D800010AEBE0070AEFE0010A02E068EF0FF00E
:1011E8001200010E5B6E040E0001FE1930E0050EC0
:1011F800FE192DE031D0620563112EE10101319312
:1012080016D06251631128E1040EFE191AE16451E7
:101218000F0B22E164BF03D00101C29308D0010182
:10122800C291C2957B0E0D010417480E04135B6A28
:1012380013D064BF03D001012AD8F9D701011FD800
:10124800F6D764510F0BEBE0010AF3E005D06051CB
:101258001F0BD1E0020AD5E05B5002E090EF10F0DE
:1012680091EC08F060EC10F0FEEC0DF0FF6FFF055C
:1012780001E11200FF51D8A468EC0FF01200C191EF
:10128800C1937B0E0D010C17480E0C13480CC0912E
:10129800C0937B0E0D010817480E0813480C0BC0AD
:1012A80001F00CC002F00DC003F00EC004F0010EF6
:1012B800056ECDEC07F001C00FF002C010F00FC0B2
:1012C80001F010C002F00BC003F00CC004F00DC018
:1012D80005F00EC006F016EC0DF0200E0F181010D9
:1012E80008E12AD835D826EC0FF00101C171BF6B8F
:1012F800000C100E0F18101009E11ED829D826EC82
:101308000FF00101C171010E2E6FF1D7400E0F18B9
:10131800101009E111D81CD826EC0FF00101C17199
:10132800020EBF6F000C020E0F18101002E162EFE0
:1013380003F06FEC10F0040C0C0E016E0D0E026E33
:10134800C10E036E010E046E066AB00E056EB00C77
:101358000BC007F00CC008F012009B8C2F0E000188
:10136800FC6FBF0EE82EFED7FC2FFCD700D081BC47
:1013780006D029EC01F049E10900F52846E181BCD5
:10138800FED78A9E939EE4EC0AF041EC10F05BECE9
:101398000AF066EC03F001012A5115E01C4B1D2BE5
:1013A800100E0001FC6F940EE82EFED7FC2FFCD720
:1013B80000F0B80E01011C1906E10B0E1D1903E11E
:1013C80020EC10F0FF0081ACE4D7070E0001FD6FA0
:1013D800170EFC6F6A0EE82EFED7FC2FFCD7FD2FE8
:1013E800FAD700F081BCFED7070E0001FD6F170E7B
:1013F800FC6F6A0EE82EFED7FC2FFCD7FD2FFAD71C
:1014080000F020EC10F0FF00C4D79B9C00EF12F016
:101418000EEF00F0576A586A700E5724D96E000E06
:101428005820DA6EE30E556E010E566E575055264B
:101438005850562201011A515524E16E1B5156206D
:10144800E26EDFCFE7FF574A582A585003E1400EB3
:10145800575CE2E31ED806E1A1EC10F0010121D8A7
:101468001A6B1B6B0BD801E1010CD3EC0BF0400E8F
:10147800076E26EC0FF00101C071000C400EBB5F37
:10148800000EBC5BBD5BBE5BBB51BC11BD11BE1188
:101498001200400E1A27000E1B23020E1B191A11E8
:1014A8001200042B000E052306230723000C2BEC47
:1014B80010F03989398539913993386B24EC10F05B
:1014C8003683036A600E032432D8032A070E0364A6
:1014D800F9D7036A680E03242AD8032A070E03647F
:1014E800F9D70D01006B036B600E026F046B076B7D
:1014F800680E066F0F012689269726852683010127
:1015080031913193C291C293C29598EC10F076EC68
:101518000DF00001FE6B010E01012B6FE26F306BC5
:101528002F6B2E6B2D6B65860F0139891200D96ED2
:10153800DA6A000EDA22DF6A000C0B5035E1020E7F
:101548000A5CD8B0000C0B500A1004E1240E095CA8
:10155800D8A0000CC00E081818E1092816E10A04E2
:101568000B1013E10D6AD30E0D24D96EDA6A010E41
:101578001CD8DF12CB0E0D24D96EDA6A010E15D8ED
:10158800DF160D2A070E0D64EED708C001F009C05A
:1015980002F00AC003F00BC004F0320E056E010E13
:1015A800066E4EEC0CF0010C000CDA22DF500C6ECB
:1015B8006A0E0D24D96EDA6A010EDA220C50120076
:1015C8008A8E070E026E170E016E6A0EE82EFED77F
:1015D800012EFCD7022EFAD700D08A9E040E026E86
:1015E8000C0E016E340EE82EFED7012EFCD7022E0B
:1015F800FAD78A8E070E026E170E016E6A0EE82E53
:10160800FED7012EFCD7022EFAD700D08A9E040EF0
:10161800026E0C0E016E340EE82EFED7012EFCD79A
:10162800022EFAD78A8E070E026E170E016E6A0E08
:10163800E82EFED7012EFCD7022EFAD700D08A9EBC
:10164800120005D062CF01F0030E011602E162A676
:10165800F9D704BF046B62A204D065986296020EA3
:1016680019D062A002D026D815D018D804E0659801
:101678006296030E0FD064A404D065986296040E97
:1016880009D01BD804E065986296050E03D00BD8E4
:10169800FF5112000001FF6FFF5112006430E83261
:1016A800E8320F0B12000101C281629665980001B1
:1016B800FF6B120065986296010C0031E8320F0B3F
:1016C8000D0A1200010E5B6E5C6A680E5C249BECCE
:1016D8000AF05C2A070E5C64F8D706D0686B02D063
:1016E800010E686F5B6A06D00001FE51040AF6E03D
:1016F800010AF6E05B5002E090EF10F07AEC05F09A
:101708001BD878EC0EF0B3EC0CF0FF6FFF0501E18D
:101718001200FF5102E068EC0FF0AFEC0CF060EC47
:1017280010F0D3EC0DF0FF6FFF0501E11200FF513F
:10173800D8A468EC0FF01200086A010E076E010CBD
:101748005B6AFE0E611903E190EC10F026D0612966
:1017580022E10D0108BF07D00101C07120D81F0E7A
:10176800076E26EC0FF00101C0A304D04BEC09F082
:1017780001012F6BC1A304D043EC09F00101306BC8
:10178800010E2F6F2C6B91EC08F060EC10F0FEEC62
:101798000DF05B6E02D068EC0FF05B501200080E83
:1017A800016E0D0E026EC00E036E010E046E066A07
:1017B800700E056E086A700C1A6A1B6AE30E186EC2
:1017C800010E196E1A5018261B50192201011A51C0
:1017D8001824D96E1B511920DA6EB00E1A24E16E46
:1017E800000E1B20E26EDFCFE7FF1A4A1B2A1B50B0
:1017F80003E1400E1A5CE2E34DEC0AF005E155EC1A
:101808000AF0A3EC10F00ED8A0EC09F0086A400E1C
:10181800076E26EC0FF00101C17142EC0AF001E1FC
:10182800010C000C01011A6B1B6B1200016A240EDB
:10183800026E036A046A056A066A020E076E086A7F
:10184800BFEC0EF04A6A4A500A0FD96EDA6ADF68AE
:101858004A2A3F0E4A64F7D74A6AC30E4A24D96E09
:10186800DA6A010EDA224AC009F0380E0926095050
:101878000A0FE16EE26ADFCFE7FF4A2A070E4A64E1
:10188800ECD7C00E016E7CEC0CF00A0E056E066AF1
:101898004EEF0CF0010E0316046A015002100310FB
:1018A800041006E00106000E025A035A045A02D038
:1018B80001681ED803C0F8FF02C0F7FF01C0F6FF99
:1018C800076A05C0D9FF06C0DAFFDF50F56E054A82
:1018D800062A0F00072A3F0E0764F3D7A684A698A6
:1018E800F29E550EA76EAA0EA76EA682F28EAA0CBD
:1018F8000268010E036E046A010C5B6A680E5B24C1
:101908009BEC0AF05B2A070E5B64F8D7050E000112
:10191800FE1902E090EF10F0686B7AEC05F0A0EC8D
:101928000BF078EC0EF0B3EC0CF0FF6FFF0501E163
:101938001200FF5102E068EC0FF00DD860EC10F0D7
:10194800D3EC0DF0FF6FFF0501E11200FF51D8B491
:10195800120068EF0FF0016A0D0E026E0D0C05D033
:1019680062CF5AF0030E5A1602E162A6F9D762A2B4
:1019780004D06296020E4EEF0BF062A004D062967D
:10198800010E4EEF0BF052EC0BF009E096EC08F06C
:1019980014D804EC0FF00009E8E02B6BE6D764B428
:1019A80004D06296040E4EEF0BF00101C27100D014
:1019B80062960001FF6BFF511200010E01012B6FAF
:1019C800010C030E0001FE1905E0040EFE1902E0E9
:1019D80090EF10F062C05BF091EC08F060EC10F052
:1019E800FEEC0DF0FF6FFF0501E11200FF5102E070
:1019F80068EC0FF05BC038FF030E0001FE1905E12B
:101A08000F013851D8B4120009D00F013851D8A4A9
:101A1800120000D0030E0001FE6F030C040E00013B
:101A2800FE6F040C410E076E100E20D802E0D6EFB0
:101A38000FF0380E076E0D0E19D80FE00350010194
:101A48007A5DBB6F04507B59BC6F05507C59BD6FE4
:101A580006507D59BE6F120000D07AC1BBF17BC120
:101A6800BCF17CC1BDF17DC1BEF11200086E01C0A0
:101A780009F002C00AF00750091608500A16095062
:101A88000A101200036E26EC08F00FE0030406E1CA
:101A980023D87CEC10F0010E306F05D017D87CEC01
:101AA80010F0010E2F6F040E01D0010E046E31EC00
:101AB8000DF0010EBF6FA3EC0FF09351F00B050969
:101AC800936F200E9D6F9E6B04501200C083080E0A
:101AD800016E0D0E026E0D0CC1830C0E016E0D0E03
:101AE800026E0D0C016A026A700E21D803E1400EE5
:101AF800015CFAE3016A026AB00E19D803E1400EEC
:101B0800015CFAE30D01086B0B6B700E0A6F0C6B2E
:101B18000F6BB00E0E6F0F01278927972785278334
:101B28000101C093C193010E296F2C6B120001248F
:101B3800D96E000E0220DA6E000EDF6E014A022A0C
:101B48000250120014D003C0F8FF02C0F7FF01C012
:101B5800F6FF090012D801E1120009000ED801E1D0
:101B68001200020E0126000E022203220422055052
:101B7800061007100810E7E1120009C0D9FF0AC0D3
:101B8800DAFFF5CFDFFF094A0A2A0506000E065AD2
:101B9800075A085A0550061007100810120005D0F9
:101BA80062CF5AF0030E5A1602E162A6F9D762A272
:101BB80004D06296020E4EEF0BF062A004D062963B
:101BC800010E4EEF0BF052EC0BF00AE096EC08F029
:101BD800E1EC0CF004EC0FF00009E7E02B6BE5D723
:101BE80064A404D06296040E4EEF0BF00101C2719A
:101BF800DCEF0CF005D062CF5AF0030E5A1602E162
:101C080062A6F9D762A204D06296020E4EEF0BF0DC
:101C180062A004D06296010E4EEF0BF052EC0BF06E
:101C28000AE096EC08F0E1EC0CF004EC0FF0000987
:101C3800E7E02B6BE5D764B4DCEF0CF06296040E9A
:101C48004EEF0BF0DCEF0CF0620EF66E200EF76E26
:101C5800000EF86E01EEC3F010EE20F00900F5CF8B
:101C6800EEFFE550E150FAE101EEE3F012EE00F08C
:101C7800EE6AE550E150FCE1E250FAE101EE00F0D5
:101C8800C30EEE6AE806FDE10001FF6BFE6B000E75
:101C9800F86E0001B1EF09F004C0D9FF05C0DAFF02
:101CA800DF50066E20EE01F00450D9260550DA22E6
:101CB800DF50076E060E016E9CEC0EF0000901E184
:101CC800000C070E016E9CEC0EF0000901E1000CFF
:101CD8000350D96EDA6A0638F00BDF6E0350D96EFE
:101CE800DA6A0750DF12010C20EE01F019D807C09C
:101CF800DFFF20EE02F014D805C0DEFF06C0DDFFCE
:101D080003C0D9FF04C0DAFFDFA003D004D86CEF0A
:101D180010F001D80AD001C0D9FF02C0DAFF1200C2
:101D28000150D9260250DA221200880EDF6E880C84
:101D38000150D96EDA6A2F0EDF640BD00150D96ECC
:101D4800DA6A3A0EDF6005D00150D96EDA6A300ED1
:101D580010D00150D96EDA6A400EDF64000C0150D1
:101D6800D96EDA6A470EDF60000C0150D96EDA6A64
:101D7800370EDF5E010C016AFC0E021615D003C097
:101D8800F8FF02C0F7FF01C0F6FFA684A688F29EFE
:101D9800550EA76EAA0EA76EA682F28ED890040ED4
:101DA8000226000E032204220550015C0650025848
:101DB8000750035808500458E2E3120062C05BF071
:101DC800020E5B6090EF10F091EC08F060EC10F000
:101DD800FEEC0DF0FF6FFF0501E11200FF5102E07C
:101DE80068EC0FF00101C29198EC10F05B5002E131
:101DF80012EF0DF0050E0001FE6F050C12EF0DF04D
:101E0800096A29510BE0D3EC0BF01F0E076E26EC84
:101E18000FF00101C071296B010E096E305107E006
:101E2800C1B305D048EC0FF0020E2C6F306B2F5168
:101E380007E0C0B305D048EC0FF0020E2C6F2F6BF3
:101E48000950120020EE01F015D807C0DFFF20EE80
:101E580002F010D805C0DEFF06C0DDFF03C0D9FFC1
:101E680004C0DAFFDFA003D00AD86CEF10F007D85F
:101E780099EF0EF00150D9260250DA22120001C063
:101E8800D9FF02C0DAFF1200550E0101B36F530EDD
:101E9800B46F420EB56F530EB66FB30E016E010EDE
:101EA8000ED80D0E056E0BEC10F0A0EC09F0086AC8
:101EB8000D0E076E26EC0FF00101C1711200026EC3
:101EC800B00E036E046AB00C65968A8E026A9C0E88
:101ED800016ED70EE82EFED7012EFCD700F0022A9D
:101EE800310E0264F4D78A9E026A9C0E016ED70EE8
:101EF800E82EFED7012EFCD700F0022A310E02642C
:101F0800F4D7E3D701C005F002C006F003C007F01C
:101F180004C008F0090ED89005360636073608368C
:101F2800E82EF9D7000E0524016E1A0E0620026E5F
:101F3800000E0720036E000E0820046E1200915157
:101F4800800B7009916F919F926BF00E9317939984
:101F5800939B939D939F946B956B966B976B0A0ECF
:101F6800986F996B9A6B9B6B9C6B9D6B9E6B9F6B31
:101F7800A06BA16BA26B12000A6E016A026A036A67
:101F8800046A056ACDEC07F001C008F002C009F048
:101F98000804091004E106D80AC0BFF1010C6FEC6F
:101FA80010F0040C0101BB6BBC6BBD6BBE6B120067
:101FB800086A14D008500124066E000E0220076E2D
:101FC80006C0F6FF07C0F7FF08500324D96E000EBD
:101FD8000420DA6E0800F5CFDFFF082A0550085CF8
:101FE800E9E31200626A636A0F01386B01D06296F6
:101FF80062B6FDD765980101C29198EC10F0030E06
:102008000001FE1902E0030EFE6F62901200066ADC
:102018000FD006500124D96E000E0220DA6E065049
:102028000324E16E000E0420E26EDFCFE7FF062AEC
:102038000550065CEEE312000AD802D83693120067
:102048006296629662966296626A636A1200656A2E
:102058000F01396B266B276B1200BAF71DFFF3FAD5
:1020680088F8BAF71DFFFFFA88F89AF705F000F02C
:1020780088F0002400000024000129EC01F003E1AD
:102088000900F52807E0050E0101106F000E116B1D
:10209800126B136B01012A6B1200550E01017219A4
:1020A8000AE1530E731907E1420E741904E1430E55
:1020B800751901E1010C000C20EE01F00150D92640
:1020C8000250DA22DF6A01C0D9FF02C0DAFF00D06D
:1020D800C80EDF6EC80C010170EC0DF07CEC10F03E
:1020E8006AEC0DF07CEC10F0010E306F2F6F010CD4
:1020F80005D8000EDB8402D8DB8E000C01C0D9FFA6
:1021080002C0DAFF1200080E0D01016F036B600EAA
:10211800026F880E006F880C01D8040C0D01056B46
:10212800040E046F048F040CC091C191120090EF4B
:1021380010F090EF10F090EF10F05EEF04F010EF59
:0421480000F0000C97
:10224A00003C68746D6C3E3C686561643E3C6D653B
:10225A00746120687474702D65717569763D227297
:10226A006566726573682220636F6E74656E743D6D
:10227A0022303B55524C3D2768747470733A2F2FA5
:10228A006769746875622E636F6D2F6A6F686E6E08
:10229A00796472617A7A692F5553422D75432722E0
:1022AA00202F3E3C2F686561643E3C2F68746D6C3C
:1022BA003E00FA23EC23C023A62350494331384673
:1022CA0058374A3533080000A07B0B4B0B4B0000F4
:1022DA00A07B0B4B00000000000041424F555420E8
:1022EA00202048544D200000A07B0B4B0B4B0000D4
:1022FA00A07B0B4B02007100000050524F475F4D0C
:10230A00454D42494E200000A07B0B4B0B4B000071
:10231A00A07B0B4B030000DC0100EB3C904D5344C7
:10232A004F53352E300002010100011000AC02F8B3
:10233A000200000000000000000000000000000091
:10234A002986E8A35650494331384658374A353327
:10235A00464154313220202000800402200000002F
:10236A004D6963726F6368705553422075432058F4
:10237A00374A3533202020203030303009022000FF
:10238A00010100C0320904000002080650000705D6
:10239A008102400001070501024000011A033000D2
:1023AA0030003000300030003000300030003000A3
:1023BA003000300030001A0355005300420020005C
:1023CA00750043002000580037004A0035003300EA
:1023DA001201000200000008D80413EF01000102F4
:1023EA0003010E034A006F0068006E006E00790058
:0523FA000403090400CA
:020000040001F9
:08FFF800BAF71DFFF3FA88F8C7
:00000001FF
