:020000040000FA
:08000000EE01F00170143F282D
:04000800883104280F
:04000C0020008C1D27
:1000100007282100991720000A30EA003520EA0B52
:100020000E28F125252671181F2820006E1C122885
:1000300020008C191228252620008C1D1B28C83072
:10004000EA0025263520EA0B212801002300003094
:100050009100083092001514000000001308FF3AC8
:10006000031D080014083F3A080020000A30EC0085
:10007000C730EB00EB0B3A28EC0B382808002400C3
:100080008C018C152100951320001930EA003520D1
:10009000EA0B472826200319062820006E142000AA
:0800A0008C1D062888310028A0
:0400A80000340034EC
:0400AC004030F300ED
:1000B00001308500A03084000301D3267D08031D94
:1000C0000800200001308700A03086007C0803195A
:1000D0007928013A031997287C08123A0319B7289E
:1000E0007C08133A0319EE287C08133C031C0429EE
:1000F000080068086904031D8928003084008330E3
:1001000085001830F300CE260E3086071830F30035
:10011000CE2E6908013A031D08006808C03A031D85
:10012000080023005530DE00AA30DF000800680810
:100130006904031D08002300F830A000FF30A1006F
:10014000A200A300A400A5000430840020006E1CBF
:100150000800A63086001730F30004081E00860A47
:10016000840AF30BAD28FF301E001E00080069084A
:10017000031D08006808031DD52823001D308400D6
:10018000833085000A30F300CE26AB153030840072
:1001900083308500C03086000B30F300CE2621303E
:1001A000CB00DA145730DC00080020006E1C080079
:1001B0006808403A031D08002300A0308600213063
:1001C000AB000330BA000030BC003030BD009230CC
:1001D0008400833085000B30F300CE2E6908031DA8
:1001E00008006808031DFA283B308400833085002E
:1001F00040300229403A031D08007B3084008330E0
:1002000085001730F300CE2E14307C0223009200BC
:1002100092351030920700309100200068082300CA
:1002200091070318920A200069082300920792366A
:10023000910C803095002030F30015140000000070
:1002400013081E0014081E00910A0319920AF30BEA
:100250001D2908002100201C68297D08031D0800B5
:100260007C08123A031D492920006908031D080073
:100270006808403A031D080020006E1C0800220098
:10028000200803194629E53A031D0800E7227114E6
:10029000080013307C02031C08007C087806031D4C
:1002A0000800200068086904031D080022002008D7
:1002B0003A3A031D0800E72221001030C400003044
:1002C000C300C601DC22AE010130A2000230A00052
:1002D000A01C08007D08031D080013307C02031CCD
:1002E00008002030C900A101A301211B0800013032
:1002F0008500490884000008A400C90A8921231C3C
:100300008329A10A7529A31CE7220430A0007114D7
:1003100008002218AC2924082F3C031895293A30EC
:1003200024020318952930309E292408403C0318E4
:100330005B2A4730240203185B2A3730A402A21834
:10034000BF292219D129A219E929221A0C2AA21A95
:10035000222A221B382A5B2A24080D3A0319592A1B
:1003600024080A3A0319592A24083A3A031D5B2A39
:10037000A5010230A600A7010230A200592AA70E4B
:100380002408A704A60B592A103C031C5B2A270843
:10039000AC00A5070430A600A901A8010430A20002
:1003A000592A2608023C0318DA29A90E2408A904B0
:1003B000A603592AA80E2408A804A60B592A29081E
:1003C000A5072808A5070230A600AA010830A20048
:1003D000592AA60B592A2408AA00A5072A08031D92
:1003E000F9290230A600AB01B030AF001030A200F6
:1003F000592A013A031D022A0230A600AD014030FD
:10040000A200592A2408043A031D5B2A0430A600DE
:10041000AE012030A200592AA60B1F2A87012F08FF
:10042000860024082B048100A507AF0AAB01023027
:10043000A600AC0B592AAD014030A200592A240E67
:10044000AB00592A2608013C03182B2A2408031D57
:100450005B2AA603592A2408AE00FE39031D5B2A35
:100460002E08A5070230A600AD014030A200592A8F
:10047000AD0E2408AD04A60B592A2D08A507031DAF
:100480005B2A2A08031D482A2E0803195F2A552AC9
:100490002A1C552A46080319532A4408C800430851
:1004A000C700A8222318A3145B2A0130A20023143A
:1004B0000800231408000130A200231008002808B7
:1004C0003F39C5002908C2002808C039C1004208C8
:1004D0004402031D6F2A4108430203197A2A460881
:1004E00003197A2A4408C8004308C700A822231C1D
:1004F0005B2ADC228501B030840002308700203086
:1005000045078600270803199F2A12001E00C50A06
:10051000451B8C2AA703822A4208C8004108C7004D
:10052000A822231C5B2ADC22C5014030C107031826
:10053000C20AA70B9C2A9F2A20308600822A4608DE
:10054000C7004508C6004208C4004108C300552A38
:10055000403048020318DA2A10304802031CDA2A15
:100560002300A4309500210048362300920021008A
:10057000470C230091000230870020308600203095
:10058000E0001600930016009400E00BC82A9512B4
:1005900055309600AA309600951400000000910A8C
:1005A000031DD32A920A6008031DC12A15112100D8
:1005B00023140800231008004030C00002308700D8
:1005C00020308600FF301E00C00BE32A0800230005
:1005D000843095000030910008309200921AFD2A74
:1005E000151655309600AA309600951400000000AC
:1005F000203091070319920AEE2A151121000800F4
:10060000EB343C3490344D34533444344F3453340D
:1006100035342E34303400340234013401340034A3
:1006200001341034003413341034F83411340034ED
:1006300029348634E834A3345634503449344334AE
:10064000313436344634313434343534353420346E
:100650004634413454343134363420342034203458
:10066000413442344F34553454342034203420340F
:10067000483454344D343C34683474346D346C3400
:100680003E343C34733463347234693470347434BB
:100690003E34773469346E3464346F3477342E34B6
:1006A0006C346F3463346134743469346F346E3451
:1006B0003D342234683474347434703473343A34CE
:1006C0002F342F34673469347434683475346234A9
:1006D0002E3463346F346D342F346A346F3468349D
:1006E0006E346E3479346434723461347A347A34EA
:1006F00069342F345534533442342D3475344334F3
:1007000022343B343C342F347334633472346934D0
:10071000703474343E343C342F34683474346D3463
:100720006C343E34503452344F3447345F344D349B
:0A07300045344D34423449344E3450
:06073A003D001E30990095
:100740002000CB10CC10BD23F501D401D501210030
:100750000130A000C02BFF304106031DCA2E430804
:1007600042044504440447044604031DCA2EA81F3E
:10077000C023F501F201F2156F2E4B104C1008004A
:100780000130F400D42B20005330D90085015630BD
:10079000840001308700A03086000D30F300CE26A3
:1007A0000430F4000D30DD2B20004030A900A801FA
:1007B0004B182817A815A81708002000AD00AC0199
:1007C0004C182C17AC15AC17080020004819EF2B5B
:1007D0000130CB06741A892D74180B2C08000130D7
:1007E000CC06F4198B2DF418F82B7419C02B0800C3
:1007F000751CC32BC72575102030F4000800F518B0
:1008000008000010801C062C80108101741BC02B76
:10081000F41AC32B0800200029081F3A031D212CBD
:1008200022002008553A031D212C2108533A031DAC
:10083000212C2208423A031D212C2308433A031994
:10084000272C2000F5146F254030F400080020000C
:1008500001308500203084008701563086000D303D
:10086000F300CE2622002F082A3A0319642C2F0801
:10087000283A0319682C2F08003A0319752D2F0800
:10088000033A0319B72C2F08123A0319D82C2F0852
:100890001A3A0319F22C2F08253A0319042DBB2507
:1008A0005E085F0460046104031D5A2C0130E200FD
:1008B000C3230800E21F5E2CC7255F2CC125203012
:1008C000F4000130E20008002000E30163156B2C06
:1008D0002000E301E3142200370836040319752DC4
:1008E0003608F7003708F6003108FB00FF00320831
:1008F000FA00FE003308F900FD003408F800FC009F
:100900007F087E042000031DB22C7608D0007708F3
:10091000D1007C08D0077D08D13D0318B22C5108C6
:10092000103C031CB22C031D992C5008133C031CD3
:10093000B22CE401E601E7017635E5000318661400
:100940007735E504031867143925031D0800E8010D
:10095000E901E31CAE2C8B250830B02CD4231030D9
:10096000F40008000530D4002130D5005A2C33089B
:100970000319752D1230F30001308500A03084007A
:100980000301D32623007030A0000A30A700200006
:1009900054082300A200200055082300AC002200C8
:1009A0003308123C0318D62C1230792D3308792DD8
:1009B000330832040319752DCD308400853085004D
:1009C000A0308600013087002430F300CE263208A4
:1009D000031DF02C3308243C031CF02C3308792D24
:1009E0002430792D33080319752D03302300A0001E
:1009F000A101A201A30122003308043C0318022D27
:100A00000430792D3308792D37080139031D152D50
:100A100031083204330434040319152D6F252000E6
:100A20000530D4002430D500080031083204031DFD
:100A3000232D3308103C031C232D031D2A2D3408BD
:100A4000123C03182A2D2300FF30A000A100A200B1
:100A5000A300312D2300A001A1011030A20012300B
:100A6000A300A401A5010230A600A70120000830C0
:100A7000792D2000631C4F2D610860045F045E0423
:100A8000031D462DE201C32362080800E21F4A2D20
:100A9000C7254B2DC1252030F400E2010800E21FDC
:100AA000542DE31C6C2D562D631D6C2D67086102BF
:100AB000031D642D66086002031D642D65085F0236
:100AC000031D642D64085E02031C6C2D031D751448
:100AD0005008F400E20108000230E2006F2D20000F
:100AE000C125C7252030F40008002000E30163146D
:100AF000392D2000E400E501E601E701E301E314FC
:100B00000230D0003925031D08006408DE026408A5
:100B1000DD2B2A218C2D562020004030E8070318B9
:100B2000E90AE91C982DFC0A0319FD0AE801E9010C
:100B30004030E318DD23DE020301DF3BE03BE13B15
:100B40004030E4020301E53BE63BE73B6408650413
:100B500066046704031DB82D631DB52D751CC32BDA
:100B6000C12575102030F40008000230F4000800A0
:100B70006319D423080020000530D4002030D500AC
:100B800008002000CB140430A800A817080020009B
:100B9000CC140430AC00AC170800003480340434AA
:100BA000023420340034003400344D34693463346A
:100BB00072346F346334683470345534533442348F
:100BC000203475344334203431343434353458349B
:100BD0002034203420342034203430343234303443
:020BE0003034AF
:0E0BE2003D009801990190019019F42D9601A3
:100BF000143091002000A001A401A801AC01303004
:100C0000A2000030A3003830A6000030A70020303A
:100C1000AA000130AB00A030AE000130AF00C90126
:100C2000CA01CB01CC01F1013D000E121630980033
:100C3000701C1D2E8E158E1A1B2EF2017214622648
:100C4000F001F0153D00101008003D001018F125CE
:100C5000901D0800000000000F082000C8003D00A3
:100C60009011200078304805031D5C2E4819432E52
:100C70003C302005343A0319922E721D622E013049
:100C8000C9060800622EF21C482E0130CA06742ED6
:100C90006226F11C08004D083D00960020004D081A
:100CA0000319572EF01D5A2EF00170165A2E3D00D2
:100CB00010142000F110080078304805083A031994
:100CC000E52B080020000830A100A001A0170800B3
:100CD000A500A4014A182417A415A4170800A5010B
:100CE0004830A400A41708004F0803198D2E38308F
:100CF000860087014F08083C031C852E4F08F3002F
:100D0000CE264F086826CF0108000830F300CE2613
:100D1000083068260830CF020800711D08007111E4
:100D20000301682EA4018501870130308400403022
:100D300086000830F300CE263D000E122000622609
:100D400049144A1460304005031DAB2B06304106A0
:100D50000319DC2E013041060319222F053041060C
:100D60000319542F0930410603195B2F0030410647
:100D700003196E2F033041060319222F0830410654
:100D80000319942F0A30410603199B2F0B3041069B
:100D90000319A42F0430A400A417080012001E0099
:100DA000F30BCE2E08001A00F30BD32E08005030A0
:100DB00070050319CA2E08004308013A0319E92EE9
:100DC0004308023A0319EF2E4308033A0319F82E99
:100DD000CA2EAB308400873085001230092F4208BC
:100DE000031DCA2EBD308400873085002030092FB6
:100DF00042080319042F013A031DCA2EE130840072
:100E0000873085001A30092FDD3084008730850057
:100E10000430CE004708031D112F46084E02031868
:100E20001E2F4E08CF0007304E050319192F7111E0
:100E30001A2F71157426F201F21408004608CF002B
:100E400071111A2FD7264308031DCA2E1F304005E3
:100E5000023A031DCA2E4208031DCA2E44080F3948
:100E6000D0000319502F701ACA2E023050020318F6
:100E7000CA2E85018701C41B422F4B3084002830C5
:100E80008600462F4C3084002C3086004108013A01
:100E9000031D4C2FFF23502F801404308100811735
:100EA0006F26F201F21508004208CD00F1146F26FA
:100EB000F201F2150800D7264308031DCA2E02309E
:100EC00042020318CA2E6F26F201F215F001421CED
:100ED0006C2F9D237017080070160800D726B801E4
:100EE000B9011F304005D0000319902F013A0319B2
:100EF000902F5008023A03197E2FCA2E44080F394A
:100F0000D0000319902F701ACA2E02305002031815
:100F1000CA2EC41B8E2FCB183814902FCC1838141F
:100F2000F201F2140230682EB801701B3814F2017D
:100F3000F2140130682E44084504031DCA2E701FA8
:100F4000CA2EB8010130682E430842044404031D30
:060F5000CA2EBD236F2E26
:0A0F56001234013400340234003478
:100F6000003400340834D83404347834EB3400349A
:100F700002340034003401340134093402342034A2
:100F80000034013401340034C034323409340434C0
:100F9000003400340234083406345034003407344A
:100FA00005348134023440340034013407340534CC
:100FB000013402344034003401340434033409343D
:100FC00004341A34033431340034323400343334CA
:100FD000003434340034353400343634003437349B
:100FE0000034383400343934003430340034393487
:060FF00000343934003426
:020000040001F9
:02000E008A0B5B
:02001000CF1A05
:00000001FF
