:040000000EEF00F00F
:0400080004EF10F001
:100018000CEF10F0F8EF08F02C0E416E040E426E53
:10002800680E436E446A1F0E456E86EC0AF055EC66
:100038000AF0000901E0F5D01200280E7719010E28
:10004800D8A4020E5A6E7FC009F07EC00AF009508B
:100058000A1008E1000E486E496E4A6E4B6E4C6EEF
:1000680090EF07F0F2D809500524526E0A50062086
:10007800536E000E0720546E000E0820556E555022
:10008800541005E1140E525C100E535807E3050E88
:10009800326E210E316E306A3CEF0AF00950526E12
:1000A8000A50536E546A556A090ED8905236533620
:1000B80054365536E82EF9D752C00BF053C00CF021
:1000C80054C00DF055C00EF00BC048F00CC049F0FC
:1000D8000DC04AF00EC04BF05AC04CF090EC07F03F
:1000E800000901E11200156A166A020E5A1805E1A4
:1000F80091EC0BF0050E2F6E050CECEC0AF0030EDC
:100108002F6E030C2B50A6E02B6ABBEC0BF03CEFD8
:100118000AF07BC013F0146A135014109BE01450BB
:1001280003E1130E135C03E3146A120E136E9ED8D8
:1001380013C043F014C044F0000EC4EC0AF0700E73
:1001480004016C6F32C06EF40A0E736F31C078F41C
:1001580030C079F42FD07BC013F07AC014F013505C
:10016800141001E177D7145003E1250E135C03E363
:10017800146A240E136E410E416E1F0EB9EC06F080
:1001880013C046F0D6EC08F015D07BC013F0146A03
:100198001350141001E15ED7145003E1050E135CEF
:1001A80003E3146A040E136E030E04016C6F6D6B87
:1001B8006E6B6F6B135019EF09F079517A117B113F
:1001C8007C1106E07FB104D0050E326E240E62D792
:1001D8003CD8045003100CE1130E015C100E0258B9
:1001E80007E2566A576A100E586E120E596E04D0FE
:1001F800566857685868596856C06CF457C06DF40B
:1002080058C06EF459C06FF40401706B716B020E24
:10021800726F736B080E19EF09F0E0EC0BF03CEF0E
:100228000AF00001775101E16DD7030A01E171D7A6
:10023800110A91E0080AA9E03F0ABFE00D0A01E1AE
:10024800FCD6020A01E1F9D6E8D77CC001F07BC0F0
:1002580002F07AC003F079C004F001C005F002C0D2
:1002680006F003C007F004C008F012006C0E416EDF
:10027800040E426E040C5A6E5A0E416EB3EC08F02E
:100288001D6E225003E01D5001E10D0C0B0E236E74
:100298000FC056F010C057F0563A573AF00E57169E
:1002A80056500F0B5712F00E56165A5056100F6E26
:1002B8005750106E114A122A225011E10D0E5A1889
:1002C80001E1B3D00A0E5A1801E1AFD03A0E5A181C
:1002D80003E1010E226EA8D00D0E236EA6D02204D3
:1002E8000DE1020E1118121009E10FC021F0110ED4
:1002F8002160F2D721C020F0020E11D0020E221880
:1003080010E1040E111812100CE10FC092F010C089
:1003180093F000019251202693512026030E226E5D
:1003280082D0030E221819E1020E1118121015E1DD
:100338000FC01FF01F5020261F5003E11E6A040E35
:10034800EED71F0402E10A0EEAD7040E1F1802E1D5
:10035800050EE5D70D0E236E66D0040E22180FE1A8
:10036800020E111812100BE170D80FC0DFFF6DD804
:10037800DF5020261E2A21501E5CE5E254D0050ECF
:1003880022181EE1040E111812101AE10F5020262F
:1003980010502026100E566E0FC057F010C058F09F
:1003A800596A562804D0D890573658365936E82E08
:1003B800FAD757C08FF058C090F059C091F0C3D702
:1003C8000A0E221832E1020E111812102EE10F50F7
:1003D8002026205081E11F501AE192C056F093C0A8
:1003E80057F0586A00018F515624496E9051572092
:1003F8004A6E915158204B6ED70E4C6E21C04DF06D
:1004080027EC03F000090EE10D0E236E0BD01F043C
:1004180009E10C0E236E255005E010D8CDEC09F04B
:100428000009F2E0226A010E1C6E1C5005E0116AF8
:10043800126A0F6A106A1C6A23501200F2C046F052
:10044800F3C047F0F4C048F012001E50D70FD96E21
:10045800DA6A1200010E596E5A6A5B6A48D0DA0EDF
:10046800E76F1F0EE86FE711D8A4000EE96F5B6A0B
:10047800120E5A6E596A45D0625143E162D855D876
:1004880065D85FD852D853C056F054C057F055C0FD
:1004980058F0020E5624F66E000E5720F76E000E26
:1004A8005820F86E0900F5CF5AF00A00F5CF5BF036
:1004B800E1D7070E626501D024D06251020DF350D6
:1004C800EA0F33D843D8E7C0F6FFE8C0F7FFE9C022
:1004D800F8FF0800F5505A6E5B6ACCD7E70E416EFC
:1004E8005A0E426E00EC0CF00009C4E10AD000017B
:1004F8006351010AB4E0030ABFE0010ADAE0050A21
:10050800EDE1595004E01FEC05F072EF0BF05AC012
:1005180041F05BC042F066C043F067C044F0000E93
:1005280007EC0AF025EC06F018D0D96EDA6ADECFAF
:1005380051F0DDCF52F051C053F052C054F0556A1B
:1005480012006251020DF350F50F120053C0E7F08C
:1005580054C0E8F055C0E9F01200010E376E010CE6
:1005680062A40ED00F0136A50BD03695050E3818AB
:1005780005E1659233C038F001D0629462B4FDD7CA
:10058800050E381801E1120062A008D0020E3818D2
:1005980002E024EC05F0030E386E629062A808D0E1
:1005A8000F013685658238C033F0050E386E6298C3
:1005B800030E386040D0030C0000000064CF3CF00C
:1005C80062963CD802E0B4EF0BF03CB41BD03CA2DE
:1005D80002D03D8401D03D94010E3CA2000E6CEC8B
:1005E80009F0DF30E8320F0B0D0A03E17BEC05F070
:1005F80022D0020E371803E13D7031EC08F056ECBA
:1006080009F019D0370404E13E7025EC06F013D048
:1006180056EC09F0395001E112003AC038FF030ED8
:10062800381805E13A5003E0040E386E03D03A500A
:1006380001E16280396A62A61200BED73C30E83216
:10064800E8320F0B120049503F0B556EC00E49148B
:10065800506E4A50516E4B50526EF251501806E18E
:10066800F351511803E1F45152180CE025500AE0F7
:1006780022EC02F0CDEC09F0000901E1000C3AD8B7
:10068800C4EC0AF0536A546A06D03BD8400E551899
:1006980004E0534A542A41D8F8E3400E551821E1A2
:1006A80050C046F051C047F052C048F0CDEC09F0B8
:1006B800000901E1000C1ED8C4EC0AF0556A534A3F
:1006C800542A4D50535C000E545804E305D019D8F1
:1006D800534A542A22D8FBE3400E5026000E5122DA
:1006E800522255C025F050C0F2F051C0F3F052C06C
:1006F800F4F0010C970E416E426A446A400E436E54
:10070800FF0C4C50D96EDA6A5550970FE16EE26AC9
:10071800DFCFE7FF552A4C2A12004D504E6E4F6A24
:100728004E50535C4F50545812003AEC01F0446A52
:10073800400E436E000EC4EC0AF005500610071078
:10074800081002E16EEF0AF0050406100710081001
:1007580002E16BEF04F0120E4DD802E175EF06F0DE
:1007680008500710061004E1130E055CD8A012000B
:10077800130E40D818E11550161007E1AB0E416E64
:100788001E0EB9EC06F0400E0BD0400E15181610D0
:10079800D8A41200EB0E416E1E0EB9EC06F0180E2E
:1007A800466ED6EF08F005C041F006C042F007C01B
:1007B80043F008C044F08AEC08F041504D6E42C046
:1007C8004EF043C04FF04F5014E1800E4E5CD8B04D
:1007D80012004DC041F04EC042F04FC043F0400EF1
:1007E800446E456A466A6C0E476E040E486E5FEFAB
:1007F80008F01200051806100710081012002450FF
:1008080038E10150051821E1025006181EE1035095
:1008180007181BE10450081818E1085007100610C3
:1008280003E1130E055C11E3155016100EE13A0EA4
:1008380004012C190AE1275002E087EC0BF07EEC4A
:1008480003F0C4EC0AF0010E246E120EFEEC03F065
:1008580010E1400E151816100CE127500AE00401AB
:100868002C5103E0E50E2C1904E187EC0BF0010E86
:10087800266E2404D8A4120008500710061004E1BC
:10088800130E055CD8A012005C6A5D6A2C0E5C240D
:10089800D96E040E5D20DA6EDF503FEC01F05B6E1E
:1008A8000B0E5B180AE00D0E5B1802E187EC0BF0EB
:1008B800020E246E010E266E010C5C4A5D2A5D5004
:1008C80005E1400E5C5CD8B01200E0D712006C0E57
:1008D800476E040E486E1550161012E147C0D9FF36
:1008E80048C0DAFFF80EDE6EDD6820EE02F040D870
:1008F80020EE04F03DD8000E466E030E456E07D07C
:10090800D8901630416E1530456E41C046F02750DC
:1009180001E1120046502BE1340E455C01E3120060
:100928001F0E4514436E446A445021E11BD0320E19
:100938004518461003E123D81BD8FF0C4528416E03
:10094800000E4620426E1BD84750D9264850DA225E
:1009580041C0DEFF42C0DDFF454A462A434A442AD9
:10096800445005E1200E435CD8B01200E0D71200D5
:100978004750D9264850DA22DE68DD681200D89040
:100988004334D96E4434DA6E1200010E496E4A6A55
:10099800040E381832E0060E38182FE036D03BA087
:1009A80002D04A8001D04A903BA202D04B8001D0AD
:1009B8004B90496A2AD0060E381807E164510F0B8C
:1009C800486E010E486401D020D0060E381803E0A6
:1009D80064510F0B1AE164AF03D0486A482A01D06A
:1009E800486A2BEC08F03D0F4824D96EDA6ADFA27A
:1009F80002D04A8001D04A90DCD7000160511F0B19
:100A0800CEE0010AD6E0030AD6E0495003E013D845
:100A180072EF0BF0240E416E040E426E446A080E0B
:100A2800436E000EC4EC0AF04AC024F4020E20EC17
:100A38000BF0B1EF02F0080E416E040E426E040C8A
:100A48000F01366B376B626A636A266B080E276F75
:100A5800386B3B903B92150E396F416A040E426E1B
:100A6800446A140E436E000EC4EC0AF0040E04012E
:100A7800036F140E026F040E076F1C0E066F040E30
:100A88000B6F240E0A6F3D0E416E426A446A040ED3
:100A9800436E000EC4EC0AF0486A485089EC07F02F
:100AA800485082EC07F0482A010E4864F6D7396AA4
:100AB800346A366A01D0629662B6FDD76598160E1A
:100AC8000F01266F385007E16586010E386E65BA4A
:100AD800FED7020E386E376A658C000000000000F1
:100AE8000000659C56EC09F03D9456EF09F00401AE
:100AF800086B3CA205D01C0E48D886EC0AF004D03E
:100B0800140E43D886EC0AF0659856EC09F03D803F
:100B18003E8000016039E832030B05E031D01FEC5C
:100B280005F072EF0BF0615102E1C9EF04F0010A20
:100B380002E1C3EF06F0020A02E1C3EF06F0060A7B
:100B480002E1ACEF0BF0030A02E12EEF02F0010A1A
:100B580002E1EDEF0BF00F0A02E14EEF0BF0010A94
:100B680002E153EF07F0030A02E10FEF0BF0010A6D
:100B780002E140EF0BF0070A02E1E9EF0BF0CFD7F3
:100B8800F8EC0BF00009CBE01200416E040E426E47
:100B9800600E436E446A080E456E080C9B8C2F0E3F
:100BA800416EC00EE82EFED7412EFCD7040E5F6EB4
:100BB8000C0E5E6E340EE82EFED75E2EFCD75F2E2E
:100BC800FAD79BEC0AF081BC02D027501EE181BC09
:100BD800FED7020E5F6E380E5E6EAD0EE82EFED7A3
:100BE8005E2EFCD75F2EFAD70000939E8A8E266A67
:100BF800DBEC0BF0B4EC02F00BEC07F026500FE145
:100C080081ACF8D7275009E1F5D79B9C00EF10F08D
:100C180004D0B4EC02F00BEC07F081BCFAD7B4ECCA
:100C280002F00BEC07F01B2A080E5E6ECA0EE82EC7
:100C3800FED75E2EFCD7C80E1B18F1E1FF000EEFA1
:100C480000F094C050F00001955103E1090E945D45
:100C580002E3080E506E945195113BE0355020E1A7
:100C6800E7C04DF0E8C04EF04F6A4DC041F04EC0AD
:100C780042F04FC043F0240E446E040E456E50C03F
:100C880046F0D6EC08F050504D6E4E6A4DC0E8FF65
:100C98000001E7274EC0E8FFE823000EE92310D043
:100CA80019C041F01AC042F0240E436E040E446E7F
:100CB80050C045F086EC0AF050501926000E1A2252
:100CC800505020EC0BF050500001945F000E955BE3
:100CD800000C3450D8B41200000E20EC0BF0346A2B
:100CE80012001550161028E1650E416E1F0E3DD8F2
:100CF8000B0E466ED6EC08F0080E0401776F30EC48
:100D08000BF00401726F700E416E1F0E426E41109F
:100D1800D8A4000E436E8C0E446E040E456E0B0E66
:100D2800466ED6EC08F0210E0401976F020EA66FEE
:100D3800580EA86FA96B1200400E15181610D8A4EB
:100D480012002750D8B412007B0E416E1F0E0DD82A
:100D58000B0E466ED6EC08F0210E0401776F030ED9
:100D6800866F886B600E896F600C426E4110D8A444
:100D7800000E436E6C0E446E040E456E040C010E9C
:100D88004B6E040E381831E0060E38182EE033D0BA
:100D98006205631130E1610503E04A6A4A2A01D01D
:100DA8004A6A4A463B504A18FD0B4A183B6E4B6A42
:100DB80022D0625163111FE1060E381807E1645111
:100DC8000F0B4A6E010E4A6401D015D0060E381872
:100DD80003E064510F0B0FE164510F0B03E15CEC6E
:100DE8000BF0E5D7FEEC07F0E2D7000160511F0BCE
:100DF800CFE0020ADEE04B5004E01FEC05F072EF92
:100E08000BF0C9EC0BF000D0030E376E030CA09862
:100E18002A5035E02850870FD96EDA6A0001DFB40E
:100E28000DD03F7006D0CAEC07F022D010EC00F0CD
:100E38001FD02F50FBE0050AF6E01AD0407011D001
:100E4800ECEC0AF015D02E5006E09BEC0BF02E6A65
:100E5800060E2F6E0DD0D8EC0AF00AD0F1EC0BF08C
:100E680007D02F50010AEFE0030AF8E0010AE8E092
:100E7800282A040E281801E1286A2A060ED02C50C8
:100E88000CE0070E2F1803E1F1EC0BF005D0060E6D
:100E98002F1802E1D8EC0AF02C6AA0881200040E80
:100EA800381803E0060E381825E10001635122E1E5
:100EB800020E625D1FE2658C000000000000000069
:100EC800659C476A475021D8475018D8472A010ED1
:100ED8004764F8D7C9EC0BF0030E376E62C036F0E2
:100EE800365005E0FAEC0BF0060E386E060C040ED0
:100EF800386E040C1FEC05F072EF0BF0020DF35086
:100F08003E0FD96EDA6ADF841200020DF3503D0FEE
:100F1800D96EDA6ADF8412004C5011E100014DEC01
:100F28000AF003E1D8EC0AF028D074AF03D09BECA8
:100F38000BF002D0D5EC0BF0060E2F6E1ED0000180
:100F480074AF03D0020E4C181BE074BF02D04C04DF
:100F580017E04850705D495071594A5072594B50CA
:100F680073590EE37051485C7151495872514A588F
:100F780073514B5802E2010E2E6E0001746B010C86
:100F8800CFEC0BF0020E0001746F000CFCEC0BF0C0
:100F980029D801E11FD80CD802E091EF0BF02E50B0
:100FA80002E1D8EF0AF0D5EC0BF02E6A52EF0AF006
:100FB800400E0B5E000E0C5A0D5A0E5A400E0001E0
:100FC800705F000E715B725B735B0B500C100D1041
:100FD8000E101200052A000E062207220822156AA2
:100FE800166A1200400E1526000E1622020E16185A
:100FF8001510120064AF03D0476A472A01D0476A28
:1010080026D84724486E4828496E61050AE164518C
:101018000F0B446E000E64BF010E456E4950A4EFDD
:101028000BF064AF03D0476A472A01D0476A0FD84C
:101038003D0F4724D96EDA6ADF824950040D000E4D
:10104800F324416E040EF420426E72EF0BF000019F
:1010580064510F0B020DF350120017C047F01850DF
:1010680003E1090E175C02E3080E476E3CB205D097
:10107800140E17D886EC0AF004D01C0E12D886EC91
:101088000AF047501926000E1A224750175E000E24
:10109800185A1750181001E01200C9EC0BF008EFAD
:1010A80007F0416E040E426E19C043F01AC044F0B6
:1010B80047C045F0040C800EA66E13D043C0F8FF5D
:1010C80042C0F7FF41C0F6FF090010D801E1120045
:1010D80009000CD801E11200020E4126000E42223E
:1010E8004322445045104610E9E1120047C0D9FF99
:1010F80048C0DAFFF5CFDFFF474A482A4406000E0A
:10110800455A465A445045104610120041C045F011
:1011180042C046F043C047F044C048F0090ED8909A
:101128004536463647364836E82EF9D71550452411
:10113800496E165046204A6E000E47204B6E000E30
:1011480048204C6E000E4924416EF80E4A20426E2B
:10115800FF0E4B20436EFF0E4C20446E1200415090
:10116800D96EDA6A2F0EDF640BD04150D96EDA6A75
:101178003A0EDF6005D04150D96EDA6A300E10D0D1
:101188004150D96EDA6A400EDF64000C4150D96EC6
:10119800DA6A470EDF60000C4150D96EDA6A370E02
:1011A800DF5E010C4C6A1CD04C50476E486A4750B1
:1011B8004124496E485042204A6E000E43204B6E2F
:1011C80049C0F6FF4AC0F7FF4BC0F8FF4C50442413
:1011D800D96E000E4520DA6E0800F5CFDFFF4C2AE5
:1011E80046504C5CE1E31200840EF66E170EF76E63
:1011F800000EF86E00EEEAF010EE0DF00900F5CFE3
:10120800EEFFE550E150FAE100EE87F0630EEE6A7A
:10121800E806FDE100EE01F0400EEE6AE806FDE1A9
:10122800000EF86E0001D2EF05F0516E5150486E75
:10123800496A4A6A4B6A010E4C6E90EC07F0000945
:1012480001E1120051C04DF04E6A4F6A506A4D508C
:10125800705F4E50715B4F50725B5050735B5150D2
:1012680067EC0BF0FBEF0AF06129D8A4000C62517F
:101278006311D8A4000C64516511D8A4000C665100
:10128800671101E0000C04010CAFF1EC0BF02A6AC5
:10129800296A286A2D6A2B6AC9EC0BF0030EE5EC63
:1012A8000BF0010C010E3DA4000E040DF328D96EBD
:1012B800040EF420DA6E080EDF6E010E3DA4000E57
:1012C80007D8DF6A010E3DA4000E02D8C1EF0AF06C
:1012D800040D000EF324D96E040EF420DA6E120009
:1012E800840EA66EF66AF76AF86A456A4450D96EA3
:1012F800DA6ADF50F56E442A0D00452A3F0E456430
:10130800F5D743C0F8FF42C0F7FF41C0F6FF550EBE
:10131800A76EAA0EA76EA682A694AA0C4350D96EF1
:10132800DA6ADFB003D0466A080E02D0466A480E71
:10133800456E0DD845C0DFFF20EE01F04150D9269B
:101348004250DA2244C0DFFF02D8C1EF0AF041C0A0
:10135800D9FF42C0DAFF120004010C6B040E0F6FB4
:101368002C0E0E6F106B040E136F6C0E126F0F01A4
:1013780027892787278527833F924092F5EC0BF032
:101388002D6A2B6A2E6A2C6A2A6A296A286AF1EF62
:101398000BF0485013E17C0E475C10E2485003E123
:1013A800200E475C0BE346C041F047C042F048C0FE
:1013B80043F0970E446E74EC09F0010C485004E1B8
:1013C800800E475C02E3000C000C010C840EA66E34
:1013D80011D043C0F8FF42C0F7FF41C0F6FFA6880E
:1013E800550EA76EAA0EA76EA682D890040E4226A6
:1013F800000E43224450415C4550425846504358E1
:10140800E8E3A6941200466E46C035F04350415CAE
:10141800445042580DE241C094F042C095F041C09A
:1014280045F0070E4516010ED8A4000E346E1200C2
:1014380043C094F044C095F0346A1200436E2D50B6
:1014480001E012000DD8DF900BD8DFA206D008D833
:10145800DF9243506CEC09F0DF6A010E2C6E010C30
:101468004150020DF3503D0F4224D96EDA6A120042
:1014780010D804E1010E746FD8EF0AF074AF03D0EE
:101488009BEC0BF002D0D5EC0BF0010E0001746F51
:1014980005D070517111721173111200060E2F6E62
:1014A800060C1F0E04010D190EE1550E00016819F6
:1014B8000AE1530E691907E1420E6A1904E1430E65
:1014C8006B1901E1010C010E2D6ECFEC0BF0070E2C
:1014D8002F6E000C1550161009E1030E416E1F0EF9
:1014E800B9EC06F03E0E466ED6EF08F0C00E1518A1
:1014F80008E11604D8A41200550E0401AA6FAA0E1A
:10150800AB6F1200466A0FD046504124D96E000EC8
:101518004220DA6E46504324E16E000E4420E26E0B
:10152800DFCFE7FF462A4550465CEEE31200800E07
:10153800A66EF66A200EF76EF86A0900F5CF41F03C
:101548000900F5CF42F0412804E1422802E1276A68
:101558001200010E276E010C20EE01F04150D92631
:101568004250DA22DF6A04D8480EDF6E01D805D06F
:1015780041C0D9FF42C0DAFF1200000EDB8E000C1A
:10158800456E466A476A0AD046504124D96E47508C
:101598004220DA6E45C0DFFF464A472A4350465C80
:1015A80044504758F1E31200530E00016B6F680E68
:1015B800416E426A6C0E436E040E446E0D0E456E0B
:1015C80086EC0AF00D0E67EC0BF0020E2F6E020C83
:1015D800FEEC0BF0F6EC07F002E1EEEC07F0400E43
:1015E80067EC0BF0DCEC07F0D8A4120000D0010E79
:1015F8002F6E010C030E2A6401D0030C2950870FAB
:10160800D96EDA6A3CC0DFFF292A040E291801E1E5
:10161800296A2A2A1200060E38180AE100016451C4
:1016280007E10401246B010E20EC0BF0B1EF02F08E
:101638001FEC05F072EF0BF0416E3EB003D0436A29
:10164800080E02D0436A480E426E42C008F441C0F8
:1016580009F40401088F1200C00EA66EFE0EF66E85
:10166800F7683F0EF86E0900F5CF41F0E00E41161D
:10167800400E4164320C340C64C041F000016251E8
:101688007DEC0BF0000902E0C9EF0BF01FEC05F050
:1016980072EF0BF0060E381803E136C044F001D0A3
:1016A800446A44C024F4010E20EC0BF0B1EF02F0C0
:1016B800610504E13E920401086B12003E821FECB2
:1016C80005F072EF0BF0476E100E416E040E426E7D
:1016D800400E436E47C044F092EF09F005D8040E5F
:1016E800DF6E02D8C1EF0AF041C0D9FF42C0DAFF6D
:1016F8001200426E4250D8A4000C415001E0000C88
:10170800F5EC0BF0010C416A200E426E436A446A04
:101718007C0E456E466AEAEF09F00C0E416E040E27
:10172800426E3F0E436E400E446E92EF09F04082C7
:10173800100E02D872EF0BF0416E040E426E040CCC
:10174800466E44C041F045C042F0465022EF0AF0D0
:1017580062C03AF0010E396EC9EC0BF008EF07F0E1
:1017680022EC03F0010A02E1FEEF0AF01200060E75
:10177800326E280E00D0316E306A1200FA1FEC1F4C
:09178800C01FA61F002000861FEF
:10179200080E416E040E426EB0EF0AF0D5EC0BF06B
:1017A2009BEC0BF052EF0AF03F820C0EA0EC0BF018
:1017B20072EF0BF0010E0F01366F6280010C050E05
:1017C200326E200EBFEF0BF0416E41C037F01200B7
:1017D2001FEC05F072EF0BF01FEC05F072EF0BF04F
:1017E20091EC0BF02F6A12003F904090120038EFFC
:1017F20009F0B0EF09F003EF04F099EF03F0000CE9
:101EAA00003C68746D6C3E3C7363726970743E7773
:101EBA00696E646F772E6C6F636174696F6E3D2211
:101ECA0068747470733A2F2F6769746875622E6329
:101EDA006F6D2F6A6F686E6E796472617A7A692F94
:101EEA005553422D7543223B3C2F736372697074BC
:101EFA003E3C2F68746D6C3E00EB3C904D53444F52
:101F0A0053352E3000020101000110001310F811A0
:101F1A00000000000000000000000000000000298E
:101F2A0086E8A35650494331384658354A35304633
:101F3A004154313620202000800402200000004D48
:101F4A006963726F63687055534220754320583530
:101F5A004A3530202020203031313350494331383E
:101F6A004658354A353041424F555420202048546E
:101F7A004D50524F475F4D454D42494E0902200090
:101F8A00010100C0320904000002080650000705DA
:101F9A008102400001070501024000011A033100D5
:101FAA00320033003400350036003700380039007B
:101FBA003000390039001A0355005300420020004E
:101FCA00750043002000580035004A0035003000F3
:101FDA001201000200000008D80478EB1301010284
:101FEA0003010E034A006F0068006E006E0079005C
:051FFA000403090400CE
:087FF800AEF71DF8F3F807F0E5
:00000001FF
